:0200000280007C
:10000000F0250720D5060800D1060800D106080013
:10001000D1060800D1060800D10608000000000043
:10002000000000000000000000000000D1060800F1
:10003000D106080000000000D1060800D106080023
:10004000D1060800D1060800D1060800D106080034
:10005000D1060800D1060800D1060800D106080024
:10006000D1060800D1060800000000004105080084
:1000700055050800690508007D050800000000001E
:1000800000000000D1060800D1060800D1060800D3
:10009000D1060800D1060800D1060800D1060800E4
:1000A000D106080000000000D1060800D1060800B3
:1000B000D1060800D1060800D1060800D1060800C4
:1000C000D1060800D1060800D1060800D1060800B4
:1000D000D1060800D1060800D1060800D1060800A4
:1000E000D1060800D1060800D1060800D106080094
:1000F000D106080010B5054C237833B9044B13B171
:100100000448AFF300800123237010BD6005072071
:10011000000000006C0B080008B5064B1BB1064838
:100120000649AFF300800648036813B1054B03B1DD
:10013000984708BD000000006C0B0800640507200C
:100140006C0B08000000000010B489014318022461
:1001500044504FF0FF319962196A5A605DF8044BC0
:10016000704700BFC0F8C410704700BF8901052365
:1001700043507047890102234350704700EB8111BF
:100180000869704710B51B20084B9847084C20465B
:1001900000210A46074B984720460021064B984706
:1001A00020460021054B984710BD00BF7906080086
:1001B00000000840490108006501080075010800B9
:1001C000F8B5044609480021094B98472A2707FB40
:1001D00004F7064E0025074C30462946A047B84292
:1001E000FAD302480021044B9847F8BD00000840AC
:1001F0006D0108007D0108007501080010B50E486A
:100200000E4B984700203E210D4B98470D4CA047C0
:100210000028FCD00C4B98470C4A0D4B9A620D4CB1
:10022000A0470028FCD010200B4B98470B4B984759
:100230000148024B984710BD00BD0105A5000720ED
:10024000F50508004906080059060800013F0D2081
:1002500000060E40690608009105080085070800A1
:1002600010B54FF40042134B5A600B20124CA047BC
:100270000C20A0470D20A0470E20A0473B204FF0A8
:1002800060510E4CA04755204FF06051A0475620BA
:100290004FF06051A04768200949A0475C200949F8
:1002A000A04709484FF440714FF00062074B984750
:1002B00010BD00BF501A0E407906080075030800F3
:1002C0007900002801000028000E0E4049040800B3
:1002D0004264B1F1805F16D004D8C1B1B1F1006FB2
:1002E0000AD013E0B1F1405F11D0B1F1605F0ED0E0
:1002F000B1F1205F0AD17047036F016F0B4023EA11
:100300000203036702E0036F134303674260704711
:10031000416412F0010F14BF4166016612F00A0F2A
:1003200014BF0162416212F0020F02D0C0F88010C7
:1003300004E012F0080F18BFC0F88410416101609A
:10034000704700BF10B44164019C0CB1416600E0ED
:1003500001660BB1016500E041650AB1016300E08F
:100360004163016101605DF8044B7047C06C7047E8
:10037000806C704770B582B00D46440904F50014D6
:1003800004F20774660201F0F044B4F1205F30D04B
:1003900006D8B4F1006F0AD0B4F1805F18D049E0FC
:1003A000B4F1405F30D0B4F1605F2DD042E000F096
:1003B0001F000124844030464FF0006122461F4B4D
:1003C000984715F0010F14BF74663466012032E0BF
:1003D00000F01F000124844030464FF08051224637
:1003E000164B984715F0010F14BF74663466012050
:1003F00021E000F01F010124304604FA01F12A46F1
:100400000F4B9847204616E000F01F01012405F02D
:10041000605205EA04030093304604FA01F1B2F198
:10042000605F14BF00220122C5F38003054DA84779
:10043000204600E0002002B070BD00BFD1020800DD
:100440001103080045030800F0B583B007460E46C7
:10045000154602F0F044B4F1205F26D006D8B4F17E
:10046000006F0AD0B4F1805F13D034E0B4F1405F84
:100470001FD0B4F1605F1CD02DE04FF00061324618
:10048000164B984715F0010F14BF7E663E6601209B
:1004900022E04FF080513246104B984715F0010F83
:1004A00014BF7E663E66012016E00D4B9847012082
:1004B00012E005F0605205F0010300933846314622
:1004C000B2F1605F14BF00220122C5F38003054C26
:1004D000A047012000E0002003B0F0BDD1020800D9
:1004E00011030800450308002DE9F04104460E46BB
:1004F000104B9847054620460F4B9847054017D0AC
:100500000E4F07F10C046C3754F80C3CB3420AD17F
:1005100054F8081C294206D023683046984754F8FE
:10052000083C25EA0305BC4202D01034002DEBD173
:10053000BDE8F0816D030800710308007C05072009
:1005400008B502480B21024B984708BD000E0E402B
:10055000E904080008B502480C21024B984708BD81
:1005600000100E40E904080008B502480D21024BB6
:10057000984708BD00120E40E904080008B502487B
:100580000E21024B984708BD00140E40E9040800F4
:10059000174B1A6B22F07002104318639B6E13F016
:1005A000080F09D14FF40063114901E0013B19D054
:1005B0008A6E12F0080FF9D00D4B1A6B22F003026D
:1005C00042F002021A63986E10F008000CD14FF44A
:1005D0000063074901E0013B08D08A6E12F0080F62
:1005E000F9D0704701207047002070470120704704
:1005F00000060E4038B111490B6A114A1A40114BDE
:1006000013430B6270470D4A136A23F45C1323F003
:10061000030343F45C1343F00103090289B20B4363
:100620001362936E13F0010FFBD0044A136A43F078
:100630009B7343F480331362704700BF00060E4083
:10064000FCFFC8FE02003701024B986E00F48030B8
:10065000704700BF00060E404FF00052014B9A62F7
:10066000704700BF00060E40024B986E00F002007B
:10067000704700BF00060E402C2820D81F280DD838
:10068000124B9A69012383401A40934219D00123E7
:1006900003FA00F00D4B1861002070470B4BD3F8A4
:1006A00008212038012383401A4093420BD00123B4
:1006B00003FA00F0054BC3F8000100207047012049
:1006C0007047002070470020704700BF00060E40B2
:1006D000FEE700BF10B51E4B1E4A9A4203D01E4BC8
:1006E0001B4A9A4204D31D4B1D4A9A420FD31AE06B
:1006F0001C4B1D4CE41A24F003040434002314485A
:1007000014495A581A500433A342FAD1EBE7174B55
:100710001749C91A21F003011A1D1144002243F898
:10072000042F8B42FBD1134A22F0604323F07F0356
:1007300011498B6002F16042B2F5801F03D28A68D2
:1007400042F000528A600D4B98470D4B9847FEE7E8
:10075000000007206C0B080060050720EC0507204F
:100760006005072004000720630507205C050720BB
:10077000E70507200000080000ED00E0F909080087
:10078000650908003E4B1B6B03F00303032B5FD886
:10079000DFE803F0020E2B2B3A4B5B6913F0800F5E
:1007A00014BF4FF400424FF4FA42374B1A604FE047
:1007B000334B1B6A13F0807F03D0344A324B1A60EC
:1007C00046E0334A304B1A602D4B1B6A03F070032E
:1007D000102B02D0202B04D03AE02E4A2A4B1A606C
:1007E00036E02A4A284B1A6032E0254B1B6A13F088
:1007F000807F03D0254A244B1A6012E0244A224B02
:100800001A601F4B1B6A03F07003102B02D0202BC1
:1008100004D006E01F4A1C4B1A6002E01B4A1A4B28
:100820001A60174B1B6B03F00303022B0DD1144B03
:10083000986A996A144BC0F30A401A6800FB0222B6
:10084000C9B2B2FBF1F21A6002E0134A0E4B1A6011
:100850000B4B1B6B03F07003702B07D10A4B1A680C
:100860000E49A1FB020252081A607047044B196B33
:10087000054BC1F302111A68CA401A60704700BFE5
:1008800000060E40101A0E402C010720001BB70076
:1008900000093D0000127A00001C4E0EABAAAAAA65
:1008A00038B5044C4FF080652563034B984765636A
:1008B00038BD00BF00100E40C10108002DE9F04115
:1008C000FA281BDDA0F1FA03002B40DDC0F5036719
:1008D000043740F23A74204E40F24C481F4D2046F7
:1008E000B0474046A847C4F567600430B04741F2BE
:1008F0008240A847013CBC42F1D128E0F92818DC2D
:10090000002824DD00F23A7740F23A74124E40F2A9
:100910004C48124D2046B0474046A847C4F5676092
:100920000430B04741F28240A8470134BC42F1D1C3
:100930000DE040F23A70084DA84740F24C40074C99
:10094000A04740F23A70A84741F28240A047FA22FD
:10095000034B1A60BDE8F081A1080800C10108003E
:1009600030010720F8B51A4B98471A4B98470B20CF
:10097000194CA0470C20A0470D20A0470E20A047EF
:10098000164B9847164B4FF080621A61C3F8A020AF
:1009900040F23A70134DA84740F24C40124CA04729
:1009A00040F23A70A84741F28240A0470F4C104FE6
:1009B000104E20687D302060B84730460A4DA84769
:1009C00020687D382060B8473046A847F1E700BF6F
:1009D000FD01080061020800790608008501080091
:1009E00000100E40A1080800C101080030010720D6
:1009F000BD08080020A1070070B50F4E0F4D761BF3
:100A0000B61007D0043D0024013455F8043F984740
:100A1000A642F9D10A4E0B4D00F096F8761BB6109F
:100A200008D0043D0024013455F8043F9847A642FD
:100A3000F9D170BD70BD00BF540B0800540B080005
:100A40005C0B0800540B0800024B13B1024800F085
:100A500005B8704700000000690A08000146002040
:100A60000246034600F018B838B5094D094C641B1E
:100A7000A41018BF05EB840505D0013C55F8043DD2
:100A80009847002CF9D1BDE8384000F067B800BFA6
:100A9000680B08006C0B0800F0B5274C85B0266881
:100AA0000746D6F84841002C40D065681F2D1EDD52
:100AB000224818B94FF0FF3005B0F0BD4FF4C870B0
:100AC000039102920193AFF3008003990446029AC6
:100AD000019B0028EED0D6F84851002025606060C8
:100AE0000546C6F84841C4F88801C4F88C013FB9EE
:100AF0006B1C00200235636044F8251005B0F0BD82
:100B00000126AE4004EB8500C0F88820D4F8882187
:100B1000022F42EA0602C4F88821C0F80831E7D162
:100B2000D4F88C311E43C4F88C61E1E706F5A67455
:100B3000C6F84841B9E700BF440B080000000000B8
:100B40004300000038010720F8B500BFF8BC08BC1E
:100B50009E467047490A080019010800F8B500BF11
:0C0B6000F8BC08BC9E467047F500080079
:100B6C004FF48063204A136002F5007213601F4B30
:100B7C001B6A13F0807F07D11D4A1C4B1A621A4660
:100B8C00936E13F0010FFBD01A4A184B1A621A46D7
:100B9C00936E13F4803FFBD0144B1A6B22F00302BC
:100BAC0042F001021A631A46936E13F0080FFBD041
:100BBC00114A0E4B9A621A46936E13F0020FFBD039
:100BCC0011220A4B1A631A46936E13F0080FFBD0CE
:100BDC001222064B1A631A46936E13F0080FFBD0C1
:100BEC00064A074B1A607047000A0E4000060E407A
:100BFC000908370009083701013F0D2000BD010528
:100C0C002C0107201B4B984206D800231A4A13606C
:100C1C0002F5007213607047184B984207D84FF4D6
:100C2C008073154A136002F5007213607047144B01
:100C3C00984207D84FF400730F4A136002F5007204
:100C4C00136070470F4B984207D84FF440730A4A11
:100C5C00136002F50072136070470B4B984294BFFF
:100C6C004FF480634FF4A063034A136002F50072E3
:100C7C0013607047BFEA2101000A0E407FF0FA02B0
:100C8C00FF8FD003FFB3C4047F4A5D0500093D000C
:100C9C00FA000000000000000000000024040720FF
:100CAC008C040720F4040720000000000000000062
:100CBC000000000000000000000000000000000028
:100CCC00000000000000000000000000400B0800C5
:100CDC000000000000000000000000000000000008
:100CEC0000000000000000000000000000000000F8
:100CFC0000000000000000000000000000000000E8
:100D0C0000000000000000000000000000000000D7
:100D1C0000000000000000000000000000000000C7
:100D2C0000000000000000000000000000000000B7
:100D3C0000000000000000000000000000000000A7
:100D4C0001000000000000000E33CDAB34126DE644
:100D5C00ECDE05000B0000000000000000000000AD
:100D6C000000000000000000000000000000000077
:100D7C000000000000000000000000000000000067
:100D8C000000000000000000000000000000000057
:100D9C000000000000000000000000000000000047
:04000003800006D59E
:00000001FF
