S013000050325F737479726E696E672E73726563B2
S214080000B02A07206908080065080800650808007F
S2140800106508080065080800650808000000000074
S214080020000000000000000000000000650808004E
S2140800306508080000000000650808006508080054
S21408004065080800650808006508080065080800CF
S21408005065080800650808006508080065080800BF
S214080060650808006508080000000000D5060800B6
S214080070E9060800FD060800110708000000000051
S2140800800000000065080800650808006508080004
S214080090650808006508080065080800650808007F
S2140800A065080800000000006508080065080800E4
S2140800B0650808006508080065080800650808005F
S2140800C0650808006508080065080800650808004F
S2140800D0650808006508080065080800650808003F
S2140800E0650808006508080065080800650808002F
S2140800F06508080010B5054C237833B9044B13B1CE
S2140801000448AFF300800123237010BDD4090720EC
S21408011000000000E074080008B5064B1BB106484E
S2140801200649AFF300800648036813B1054B03B1D0
S214080130984708BD00000000E0740800D8090720AA
S214080140E0740800000000002DE9F0410C469046D7
S21408015060B9002A0EDD8F18094E0A4D3068214610
S2140801602B6898470134BC42F8D106E04FF0FF30C0
S214080170BDE8F0810020BDE8F0814046BDE8F0818A
S214080180A80A0720A00A072010B4890143180224E9
S21408019044504FF0FF319962196A5A605DF8044B73
S2140801A0704700BFC0F8C410704700BF8901052318
S2140801B043507047890102234350704700EB811172
S2140801C0086970471A4B10221A61C3F8A020A3F5D5
S2140801D000734FF080621A61C3F8A020154A4FF4E6
S2140801E080431361C2F8A0304FF400435361C2F84D
S2140801F0A030114B02215961C3F8A010082159619B
S214080200C3F8A0104FF400715961C3F8A01001217B
S2140802105961C3F8A01004215961C3F8A010402101
S2140802205961C3F8A01080235361C2F8A030704704
S21408023000120E40000E0E4000140E40436913F0E4
S214080240020F1DBFC1F30801C161002001207047DD
S214080250436913F0010F05D08369C3F308030B60E5
S21408026000207047012070472DE9F0410E461546DC
S214080270013802280FD892B10024DFF83C800D4FD1
S214080280D8F80000315D3B68984700280ADB01343F
S214080290A542F5D10AE04FF0FF30BDE8F081002016
S2140802A0BDE8F0814FF0FF30BDE8F0812046BDE89C
S2140802B0F08100BFA40A0720A80A072010B4AC23C0
S2140802C003600A684B68B2FBF3F31B095C1E4FF623
S2140802D0FE7294420AD803628B68436040F2022397
S2140802E0C0F8203150230360002000E001205DF8AC
S2140802F0044B7047436913F0020F1ABFC161002010
S21408030001207047436913F0010F1DBF83690B7006
S21408031000200120704700BF10B51B20084B9847E7
S214080320084C204600210A46074B984720460021DD
S214080330064B984720460021054B984710BD00BF3E
S2140803400D0808000000084089010800A5010800FB
S214080350B5010800F8B5044609480021094B984736
S2140803602A2707FB04F7064E0025074C3046294681
S214080370A047B842FAD302480021044B9847F8BD74
S21408038000000840AD010800BD010800B5010800DE
S21408039010B50E480E4B984700203E210D4B984747
S2140803A00D4CA0470028FCD00C4B98470C4A0D4B28
S2140803B09A620D4CA0470028FCD010200B4B98479B
S2140803C00B4B98470148024B984710BD00BD0105E6
S2140803D0A500072089070800DD070800ED070800C4
S2140803E0013F0D2000060E40FD07080025070800FF
S2140803F01909080010B54FF40042134B5A600B2039
S214080400124CA0470C20A0470D20A0470E20A0475E
S2140804103B204FF060510E4CA04755204FF06051DE
S214080420A04756204FF06051A04768200949A047CA
S2140804305C200949A04709484FF440714FF0006214
S214080440074B984710BD00BF501A0E400D0808000D
S214080450090508007900002801000028000E0E4053
S214080460DD0508004264B1F1805F16D004D8C1B13A
S214080470B1F1006F0AD013E0B1F1405F11D0B1F1CD
S214080480605F0ED0B1F1205F0AD17047036F016F2D
S2140804900B4023EA0203036702E0036F1343036774
S2140804A042607047416412F0010F14BF416601664E
S2140804B012F00A0F14BF0162416212F0020F02D056
S2140804C0C0F8801004E012F0080F18BFC0F88410B7
S2140804D041610160704700BF10B44164019C0CB1D3
S2140804E0416600E001660BB1016500E041650AB1AE
S2140804F0016300E04163016101605DF8044B7047E9
S214080500C06C7047806C704770B582B00D46440961
S21408051004F5001404F20774660201F0F044B4F11E
S214080520205F30D006D8B4F1006F0AD0B4F1805FEF
S21408053018D049E0B4F1405F30D0B4F1605F2DD0F8
S21408054042E000F01F000124844030464FF000616E
S21408055022461F4B984715F0010F14BF7466346681
S214080560012032E000F01F000124844030464FF09E
S21408057080512246164B984715F0010F14BF746633
S2140805803466012021E000F01F010124304604FAF9
S21408059001F12A460F4B9847204616E000F01F0147
S2140805A0012405F0605205EA04030093304604FA75
S2140805B001F1B2F1605F14BF00220122C5F3800387
S2140805C0054DA847204600E0002002B070BD00BFD9
S2140805D065040800A5040800D9040800F0B583B02F
S2140805E007460E46154602F0F044B4F1205F26D0C2
S2140805F006D8B4F1006F0AD0B4F1805F13D034E0A7
S214080600B4F1405F1FD0B4F1605F1CD02DE04FF00E
S21408061000613246164B984715F0010F14BF7E66E8
S2140806203E66012022E04FF080513246104B984734
S21408063015F0010F14BF7E663E66012016E00D4BCE
S2140806409847012012E005F0605205F00103009378
S21408065038463146B2F1605F14BF00220122C5F366
S2140806608003054CA047012000E0002003B0F0BD41
S21408067065040800A5040800D90408002DE9F0411F
S21408068004460E46104B9847054620460F4B98479B
S214080690054017D00E4F07F10C046C3754F80C3C85
S2140806A0B3420AD154F8081C294206D023683046BB
S2140806B0984754F8083C25EA0305BC4202D0103493
S2140806C0002DEBD1BDE8F0810105080005050800FE
S2140806D0F009072008B502480B21024B984708BDC9
S2140806E0000E0E407D06080008B502480C21024B95
S2140806F0984708BD00100E407D06080008B5024859
S2140807000D21024B984708BD00120E407D060800D2
S21408071008B502480E21024B984708BD00140E4043
S2140807207D060800174B1A6B22F0700210431863F8
S2140807309B6E13F0080F09D14FF40063114901E0CE
S214080740013B19D08A6E12F0080FF9D00D4B1A6BC0
S21408075022F0030242F002021A63986E10F00800B4
S2140807600CD14FF40063074901E0013B08D08A6EBC
S21408077012F0080FF9D07047012070470020704724
S2140807800120704700060E4038B111490B6A114A1D
S2140807901A40114B13430B6270470D4A136A23F431
S2140807A05C1323F0030343F45C1343F001030902CC
S2140807B089B20B431362936E13F0010FFBD0044A01
S2140807C0136A43F09B7343F480331362704700BF89
S2140807D000060E40FCFFC8FE02003701024B986E6A
S2140807E000F48030704700BF00060E404FF00052FD
S2140807F0014B9A62704700BF00060E40024B986E87
S21408080000F00200704700BF00060E402C2820D8D3
S2140808101F280DD8124B9A69012383401A40934229
S21408082019D0012303FA00F00D4B18610020704719
S2140808300B4BD3F808212038012383401A409342F3
S2140808400BD0012303FA00F0054BC3F80001002083
S214080850704701207047002070470020704700BF8F
S21408086000060E40FEE700BF10B51E4B1E4A9A4211
S21408087003D01E4B1B4A9A4204D31D4B1D4A9A426C
S2140808800FD31AE01C4B1D4CE41A24F0030404345E
S2140808900023144814495A581A500433A342FAD16C
S2140808A0EBE7174B1749C91A21F003011A1D114423
S2140808B0002243F8042F8B42FBD1134A22F06043F0
S2140808C023F07F0311498B6002F16042B2F5801F66
S2140808D003D28A6842F000528A600D4B98470D4B47
S2140808E09847FEE700000720E0740800D4090720B0
S2140808F0B00A0720D409072004000720D7090720D4
S214080900D0090720AB0A07200000080000ED00E029
S214080910ED0D0800D10C08003E4B1B6B03F00303DB
S214080920032B5FD8DFE803F0020E2B2B3A4B5B69EC
S21408093013F0800F14BF4FF400424FF4FA42374BBF
S2140809401A604FE0334B1B6A13F0807F03D0344A9B
S214080950324B1A6046E0334A304B1A602D4B1B6AFE
S21408096003F07003102B02D0202B04D03AE02E4A56
S2140809702A4B1A6036E02A4A284B1A6032E0254B82
S2140809801B6A13F0807F03D0254A244B1A6012E0B6
S214080990244A224B1A601F4B1B6A03F07003102B65
S2140809A002D0202B04D006E01F4A1C4B1A6002E037
S2140809B01B4A1A4B1A60174B1B6B03F00303022BD8
S2140809C00DD1144B986A996A144BC0F30A401A68FA
S2140809D000FB0222C9B2B2FBF1F21A6002E0134A27
S2140809E00E4B1A600B4B1B6B03F07003702B07D172
S2140809F00A4B1A680E49A1FB020252081A60704791
S214080A00044B196B054BC1F302111A68CA401A60E9
S214080A10704700BF00060E40101A0E402C01072033
S214080A20001BB70000093D0000127A00001C4E0E9D
S214080A30ABAAAAAA094B1B6813B9094A074B1A603E
S214080A40064B1B681A180749914204DB1046034AEE
S214080A501060184670474FF0FF307047600A07204E
S214080A60B02A0720FC7F08204FF0FF30704700BFF1
S214080A704FF400534B600020704700BF01207047BA
S214080A8000207047F0B583B004460D460023019356
S214080A901F4B984207D11F461E4E38462946B04778
S214080AA00028FAD119E01C4B984209D11F461B4E64
S214080AB0384601A9B0470028FAD1019B2B7019E0E7
S214080AC0174B984209D11E46144C304601A9A04738
S214080AD00028FAD1019B2B7018E0124B9C4209D1D2
S214080AE01E460E4C304601A9A0470028FAD1019BA5
S214080AF02B700BE00C4B9C4208D11E46074C304628
S214080B0001A9A0470028FAD1019B2B7003B0F0BDBD
S214080B1000080E400503080000800940510208003E
S214080B2000C0094000000A4000400A4070B50C4664
S214080B30214B984207D11E46204D30462146A847ED
S214080B400028FAD12BE01E4B984207D11E461D4DB1
S214080B5030462146A8470028FAD122E01A4B984288
S214080B6007D11E46174D30462146A8470028FAD119
S214080B7019E0164B984207D11E46124D30462146BC
S214080B80A8470028FAD110E0114B98420FD11E460C
S214080B900C4D30462146A8470028FAD109E0012026
S214080BA070BD012070BD012070BD012070BD002001
S214080BB070BD012070BD00BF00080E40F502080099
S214080BC0008009403D02080000C0094000000A40B5
S214080BD000400A4038B5034C10252563024B984759
S214080BE0656338BD00120E40550308002DE9F04F26
S214080BF087B082462A4CE56B2A4BD86BD96BDA6BE2
S214080C00C5F3C035C0F3400005EB4000C1F3C00192
S214080C1000EB8101C2F3402201EBC202DFF8A49088
S214080C20C9F80020204E4FF080673763DD6BD86B1D
S214080C30D96BE36BDFF890B005F00105C0F38000D0
S214080C4005EB4000C1F3801100EB8101C3F3C0132C
S214080C5001EBC303CBF800304FF48045256301A8A9
S214080C601249134B984701A8DFF86080C047DBF8A5
S214080C700010D9F80030C91A51440E4B1A6802FB06
S214080C8001F2FA320C4B1A600C48C047776365636A
S214080C904FF47A700A4B984707B0BDE8F08F00BF4C
S214080CA0000E0E4000140E4000100E40DC720800C5
S214080CB0091008003001072034010720EC720800EC
S214080CC055030800680A0720640A07203D0E080036
S214080CD030B589B02D4B98472D4B98470B202D4C97
S214080CE0A0470C20A0470D20A0470E20A0472A4B5F
S214080CF098470820A047294D294B1D60294A2A4BAA
S214080D001A602A4A2A4B1A602A4B01934FF4E13399
S214080D1002934FF4006303930820A047284601A9CE
S214080D20254B9847254D2B6898680021244CA047EA
S214080D302B6858680021A047224B984740F23A7023
S214080D40214DA84740F24C40204CA04740F23A704C
S214080D50A84741F28240A0471D481E4CA0471E4B9C
S214080D604FF080625A634FF480411C4A5163DA6B35
S214080D7004A81B49C2F380621A4B984704A8A047E8
S214080D800025194C2846A047FCE700BF9103080039
S214080D90F50308000D0808001903080000080E40AF
S214080DA0A80A07202D0B0800A40A0720850A0800B1
S214080DB0A00A072000BD0105BD020800600507203F
S214080DC0F90E0800C5010800D50B080055030800F1
S214080DD0FC7208003D0E080000100E40000E0E4083
S214080DE00073080009100800ED0B080070B50F4ED8
S214080DF00F4D761BB61007D0043D0024013455F875
S214080E00043F9847A642F9D10A4E0B4D06F052FB0E
S214080E10761BB61008D0043D0024013455F8043F6C
S214080E209847A642F9D170BD70BD00BFC0740800CF
S214080E30C0740800C8740800C07408000FB410B561
S214080E40074B82B004AC54F8042B18682346816814
S214080E50019401F0ABFB02B0BDE8104004B0704747
S214080E6060050720F0B4840743D0541E002A3ED0FD
S214080E70CDB2034603E0621E002C38D0144603F8B1
S214080E80015B9A07F7D1032C2AD9CDB245EA052586
S214080E900F2C45EA054515D9A4F110073F0903F1BB
S214080EA0100606EB07161A46156055609560D5605D
S214080EB01032B242F8D104F00F040137032C03EBCA
S214080EC007130DD91E462246043A032A46F8045B41
S214080ED0FAD8221F22F003020432134404F0030453
S214080EE02CB1C9B21C4403F8011BA342FBD1F0BCC9
S214080EF0704714460346C6E700290CBF02220022A4
S214080F004FF4806300F000B82DE9F0413C4D0446EC
S214080F102D68884616461F4615B1AB6B002B4FD07A
S214080F20022E30D8002F2EDB2846214603F074FA0E
S214080F30A38900226260A2611A0628D423F08303DC
S214080F409BB2022EA3812DD0B8F1000F3CD0012E03
S214080F5013D09BB203F008002A4A80B2EA63C4F8AA
S214080F600080C4F81080676178B113F0030F18BFCB
S214080F700027A7600020BDE8F08143F001037A420D
S214080F80A381A261E5E74FF0FF30BDE8F08128466F
S214080F90216903F0A1FBA389022E23F083039BB2E9
S214080FA0A381D1D1002004F1430243F002030025B7
S214080FB00121A381A560226022616161BDE8F081FC
S214080FC0284603F045FAABE7002F08BF4FF48067C2
S214080FD0384603F07BFE804628B1A38943F0800399
S214080FE09BB2A381B3E74FF4806003F06FFE8046A0
S214080FF018B9A3894FF0FF30D5E74FF48067ECE7C0
S21408100060050720454408000EB4F0B59CB021AC36
S21408101054F8042B0E49064623464FF4027E6FF01A
S214081020004508684FF6FF7702A9029606960194CF
S214081030ADF814E004950795ADF8167000F00AF8B8
S214081040029B00221A701CB0BDE8F04003B070473F
S214081050600507202DE9F04FC9B010930C91914612
S2140810600D9003F0BFFD0068159004F063FF0C9C1C
S2140810701890A3891E0603D52369002B01F08180EA
S21408108038ACA44608942B9400250024CDE91645D0
S214081090002311932D932C931A9319930E93664657
S2140810A099F80030002B00F0F880252B00F0F5802A
S2140810B009F1010201E0252B04D013781446013209
S2140810C0002BF8D1C9EB04057DB12C9B2D9A013372
S2140810D02A44072BC6F8009075602D922C9300F3CF
S2140810E0C28008360E9828440E902378002B00F00D
S2140810F0C280002394F801801A468DF88F300F932B
S214081100099304F101094FF0FF340A9409F1010923
S214081110A8F12003582B00F2C583DFE813F06A0213
S214081120C303C3037102C303C303C303C303C303D5
S214081130C30314036603C3039D00C000C3037802F9
S2140811407F027F027F027F027F027F027F027F028A
S2140811507F02C303C303C303C303C303C303C30397
S214081160C303C303C30390027103C3037103C3031A
S214081170C303C303C3036A03C303C3037800C303D9
S214081180C303C303C303C3035900C303C303AF02A4
S214081190C303C303C303C303C303C303C303C30312
S2140811A0C303C30337034803710371037103FF02C4
S2140811B04803C303C3030803C303C5027C00200314
S2140811C0A303C303D902C3035F00C303C303DE003C
S2140811D0DDF824C04CF0100CCDF824C0099CA206FB
S2140811E000F15483099CE30600F1BD85DDF824C0B0
S2140811F01CF0400F00F0B785DDF840C00025BCF8AD
S21408120000400CF1040C0123CDF840C08CE0099D89
S21408121045F010050995DDF824C01CF0200340F0C1
S2140812202A83DDF824C01CF0100240F0A485DDF8FF
S21408123024C01CF0400300F09E85DDF840C013462D
S214081240BCF800400CF1040C0025CDF840C06BE05B
S2140812500F9C109364420F94099D45F00405099568
S21408126099F8008052E70D980C992BAA04F092FE84
S21408127040B938AE36E72D9B23B10D980C992BAAAA
S21408128004F088FE0C9C0E98A38913F0400F18BF34
S2140812904FF0FF3049B0BDE8F08F4C4625E799F887
S2140812A0008009F10100B8F12A0F01F00C81A8F1BD
S2140812B03003092B98BF002101F26B8010F8018BD0
S2140812C001EB810103EB4101A8F13003092BF5D9A5
S2140812D041EAE1710A9181461AE7099DA14CAF06D9
S2140812E01A948DF88F2040F1D181DDF840C00CF1BA
S2140812F0070323F0070303F108041094D3E9004515
S214081300DDF824C01CF0010F00F0628454EA0500E2
S21408131000F05E8430234CF0020C8DF890308DF887
S2140813209180CDF824C002234FF0000A8DF88FA0D4
S2140813300A99002905DBDDF824C02CF0800CCDF8CE
S21408134024C054EA050040F0C5820A99002940F0F6
S214081350C182002B40F03884DDF824C01CF0010F51
S21408136000F0328448AF3023089D07F8413DEC1B57
S214081370DDF828C000256445A8BFA446CDF82CC0D3
S2140813801495BAF1000F02D00B9D01350B95099BF9
S21408139013F00203129302D00B9D02350B95DDF86D
S2140813A024C01CF0840CCDF84CC040F090820F9DF1
S2140813B0DDF82CC0CCEB050BBBF1000F40F38782A1
S2140813C0BBF1100F2D992C9ADFF8A0A12CDD1B97E6
S2140813D0304657461025CA460C9EA1460D9C06E088
S2140813E0ABF1100BBBF1100F00F1080017DD01324E
S2140813F01031072A2D912C9207604560F0DD2046B3
S21408140031462BAA04F0C6FD00287FF43BAFABF1AB
S214081410100BBBF1100F2D992C9A38A8E7DC4C4618
S214081420D146BA461B9F064601320BEB010C072A2B
S214081430CDF8B4C02C9286E8000C00F31A849DF808
S2140814408FA00836BAF1000F0FD02C9B0CF1010CB8
S21408145001330DF18F010122072BCDF8B4C02C9370
S21408146086E8060000F3A4830836129B73B12C9B0B
S2140814700CF1020C013324A90222072BCDF8B4C0C4
S2140814802C9386E8060000F387830836139D802D84
S21408149000F0CA820A9DC4EB050ABAF1000F3BDDCC
S2140814A0BAF1100F2C9B304D2BDD0A9432464FF0C4
S2140814B0100B2E4661460D9C0C9D06E0AAF1100AFC
S2140814C0BAF1100F02F1080217DD01331031072BAD
S2140814D02D912C9382E84008F0DD204629462BAA59
S2140814E004F058FD00287FF4CDAEAAF1100ABAF130
S2140814F0100F2D992C9B38AAE7DC0A9C35468C469B
S21408150016460133D444072BCDF8B4C02C9386E88E
S214081510200400F335830836099DED0500F1248282
S2140815202C9BA4440133072BCDF8B4C037607460F5
S2140815302C9300F30F830836099C630749D50F9D43
S2140815400B982C1A002C44DD102C2C9BDFF81CA0C2
S2140815502BDD574610256246DDF83080DDF834A0CE
S2140815600BE000BF4C730800187308006C73080083
S214081570103C102C06F1080615DD01331032072B37
S2140815802D922C9337607560F2DD504641462BAAA3
S21408159004F000FD00287FF475AE103C102C2D9A40
S2140815A02C9B38AEE9DC9446BA460133A444072B94
S2140815B0CDF8B4C02C93C6F800A0746009DD0D9869
S2140815C00C992BAA04F0E6FC00287FF45BAEDDF845
S2140815D0B4C00E9C0B980F9DA842ACBF2418641983
S2140815E00E94BCF1000F40F0C18200232C9338AE55
S2140815F056E599F80080002A7FF488AD202285E514
S214081600099D45F00105099599F800807EE5099D34
S21408161045F08005099599F8008077E50024A8F13B
S21408162030030F94214619F8018B01EB810103EB77
S2140816304101A8F13003092BF5D90F9168E5DDF8CB
S21408164024C08DF88F204CF0100CCDF824C0099CCF
S214081650A50640F1B280109DE91D21F00701D1E9E9
S21408166000230831109114461D46002A73F1000C19
S214081670C0F294839DF88FA0012359E6099DB64CC5
S214081680AF068DF88F201A943FF52FAE099DED060C
S21408169040F14384DDF840C00025DCF800400CF13A
S2140816A0040CCDF840C02BE6DDF824C08DF88F205A
S2140816B01CF0200F00F04084109C21680E9CE51753
S2140816C02B46109D224604351095C1E90023E7E411
S2140816D0109C4FF0000A27688DF88FA0251D002F54
S2140816E000F0E9850A9C3846002CC0F29B855146D6
S2140816F0224603F08FFD002800F013860A9CC01BC4
S214081700A042B8BF0446109524EAE475CDF828A090
S214081710CDF850A00B959DF88FA032E6DDF824C0D2
S2140817204CF0400CCDF824C099F80080EEE499F807
S21408173000804B46B8F16C0F00F07F84099D45F099
S21408174010050995E2E4109C109D24682B1D002CBA
S2140817500F94FFF67DAD109399F80080D6E4109BA1
S214081760DDF824C0109D7D4804351C684FF07808C5
S21408177030234CF0020C10958DF89030CDF824C02C
S21408178000258DF891801A900223CDE5109B109DB8
S2140817901A680124002304359A460B948DF8B8205D
S2140817A010958DF88F300A9314932EAFEFE5099CA9
S2140817B08DF88F20A5063FF54EAFDDF824C01CF047
S2140817C0100F40F0DF82DDF824C01CF0400F00F058
S2140817D0D982DDF840C0BCF900400CF1040CE517CE
S2140817E022462B46CDF840C03FE799F800802B22CA
S2140817F08CE4099D45F00805099599F8008085E46C
S214081800109D8DF88F20EB1D23F0070303F1080CBD
S214081810CDF840C0D3E90045CDE91645DDE9160107
S21408182004F00CFB0128DDE9160140F05C83002279
S214081830002305F023FA002840F063859DF88FA062
S21408184003250B95099D464F25F08005454B00243A
S214081850099500250A94B8F1470FD8BF1F460324F8
S21408186014958EE5DDF824C04CF0200CCDF824C085
S21408187099F800804AE4109CE31D23F0070303F15F
S21408188008051095D3E9004500234DE5109DEB1D8E
S21408189023F0070303F1080CD3E90045CDF840C050
S2140818A0012341E58DF88F20B8F1000F3FF4E3AC33
S2140818B000234FF0010C9A46CDF82CC08DF8B8805E
S2140818C08DF88F300A93149364462EAF5FE5DDF8E3
S2140818D0B4C0B7E5012B00F0EC80022B0DF1DF0356
S2140818E018D1DDF868C0194604F00F0022091CF864
S2140818F0000042EA05722B09087052EA03000F46F8
S21408190014461D4601F1FF31EED1089DCDE91E2390
S214081910EC1B2DE5E00840EA457004F00702E908EC
S214081920303250EA010C1F461A7004460D4603F181
S214081930FF33EFD1099CCDE91C01E007394640F199
S214081940C180302A00F0BE80089D1F463023EC1B5D
S21408195001F8013C0CE500BF387308004C7308001A
S2140819602C73080028730800B8F1650F40F3AD80A3
S214081970DDE9160100220023CDF81CC005F074F935
S214081980DDF81CC0002800F026812C9BAA490133EC
S2140819900CF1010C0122072BCDF8B4C02C9386E875
S2140819A0060000F3ED820836259B119CA34203DB54
S2140819B0099DEC077FF5C0AD2C9B189C0133159D3F
S2140819C0A444072BCDF8B4C0356074602C9300F39C
S2140819D03E830836119D6C1E002C7FF7ADAD102C8B
S2140819E02C9B964D40F3978110276246DDF834808D
S2140819F0DDF830A004E00836103C102C40F38A814D
S214081A0001331032072B2D922C9386E8A000F2DDC6
S214081A10404651462BAA04F0BDFA00287FF432ACA3
S214081A202D9A2C9B38AEE7E70F9D0B98C0EB050A5E
S214081A30BAF1000F7FF72EADBAF1100F2C9B7F4D31
S214081A402BDD129432464FF0100B2E4661460D9C45
S214081A500C9D06E0AAF1100ABAF1100F02F108026E
S214081A6017DD01331031072B2D912C9382E840089F
S214081A70F0DD204629462BAA04F08CFA00287FF4CD
S214081A8001ACAAF1100ABAF1100F2D992C9B38AAAE
S214081A90E7DC129C35468C4616460133D444072BA1
S214081AA0CDF8B4C02C9386E8200400F30F820836DD
S214081AB0F0E4002D08BF0A2C80F03881303448AF97
S214081AC007F8414D089DEC1B52E4119C012C2C9CF8
S214081AD040F3D28101340CF101030122072C2D9327
S214081AE037602C94726000F3D8810836159DDDF8AF
S214081AF0608001343560189D9844072CCDF8B48072
S214081B002C94756000F3D5810836DDE916010022AD
S214081B10002305F0A9F8119D002840F0B9806B1E37
S214081B20013401379844072C2C94CDF8B4803760DC
S214081B30736000F3E2800836DDF864C00134199D4E
S214081B40C44427AB072CCDF8B4C02C9486E82800EC
S214081B507FF7F1AC0D980C992BAA04F01BFA002815
S214081B607FF490ABDDF8B4C038AEE5E40D980C9978
S214081B702BAA04F00FFA00283FF437ADFFF782BB14
S214081B800D980C992BAA04F005FA00287FF47AAB76
S214081B90DDF8B4C038AEBFE40D980C992BAA04F053
S214081BA0F9F900287FF46EABDDF8B4C038AE6DE402
S214081BB00D980C992BAA04F0EDF900287FF462AB77
S214081BC0DDF8B4C038AE50E40A9C38AFFFF7D0BB97
S214081BD00223FFF7A9BB259B002B40F3DD81119C50
S214081BE0149DDDF844A0AC42A8BF2C46002CBA448D
S214081BF00BDD2C9BA4440133072BCDF8B4C037600B
S214081C0074602C9300F31E830836149D24EAE4744B
S214081C102C1B002C40F3D780102C2C9B074D40F330
S214081C20A3810A974FF010082F4662462546DDF82E
S214081C3034B00C9C09E000BF6873080018730800ED
S214081C400836103D102D40F38B8101331032072BD8
S214081C502D922C9386E88001F2DD584621462BAA61
S214081C6004F098F900287FF40DAB2D9A2C9B38AE1B
S214081C70E7E70D980C992BAA04F08CF900287FF456
S214081C8001AB9DF88FA0DDF8B4C038AEFFF7DABB1D
S214081C906F1E002F7FF750AF102FAE4D23DD434643
S214081CA04FF0100ADDF83480DDF830B004E0103F5D
S214081CB0102F06F1080615DD01341033072C2D9376
S214081CC02C9486E82004F2DD404659462BAA04F0F8
S214081CD061F900287FF4D6AA103F102F2D9B2C9C64
S214081CE038AEE9DC98460134B844072CCDF8B48001
S214081CF02C9486E8A0007FF71EAF0D980C992BAAA7
S214081D0004F048F900287FF4BDAADDF8B4802C9CBE
S214081D1038AE11E794460133A444072BCDF8B4C077
S214081D202C93356074607FF706AC13E70DF1DF0B74
S214081D30204629460A22002304F0F0FF30328BF8AA
S214081D400020204629460A22002304F0E7FF04461E
S214081D500D4654EA050C5F460BF1FF3BE8D1089D9B
S214081D60EC1BFFF705BB109D01232C680435109566
S214081D700025FFF7D9BA109D2C6804351095002564
S214081D80FFF7D2BA109D2C6804351095E517224641
S214081D902B46002A73F1000CBFF66CAC4FF02D0AE8
S214081DA0644265EB45058DF88FA00123FFF7C0BA9E
S214081DB00D980C992BAA04F0EDF800287FF462AA77
S214081DC0DDF8B4C038AE149D259C2F44119DAC4256
S214081DD042DB099DE9073FD41198C7EB0A05041BA7
S214081DE0AC42B8BF2546002D0BDD2C9BAC44013316
S214081DF0072BCDF8B4C0376075602C9300F34C827F
S214081E00083625EAE575641B002C7FF795AB102C81
S214081E102C9B504D7FF77FAF10276246DDF8348045
S214081E20DDF830A004E00836103C102C7FF772AFBF
S214081E3001331032072B2D922C9386E8A000F2DD92
S214081E40404651462BAA04F0A5F800287FF41AAAA3
S214081E502D9A2C9B38AEE7E7189D2C9BAC44159D15
S214081E6001333560189D072BCDF8B4C075602C93E8
S214081E7000F3F4810836AFE7099DEA073FF52AAE76
S214081E8001340CF101080123072CCDF8B4802C94FA
S214081E90376073607FF74FAE2FE70D980C992BAA23
S214081EA004F078F800287FF4EDA92D9B2C9C38AE1A
S214081EB01CE60D980C992BAA04F06CF800287FF401
S214081EC0E1A9DDF8B4802C9C38AE1EE60D980C9976
S214081ED02BAA04F05FF800287FF4D4A9DDF8B4C074
S214081EE038AEFFF7D7BA03F0A9FF002840F0BB804A
S214081EF0099C194F194B4FF0030C24F080040994E1
S214081F000A90CDF82CC01490B8F1470FD8BF1F46DA
S214081F1064469DF88FA0FFF734BA099C640640F122
S214081F205081DDF840C00025BCF800400CF1040CD8
S214081F30CDF840C0FFF7E4B9DDF824C01CF0100F58
S214081F4000F04681109C0E9D2368043410941D6092
S214081F50FFF7A6B818730800347308003073080033
S214081F602C463D460A9F94460133A444072BCDF8D9
S214081F70B4C02C93356074603FF71AAF083622E772
S214081F800D980C992BAA04F005F800287FF47AA976
S214081F90DDF8B4C038AE07E52C9AB74901320CF123
S214081FA0010C0120072ACDF8B4C02C92316070606D
S214081FB000F3F78008361C462CB9119D1DB9099DFB
S214081FC0E8077FF5B9AA2C9B159D1899013335604B
S214081FD0189D6144072B2D9175602C9300F3DE81C4
S214081FE006F108026442002C40F30B81102CA34D26
S214081FF040F34881A34610260C46DDF83480DDF809
S21408200030A006E00832ABF1100BBBF1100F40F31E
S214082010378101331034072B2D942C9382E8600007
S214082020F0DD404651462BAA03F0B4FF00287FF4A3
S21408203029A92D9C2C9B38AAE5E7099C09F10109DA
S21408204044F02004099493F80180FFF75FB80D98D0
S2140820500C992BAA03F09EFF00287FF413A9DDF83D
S214082060B4C038AEB6E40A9D28F0200A013500F060
S214082070A580BAF1470F04D10A9D002D08BF012597
S2140820800A95DDF824C0DDE916234CF4807C002B85
S214082090CDF848C0C0F29C81DDE91645CDE920455B
S2140820A04FF0000BB8F1660F00F09B81B8F1460FB1
S2140820B000F0A981BAF1450F0ABF0A9C0A9D651C63
S2140820C0022025A926AA29AB8DE8210003920493AD
S2140820D002910D98DDE9202301F0DEF9B8F1670FCB
S2140820E0074602D0B8F1470F05D1DDF824C01CF02A
S2140820F0010F00F09C81BAF1460F07EB050400F0CB
S2140821001C81DDE920010022002304F0ADFD002833
S21408211040F00581299B9C4206D930215A1C2992F9
S2140821201970299B9C42F9D8DB1BBAF1470F11930B
S21408213000F0ED80B8F1650F40F3F281B8F1660F54
S21408214000F06881259C1494119C149DAC4200F301
S2140821503281DDF824C01CF0010F40F0AD8125EA7D
S214082160E5732C464FF06708BBF1000F40F0B280CD
S214082170129D0B930995CDF828B09DF88FA0FFF710
S21408218000B90D98402102F0A9FD206020610028C2
S21408219000F0BF81DDF830C04023CCF81430FEF7DD
S2140821A06FBF0D980C992BAA03F0F4FE00287FF455
S2140821B069A8259CDDF8B4C038AEFDE606240A9466
S2140821C05FE7109D2C68043510950025FFF798B832
S2140821D0DDF824C01CF0400F00F08780109C0E9D90
S2140821E02368043410941D80FEF75ABF0D980C9986
S2140821F02BAA03F0CFFE00287FF444A82D992C9B29
S21408220038AADDF844C00133119C8C44072BCDF85E
S214082210B4C02C93176054603FF79CAC02F10806D4
S214082220FFF78AB9CDF828A003F084FE10950A9D1A
S21408223020EAE07C0446CDF82CC014959DF88FA0C3
S214082240FFF79FB80D980C992BAA03F0A3FE002859
S2140822507FF418A8DDF8B4C038AED6E40D980C990B
S2140822602BAA03F097FE00287FF40CA8259CDDF81F
S214082270B4C038AEB0E500BF68730800187308002D
S21408228021465C4601332144072B2D912C9315607B
S2140822905460ABDC0832B4E70D980C992BAA03F00F
S2140822A079FE00287EF4EEAF259C1199DDF8B4C0BF
S2140822B00C1B38AEA5E50A9CBA46062C28BF062491
S2140822C024EAE47C0A9714971095CDF82CC0974F0B
S2140822D0FFF757B8129D4FF02D0A099500250B9366
S2140822E08DF88FA00A95FFF74FB8DDF840C00E9C12
S2140822F0DCF800300CF1040CCDF840C01C60FEF78A
S214082300CFBE4FF02D0A8DF88FA0FFF799BA259B00
S214082310DC1C19DB0A9C9C4216DB149314E7234644
S21408232002E724EAE47CCDF82CC00A9C10950A90B3
S21408233014909DF88FA0FFF724B83B78302B00F058
S214082340AD80259D2C44DCE6A8F10208591E00291C
S2140823502591BABF49422D232B2309298DF89C8045
S2140823608DF89D3065DC302330318DF89E308DF841
S2140823709F1028AB119D27AA119C9A1A012D199215
S214082380144440F3B7800134002524EAE473149516
S214082390EAE6002481460A94FEF7BABE0D980C9920
S2140823A02BAA03F0F7FD00287EF46CAF259C2D9928
S2140823B02C9B38AA16E6149C119D002CD4BFC4F199
S2140823C0020401242C4424EAE4734FF06708CBE6A1
S2140823D01799169801F10041209021914FF02D0B86
S2140823E060E60A9D032025A926AA29AB0195009038
S2140823F00392049302910D98DDE9202301F04CF82E
S2140824000A9D074677E60A9C032025A926AA29AB33
S2140824100194ECE7259D0A9C002D149563DDB4BB5A
S214082420099DE80733D4149C24EAE4739CE6299BA8
S2140824307AE60DF1AA023E4DCB1785FB0150C3EB99
S214082440A00000EB8003A1EB43010928134601F125
S21408245030021A70014603F1FF32ECDC00F130015D
S2140824600DF1AB04C9B2944203F8011C5AD90DF118
S2140824709D001A4601E012F8011BA24200F8011F4F
S214082480F9D10DF5907CC3EB4C03F63B72E70A9D39
S2140824906C1C149D2C4424EAE47365E6DDE92001EF
S2140824A00022002304F0E0FB00287FF44AAFC5F1C1
S2140824B0010525952C4424E6149D4FF067086C1CEE
S2140824C024EAE47350E6109DDDF840C02D680CF150
S2140824D00403002D99F801800A9510938146BEF6EC
S2140824E015AEFEF710BE7CB9099DE9070CD401238A
S2140824F01C4639E6DDF824C01CF001037FF443AF20
S214082500149324EAE4732FE60A9DAC1C24EAE473C9
S2140825102AE60D9D0C232B604FF0FF30FEF7BABE5F
S214082520259B13E70DF19E0324E700BF60730800A0
S214082530676666664B6E2DE9F0479C040E46804635
S21408254091462AD59368126802F1080A1BB31AE95D
S214082550A000BF0817D0043D002401E0A74210D011
S214082560404655F8041F324602F008F8431C04F1AA
S2140825700104F3D10023C9F80830C9F80430BDE8CF
S214082580F087D9F80830A3EB8703C9F808300AF1B2
S214082590080A002BDBD10020ECE702F069F90023DB
S2140825A0C9F80830C9F80430BDE8F0872DE9F04FBF
S2140825B0B1B01C46029190460893069018B1836BFA
S2140825C0002B00F0E880029DAB899AB2900407D4ED
S2140825D06A6E43F4005322F40051AB819AB26966DE
S2140825E0110740F1B780DDF808B0DBF81030002B93
S2140825F000F0B08002F01A020A2A00F0B780002322
S2140826000DF180090A93159314930993CDF84C900D
S2140826104E4698F80030002B00F0C884252B00F0B2
S214082620C58408F1010201E0252B04D0137814466E
S2140826300132002BF8D1C8EB040595B1149B159A06
S21408264001332A44072BC6F8008075601592149348
S2140826507BDD002A40F0D5840998149228444E461B
S21408266009902378002B00F0ED8300214FF000023C
S2140826704FF0FF3C63788DF8472004918A4604F1B2
S21408268001080846654608F10108A3F12002582A01
S21408269000F2D982DFE812F0CB02D702D702D202C4
S2140826A0D702D702D702D702D702D70282028F02F2
S2140826B0D70284009302D7022B0196019601960151
S2140826C0960196019601960196019601D702D702C1
S2140826D0D702D702D702D702D702D702D702D70225
S2140826E03001D702D702D702D702D702D702D702BD
S2140826F0D702D702D7027B01D702D702D702D70262
S214082700D702A401D702D702BF01D702D702D70241
S214082710D702D702D702D702D702D702D702E401D8
S214082720FA01D702D702D7021602FA01D702D70251
S2140827301B02D7022802890066027D02D7023A02E7
S214082740D7021901D702D702AF02083609982844DB
S214082750099086E70698029900F090FDB0B9029DA8
S214082760AA8902F01A020A2A7FF449AFDDF808B0EF
S214082770BBF90E30002BFFF642AF06985946424684
S214082780234600F03DFD31B0BDE8F08F4FF0FF3036
S21408279031B0BDE8F08F01F05BFE14E740420893C5
S2140827A04AF0040A98F800306DE71AF020030490FF
S2140827B0AC4600F0F480DDF820B00BF1070323F0F8
S2140827C0070303F108040894D3E9004500234FF0F3
S2140827D0000000218DF84700CDF814C00791BCF121
S2140827E0000FA8BF2AF0800A54EA050240F0AD8020
S2140827F0BCF1000F40F0A980002B40F0C0831AF00F
S214082800010F00F0BC83302330AF07F8413DC7EB1B
S21408281009040594DDF814B0079CE345B8BFE34601
S214082820CDF80CB01CB10BF1010BCDF80CB01AF0BA
S2140828300205079505D0DDF80CB00BF1020BCDF8B4
S2140828400CB01AF084030B9340F01B82049DDDF84D
S2140828500CB0CBEB0504002C40F31382102C40F38D
S2140828608984BE4D159A2B46149825464FF0100BB2
S2140828706446B4461E4606E0831C0CF1080C08465F
S214082880103D102D11DD411C1032072915928CE8D9
S21408289040081491F0DD002A40F0E681103D102D26
S2140828A04FF001031046CC46EDDC31466646A4469A
S2140828B02C460D462244072B1592356074601493F7
S2140828C000F36D830836591CDEE11AF0200F0490D9
S2140828D0AC4600F08D80089DEB1D23F0070303F13E
S2140828E0080BD3E90045CDF820B001236FE74AF07E
S2140828F0800A98F80030C6E64AF0100A1AF0200F48
S2140829000490AC468DF8471000F0C880089CE11D7E
S21408291021F00701D1E900230831089114461D4625
S214082920002A73F1000BC0F2CE83BCF1000F9DF8AD
S2140829304700A8BF2AF0800A54EA05020790CDF897
S21408294014C04FF001033FF453AF012B00F0198376
S214082950022B0DF17F0340F04C82DDF828B01946B3
S21408296004F00F0022091BF8000042EA05722B0942
S214082970087052EA03000F4614461D4601F1FF315F
S214082980EED1CDE90E23C7EB0903059342E74AF0DB
S214082990100A1AF020030490AC467FF40CAF1AF025
S2140829A0100240F011831AF0400300F00D83DDF8A2
S2140829B020B01346BBF800400BF1040B0025CDF8F9
S2140829C020B004E7A3F13002002018F8013B00EB22
S2140829D0800002EB4000A3F13002092AF5D954E63C
S2140829E04AF0100A1AF0200F0490AC467FF473AF32
S2140829F01AF0100F40F0EF821AF0400F00F0EB824A
S214082A00DDF820B00025BBF800400BF1040B0123CD
S214082A10CDF820B0DBE6AC46514D1AF0200F0490F6
S214082A208DF847100A9500F0F080089DEA1D22F000
S214082A30070202F1080BCDF820B0D2E900451AF0DB
S214082A40010F00F0AA8254EA050B00F0A682302295
S214082A508DF849304AF0020A8DF848200223B6E677
S214082A60089BDDF820B01B6801244FF000050BF129
S214082A70040B049003948DF847508DF85830CDF821
S214082A8020B0059416AF4FF0000CD0E61AF0200FD1
S214082A900490AC468DF847107FF438AF1AF0100F44
S214082AA040F0A7821AF0400F00F0A382DDF820B0AD
S214082AB0BBF900400BF1040BE51722462B46CDF870
S214082AC020B02DE74AF0400A98F80030DBE598F881
S214082AD0003042466C2B03BF08F101084AF0200A72
S214082AE053784AF0100ACEE51AF0200F8DF84710F2
S214082AF000F0F782089C2168099CE5172B46089D7C
S214082B00224604350895C1E9002382E5089CAC46B0
S214082B1027684FF0000504908DF847500434002FBE
S214082B2000F03283BCF1000F3846C0F207836246D5
S214082B300021CDF804C002F06DFBDDF804C00028C3
S214082B4000F03A83C01B9DF847506045A8BF604612
S214082B500590089407954FF0000C5BE68C73080008
S214082B6038730800089BDDF820B00490B2481C684B
S214082B70302278230BF1040BAC468DF849304AF026
S214082B80020ACDF820B000258DF848200A900223C6
S214082B901DE64AF0200A98F8003074E5DDF820B003
S214082BA0DBF800000BF104030028FFF6F7AD0893E6
S214082BB098F8003067E598F800302B2163E598F818
S214082BC0003008F101042A2B00F00583A3F1300237
S214082BD0092A98BF002500F2FA8214F8013B05EB93
S214082BE0850502EB4505A3F13002092AF5D945EA21
S214082BF0E575A04649E5904C1AF0200F0490AC46BF
S214082C000A948DF847107FF410AF1AF0100F40F0B2
S214082C10EA811AF0400F00F0E681DDF820B00025C2
S214082C20BBF800400BF1040BCDF820B007E798F886
S214082C30003000297FF427AD202124E54AF0010A58
S214082C4098F800301FE504908DF84710002B00F028
S214082C50F98001254FF0000B03958DF858308DF854
S214082C6047B0059516AF0EE70698029913AAFFF720
S214082C7061FC002840F0ED801498159A431CCC4659
S214082C80FEE5149B159A591C9DF8470068B1013259
S214082C900DF14700012307291592149186E80900CB
S214082CA000F360810B4608360131079C64B1023296
S214082CB012A8022307291592149186E8090000F342
S214082CC057810B46083601310B9D802D00F0018197
S214082CD0059DC5EB0C04002C2FDD102C574D22DD6E
S214082CE030464FF0100B2E462546069C06E003F1AC
S214082CF0020C08300B46103D102D10DD591C103202
S214082D000729159280E840081491F0DD002A63D15F
S214082D10103D102D4FF0010C13464846EEDC2C46AD
S214082D206146354606462244072915923560746082
S214082D30149100F3C18008360131059D07292A44FD
S214082D40159237607560149140F3C180002A40F0F0
S214082D50308114924E461AF0040F00F08B80049DC2
S214082D60DDF80CB0CBEB0504002C40F38380102C68
S214082D7040F31E821499324D1027DDF818A0DDF8AE
S214082D8008B005E0881C08361946103C102C10DDE3
S214082D904B1C1032072B159286E8A0001493F1DD21
S214082DA0002A7DD1103C102C4FF0010011464E46EB
S214082DB0EEDC22440728159235607460149059DDBD
S214082DC0002A4FD1099CDDF80CB0049DAB45ACBF7A
S214082DD05C44641909945EE02046029913AAFFF73A
S214082DE0A9FB002835D1149B159A03F1010C484617
S214082DF081E7E00840EA457004F00702E908303247
S214082E0050EA010B1F461A7004460D4603F1FF33BD
S214082E10EFD11AF0010FCDE90C01394600F0B98060
S214082E20302A3FF4F4AC1F46C7EB09053023059556
S214082E3001F8013CEEE400BF4C7308007C73080000
S214082E408C730800159B23B10698029913AAFFF7FE
S214082E5071FB029CA3895B063FF598AC099831B0D4
S214082E60BDE8F08F0698029913AAFFF763FB0028BF
S214082E70EFD1159A099CDDF80CB0049DAB45ACBFA4
S214082E805C446419099432B10698029913AAFFF7AC
S214082E9051FB0028DDD1002014904E46FFF7B9BB41
S214082EA05046594613AAFFF745FB0028D1D1149976
S214082EB0159A481C4E4668E7002A40F0F780059C9D
S214082EC00123209721941594224614934E460836DB
S214082ED041E7049DDDF80CB0CBEB0504002C7FF72A
S214082EE0F7AE102CA64D40F3708129464FF0100B14
S214082EF025466446B4460E4606E0981C0CF1080CB7
S214082F000B46103D102D0FDD591C1032072915925F
S214082F108CE840081491F0DDBAB9103D102D4FF03A
S214082F2001001346CC46EFDC33466646A4462C46DC
S214082F301D4622440728159235607460149000F3E5
S214082F40AF800836411C0346C2E60698029913AAC3
S214082F50FFF7F0FA00287FF47CAF149B159A581CEC
S214082F60CC46CEE7002A79D119464E4613469CE64B
S214082F70002A40F08480012113464E46A4E64F46B8
S214082F8048E4002D08BF0A2C46D2303430AF07F884
S214082F90414DC7EB090305933CE4022317E4002AD6
S214082FA040F0AF80134601214E466DE64446FFF7D3
S214082FB058BB0698029913AAFFF7BCFA00287FF4B4
S214082FC048AF159A4E46C6E6089D2C6804350895FF
S214082FD00025FFF7FCBB089D01232C6804350895DF
S214082FE00025FFF7F4BB089D2C68043508950025D6
S214082FF025E5089D2C6804350895E51722462B46D6
S2140830008EE40698029913AAFFF794FA00287FF42C
S21408301020AF4E46FFF79ABB0DF17F0B03965E4630
S214083020E346204629460A22002303F077FE30327C
S2140830303270204629460A22002303F06FFE044613
S2140830400D4654EA0500374606F1FF36E9D1C7EBC8
S2140830500903DC46039E0593FFF7DCBB0698029936
S21408306013AACDF804C0FFF765FADDF804C00028F7
S2140830707FF4EFAE149B159A591C4E4615E6069833
S214083080029913AACDF804C0FFF754FADDF804C075
S21408309000287FF4DEAE149B159A591C4E4613E69C
S2140830A0002A56D1012113464E4611E60698029983
S2140830B013AAFFF73FFA00287FF4CBAE1499159AA7
S2140830C001314E4639E64FF02D0B644265EB450557
S2140830D08DF847B0CDF81CB0CDF814C00123FFF723
S2140830E07EBB1AF0100F1DD11AF0400F58D0089D5D
S2140830F0DDF824B02B6804350895A3F800B0FFF770
S21408310088BA0698029913AACDF804C0FFF712FAEF
S214083110DDF804C000287FF49CAE149B159A591C51
S2140831204E46B1E5DDF820B0099CDBF800300BF11F
S214083130040BCDF820B01C60FFF76BBA089402F0B9
S214083140F9FE9DF84740059007944FF0000CFFF7EE
S21408315061BB0698029913AACDF804C0FFF7EAF9EE
S214083160DDF804C000287FF474AE149B159A591C29
S2140831704E46ADE5149B159A0133024DFFF79ABBF0
S2140831807C7308008C730800BCF1060F34BF6346D6
S2140831900623089423EAE37405930394164F72E40F
S2140831A0089C099D2368043408941D60FFF731BA0B
S2140831B01498124D0130FCE59DF84750CDF814C020
S2140831C0079508948446FFF725BB0846B1E6A0464F
S2140831D00025FFF75ABADDF820B098F80130DBF87A
S2140831E000500BF10402002D0892A046BFF64BAA29
S2140831F04FF0FF35FFF747BA607308008C73080076
S2140832002DE9F0474F6EADF58D6D88461997D8F8BD
S2140832101C70B1F80CA0B1F80E900797D8F8247077
S2140832201AAC4FF480652AF0020A00266946009414
S214083230049402950595ADF80CA0ADF80E90099784
S21408324006960546FFF7B2F9041E07DB28466946C8
S21408325001F0E2F8B04218BF4FF0FF34BDF80C306A
S2140832605B0605D5B8F80C3043F04003A8F80C30D8
S21408327020460DF58D6DBDE8F08700BF2F4B70B565
S214083280064618680C4610B1826B002A36D0A58907
S214083290ABB219070CD52269AAB113F001011ED0EA
S2140832A0636900215B42A361A160F2B1002070BD92
S2140832B0DA063AD55B0724D4226945F00803A381C9
S2140832C09BB2002AE9D103F42071B1F5007FE4D05F
S2140832D03046214601F08AFCA3892269DDE7980773
S2140832E058BF6169A160002AE0D1A3891A06DDD516
S2140832F043F04003A3814FF0FF3070BD01F0A8F8FB
S214083300C5E7216B49B104F14003994203D0304622
S21408331001F0E2F9A58900232363226925F0240534
S2140833200021ADB222606160C7E745F04005092379
S21408333033604FF0FF30A58170BD00BF60050720E1
S214083340024B13B1024800F005B8704700000000B1
S2140833504D450800014600200246034602F038BFE5
S2140833602DE9F04F03690D6983B09D42834600F34B
S2140833708C80013D01F1140400F1140A54F825204C
S2140833805AF825300132B3FBF2F8AA0091460092AB
S2140833905244A1440192B8F1000F3ED000263046B0
S2140833A0224653468C4652F8047B19681FFA87FE55
S2140833B03F0C0EFB086E07FB08F606EB1E461FFAC8
S2140833C08EFECEEB000E8FB2B0B27744C0EB114043
S2140833D000EB2740BFB247EA0047914543F8047B15
S2140833E04FEA20404FEA1646DDD2009A61465AF860
S2140833F0023093B9019A131F9A450CD252F8043C2E
S2140834004BB9A2F1080302E01A68043B1AB99A45B8
S21408341005F1FF35F8D3CBF81050584602F040FABD
S21408342000282EDB08F101085346002254F8046BE6
S2140834301868B1B2511A87B2360C3944C6EB104038
S21408344000EB214289B241EA0241A14543F8041B38
S2140834504FEA2242EAD25AF825200AEB850382B9B7
S2140834601A1F92450BD253F8042C42B9083B02E0C7
S2140834701A68043B1AB99A4505F1FF35F8D3CBF814
S2140834801050404603B0BDE8F08F002003B0BDE8FA
S214083490F08F00BF000000002DE9F04F016C9BB0D4
S2140834A0044692469B46279D41B1436C01229A40AA
S2140834B04B608A6001F0FEFF00232364BBF1000F17
S2140834C0D94633DB00232B60A54B1A4609EA0303CB
S2140834D0934214D0504659460022002303F0C4FBFA
S2140834E0804648B3269E289D01233360002D00F0B1
S2140834F0CA809C48286001381BB0BDE8F08F269D1E
S21408350042F20F732B60BAF1000F00F0A5809648C0
S214083510289E002EF0D0C378002B00F0B68000F16D
S2140835200803289D2B601BB0BDE8F08F01232BF005
S21408353000492B60CB46C7E719AA18AB8DE80C00E4
S214083540204652465B4602F03BFA5FEA19550A9057
S21408355040F08B80189F199D6FF482633D449D420E
S214083560C0F295821F3305F212425B1B09FA03F379
S2140835702AFA02F243EA020003F098F80126013D0F
S214083580B846A1F1F87116960022784B02F050FF63
S2140835906DA3D3E9002303F0FFF86DA3D3E9002356
S2140835A002F048FF064628460F4603F08FF86AA33F
S2140835B0D3E9002303F0F0F802460B4630463946B6
S2140835C002F038FF06460F4603F080FB39460790A0
S2140835D000223046002303F051FB002840F02982E1
S2140835E0079E162E00F222826149524601EBC6015A
S2140835F05B46D1E9000103F05FFB002800F04C822F
S214083600013E079600260E96C5EB0805013D069571
S21408361000F1268200250895079E002EC0F2178224
S214083620069D0D963544002606950C96249D092D74
S2140836302DD8052DC4BF043D2495249EC8BF00255B
S214083640A6F10203D8BF0125032B22D8DFE813F022
S214083650B7039E02C0039A04464A434BC9F31300B5
S21408366000280CBF1046184652E7CBF3130343F066
S2140836707F51CDF858805046A5F2FF3541F44011E9
S214083680DDF8608080E73C4836E7C31C49E700253C
S2140836902495002565642946204601F0E5FE4FF08E
S2140836A0FF390126099025952064CDF83C900B96A5
S2140836B0199B002BC0F2D280079E0E2E00F3CE80F8
S2140836C02B4B03EBC603D3E90001CDE9040125998A
S2140836D00029C0F28083DDE904235946504603F0EA
S2140836E085F903F0F3FA054602F0F0FFDDE9042356
S2140836F003F052F802460B465046594602F098FE2A
S214083700099A05F13003B9F1010F06460F46137002
S21408371002F1010B64D00022184B03F03DF800229A
S214083720002306460F4603F09FFA002840F08180E3
S214083730DDF82480099DC844DDE904AB05F10209DB
S214083740039428E0AFF3008061436F63A787D23FF6
S214083750B3C8608B288AC63FFB799F501344D33F73
S2140837600000F07F69730800A87308000000F83F9F
S214083770B87308009C7308006873080000002440AB
S21408378003F00AF80022002306460F4603F06CFAF8
S214083790002840F0C18352465B463046394603F05F
S2140837A025F903F093FA054602F090FF52465B4669
S2140837B002F0F2FF02460B463046394602F038FE63
S2140837C005F1300EC14509F801EC4C4606460F4691
S2140837D04FF00002A74B09F10109D1D1A346039C7B
S2140837E032463B463046394602F024FE06460F4629
S2140837F03246DDE904013B4603F040FA40B9DDE90C
S214083800040132463B4603F02FFA90B1EB0710D579
S2140838101BF8015C099A05E09A4200F0298413F81F
S214083820015C9B46392D0BF1FF33F5D06A1CD2B2EA
S2140838301A7020460A9901F03DFE079E269D731CC5
S214083840289E00228BF800202B60002E00F025838F
S2140838500998C6F800B01BB0BDE8F08F0B9D002D88
S21408386000F00381249E012E40F3DC820C9E09F1B1
S214083870FF37BE42C0F28983F71BB9F1000FC0F2CA
S2140838808784089D4B46089E20461E440896069E3A
S21408389001211E44069601F0AFFE064665B106985D
S2140838A0002809DD03460899AB42A8BF2B46C91A6B
S2140838B0C01A0891ED1A06900C9A002A1DDD0B9B7B
S2140838C0002B00F05883002F11DD31463A4620467B
S2140838D001F03AFF064631460A9A204601F096FE5F
S2140838E00A998046204601F0E5FDCDF82880DDF8E7
S2140838F030E0BEEB070240F08F822046012101F03F
S2140839007BFE80460D98002805DD414620460D9A28
S21408391001F01AFF80462499012940F3C182002746
S2140839200D98002840F0AF820120069B034413F050
S2140839301F0300F0A180C3F12002042A40F3B784D5
S2140839400899069AC3F11C0319441A4408911D44A1
S21408395006920899002905DD0A99089A204601F07A
S21408396041FF0A90069A002A04DD4146204601F0E7
S21408397039FF80460E9B002B40F06A82B9F1000F93
S21408398040F3A6820B98002840F088800B9D0A9F7B
S214083990DDF824B006E0394620460A22002301F066
S2140839A093FD074638464146FFF7DAFC30300BF8F9
S2140839B005000135A945EEDCDDF824B082460A97F5
S2140839C0B9F1010FACBFCB440BF1010B00250A99E6
S2140839D00122204601F006FF41460A9001F060FFEA
S2140839E0002840F309831BF8012C099905E0994241
S2140839F000F08B8213F8012C9B46392A0BF1FF3313
S214083A00F5D001321A704146204601F053FD002ECB
S214083A103FF40FAF2DB1B54203D02946204601F03A
S214083A2049FD3146204601F045FD02E701260E967F
S214083A30EAE5079802F04AFE32463B4603F014F9D8
S214083A4000287FF4CDAD079E013E0796C8E5079E81
S214083A50089DAD1B0895754200260C950D96E5E564
S214083A606D42002608950696D6E50C9F089D0B9E87
S214083A7014E700BF000024401C23DDF820E0069869
S214083A809E441844CDF820E01D44069061E7A748F8
S214083A90401B0AFA00F06FE50E90B5E5002D05DD2F
S214083AA031462A46204601F09DFE0646002F40F085
S214083AB0E9823746099D09984D4408950AF001059C
S214083AC00B95DDF82890451C0AE001F0FDFC394608
S214083AD006460A222046002301F0F6FC0746013572
S214083AE041464846FFF73CFC31468346484601F0C7
S214083AF0D7FE414603903A46204601F0F5FEC268D6
S214083B00691E03460BF1300A0691002A40F093819D
S214083B1019464846029301F0C3FE029B0246194620
S214083B202046029201F0C6FC029A2AB9249B1BB9C9
S214083B300B98002800F09383039B002BC0F2348276
S214083B4005D1249818B90B99002900F02D82002A6F
S214083B5000F3AC82DDF820E005F801AC7545AB460D
S214083B6000F0B48249460A220023204601F0ACFC45
S214083B70BE428146314620464FF00A024FF0000307
S214083B80A3D101F0A1FC06460746A8E700260B9637
S214083B90079EDDF894E0B6440EF10109B9F1000F6E
S214083BA0CDF83CE04E4640F350810021172E616464
S214083BB00AD9012204235B0003F11400B04211461F
S214083BC002F10102F7D96164204601F04DFC0E2E81
S214083BD0099020643FF66CAD002D3FF469AD079D53
S214083BE0CDE912AB002D40F31C82514B05F00F02B5
S214083BF003EBC2032D11D3E90067EB0640F1CD8134
S214083C004C4B50465946D3E9082302F0EFFECDE95F
S214083C10100105F00F054FF003088DB1DFF814A169
S214083C2030463946EE0705D5DAE9002308F10108DB
S214083C3002F0B2FD6D100AF1080AF3D106460F46E7
S214083C40DDE9100132463B4602F0D0FE82468B463E
S214083C500E9D45B1504659460022374B03F00EF8E4
S214083C60002840F0AA82404602F030FD52465B46E5
S214083C7002F092FD0022314B02F0DCFB0646A1F171
S214083C805077B9F1000F00F05A81079DC84617957E
S214083C900B9D002D00F02382254B002003EBC80364
S214083CA053E90223264902F0A1FE32463B4602F0BB
S214083CB0BFFBCDE910015946504603F007F8054604
S214083CC002F004FD02460B465046594602F0B0FB89
S214083CD03035099ECDE90401DDE90423DDE910014C
S214083CE0EDB2357006F1010B02F0E6FF002840F051
S214083CF0AB82DDE9042300200F4902F099FB024657
S214083D000B46DDE9100102F0D7FF002840F0A2823A
S214083D10B8F1010F40F38181B044CDF85090A24627
S214083D20C146DDE90467DDE9104519E0EEFBFFFF53
S214083D30B8730800807408000000F03F00001C40BC
S214083D400000E03F0020A84902F072FB22462B46FE
S214083D5002F094FF002840F07B82CB4500F05A81A1
S214083D60204629460022A14B02F016FD00229F4B52
S214083D7004460D463046394602F00EFD0F46064606
S214083D8002F0A4FF804602F0A1FC02460B4630462D
S214083D90394602F04DFB08F130085FFA88F82246EB
S214083DA02B460BF8018B06460F4602F067FF324695
S214083DB03B460028C6D0179E5446079639E5002687
S214083DC00B96259800283CDD06460F908146ECE6C3
S214083DD001260B96F5E7B9F1000F3FF77CAC40F0EB
S214083DE0C680DDE904010022814B02F0D5FC52466C
S214083DF05B4602F057FFC8464E4600287CD0259DF5
S214083E00DDF824B0ED4307954146204601F052FB05
S214083E10002E7FF406AE0CE50A99204601F094FCC5
S214083E200A906AE5169D002D00F0B88103F2334328
S214083E300C9F089D27E50146204601F03BFB012222
S214083E407AE6012625960F96B14600216164BBE600
S214083E500A98414601F024FD0028BFF68FADDDF82C
S214083E601CE00A990EF1FF3E20460A220023CDF8F0
S214083E701CE001F029FB0A900B98002840F0098204
S214083E80DDF83C907AE5D8F8103008EB830318691B
S214083E9001F064FBC0F1200047E50998FFF72CBB4A
S214083EA0BAF1000F7FF43BADCBF31303002B40F0C1
S214083EB07C812BF000473F0D3F05002F3FF430ADC7
S214083EC0089A069B0132013308920693012727E5D4
S214083ED0249902297FF756ADB9F1000F8FD14146D4
S214083EE04B460522204601F0EFFA804641460A98DE
S214083EF001F0D6FC002882DD079D312301350795A1
S214083F00099D2B7005F1010B7EE707980999312367
S214083F10013007900B7076E5A346039C89E440467B
S214083F2002F0D4FB02460B465046594602F034FCD3
S214083F300022304B02F07EFA0646A1F15077504632
S214083F40594600222A4B02F073FA32463B4682460E
S214083F508B4602F0B1FE002840F0BD80324607F1DD
S214083F6000435046594602F089FE002855D04FF0C7
S214083F700008464643E70A990C9A204601F0E4FBF7
S214083F800A90BAE401260B9602E60C9D0D9E7B1B52
S214083F901E440C970D9600276FE4DDE912014FF0DA
S214083FA00208CDE9100138E6002ACDF82890D9464F
S214083FB011DD0A990122204601F014FC41460A90B8
S214083FC001F06EFC002840F35D81BAF1390F00F06D
S214083FD01B8109F1310A069B354683F800A003F1D8
S214083FE0010B3E460FE500BF0000F03F00002440EE
S214083FF00000144000001C4003D11AF0010F7FF4A3
S214084000F2AC5B4613F8012C9B46302A03F1FF33CB
S214084010F8D0F8E4DDF850905446DDE912ABFFF727
S21408402047BB079E7542002D00F0C280A34B05F0E3
S2140840300F0203EBC203D3E90023DDE9120102F005
S214084040ABFB2D1182468B4600F02E819C4E4FF01E
S2140840500208EA0705D5D6E9002308F1010802F0A8
S2140840609BFB6D1006F10806F3D182468B46EFE5FA
S214084070079E099D30222A700136312207961A704B
S214084080FFF7D7BB7168204601F0EEF9336905469D
S2140840909A1C920006F10C010C3001F005F9204636
S2140840A02946012201F09EFB074603E5BAF1390FBF
S2140840B0CDF8289000F0A880069D0AF101032B7021
S2140840C03546069E06F1010B3E469CE43546CDF87D
S2140840D028903E467BE44FF0000846460CE77749B2
S2140840E008F1FF3501EBC50132463B46D1E9000130
S2140840F0109502F051FBCDE914015946504602F0DE
S214084100E5FD054602F0E2FA02460B4650465946D9
S21408411002F08EF9DDF824E03035B8F1010F0646D6
S2140841200F468EF800500EF1010B1ED0099D6B1E2F
S21408413003EB080A0022634B02F02EFB0F460646E6
S21408414002F0C4FD804602F0C1FA08F130080246C3
S2140841500B463046394602F06BF905F8018F55458F
S214084160E8D1109D06460F46AB440022564BDDE9C3
S214084170140102F05FF932463B4602F07FFD002844
S2140841804DD0179E099A07961BF8015CFFF74ABBA5
S214084190089E0023C9EB0605FFF775BB189B0C9F06
S2140841A0C3F13603089DFFF76EBB5746FFF7B8BB4B
S2140841B0DDE912AB4FF002084AE5B9F1000F3FF40B
S2140841C0AEAE0F9E002E7FF728AF00223D4B50461E
S2140841D0594602F0E1FA824608F101008B4602F0E1
S2140841E075FA02460B465046594602F0D5FA0022A2
S2140841F0364B02F01FF9079D0646013DA1F15077A0
S2140842001795DDF83C8043E53546069B069E392221
S214084210327003F1010B3E460999FFF7EEBBDDE964
S21408422014230020284902F003F932463B4602F0E0
S21408423043FD00283FF4F1AE5B4613F8012C9B467D
S214084240302A03F1FF33F8D0179D0795FFF7F1BA28
S21408425045465446179E099A0796FFF7E3BABAF1F9
S214084260390FCDF82890CFD0039B3546002B069EF5
S214084270C8BF0BF1310A86F800A006F1010B3E46CE
S214084280FFF7C1BB7FF4A7AE1AF0010F3FF4A3AE49
S2140842909BE6314620460A220023DDF83C9001F0D2
S2140842A013F90646FFF76ABB4FF00208D0E43FF45E
S2140842B050ABC3F13C03FFF7E0BB00BFB873080080
S2140842C080740800000024400000E03F00001C4006
S2140842D08B892DE9F0419AB20D46110780463CD4E9
S2140842E06A6843F40063002AAB8159DDAC6A002C87
S2140842F04BD09BB203F48052002192B2D8F80060EB
S214084300C8F80010002A4FD02A6D5F0705D56968DF
S2140843102B6B521A0BB1EB6BD21A4046E969002395
S214084320A047441C4AD0AB892A6923F400639BB291
S21408433000212A60DA04AB8169604CD4296BC8F87E
S214084340006011B305F14003994202D0404600F0E0
S214084350C3F900202863BDE8F0812E69AEB1910745
S2140843602C680CBF6B6900232E60A41BAB600AE0A8
S214084370324623466F6A4046E969B8470028C0EBCC
S2140843800404064404DD002CF2DC0020BDE8F081BD
S214084390AB894FF0FF3043F04003AB81BDE8F081B6
S2140843A0EA6B002AA2DCF0E701234046E969A04749
S2140843B0431C02461ED0AB89AC6AA6E7D8F8003084
S2140843C05BB9AA89296922F4006292B26B60D304A9
S2140843D0AA812960B2D52865B0E71D2B01D0162B17
S2140843E013D1A9892B6921F400610022A9812B60C9
S2140843F06A60A3E7D8F80030002BDCD01D2B01D06C
S214084400162BC5D1C8F80060BFE7AB8943F0400358
S214084410AB81BDE8F08100BF10B5044682B008B194
S214084420836B53B1B1F90C0008B902B010BD204631
S21408443002B0BDE81040FFF74BBF019100F008F846
S2140844400199EFE7014900F09FBB00BF7D630800B4
S2140844502DE9F04F846B83B00746002C65D17D6844
S21408446033480423032107F53B72F863C7F8E412C0
S214084470C7F8E822C7F8E04205F15C00AB812C607B
S2140844806C60AC606C66EC812C616C61AC6121463A
S2140844900822FCF7E7FCDFF89CB0BE68DFF898A0B7
S2140844A0DFF89890DFF8988001230922ED61C5F8B7
S2140844B020B0C5F824A0C5F82890C5F82C80214659
S2140844C0F381B28134607460B46074663461746178
S2140844D0B461082206F15C000193FCF7C3FCFD6892
S2140844E012200222F661C6F820B0C6F824A0C6F844
S2140844F02890C6F82C802146A881EA812C606C603A
S214084500AC606C662C616C61AC6105F15C000822DD
S214084510FCF7A8FC019BED61C5F820B0C5F824A0FF
S214084520C5F82890C5F82C80BB6303B0BDE8F08FAB
S21408453045440800B15E0800D55E08000D5F080017
S2140845402D5F0800704700BF704700BF38B5094D9B
S214084550094C641BA41018BF05EB840505D0013C64
S21408456055F8043D9847002CF9D1BDE8384002F0CC
S214084570ABBF00BFD4740800D87408002DE9F0411A
S21408458093890F46990482B01446804606D4526E24
S21408459043F4005342F40052A381626600F01CFB09
S2140845A001283ED03A46404601A904F15C0301F0D2
S2140845B0C5FD421C06462DD000283AD09DF80410AA
S2140845C0002509E023681970236801332360013544
S2140845D0B5422ED201ABE95CA368013B002BA36071
S2140845E0F0DAA269934206DB236819702368197803
S2140845F001330A29EAD14046224601F04BFDB0F1C4
S214084600FF33584258410028E1D04FF0FF3002B03F
S214084610BDE8F081A38943F04003A38102B0BDE85A
S214084620F0817B1EFE2BBDD8F9B206468DF8041025
S214084630C6E7384602B0BDE8F08100BFF8B5234D9E
S2140846400F46044600F00CFFAB685E6826F00306CB
S214084650F11B01F6EF7121F47F6121F00F01A1F53E
S2140846608057B7F5805F07DB2046002101F00EFC77
S214084670AB683344984204D0204600F0F3FE00208E
S214084680F8BD2046794201F001FC01300DD0104BF0
S214084690AA681968F61B46F001062046C91B56602C
S2140846A0196000F0DFFE0120F8BD2046002101F069
S2140846B0EDFBAB68C21A0F2ADEDD064D04492D68ED
S2140846C042F00102401B5A600860D5E7C005072083
S2140846D0780A0720CC0907202DE9F0410D46064642
S2140846E0002955D000F0BCFE55F8041CDFF870C150
S2140846F0A5F1080421F00103E218DCF80800576861
S214084700904227F0030768D011F00101576032D0B5
S2140847100021D0194068C00706D43B449068002999
S2140847204DD0D268C260906043F001026260E350E8
S214084730E1B9B3F5007F2DD35A0A042A69D8980937
S214084740383041000CEB810CDCF8082044496245FF
S21408475065D0516821F003018B4202D292689445D5
S214084760F7D1D368E360A2609C60D4603046BDE8A9
S214084770F04100F077BE55F8085C0CF10808641B99
S214084780A0682B44404542D0E568C560A860C0E7ED
S214084790BDE8F081DB089A1001209040DCF8041090
S2140847A00CEBC3039A680143A260E360CCF80410DC
S2140847B030469C60D460BDE8F04100F053BE294DF9
S2140847C0A842AED143F00102CCF81440CCF8104011
S2140847D0E060A0606260E350C8E71F44CB0707D4D8
S2140847E055F8081C641AE368A2680F44D3609A60F8
S2140847F01D4B47F001021B6862609F42CCF80840D8
S214084800B4D31A4B30461968FFF718FFAEE70121F4
S2140848107FE7142A0BD802F15B00410092E780106C
S2140848200125854048681346284348609AE7542A75
S21408483003D8180B6E30410084E7B2F5AA7F03D878
S214084840D80B773041007DE740F254518A4203D8AE
S214084850980C7C30410075E7FC217E2072E700BF8B
S214084860C0050720C8050720C8090720740A0720BE
S2140848702DE9F04F936883B0164681460C462BB355
S2140848808B89190726D5226922B303F0020292B251
S2140848903568002A2CD04FF0000ADFF8E8B2D04678
S2140848A0D84534BF43465B4652464846B8F1000FE3
S2140848B04FD0E169676AB847002856DDB368824476
S2140848C01B1AC0EB0808B360002BE9D1002003B020
S2140848D0BDE8F08F48462146FEF7D0FC002840F099
S2140848E04881A389356803F0020292B2002AD2D121
S2140848F013F0010A42D1D046B8F1000F23D09A052A
S214084900A76876D5B845C0F0A48013F4906F40F039
S214084910B2802068BB4651465A4600F03BFDA26866
S2140849202168D21B01EB0B03A26023604246B368E2
S21408493092449B1AC2EB0808B360002BC6D0A38922
S214084940B8F1000FDBD1D5F800A0D5F804800835FB
S214084950D2E7D5F800A0D5F804800835A0E7484681
S2140849602146FFF759FD002859D0A38943F0400394
S2140849704FF0FF30A38103B0BDE8F08F9246019256
S21408498093469046B8F1000F2BD0019F002F64D0B5
S21408499020682169C24534BF5346434688421F46AD
S2140849A0D4F808C0626903D99444634500F3AE801E
S2140849B0934236DB1346676A4846E1695A46B84763
S2140849C0071ED2DDBAEB070A3AD0B368BB44DB1B36
S2140849D0C7EB0808B360002B3FF478AFB8F1000FB8
S2140849E0D3D10027D5F800B0D5F80480019708354C
S2140849F0C8E720682369984202D86369984572D246
S214084A00B84538BF47463A46514600F0C3FCA36847
S214084A102268DB1B3A44A3602260002B9FD03A46EC
S214084A2085E71A465946009300F0B4FC009BA16837
S214084A302268C91ABAEB070A1344A1602360C4D1D6
S214084A4048462146FFF7E8FC00288ED1CDF804A09A
S214084A50BBE720684746C3465DE758460A214246F4
S214084A6000F0D8FB00287FD000F1010A0127CBEB25
S214084A700A0A01978CE7226821696769C1EB020C6C
S214084A8007EB47070CF1010207EBD77742447F1084
S214084A90974234BF17463A465B054FD511464846F7
S214084AA0CDF800C000F01AF9DDF800C083460028EB
S214084AB062D062462169CDF800C000F0F5FBA289F5
S214084AC0DDF800C022F4906242F08002A2810BEB6F
S214084AD00C00CCEB0702C4F810B067612060A26037
S214084AE04746C34617E76FF00042904538BF424630
S214084AF092FBF3F202FB03F3676A4846E169524603
S214084B00B84700287FF731AF024610E76246594695
S214084B10CDF800C000F03EFCDDF800C0236848462B
S214084B20634423602146CDF800C0FFF775FCDDF826
S214084B3000C000287FF419AF674643E74846CDF81B
S214084B4000C000F09BFFDDF800C083460028BED1F9
S214084B5048462169FFF7C0FDA3890C2223F080038D
S214084B609BB2C9F8002001E7012708F1010A01975E
S214084B700EE74FF0FF30AAE60C23C9F80030A389E9
S214084B80F4E600BF00FCFF7F2DE9F04110F538770A
S214084B90884619D000267D68BC68013D0ED4A389D6
S214084BA0013D012B06D9B4F90E302046013301D059
S214084BB0C04706436B1C04F16804F0D13F68002F19
S214084BC0E9D13046BDE8F0813E463046BDE8F08182
S214084BD0004870479C050720014B1868704700BFBF
S214084BE0BC0507200048704764050720F0B58B8988
S214084BF091B09AB296070C46054637D4B1F90E100E
S214084C00002917DB01AA01F0C1FB002810DB029B74
S214084C1003F47043B3F500514F424F41B3F5004FCC
S214084C202CD0A3894FF4806643F40063A3810BE07D
S214084C30A3899AB212F0800F43F40063A38114BFCD
S214084C4040264FF4806600272846314600F046F88E
S214084C50A389002829D01B4A43F08003EA63A3816E
S214084C60206020616661A7B911B0F0BD01F1430369
S214084C7001220B600B614A6111B0F0BD124AA36AAB
S214084C809342CED1A3894FF480663343A381E6646A
S214084C90DAE72846B4F90E1001F08CFB0028E3D0BA
S214084CA0A38943F00103A381DEE79A05DCD404F167
S214084CB0430243F002030121A3812260226161615D
S214084CC0D2E700BF454408000D5F0800024B0146C6
S214084CD0186800F003B800BF600507202DE9F04FFC
S214084CE001F10B05162D83B0064627D935F00705C2
S214084CF027D4A94225D8304600F0B2FBB5F5FC7F8C
S214084D0026D2C14F4FEAD50C07EBCC03DC689C4291
S214084D1000F0D2816368E26823F0030323445868EE
S214084D20A16840F00105CA60304691605D6000F0F9
S214084D3099FB0834204603B0BDE8F08F1025A94239
S214084D40D9D900240C232046336003B0BDE8F08F81
S214084D505FEA552C00F08980BCF1040F00F26081F0
S214084D604FEA951C0CF1380C4FEA4C01A64F07EB9E
S214084D708101CC68A14205D10CE0002B79DAE46801
S214084D80A14207D0626822F00302531B0F2BF4DD02
S214084D900CF1FF3C0CF1010C9B4B3C6903F1080E2F
S214084DA0744500F07E81616821F003014A1B0F2AD2
S214084DB000F36481002AC3F814E0C3F810E069DA47
S214084DC0B1F5007F80F03A81C9088A104FF00108D3
S214084DD008FA02F803EBC1015A68886848EA020232
S214084DE0A060E1605A608C60C4604FEAAC030120A2
S214084DF0984090425BD8024206D12CF0030C400043
S214084E0002420CF1040CFAD007EBCC084446E14603
S214084E10E3689C4207D146E1002A80F25781DB68A6
S214084E209C4200F04081596821F003014A1B0F2A72
S214084E30F2DD1C4654F808CFD96845F0010942F05F
S214084E4001081D44C3F804903046CCF80C10C1F88D
S214084E5008C07D613D61C5F80CE0C5F808E0C5F8F6
S214084E600480AA5000F0FEFA64E77E214FF03F0C5B
S214084E707CE722445068E368A16840F00105CB60EF
S214084E8030469960556000F0EDFA0834204603B0C5
S214084E90BDE8F08F21444B68304643F001034B6071
S214084EA000F0E0FA0834204603B0BDE8F08FBC688E
S214084EB0636823F00309A94504D3C5EB09030F2B40
S214084EC000F39180514B524A1968136805EB010AA2
S214084ED0013304EB090B00F061810AF5805A0AF1E8
S214084EE00F0A2AF47F6A2AF00F0A304651460192C2
S214084EF000F0CCFFB0F1FF3F8046019A00F0018138
S214084F00834500F2FB80DFF814C1C345DCF80030A7
S214084F105344CCF8003000F04A8112683C4901320C
S214084F201BBFCBEB080B5B44C1F80080CCF8003005
S214084F3018F0070300F01481C3F10802C3F5805384
S214084F4090440833C244CAF30B0ACAEB030A514614
S214084F503046CDF804C000F099FF431CDDF804C0C5
S214084F6000F03581C8EB0002524442F00102DCF83A
S214084F700030BC425344C7F80880CCF80030C8F864
S214084F800420DFF898A015D0B9F10F0F40F2EB8097
S214084F906168A9F10C0222F0070201F0010142EA59
S214084FA0010E0520A1180F2AC4F804E0486088609E
S214084FB000F21181174ABC6811688B4288BF1360DB
S214084FC0154A11688B4288BF1360626822F0030294
S214084FD09542C5EB020301D80F2B04DC304600F0DF
S214084FE041FA0024A6E645F0010243F001032544F1
S214084FF062603046BD606B6000F034FA08342046C4
S21408500003B0BDE8F08F00BFC0050720740A07206C
S214085010CC090720700A07206C0A0720780A0720A0
S214085020BCF1140F61D9BCF1540F00F28F804FEA1F
S214085030153C0CF16E0C4FEA4C0197E64B0A042B14
S21408504058D9142B00F2AD8003F15B02500007EB31
S21408505080008368DFF8B881834200F08A805A6847
S21408506022F00302914202D29B689842F7D1D9688F
S2140850707A68E160A3608C60DC60B6E645F00107FC
S21408508042F001012544676030465D611D61C5F840
S2140850900CE0C5F808E06960AA50083400F0E2F9A8
S2140850A048E65A68A1E609F1010919F0030F04F168
S2140850B008047FF4ADAE2DE004F108036469A3424A
S2140850C008BF0CF1020C3FF467AE23E619444868A3
S2140850D01C4654F8082FDB6840F001054D60304642
S2140850E0D3609A6000F0BEF924E60CF15B0C4FEA38
S2140850F04C013BE68A0938325000A8E7BC423FF428
S21408510002AFBC68626822F0030261E7D8F8008044
S21408511098457AD11CF0030FA8F108030CF1FF3C60
S214085120F4D17B6823EA00037B60400098423FF690
S214085130BEAE00283FF4BBAE0342CC467FF464AE56
S214085140400003420CF1040CFAD05DE6BCF5AA7FD9
S21408515019D84FEAD53C0CF1770C4FEA4C0105E616
S2140851604FF48053EEE60123C8F804304446002284
S2140851702EE7921001209040D8F8042019460243E2
S214085180C8F8042075E740F254539C451BD84FEAEC
S214085190954C0CF17C0C4FEA4C01E7E50AF1100A35
S2140851A0A3E6542B1FD80A0B6E3250004FE7CBF3FA
S2140851B00B0100297FF4B1AE0AEB0901BA6841F089
S2140851C001015160F6E6FC214FF07E0CCEE5012287
S2140851D04FF0000ACBE604F108013046FFF77CFAE8
S2140851E0DAF80030E6E6B3F5AA7F03D8CA0B7732BA
S2140851F050002CE740F25452934203D88A0C7C3273
S214085200500024E7FC207E2221E77B688DE700BF5C
S214085210C0050720830770B4C9B240D0541E2AB30D
S21408522003788B4223D0431C04E0FCB1057814466F
S2140852308D421CD013F0030F184604F1FF3203F119
S2140852400103F2D1032C14D8651E54B303788B429D
S2140852500DD0421C002302E004788C4207D0AB42F3
S214085260104603F1010302F10102F5D1002070BCDB
S214085270704741EA0126034646EA06461A68184673
S2140852807240A2F1013525EA020212F0803F03F1CE
S2140852900403D9D1043C032C1846EFD8D4E71446A7
S2140852A0D0E72046E3E700BF844641EA000313F050
S2140852B0030349D1403A23D30B6803604B68436025
S2140852C08B688360CB68C3600B6903614B69436175
S2140852D08B698361CB69C3610B6A03624B6A43625D
S2140852E08B6A8362CB6AC3620B6B03634B6B436345
S2140852F08B6B8363CB6BC36340304031403ADBD261
S21408530030320BD30B6803604B6843608B6883604E
S214085310CB68C36010301031103AF3D20C3205D384
S21408532051F8043B40F8043B043AF9D2043208D05A
S214085330D2071CBF11F8013B00F8013B01D30B88CC
S21408534003806046704700BF082A13D38B07B1D086
S21408535010F00303AED0C3F10403D21ADB071CBF58
S21408536011F8013B00F8013BA4D331F8023B20F8C2
S214085370023B9FE7043AD9D3013A11F8013B00F8FB
S214085380013BF9D20B7803704B7843708B788370A7
S214085390604670478842F0B410D98C18A0420DD2E7
S2140853A08518531E42B121462A4611F8014D013B85
S2140853B002F8014D5C1CF8D1F0BC70470F2A44D99E
S2140853C040EA01039B0744D1A2F110073F0900EB0E
S2140853D0071610360C4603462568103343F8105C4B
S2140853E06568103443F80C5C54F8085C43F8085CAD
S2140853F054F8045C43F8045CB342EDD17B1C02F01D
S2140854000F0C1B01BCF1030F1944034423D90E46A5
S2140854101D46644656F8047B043C032C45F8047B7A
S214085420F8D8ACF1040424F00304043402F00302B0
S21408543023442144002ABFD01A4411F8014B03F82C
S214085440014B9342F9D1F0BC70470346002AF3D1CA
S214085450B2E70346F0E76246002AEDD1ACE700BFA4
S214085460704700BF704700BFC26C70B505460C4653
S2140854704AB152F8240080B1016842F8241000228C
S2140854800261C26070BD2122042100F0F5FEE864C6
S21408549002460028EDD1002070BD012101FA04F66D
S2140854A0721D2846920000F0E7FE0028F3D04460FC
S2140854B08660E4E731B1C36C4A6853F82200086096
S2140854C043F82210704700BF2DE9F0430F6983B0F8
S2140854D08846814601F1140500242E680134B1B2CD
S2140854E0360C02FB013302FB06F699B206EB1343B1
S2140854F001EB0341A74245F8041B4FEA1343ECDCD3
S2140855004BB1D8F80820974209DA08EB870201372A
S2140855105361C8F81070404603B0BDE8F083D8F869
S2140855200410484601310193FFF79EFFD8F8102073
S21408553008F10C010232044692000C30FFF7B4FE64
S214085540D9F84C20D8F80410019B52F82100C8F866
S214085550000042F82180A046D7E700BF030C1B04D2
S214085560B3B90004102310F07F4F04BF00020833BD
S21408557010F0704F04BF0001043310F0404F04BF12
S21408558080000233002807DB420003D4202070473F
S2140855900023E8E7581C704718467047036813F05E
S2140855A0070207D0D90720D49A0720D49B0803609F
S2140855B00220704799B209B91B0C102213F0FF0F8E
S2140855C004BF1B0A0832190704BF1B0904329907CF
S2140855D004BF9B080232D90704D45B0801D12020F7
S2140855E070470132036010467047002070475B081A
S2140855F003600120704700BF10B50C460121FFF775
S21408560033FF01224461026110BD00BF2DE9F04F4F
S2140856100D69D2F8109085B04D450C46924604DACE
S2140856202A4654464D468A469146A36805EB09071E
S21408563061689F42C8BF0131FFF716FF00F11406E4
S21408564006EB87084645019005D23346002043F806
S214085650040B9845FBD80AF1140C0CEB8909143492
S214085660CC45009404EB85055BD2CDF808800397FB
S214085670C8465CF8043B9CB224B3009A33464FF005
S214085680000900E00B4652F8047B19681FFA87FBEE
S2140856901FFA81FA380C090C04FB0BAA04FB00104D
S2140856A0D14400EB19401FFA89F949EA0047194620
S2140856B095424FEA104941F8047BE3D8C3F80490B2
S2140856C05CF8043C5FEA134924D0D6F800A0009B97
S2140856D0504631464FF0000B00E011461A88000C81
S2140856E009FB02001FFA8AFA83444AEA0B400A4674
S2140856F042F8040B53F8047B48684FEA174A84B20A
S21408570009FB0A4A9D420AEB1B4A4FEA1A4BE4D8A1
S214085710C1F804A0E04506F10406AAD8DDF808801A
S214085720039F002F0ADD58F8043CA8F104081BB1B3
S21408573004E058F8043D0BB9013FFAD1019B18461E
S2140857401F6105B0BDE8F08F12F003032DE9F041A4
S214085750144607460E462CD1A4101CD0BD6C002D4E
S21408576030D04FF0000804E0641014D02868A8B1C0
S2140857700546E307F8D5384631462A46FFF746FF7A
S214085780AEB17268FB6C641053F82210316043F8AF
S21408579022600646EAD13046BDE8F08138462946FA
S2140857A02A46FFF733FF2860C0F80080E0E7064681
S2140857B0DAE70B4A013B52F823200023FFF784FE62
S2140857C00646C9E701213846FFF74EFE40F271212A
S2140857D001220023416102610546B8640360C0E700
S2140857E0A87408002DE9F84F0B694FEA621A0AEB0D
S2140857F003098B6809F101069E420F4693468046C8
S214085800496804DD5B009E4201F10101FADC40466E
S214085810FFF72AFEBAF1000F00F1140409DD002391
S2140858201A4625460133534545F8042BFAD104EBAE
S21408583083043A6907F114031BF01F0B03EB820C71
S21408584021D0CBF1200A002200E02C461968254614
S21408585001FA0BF10A4345F8042B53F8042B634569
S21408586022FA0AF2F1D362600AB109F10206D8F800
S2140858704C307A68013E53F822100661396043F8C6
S2140858802270BDE8F88F53F8042B9C4544F8042B87
S214085890EDD953F8042B9C4544F8042BF3D8E6E7D7
S2140858A002690B6910B4D21A15D19B001430143152
S2140858B01944034401E0984211D253F8042D51F8D4
S2140858C0044DA242F7D0944294BF01204FF0FF3017
