:0200000280007C
:10000000D82B0720BD0D0800B90D0800B90D080058
:10001000B90D0800B90D0800B90D08000000000076
:10002000000000000000000000000000B90D080002
:10003000B90D080000000000B90D0800B90D080056
:10004000B90D0800B90D0800B90D0800B90D080078
:10005000B90D0800B90D0800B90D0800B90D080068
:10006000B90D0800B90D080000000000290C0800B7
:100070003D0C0800510C0800650C08000000000051
:1000800000000000A1050800B90D0800B90D080026
:10009000B90D0800B90D0800B90D0800B90D080028
:1000A000B90D080000000000B90D0800B90D0800E6
:1000B000B90D0800B90D0800B90D0800B90D080008
:1000C000B90D0800B90D0800B90D0800B90D0800F8
:1000D000B90D0800B90D0800B90D0800B90D0800E8
:1000E000B90D0800B90D0800B90D0800B90D0800D8
:1000F000B90D080010B5054C237833B9044B13B182
:100100000448AFF300800123237010BDDC090720F1
:1001100000000000D88E080008B5064B1BB1064849
:100120000649AFF300800648036813B1054B03B1DD
:10013000984708BD00000000D88E0800E00907209D
:10014000D88E0800000000002DE9F04F83B005466E
:100150009046002A47D04E1C254F264CDFF8A8A019
:10016000DFF894B006F1FF3900230193224B9D4242
:1001700006D158464946214B98470028F9D119E045
:100180001F4B9D4209D19946484601A9A047002826
:10019000FAD1019B06F8013C17E01A4B9D4209D1A8
:1001A0009946484601A9A0470028FAD1019B06F8C4
:1001B000013C14E0554508D1504601A9A04700284C
:1001C000FAD1019B06F8013C09E0BD4207D138464F
:1001D00001A9A0470028FAD1019B06F8013C01368D
:1001E000B8F10108BED1002003B0BDE8F08F00BF18
:1001F00000400A408905080000080E40610508001B
:100200000080094000C0094000000A402DE9F0418B
:100210000C46904660B9002A0EDD8F18094E0A4D33
:10022000306821462B6898470134BC42F8D106E07B
:100230004FF0FF30BDE8F0810020BDE8F08140467E
:10024000BDE8F081B00B0720A80B07202DE9F04195
:100250000E461546013802280FD892B10024DFF867
:100260003C800D4FD8F80000315D3B68984700286E
:100270000ADB0134A542F5D10AE04FF0FF30BDE8BA
:10028000F0810020BDE8F0814FF0FF30BDE8F08143
:100290002046BDE8F08100BFAC0B0720B00B072063
:1002A000F0B583B00E4608AC54F8047BC168324800
:1002B000324DA8470194324D2B6898683946224642
:1002C000304B9847286882689368013B9360002B05
:1002D00018DA82689168936999420FDB13680D22DE
:1002E0001A7028688268136819780A2902D00133C5
:1002F000136011E00A21244B98470DE00D21224B99
:10030000984709E083681B680D221A701C4B1B6814
:100310009B681A6801321A60194B186882689368E2
:10032000013B9360002B19DA8268916893699942C6
:1003300010DB13680A221A70114B18688268136860
:1003400019780A2902D00133136011E00A210E4BFB
:1003500098470DE00A210C4B984709E083681B6819
:100360000A221A70064B1B689B681A6801321A60D1
:1003700006483146064B9847088B0800611808006C
:1003800068050720F95108008D520800FC09072074
:1003900039190800F0B583B004460D4616461C4BCB
:1003A000186868B1A4B91B4B00931B4B0193012142
:1003B0001A4A58231A4FB847154B186840B913E02A
:1003C00094B918481449154A5823174CA047FEE71A
:1003D000022D12D90F4B0093144B019301210F4AA8
:1003E0005A230F4FB84708E0022D06D90D480F4990
:1003F0000A4A5A230C4CA047FEE7AD0163190222BA
:1004000062514FF0FF329A621A6A5E6003B0F0BD2B
:10041000F8090720288C0800408C0800088C080088
:10042000A1020800488C0800611808006C8C0800C4
:1004300070B582B004460D460C4B186850B18CB9AB
:100440000B4B00930B4B019301210B4A8A230B4E5C
:10045000B04707E034B90A480649074A8A23094CDD
:10046000A047FEE7C4F8C45002B070BDF8090720E9
:10047000288C0800408C0800088C0800A1020800A5
:10048000488C08006118080070B582B004460D461B
:10049000194B186868B1A4B9184B0093184B019315
:1004A0000121184ACA23184EB047134B186840B9A7
:1004B00013E094B915481249124ACA23144CA047B4
:1004C000FEE7022D12D90D4B0093124B019301212F
:1004D0000C4ACC230C4EB04708E0022D06D90B483D
:1004E0000C49084ACC230A4CA047FEE7AD01022381
:1004F000635102B070BD00BFF8090720288C0800C6
:10050000408C0800088C0800A1020800488C0800F4
:10051000611808006C8C080010B4AC2303600A68F2
:100520004B68B2FBF3F31B095C1E4FF6FE7294425C
:100530000AD803628B68436040F20223C0F820317E
:1005400050230360002000E001205DF8044B704759
:10055000436913F0020F1ABFC161002001207047E8
:10056000436913F0010F1DBF83690B700020012048
:10057000704700BF436913F0020F1DBFC1F30801AC
:10058000C161002001207047436913F0010F05D0BD
:100590008369C3F308030B60002070470120704794
:1005A00000B583B013480DF107010122124B9847A3
:1005B00072B6BFF35F8F0022104B1A70104B1A787F
:1005C00001321A700F4B1B789DF807100E4AD15458
:1005D0009B2B03D100220B4B1A7002E00133094A16
:1005E00013700122054B1A70BFF35F8F62B603B020
:1005F0005DF804FB00800940490108003401072030
:10060000F50A0720F40A0720580A0720F0B583B03E
:1006100004460D46002301931F4B984207D11F4605
:100620001E4E38462946B0470028FAD119E01C4B27
:10063000984209D11F461B4E384601A9B0470028F1
:10064000FAD1019B2B7019E0174B984209D11E4635
:10065000144C304601A9A0470028FAD1019B2B7009
:1006600018E0124B9C4209D11E460E4C304601A99F
:10067000A0470028FAD1019B2B700BE00C4B9C4249
:1006800008D11E46074C304601A9A0470028FAD1E0
:10069000019B2B7003B0F0BD00080E4061050800FF
:1006A000008009408905080000C0094000000A4098
:1006B00000400A4070B50C46214B984207D11E46B7
:1006C000204D30462146A8470028FAD12BE01E4B8A
:1006D000984207D11E461D4D30462146A8470028A6
:1006E000FAD122E01A4B984207D11E46174D3046E8
:1006F0002146A8470028FAD119E0164B984207D1A5
:100700001E46124D30462146A8470028FAD110E077
:10071000114B98420FD11E460C4D30462146A8473A
:100720000028FAD109E0012070BD012070BD012030
:1007300070BD012070BD002070BD012070BD00BFE4
:1007400000080E40510508000080094075050800AA
:1007500000C0094000000A4000400A4030B585B0A2
:100760000820154DA847154C154B1C60154A164B13
:100770001A60164A164B1A60164B01934FF4E13378
:1007800002934FF4006303930820A847204601A971
:10079000114B9847114D2B6898680021104CA047C9
:1007A0002B6858680021A0470E480F4CA0470F48FF
:1007B000A04705B030BD00BF610D080000080E4025
:1007C000B00B0720B5060800AC0B07200D0608008B
:1007D000A80B072000BD01051905080068050720C2
:1007E0001D190800B48C080061180800C48C0800AA
:1007F00010B51B20084B9847084C204600210A469C
:10080000074B984720460021064B98472046002179
:10081000054B984710BD00BF610D0800000008405F
:1008200095030800310408008904080030B595B02C
:1008300002460D460AA80749074CA04768460749E3
:100840002A46A0470AA8064CA0476846A04715B00C
:1008500030BD00BFD48C0800491A0800DC8C0800A9
:100860006118080008B5084B08490A681A60084A68
:1008700052685A60074B002018604968511A596045
:10088000054B984708BD00BFB40B0720F80A0720A6
:100890002C010720BC0B07202D080800034B4FF448
:1008A00000021A61C3F8A020704700BF00120E407A
:1008B00010B50B20094CA0470C20A0470D20A047E5
:1008C0000E20A047064B4FF400421A61C3F8A02047
:1008D0004FF480425A61C3F8A02010BD610D08009A
:1008E000000E0E4010B50E480E4B984700203E21DA
:1008F0000D4B98470D4CA0470028FCD00C4B984757
:100900000C4A0D4B9A620D4CA0470028FCD01020D9
:100910000B4B98470B4B98470148024B984710BD2B
:1009200000BD0105A5000720DD0C0800310D080001
:10093000410D0800013F0D2000060E40510D08003A
:10094000790C08006D0E080010B54FF40042134BEF
:100950005A600B20124CA0470C20A0470D20A04746
:100960000E20A0473B204FF060510E4CA047552071
:100970004FF06051A04756204FF06051A0476820CB
:100980000949A0475C200949A04709484FF4407134
:100990004FF00062074B984710BD00BF501A0E4041
:1009A000610D08005D0A0800790000280100002898
:1009B000000E0E40310B08004264B1F1805F16D08A
:1009C00004D8C1B1B1F1006F0AD013E0B1F1405FBA
:1009D00011D0B1F1605F0ED0B1F1205F0AD1704744
:1009E000036F016F0B4023EA0203036702E0036F0A
:1009F0001343036742607047416412F0010F14BF54
:100A00004166016612F00A0F14BF0162416212F0E2
:100A1000020F02D0C0F8801004E012F0080F18BFD7
:100A2000C0F8841041610160704700BF10B4416498
:100A3000019C0CB1416600E001660BB1016500E06C
:100A400041650AB1016300E04163016101605DF845
:100A5000044B7047C06C7047806C704770B582B0B3
:100A60000D46440904F5001404F20774660201F00F
:100A7000F044B4F1205F30D006D8B4F1006F0AD052
:100A8000B4F1805F18D049E0B4F1405F30D0B4F1E8
:100A9000605F2DD042E000F01F000124844030460A
:100AA0004FF0006122461F4B984715F0010F14BF0D
:100AB00074663466012032E000F01F000124844097
:100AC00030464FF080512246164B984715F0010FE3
:100AD00014BF74663466012021E000F01F01012478
:100AE000304604FA01F12A460F4B9847204616E09B
:100AF00000F01F01012405F0605205EA0403009391
:100B0000304604FA01F1B2F1605F14BF0022012205
:100B1000C5F38003054DA847204600E0002002B041
:100B200070BD00BFB9090800F90908002D0A0800C6
:100B3000F0B583B007460E46154602F0F044B4F116
:100B4000205F26D006D8B4F1006F0AD0B4F1805FE0
:100B500013D034E0B4F1405F1FD0B4F1605F1CD01B
:100B60002DE04FF000613246164B984715F0010F0B
:100B700014BF7E663E66012022E04FF0805132466F
:100B8000104B984715F0010F14BF7E663E6601209A
:100B900016E00D4B9847012012E005F0605205F079
:100BA0000103009338463146B2F1605F14BF002262
:100BB0000122C5F38003054CA047012000E000207E
:100BC00003B0F0BDB9090800F90908002D0A0800B2
:100BD0002DE9F04104460E46104B98470546204645
:100BE0000F4B9847054017D00E4F07F10C046C3798
:100BF00054F80C3CB3420AD154F8081C294206D0E0
:100C000023683046984754F8083C25EA0305BC425F
:100C100002D01034002DEBD1BDE8F081550A080058
:100C2000590A0800000B072008B502480B21024BA7
:100C3000984708BD000E0E40D10B080008B50248C9
:100C40000C21024B984708BD00100E40D10B080044
:100C500008B502480D21024B984708BD00120E400E
:100C6000D10B080008B502480E21024B984708BD79
:100C700000140E40D10B0800174B1A6B22F07002C3
:100C8000104318639B6E13F0080F09D14FF40063F3
:100C9000114901E0013B19D08A6E12F0080FF9D01A
:100CA0000D4B1A6B22F0030242F002021A63986E97
:100CB00010F008000CD14FF40063074901E0013B3C
:100CC00008D08A6E12F0080FF9D0704701207047E3
:100CD000002070470120704700060E4038B11149CE
:100CE0000B6A114A1A40114B13430B6270470D4AAD
:100CF000136A23F45C1323F0030343F45C1343F0FF
:100D00000103090289B20B431362936E13F0010FC2
:100D1000FBD0044A136A43F09B7343F4803313629D
:100D2000704700BF00060E40FCFFC8FE02003701FE
:100D3000024B986E00F48030704700BF00060E40F2
:100D40004FF00052014B9A62704700BF00060E4000
:100D5000024B986E00F00200704700BF00060E4084
:100D60002C2820D81F280DD8124B9A6901238340C4
:100D70001A40934219D0012303FA00F00D4B186179
:100D8000002070470B4BD3F8082120380123834003
:100D90001A4093420BD0012303FA00F0054BC3F82D
:100DA000000100207047012070470020704700209C
:100DB000704700BF00060E40FEE700BF10B51E4B97
:100DC0001E4A9A4203D01E4B1B4A9A4204D31D4B23
:100DD0001D4A9A420FD31AE01C4B1D4CE41A24F012
:100DE000030404340023144814495A581A50043395
:100DF000A342FAD1EBE7174B1749C91A21F00301B7
:100E00001A1D1144002243F8042F8B42FBD1134AD0
:100E100022F0604323F07F0311498B6002F16042AE
:100E2000B2F5801F03D28A6842F000528A600D4BEF
:100E300098470D4B9847FEE700000720D88E080022
:100E4000DC090720D80B0720DC0907200400072055
:100E5000DF090720D8090720D30B0720000008006E
:100E600000ED00E011180800D90F08003E4B1B6B85
:100E700003F00303032B5FD8DFE803F0020E2B2BF4
:100E80003A4B5B6913F0800F14BF4FF400424FF4EC
:100E9000FA42374B1A604FE0334B1B6A13F0807FE6
:100EA00003D0344A324B1A6046E0334A304B1A6062
:100EB0002D4B1B6A03F07003102B02D0202B04D0A3
:100EC0003AE02E4A2A4B1A6036E02A4A284B1A602A
:100ED00032E0254B1B6A13F0807F03D0254A244B58
:100EE0001A6012E0244A224B1A601F4B1B6A03F05F
:100EF0007003102B02D0202B04D006E01F4A1C4B9D
:100F00001A6002E01B4A1A4B1A60174B1B6B03F066
:100F10000303022B0DD1144B986A996A144BC0F34A
:100F20000A401A6800FB0222C9B2B2FBF1F21A6051
:100F300002E0134A0E4B1A600B4B1B6B03F070035D
:100F4000702B07D10A4B1A680E49A1FB0202520806
:100F50001A607047044B196B054BC1F302111A68F4
:100F6000CA401A60704700BF00060E40101A0E40BB
:100F700038010720001BB70000093D0000127A006D
:100F8000001C4E0EABAAAAAA094B1B6813B9094A4A
:100F9000074B1A60064B1B681A180749914204DB7D
:100FA0001046034A1060184670474FF0FF307047F4
:100FB000700B0720D82B0720FC7F08204FF0FF3054
:100FC000704700BF4FF400534B600020704700BFD4
:100FD000012070470020704708B50C4B98470C4B18
:100FE00098470B200B4CA0470C20A0470D20A04792
:100FF0000E20A047084B9847084B9847084B984746
:10100000084B9847084B9847FEE700BFE5080800E3
:1010100049090800610D0800F1070800B10808003F
:101020005D0708009D0808006508080081F0004180
:1010300002E000BF83F0004330B54FEA41044FEABD
:10104000430594EA050F08BF90EA020F1FBF54EA58
:10105000000C55EA020C7FEA645C7FEA655C00F0F4
:10106000E2804FEA5454D4EB5555B8BF6D420CDDC5
:101070002C4480EA020281EA030382EA000083EA48
:10108000010180EA020281EA0303362D88BF30BDE8
:1010900011F0004F4FEA01314FF4801C4CEA11313E
:1010A00002D0404261EB410113F0004F4FEA03339D
:1010B0004CEA133302D0524263EB430394EA050F28
:1010C00000F0A780A4F10104D5F1200E0DDB02FA97
:1010D0000EFC22FA05F2801841F1000103FA0EF22B
:1010E000801843FA05F359410EE0A5F120050EF1F1
:1010F000200E012A03FA0EFC28BF4CF0020C43FA22
:1011000005F3C01851EBE37101F0004507D54FF02E
:10111000000EDCF1000C7EEB00006EEB0101B1F57E
:10112000801F1BD3B1F5001F0CD349085FEA3000C4
:101130004FEA3C0C04F101044FEA445212F5800FCF
:1011400080F09A80BCF1004F08BF5FEA500C50F16C
:10115000000041EB045141EA050130BD5FEA4C0C4F
:10116000404141EB010111F4801FA4F10104E9D1D8
:1011700091F0000F04BF01460020B1FA81F308BFCF
:101180002033A3F10B03B3F120020CDA0C3208DD9B
:1011900002F1140CC2F10C0201FA0CF021FA02F176
:1011A0000CE002F11402D8BFC2F1200C01FA02F1E6
:1011B00020FA0CFCDCBF41EA0C019040E41AA2BF0B
:1011C00001EB0451294330BD6FEA04041F3C1CDAD3
:1011D0000C340EDC04F11404C4F1200220FA04F0F3
:1011E00001FA02F340EA030021FA04F345EA03019D
:1011F00030BDC4F10C04C4F1200220FA02F001FA5F
:1012000004F340EA0300294630BD21FA04F02946E0
:1012100030BD94F0000F83F4801306BF81F4801179
:101220000134013D4EE77FEA645C18BF7FEA655CEC
:1012300029D094EA050F08BF90EA020F05D054EABE
:10124000000C04BF1946104630BD91EA030F1EBFC3
:101250000021002030BD5FEA545C05D140004941C7
:1012600028BF41F0004130BD14F580043CBF01F5BA
:10127000801130BD01F0004545F0FE4141F47001A0
:101280004FF0000030BD7FEA645C1ABF194610467B
:101290007FEA655C1CBF0B46024650EA013406BF7C
:1012A00052EA033591EA030F41F4002130BD00BF3B
:1012B00090F0000F04BF0021704730B54FF48064F8
:1012C00004F132044FF000054FF0000150E700BF79
:1012D00090F0000F04BF0021704730B54FF48064D8
:1012E00004F1320410F0004548BF40424FF00001C5
:1012F0003EE700BF42004FEAE2014FEA31014FEA08
:1013000002701FBF12F07F4393F07F4F81F0605156
:10131000704792F0000F14BF93F07F4F704730B5C5
:101320004FF4607401F0004521F0004120E700BF58
:1013300050EA010208BF704730B54FF000050AE0DF
:1013400050EA010208BF704730B511F0004502D5E0
:10135000404261EB41014FF4806404F132045FEAE2
:10136000915C3FF4DCAE4FF003025FEADC0C18BF87
:1013700003325FEADC0C18BF033202EBDC02C2F17D
:10138000200300FA03FC20FA02F001FA03FE40EA0F
:101390000E0021FA02F11444C1E600BF70B54FF00F
:1013A000FF0C4CF4E06C1CEA11541DBF1CEA1355F1
:1013B00094EA0C0F95EA0C0F00F0DEF82C4481EA59
:1013C000030621EA4C5123EA4C5350EA013518BF79
:1013D00052EA033541F4801143F4801338D0A0FB66
:1013E00002CE4FF00005E1FB02E506F00042E0FB13
:1013F00003E54FF00006E1FB03569CF0000F18BF19
:101400004EF0010EA4F1FF04B6F5007F64F54074C0
:1014100004D25FEA4E0E6D4146EB060642EAC62153
:1014200041EA55514FEAC52040EA5E504FEACE2EC0
:10143000B4F1FD0C88BFBCF5E06F1ED8BEF1004FC3
:1014400008BF5FEA500E50F1000041EB045170BD3F
:1014500006F0004646EA010140EA020081EA030183
:10146000B4EB5C04C2BFD4EB0C0541EA045170BD7F
:1014700041F480114FF0000E013C00F3AB8014F1F9
:10148000360FDEBF002001F0004170BDC4F1000442
:10149000203C35DA0C341BDC04F11404C4F12005C3
:1014A00000FA05F320FA04F001FA05F240EA02001E
:1014B00001F0004221F0004110EBD37021FA04F654
:1014C00042EB06015EEA430E08BF20EAD37070BD0E
:1014D000C4F10C04C4F1200500FA04F320FA05F06D
:1014E00001FA04F240EA020001F0004110EBD3706F
:1014F00041F100015EEA430E08BF20EAD37070BDDF
:10150000C4F1200500FA05F24EEA020E20FA04F3B7
:1015100001FA05F243EA020321FA04F001F0004166
:1015200021FA04F220EA020000EBD3705EEA430ED7
:1015300008BF20EAD37070BD94F0000F0FD101F006
:101540000046400041EB010111F4801F08BF013C3F
:10155000F7D041EA060195F0000F18BF704703F07D
:101560000046520043EB030313F4801F08BF013D04
:10157000F7D043EA0603704794EA0C0F0CEA1355C0
:1015800018BF95EA0C0F0CD050EA410618BF52EA7A
:101590004306D1D181EA030101F000414FF0000080
:1015A00070BD50EA410606BF1046194652EA43068E
:1015B00019D094EA0C0F02D150EA013613D195EA02
:1015C0000C0F05D152EA03361CBF104619460AD14A
:1015D00081EA030101F0004141F0FE4141F4700154
:1015E0004FF0000070BD41F0FE4141F4780170BD44
:1015F00070B54FF0FF0C4CF4E06C1CEA11541DBFA9
:101600001CEA135594EA0C0F95EA0C0F00F0A7F8AA
:10161000A4EB050481EA030E52EA03354FEA0131D7
:1016200000F088804FEA03334FF0805545EA1313EA
:1016300043EA12634FEA022245EA111545EA1065B2
:101640004FEA00260EF000419D4208BF964244F149
:10165000FD0404F5407402D25B084FEA3202B61A68
:1016600065EB03055B084FEA32024FF480104FF43C
:10167000002CB6EB020E75EB030E22BFB61A7546B0
:1016800040EA0C005B084FEA3202B6EB020E75EB43
:10169000030E22BFB61A754640EA5C005B084FEAAB
:1016A0003202B6EB020E75EB030E22BFB61A754678
:1016B00040EA9C005B084FEA3202B6EB020E75EB83
:1016C000030E22BFB61A754640EADC0055EA060E44
:1016D00018D04FEA051545EA16754FEA06164FEA87
:1016E000C30343EA52734FEAC2025FEA1C1CC0D133
:1016F00011F4801F0BD141EA00014FF000004FF0C0
:10170000004CB6E711F4801F04BF01430020B4F180
:10171000FD0C88BFBCF5E06F3FF6AFAEB5EB030C38
:1017200004BFB6EB020C5FEA500C50F1000041EB35
:10173000045170BD0EF0004E4EEA113114EB5C0402
:10174000C2BFD4EB0C0541EA045170BD41F48011D5
:101750004FF0000E013C90E645EA060E8DE60CEADD
:10176000135594EA0C0F08BF95EA0C0F3FF43BAFFA
:1017700094EA0C0F0AD150EA01347FF434AF95EAB1
:101780000C0F7FF425AF104619462CE795EA0C0F95
:1017900006D152EA03353FF4FDAE1046194622E762
:1017A00050EA410618BF52EA43067FF4C5AE50EA3C
:1017B00041047FF40DAF52EA43057FF4EBAE12E72C
:1017C0004FEA410212F5001215D211D56FF4787369
:1017D000B3EB625212D94FEAC12343F0004343EA0C
:1017E000505311F0004F23FA02F018BF40427047E7
:1017F0004FF00000704750EA013005D111F0004071
:1018000008BF6FF0004070474FF00000704700BF06
:1018100070B50F4E0F4D761BB61007D0043D002457
:10182000013455F8043F9847A642F9D10A4E0B4DB2
:1018300007F03CFB761BB61008D0043D00240134B1
:1018400055F8043F9847A642F9D170BD70BD00BF5E
:10185000B88E0800B88E0800C08E0800B88E080048
:101860000FB410B5074B82B004AC54F8042B1868C1
:1018700023468168019401F0C5FB02B0BDE8104029
:1018800004B0704768050720F0B4840743D0541EA5
:10189000002A3ED0CDB2034603E0621E002C38D0B1
:1018A000144603F8015B9A07F7D1032C2AD9CDB26D
:1018B00045EA05250F2C45EA054515D9A4F1100781
:1018C0003F0903F1100606EB07161A46156055602E
:1018D0009560D5601032B242F8D104F00F040137A0
:1018E000032C03EB07130DD91E462246043A032AA4
:1018F00046F8045BFAD8221F22F003020432134494
:1019000004F003042CB1C9B21C4403F8011BA34228
:10191000FBD1F0BC704714460346C6E700290CBF54
:10192000022200224FF4806300F00EB8EC46A0E8DB
:10193000F05F4FF000007047B0E8F05FE546080048
:1019400008BF0120704700BF2DE9F0413C4D04461F
:101950002D68884616461F4615B1AB6B002B4FD03D
:10196000022E30D8002F2EDB2846214604F0B0FD91
:10197000A38900226260A2611A0628D423F083039F
:101980009BB2022EA3812DD0B8F1000F3CD0012EC6
:1019900013D09BB203F008002A4A80B2EA63C4F86D
:1019A0000080C4F81080676178B113F0030F18BF8E
:1019B0000027A7600020BDE8F08143F001037A42D0
:1019C000A381A261E5E74FF0FF30BDE8F081284632
:1019D000216904F0DDFEA389022E23F083039BB26C
:1019E000A381D1D1002004F1430243F0020300257A
:1019F0000121A381A560226022616161BDE8F081BF
:101A0000284604F081FDABE7002F08BF4FF4806744
:101A1000384605F0B7F9804628B1A38943F0800322
:101A20009BB2A381B3E74FF4806005F0ABF9804629
:101A300018B9A3894FF0FF30D5E74FF48067ECE782
:101A400068050720FD6408000EB4F0B59CB021AC19
:101A500054F8042B0E49064623464FF4027E6FF0DD
:101A6000004508684FF6FF7702A902960696019492
:101A7000ADF814E004950795ADF8167000F00AF87B
:101A8000029B00221A701CB0BDE8F04003B0704702
:101A9000680507202DE9F04FC9B010930C919146CD
:101AA0000D9005F0FBF80068159006F09FFA0C9C6D
:101AB0001890A3891E0603D52369002B01F08180AD
:101AC00038ACA44608942B9400250024CDE9164593
:101AD000002311932D932C931A9319930E9366461A
:101AE00099F80030002B00F0F880252B00F0F580ED
:101AF00009F1010201E0252B04D0137814460132CC
:101B0000002BF8D1C9EB04057DB12C9B2D9A013334
:101B10002A44072BC6F8009075602D922C9300F391
:101B2000C28008360E9828440E902378002B00F0CF
:101B3000C280002394F801801A468DF88F300F93ED
:101B4000099304F101094FF0FF340A9409F10109E6
:101B5000A8F12003582B00F2C583DFE813F06A02D6
:101B6000C303C3037102C303C303C303C303C30398
:101B7000C30314036603C3039D00C000C3037802BC
:101B80007F027F027F027F027F027F027F027F024D
:101B90007F02C303C303C303C303C303C303C3035A
:101BA000C303C303C30390027103C3037103C303DD
:101BB000C303C303C3036A03C303C3037800C3039C
:101BC000C303C303C303C3035900C303C303AF0267
:101BD000C303C303C303C303C303C303C303C303D5
:101BE000C303C30337034803710371037103FF0287
:101BF0004803C303C3030803C303C5027C002003D7
:101C0000A303C303D902C3035F00C303C303DE00FE
:101C1000DDF824C04CF0100CCDF824C0099CA206BD
:101C200000F15483099CE30600F1BD85DDF824C072
:101C30001CF0400F00F0B785DDF840C00025BCF86F
:101C400000400CF1040C0123CDF840C08CE0099D4C
:101C500045F010050995DDF824C01CF0200340F084
:101C60002A83DDF824C01CF0100240F0A485DDF8C2
:101C700024C01CF0400300F09E85DDF840C01346F0
:101C8000BCF800400CF1040C0025CDF840C06BE01E
:101C90000F9C109364420F94099D45F0040509952B
:101CA00099F8008052E70D980C992BAA06F0CEF90E
:101CB00040B938AE36E72D9B23B10D980C992BAA6D
:101CC00006F0C4F90C9C0E98A38913F0400F18BFBE
:101CD0004FF0FF3049B0BDE8F08F4C4625E799F84A
:101CE000008009F10100B8F12A0F01F00C81A8F180
:101CF0003003092B98BF002101F26B8010F8018B93
:101D000001EB810103EB4101A8F13003092BF5D967
:101D100041EAE1710A9181461AE7099DA14CAF069B
:101D20001A948DF88F2040F1D181DDF840C00CF17C
:101D3000070323F0070303F108041094D3E90045D7
:101D4000DDF824C01CF0010F00F0628454EA0500A5
:101D500000F05E8430234CF0020C8DF890308DF84A
:101D60009180CDF824C002234FF0000A8DF88FA097
:101D70000A99002905DBDDF824C02CF0800CCDF891
:101D800024C054EA050040F0C5820A99002940F0B9
:101D9000C182002B40F03884DDF824C01CF0010F14
:101DA00000F0328448AF3023089D07F8413DEC1B1A
:101DB000DDF828C000256445A8BFA446CDF82CC096
:101DC0001495BAF1000F02D00B9D01350B95099BBC
:101DD00013F00203129302D00B9D02350B95DDF830
:101DE00024C01CF0840CCDF84CC040F090820F9DB4
:101DF000DDF82CC0CCEB050BBBF1000F40F3878264
:101E0000BBF1100F2D992C9ADFF8A0A12CDD1B97A8
:101E1000304657461025CA460C9EA1460D9C06E04A
:101E2000ABF1100BBBF1100F00F1080017DD013210
:101E30001031072A2D912C9207604560F0DD204675
:101E400031462BAA06F002F900287FF43BAFABF134
:101E5000100BBBF1100F2D992C9A38A8E7DC4C46DB
:101E6000D146BA461B9F064601320BEB010C072AEE
:101E7000CDF8B4C02C9286E8000C00F31A849DF8CB
:101E80008FA00836BAF1000F0FD02C9B0CF1010C7B
:101E900001330DF18F010122072BCDF8B4C02C9333
:101EA00086E8060000F3A4830836129B73B12C9BCE
:101EB0000CF1020C013324A90222072BCDF8B4C087
:101EC0002C9386E8060000F387830836139D802D47
:101ED00000F0CA820A9DC4EB050ABAF1000F3BDD8F
:101EE000BAF1100F2C9B304D2BDD0A9432464FF087
:101EF000100B2E4661460D9C0C9D06E0AAF1100ABF
:101F0000BAF1100F02F1080217DD01331031072B6F
:101F10002D912C9382E84008F0DD204629462BAA1B
:101F200006F094F800287FF4CDAEAAF1100ABAF1B9
:101F3000100F2D992C9B38AAE7DC0A9C35468C465D
:101F400016460133D444072BCDF8B4C02C9386E851
:101F5000200400F335830836099DED0500F1248245
:101F60002C9BA4440133072BCDF8B4C037607460B8
:101F70002C9300F30F830836099C630749D50F9D06
:101F80000B982C1A002C44DD102C2C9BDFF81CA085
:101F90002BDD574610256246DDF83080DDF834A091
:101FA0000BE000BF208D0800EC8C0800408D08007D
:101FB000103C102C06F1080615DD01331032072BFA
:101FC0002D922C9337607560F2DD504641462BAA66
:101FD00006F03CF800287FF475AE103C102C2D9ACA
:101FE0002C9B38AEE9DC9446BA460133A444072B57
:101FF000CDF8B4C02C93C6F800A0746009DD0D982C
:102000000C992BAA06F022F800287FF45BAEDDF8CD
:10201000B4C00E9C0B980F9DA842ACBF2418641945
:102020000E94BCF1000F40F0C18200232C9338AE17
:1020300056E599F80080002A7FF488AD202285E5D6
:10204000099D45F00105099599F800807EE5099DF7
:1020500045F08005099599F8008077E50024A8F1FE
:1020600030030F94214619F8018B01EB810103EB3A
:102070004101A8F13003092BF5D90F9168E5DDF88E
:1020800024C08DF88F204CF0100CCDF824C0099C92
:10209000A50640F1B280109DE91D21F00701D1E9AC
:1020A00000230831109114461D46002A73F1000CDC
:1020B000C0F294839DF88FA0012359E6099DB64C88
:1020C000AF068DF88F201A943FF52FAE099DED06CF
:1020D00040F14384DDF840C00025DCF800400CF1FD
:1020E000040CCDF840C02BE6DDF824C08DF88F201D
:1020F0001CF0200F00F04084109C21680E9CE51716
:102100002B46109D224604351095C1E90023E7E4D3
:10211000109C4FF0000A27688DF88FA0251D002F16
:1021200000F0E9850A9C3846002CC0F29B85514698
:10213000224605F0CBF8002800F013860A9CC01B4D
:10214000A042B8BF0446109524EAE475CDF828A053
:10215000CDF850A00B959DF88FA032E6DDF824C095
:102160004CF0400CCDF824C099F80080EEE499F8CA
:1021700000804B46B8F16C0F00F07F84099D45F05C
:1021800010050995E2E4109C109D24682B1D002C7D
:102190000F94FFF67DAD109399F80080D6E4109B64
:1021A000DDF824C0109D7D4804351C684FF0780888
:1021B00030234CF0020C10958DF89030CDF824C0EF
:1021C00000258DF891801A900223CDE5109B109D7B
:1021D0001A680124002304359A460B948DF8B82020
:1021E00010958DF88F300A9314932EAFEFE5099C6C
:1021F0008DF88F20A5063FF54EAFDDF824C01CF00A
:10220000100F40F0DF82DDF824C01CF0400F00F01A
:10221000D982DDF840C0BCF900400CF1040CE51790
:1022200022462B46CDF840C03FE799F800802B228C
:102230008CE4099D45F00805099599F8008085E42E
:10224000109D8DF88F20EB1D23F0070303F1080C80
:10225000CDF840C0D3E90045CDE91645DDE91601CA
:1022600005F048FE0128DDE9160140F05C830022FC
:10227000002306F041F9002840F063859DF88FA007
:1022800003250B95099D464F25F08005454B0024FD
:10229000099500250A94B8F1470FD8BF1F460324BB
:1022A00014958EE5DDF824C04CF0200CCDF824C048
:1022B00099F800804AE4109CE31D23F0070303F122
:1022C00008051095D3E9004500234DE5109DEB1D51
:1022D00023F0070303F1080CD3E90045CDF840C013
:1022E000012341E58DF88F20B8F1000F3FF4E3ACF6
:1022F00000234FF0010C9A46CDF82CC08DF8B88021
:102300008DF88F300A93149364462EAF5FE5DDF8A5
:10231000B4C0B7E5012B00F0EC80022B0DF1DF0318
:1023200018D1DDF868C0194604F00F0022091CF826
:10233000000042EA05722B09087052EA03000F46BA
:1023400014461D4601F1FF31EED1089DCDE91E2353
:10235000EC1B2DE5E00840EA457004F00702E908AF
:10236000303250EA010C1F461A7004460D4603F144
:10237000FF33EFD1099CCDE91C01E007394640F15C
:10238000C180302A00F0BE80089D1F463023EC1B20
:1023900001F8013C0CE500BF0C8D0800208D080001
:1023A000008D0800FC8C0800B8F1650F40F3AD808B
:1023B000DDE9160100220023CDF81CC006F092F8DA
:1023C000DDF81CC0002800F026812C9BAA490133AF
:1023D0000CF1010C0122072BCDF8B4C02C9386E838
:1023E000060000F3ED820836259B119CA34203DB17
:1023F000099DEC077FF5C0AD2C9B189C0133159D02
:10240000A444072BCDF8B4C0356074602C9300F35E
:102410003E830836119D6C1E002C7FF7ADAD102C4D
:102420002C9B964D40F3978110276246DDF834804F
:10243000DDF830A004E00836103C102C40F38A810F
:1024400001331032072B2D922C9386E8A000F2DD89
:10245000404651462BAA05F0F9FD00287FF432AC26
:102460002D9A2C9B38AEE7E70F9D0B98C0EB050A21
:10247000BAF1000F7FF72EADBAF1100F2C9B7F4DF4
:102480002BDD129432464FF0100B2E4661460D9C08
:102490000C9D06E0AAF1100ABAF1100F02F1080231
:1024A00017DD01331031072B2D912C9382E8400862
:1024B000F0DD204629462BAA05F0C8FD00287FF450
:1024C00001ACAAF1100ABAF1100F2D992C9B38AA71
:1024D000E7DC129C35468C4616460133D444072B64
:1024E000CDF8B4C02C9386E8200400F30F820836A0
:1024F000F0E4002D08BF0A2C80F03881303448AF5A
:1025000007F8414D089DEC1B52E4119C012C2C9CBA
:1025100040F3D28101340CF101030122072C2D93E9
:1025200037602C94726000F3D8810836159DDDF871
:10253000608001343560189D9844072CCDF8B48034
:102540002C94756000F3D5810836DDE91601002270
:10255000002305F0C7FF119D002840F0B9806B1ED5
:10256000013401379844072C2C94CDF8B48037609F
:10257000736000F3E2800836DDF864C00134199D11
:10258000C44427AB072CCDF8B4C02C9486E82800AF
:102590007FF7F1AC0D980C992BAA05F057FD002898
:1025A0007FF490ABDDF8B4C038AEE5E40D980C993B
:1025B0002BAA05F04BFD00283FF437ADFFF782BB97
:1025C0000D980C992BAA05F041FD00287FF47AABF9
:1025D000DDF8B4C038AEBFE40D980C992BAA05F015
:1025E00035FD00287FF46EABDDF8B4C038AE6DE485
:1025F0000D980C992BAA05F029FD00287FF462ABF9
:10260000DDF8B4C038AE50E40A9C38AFFFF7D0BB59
:102610000223FFF7A9BB259B002B40F3DD81119C12
:10262000149DDDF844A0AC42A8BF2C46002CBA444F
:102630000BDD2C9BA4440133072BCDF8B4C03760CD
:1026400074602C9300F31E830836149D24EAE4740E
:102650002C1B002C40F3D780102C2C9B074D40F3F3
:10266000A3810A974FF010082F4662462546DDF8F1
:1026700034B00C9C09E000BF3C8D0800EC8C0800D5
:102680000836103D102D40F38B8101331032072B9B
:102690002D922C9386E88001F2DD584621462BAA24
:1026A00005F0D4FC00287FF40DAB2D9A2C9B38AE9E
:1026B000E7E70D980C992BAA05F0C8FC00287FF4D9
:1026C00001AB9DF88FA0DDF8B4C038AEFFF7DABBE0
:1026D0006F1E002F7FF750AF102FAE4D23DD434606
:1026E0004FF0100ADDF83480DDF830B004E0103F20
:1026F000102F06F1080615DD01341033072C2D9339
:102700002C9486E82004F2DD404659462BAA05F0B9
:102710009DFC00287FF4D6AA103F102F2D9B2C9CE7
:1027200038AEE9DC98460134B844072CCDF8B480C3
:102730002C9486E8A0007FF71EAF0D980C992BAA69
:1027400005F084FC00287FF4BDAADDF8B4802C9C41
:1027500038AE11E794460133A444072BCDF8B4C03A
:102760002C93356074607FF706AC13E70DF1DF0B37
:10277000204629460A22002305F0E6FE30328BF877
:102780000020204629460A22002305F0DDFE0446EB
:102790000D4654EA050C5F460BF1FF3BE8D1089D5E
:1027A000EC1BFFF705BB109D01232C680435109529
:1027B0000025FFF7D9BA109D2C6804351095002527
:1027C000FFF7D2BA109D2C6804351095E517224604
:1027D0002B46002A73F1000CBFF66CAC4FF02D0AAB
:1027E000644265EB45058DF88FA00123FFF7C0BA61
:1027F0000D980C992BAA05F029FC00287FF462AAF9
:10280000DDF8B4C038AE149D259C2F44119DAC4218
:1028100042DB099DE9073FD41198C7EB0A05041B69
:10282000AC42B8BF2546002D0BDD2C9BAC440133D8
:10283000072BCDF8B4C0376075602C9300F34C8241
:10284000083625EAE575641B002C7FF795AB102C44
:102850002C9B504D7FF77FAF10276246DDF8348008
:10286000DDF830A004E00836103C102C7FF772AF82
:1028700001331032072B2D922C9386E8A000F2DD55
:10288000404651462BAA05F0E1FB00287FF41AAA26
:102890002D9A2C9B38AEE7E7189D2C9BAC44159DD8
:1028A00001333560189D072BCDF8B4C075602C93AB
:1028B00000F3F4810836AFE7099DEA073FF52AAE39
:1028C00001340CF101080123072CCDF8B4802C94BD
:1028D000376073607FF74FAE2FE70D980C992BAAE6
:1028E00005F0B4FB00287FF4EDA92D9B2C9C38AE9D
:1028F0001CE60D980C992BAA05F0A8FB00287FF484
:10290000E1A9DDF8B4802C9C38AE1EE60D980C9938
:102910002BAA05F09BFB00287FF4D4A9DDF8B4C0F6
:1029200038AEFFF7D7BA05F0E5FA002840F0BB80D3
:10293000099C194F194B4FF0030C24F080040994A3
:102940000A90CDF82CC01490B8F1470FD8BF1F469D
:1029500064469DF88FA0FFF734BA099C640640F1E5
:102960005081DDF840C00025BCF800400CF1040C9B
:10297000CDF840C0FFF7E4B9DDF824C01CF0100F1B
:1029800000F04681109C0E9D2368043410941D6055
:10299000FFF7A6B8EC8C0800088D0800048D08002D
:1029A0002C463D460A9F94460133A444072BCDF89C
:1029B000B4C02C93356074603FF71AAF083622E735
:1029C0000D980C992BAA05F041FB00287FF47AA9F9
:1029D000DDF8B4C038AE07E52C9AB74901320CF1E6
:1029E000010C0120072ACDF8B4C02C923160706030
:1029F00000F3F78008361C462CB9119D1DB9099DBE
:102A0000E8077FF5B9AA2C9B159D1899013335600D
:102A1000189D6144072B2D9175602C9300F3DE8186
:102A200006F108026442002C40F30B81102CA34DE8
:102A300040F34881A34610260C46DDF83480DDF8CB
:102A400030A006E00832ABF1100BBBF1100F40F3E1
:102A5000378101331034072B2D942C9382E86000CA
:102A6000F0DD404651462BAA05F0F0FA00287FF42D
:102A700029A92D9C2C9B38AAE5E7099C09F101099D
:102A800044F02004099493F80180FFF75FB80D9893
:102A90000C992BAA05F0DAFA00287FF413A9DDF8C7
:102AA000B4C038AEB6E40A9D28F0200A013500F023
:102AB000A580BAF1470F04D10A9D002D08BF01255A
:102AC0000A95DDF824C0DDE916234CF4807C002B48
:102AD000CDF848C0C0F29C81DDE91645CDE920451E
:102AE0004FF0000BB8F1660F00F09B81B8F1460F74
:102AF00000F0A981BAF1450F0ABF0A9C0A9D651C26
:102B0000022025A926AA29AB8DE82100039204936F
:102B100002910D98DDE9202302F01AFDB8F1670F4C
:102B2000074602D0B8F1470F05D1DDF824C01CF0EC
:102B3000010F00F09C81BAF1460F07EB050400F08D
:102B40001C81DDE920010022002305F0CBFC0028D8
:102B500040F00581299B9C4206D930215A1C2992BC
:102B60001970299B9C42F9D8DB1BBAF1470F1193CE
:102B700000F0ED80B8F1650F40F3F281B8F1660F17
:102B800000F06881259C1494119C149DAC4200F3C4
:102B90003281DDF824C01CF0010F40F0AD8125EA40
:102BA000E5732C464FF06708BBF1000F40F0B28090
:102BB000129D0B930995CDF828B09DF88FA0FFF7D3
:102BC00000B90D98402104F0E5F82060206100284C
:102BD00000F0BF81DDF830C04023CCF81430FEF7A0
:102BE0006FBF0D980C992BAA05F030FA00287FF4DE
:102BF00069A8259CDDF8B4C038AEFDE606240A9429
:102C00005FE7109D2C68043510950025FFF798B8F4
:102C1000DDF824C01CF0400F00F08780109C0E9D52
:102C20002368043410941D80FEF75ABF0D980C9948
:102C30002BAA05F00BFA00287FF444A82D992C9BB1
:102C400038AADDF844C00133119C8C44072BCDF821
:102C5000B4C02C93176054603FF79CAC02F1080697
:102C6000FFF78AB9CDF828A005F0C0F910950A9DA4
:102C700020EAE07C0446CDF82CC014959DF88FA086
:102C8000FFF79FB80D980C992BAA05F0DFF90028E3
:102C90007FF418A8DDF8B4C038AED6E40D980C99CE
:102CA0002BAA05F0D3F900287FF40CA8259CDDF8A9
:102CB000B4C038AEB0E500BF3C8D0800EC8C080015
:102CC00021465C4601332144072B2D912C9315603E
:102CD0005460ABDC0832B4E70D980C992BAA05F0D0
:102CE000B5F900287EF4EEAF259C1199DDF8B4C04B
:102CF0000C1B38AEA5E50A9CBA46062C28BF062454
:102D000024EAE47C0A9714971095CDF82CC0974FCD
:102D1000FFF757B8129D4FF02D0A099500250B9328
:102D20008DF88FA00A95FFF74FB8DDF840C00E9CD4
:102D3000DCF800300CF1040CCDF840C01C60FEF74C
:102D4000CFBE4FF02D0A8DF88FA0FFF799BA259BC3
:102D5000DC1C19DB0A9C9C4216DB149314E7234607
:102D600002E724EAE47CCDF82CC00A9C10950A9076
:102D700014909DF88FA0FFF724B83B78302B00F01B
:102D8000AD80259D2C44DCE6A8F10208591E0029DF
:102D90002591BABF49422D232B2309298DF89C8008
:102DA0008DF89D3065DC302330318DF89E308DF804
:102DB0009F1028AB119D27AA119C9A1A012D1992D8
:102DC000144440F3B7800134002524EAE4731495D9
:102DD000EAE6002481460A94FEF7BABE0D980C99E3
:102DE0002BAA05F033F900287EF46CAF259C2D99B1
:102DF0002C9B38AA16E6149C119D002CD4BFC4F15C
:102E0000020401242C4424EAE4734FF06708CBE663
:102E10001799169801F10041209021914FF02D0B48
:102E200060E60A9D032025A926AA29AB01950090FA
:102E30000392049302910D98DDE9202302F088FBB0
:102E40000A9D074677E60A9C032025A926AA29ABF6
:102E50000194ECE7259D0A9C002D149563DDB4BB1D
:102E6000099DE80733D4149C24EAE4739CE6299B6B
:102E70007AE60DF1AA023E4DCB1785FB0150C3EB5C
:102E8000A00000EB8003A1EB43010928134601F1E8
:102E900030021A70014603F1FF32ECDC00F1300120
:102EA0000DF1AB04C9B2944203F8011C5AD90DF1DB
:102EB0009D001A4601E012F8011BA24200F8011F12
:102EC000F9D10DF5907CC3EB4C03F63B72E70A9DFC
:102ED0006C1C149D2C4424EAE47365E6DDE92001B2
:102EE0000022002305F0FEFA00287FF44AAFC5F166
:102EF000010525952C4424E6149D4FF067086C1CB1
:102F000024EAE47350E6109DDDF840C02D680CF112
:102F10000403002D99F801800A9510938146BEF6AE
:102F200015AEFEF710BE7CB9099DE9070CD401234C
:102F30001C4639E6DDF824C01CF001037FF443AFE2
:102F4000149324EAE4732FE60A9DAC1C24EAE4738C
:102F50002AE60D9D0C232B604FF0FF30FEF7BABE22
:102F6000259B13E70DF19E0324E700BF348D080075
:102F7000676666664B6E2DE9F0479C040E468046F8
:102F800091462AD59368126802F1080A1BB31AE920
:102F9000A000BF0817D0043D002401E0A74210D0D4
:102FA000404655F8041F324603F044FB431C04F12D
:102FB0000104F3D10023C9F80830C9F80430BDE892
:102FC000F087D9F80830A3EB8703C9F808300AF175
:102FD000080A002BDBD10020ECE703F0A5FC00235E
:102FE000C9F80830C9F80430BDE8F087936810B418
:102FF0001BB15DF8044BFFF7BDBF184653605DF889
:10300000044B70472DE9F04FB1B01C460291904639
:103010000893069018B1836B002B00F0E880029DA6
:10302000AB899AB2900407D46A6E43F4005322F439
:103030000051AB819AB26966110740F1B780DDF8A3
:1030400008B0DBF81030002B00F0B08002F01A025C
:103050000A2A00F0B78000230DF180090A93159326
:1030600014930993CDF84C904E4698F80030002BFD
:1030700000F0C884252B00F0C58408F1010201E0AE
:10308000252B04D0137814460132002BF8D1C8EB5D
:10309000040595B1149B159A01332A44072BC6F8F1
:1030A00000807560159214937BDD002A40F0D58472
:1030B0000998149228444E4609902378002B00F07A
:1030C000ED8300214FF000024FF0FF3C63788DF854
:1030D000472004918A4604F101080846654608F134
:1030E0000108A3F12002582A00F2D982DFE812F089
:1030F000CB02D702D702D202D702D702D702D70219
:10310000D702D70282028F02D70284009302D7022D
:103110002B01960196019601960196019601960162
:1031200096019601D702D702D702D702D702D7025B
:10313000D702D702D702D7023001D702D702D7026F
:10314000D702D702D702D702D702D702D7027B0114
:10315000D702D702D702D702D702A401D702D702DB
:10316000BF01D702D702D702D702D702D702D702B0
:10317000D702D702D702E401FA01D702D702D70259
:103180001602FA01D702D7021B02D70228028900D1
:1031900066027D02D7023A02D7021901D702D7028E
:1031A000AF02083609982844099086E706980299E4
:1031B00002F0C0F8B0B9029DAA8902F01A020A2AE8
:1031C0007FF449AFDDF808B0BBF90E30002BFFF6F5
:1031D00042AF069859464246234600F03DFD31B0C5
:1031E000BDE8F08F4FF0FF3031B0BDE8F08F03F055
:1031F0008BF914E7404208934AF0040A98F800302B
:103200006DE71AF020030490AC4600F0F480DDF87E
:1032100020B00BF1070323F0070303F1080408941F
:10322000D3E9004500234FF0000000218DF847004E
:10323000CDF814C00791BCF1000FA8BF2AF0800A96
:1032400054EA050240F0AD80BCF1000F40F0A980C7
:10325000002B40F0C0831AF0010F00F0BC83302334
:1032600030AF07F8413DC7EB09040594DDF814B011
:10327000079CE345B8BFE346CDF80CB01CB10BF199
:10328000010BCDF80CB01AF00205079505D0DDF85A
:103290000CB00BF1020BCDF80CB01AF084030B93B9
:1032A00040F01B82049DDDF80CB0CBEB0504002C34
:1032B00040F31382102C40F38984BE4D159A2B469F
:1032C000149825464FF0100B6446B4461E4606E09F
:1032D000831C0CF1080C0846103D102D11DD411C1B
:1032E0001032072915928CE840081491F0DD002A6D
:1032F00040F0E681103D102D4FF001031046CC4602
:10330000EDDC31466646A4462C460D462244072B8A
:10331000159235607460149300F36D830836591C60
:10332000DEE11AF0200F0490AC4600F08D80089D7D
:10333000EB1D23F0070303F1080BD3E90045CDF89B
:1033400020B001236FE74AF0800A98F80030C6E603
:103350004AF0100A1AF0200F0490AC468DF847107E
:1033600000F0C880089CE11D21F00701D1E900238D
:103370000831089114461D46002A73F1000BC0F273
:10338000CE83BCF1000F9DF84700A8BF2AF0800A49
:1033900054EA05020790CDF814C04FF001033FF442
:1033A00053AF012B00F01983022B0DF17F0340F086
:1033B0004C82DDF828B0194604F00F0022091BF8F2
:1033C000000042EA05722B09087052EA03000F461A
:1033D00014461D4601F1FF31EED1CDE90E23C7EBB6
:1033E0000903059342E74AF0100A1AF020030490FB
:1033F000AC467FF40CAF1AF0100240F011831AF0C3
:10340000400300F00D83DDF820B01346BBF8004008
:103410000BF1040B0025CDF820B004E7A3F1300236
:10342000002018F8013B00EB800002EB4000A3F104
:103430003002092AF5D954E64AF0100A1AF0200F92
:103440000490AC467FF473AF1AF0100F40F0EF8297
:103450001AF0400F00F0EB82DDF820B00025BBF839
:1034600000400BF1040B0123CDF820B0DBE6AC46A5
:10347000514D1AF0200F04908DF847100A9500F076
:10348000F080089DEA1D22F0070202F1080BCDF83A
:1034900020B0D2E900451AF0010F00F0AA8254EAE8
:1034A000050B00F0A68230228DF849304AF0020A5E
:1034B0008DF848200223B6E6089BDDF820B01B6893
:1034C00001244FF000050BF1040B049003948DF8D8
:1034D00047508DF85830CDF820B0059416AF4FF016
:1034E000000CD0E61AF0200F0490AC468DF847107F
:1034F0007FF438AF1AF0100F40F0A7821AF0400F97
:1035000000F0A382DDF820B0BBF900400BF1040B02
:10351000E51722462B46CDF820B02DE74AF0400AA9
:1035200098F80030DBE598F8003042466C2B03BF7A
:1035300008F101084AF0200A53784AF0100ACEE553
:103540001AF0200F8DF8471000F0F782089C2168D0
:10355000099CE5172B46089D224604350895C1E9CC
:10356000002382E5089CAC4627684FF000050490D4
:103570008DF847500434002F00F03283BCF1000F67
:103580003846C0F2078362460021CDF804C003F03C
:103590009DFEDDF804C0002800F03A83C01B9DF8B2
:1035A00047506045A8BF60460590089407954FF0C6
:1035B000000C5BE6608D08000C8D0800089BDDF8B0
:1035C00020B00490B2481C68302278230BF1040B21
:1035D000AC468DF849304AF0020ACDF820B00025FB
:1035E0008DF848200A9002231DE64AF0200A98F838
:1035F000003074E5DDF820B0DBF800000BF10403C7
:103600000028FFF6F7AD089398F8003067E598F8C2
:1036100000302B2163E598F8003008F101042A2BD3
:1036200000F00583A3F13002092A98BF002500F2BB
:10363000FA8214F8013B05EB850502EB4505A3F181
:103640003002092AF5D945EAE575A04649E5904CCE
:103650001AF0200F0490AC460A948DF847107FF4BE
:1036600010AF1AF0100F40F0EA811AF0400F00F08E
:10367000E681DDF820B00025BBF800400BF1040B1B
:10368000CDF820B007E798F8003000297FF427AD87
:10369000202124E54AF0010A98F800301FE5049043
:1036A0008DF84710002B00F0F98001254FF0000B3A
:1036B00003958DF858308DF847B0059516AF0EE795
:1036C0000698029913AAFFF755FC002840F0ED80F8
:1036D0001498159A431CCC46FEE5149B159A591C68
:1036E0009DF8470068B101320DF147000123072919
:1036F0001592149186E8090000F360810B460836A4
:103700000131079C64B1023212A8022307291592E5
:10371000149186E8090000F357810B460836013101
:103720000B9D802D00F00181059DC5EB0C04002C44
:103730002FDD102C574D22DD30464FF0100B2E465A
:103740002546069C06E003F1020C08300B46103DAE
:10375000102D10DD591C10320729159280E8400801
:103760001491F0DD002A63D1103D102D4FF0010CB3
:1037700013464846EEDC2C46614635460646224452
:103780000729159235607460149100F3C1800836E2
:103790000131059D07292A441592376075601491FF
:1037A00040F3C180002A40F0308114924E461AF056
:1037B000040F00F08B80049DDDF80CB0CBEB05040A
:1037C000002C40F38380102C40F31E821499324D5C
:1037D0001027DDF818A0DDF808B005E0881C0836D1
:1037E0001946103C102C10DD4B1C1032072B159283
:1037F00086E8A0001493F1DD002A7DD1103C102C46
:103800004FF0010011464E46EEDC22440728159287
:1038100035607460149059DD002A4FD1099CDDF8A1
:103820000CB0049DAB45ACBF5C44641909945EE0E8
:103830002046029913AAFFF79DFB002835D1149B5F
:10384000159A03F1010C484681E7E00840EA45700B
:1038500004F00702E908303250EA010B1F461A70E3
:1038600004460D4603F1FF33EFD11AF0010FCDE905
:103870000C01394600F0B980302A3FF4F4AC1F4601
:10388000C7EB09053023059501F8013CEEE400BFC4
:10389000208D0800508D0800608D0800159B23B115
:1038A0000698029913AAFFF765FB029CA3895B06A1
:1038B0003FF598AC099831B0BDE8F08F06980299B1
:1038C00013AAFFF757FB0028EFD1159A099CDDF8E2
:1038D0000CB0049DAB45ACBF5C446419099432B193
:1038E0000698029913AAFFF745FB0028DDD10020B6
:1038F00014904E46FFF7B9BB5046594613AAFFF73E
:1039000039FB0028D1D11499159A481C4E4668E716
:10391000002A40F0F780059C0123209721941594FC
:10392000224614934E46083641E7049DDDF80CB05C
:10393000CBEB0504002C7FF7F7AE102CA64D40F31F
:10394000708129464FF0100B25466446B4460E465A
:1039500006E0981C0CF1080C0B46103D102D0FDDF5
:10396000591C1032072915928CE840081491F0DD9B
:10397000BAB9103D102D4FF001001346CC46EFDCD4
:1039800033466646A4462C461D4622440728159217
:1039900035607460149000F3AF800836411C034614
:1039A000C2E60698029913AAFFF7E4FA00287FF40A
:1039B0007CAF149B159A581CCC46CEE7002A79D1CF
:1039C00019464E4613469CE6002A40F084800121A9
:1039D00013464E46A4E64F4648E4002D08BF0A2C85
:1039E00046D2303430AF07F8414DC7EB0903059399
:1039F0003CE4022317E4002A40F0AF801346012183
:103A00004E466DE64446FFF758BB0698029913AA46
:103A1000FFF7B0FA00287FF448AF159A4E46C6E685
:103A2000089D2C68043508950025FFF7FCBB089D10
:103A300001232C68043508950025FFF7F4BB089D89
:103A40002C6804350895002525E5089D2C6804356B
:103A50000895E51722462B468EE40698029913AA8C
:103A6000FFF788FA00287FF420AF4E46FFF79ABB95
:103A70000DF17F0B03965E46E346204629460A2257
:103A8000002304F061FD30323270204629460A22BC
:103A9000002304F059FD04460D4654EA050037465C
:103AA00006F1FF36E9D1C7EB0903DC46039E059317
:103AB000FFF7DCBB0698029913AACDF804C0FFF704
:103AC00059FADDF804C000287FF4EFAE149B159A74
:103AD000591C4E4615E60698029913AACDF804C063
:103AE000FFF748FADDF804C000287FF4DEAE149B2F
:103AF000159A591C4E4613E6002A56D10121134649
:103B00004E4611E60698029913AAFFF733FA0028E9
:103B10007FF4CBAE1499159A01314E4639E64FF039
:103B20002D0B644265EB45058DF847B0CDF81CB010
:103B3000CDF814C00123FFF77EBB1AF0100F1DD182
:103B40001AF0400F58D0089DDDF824B02B680435DA
:103B50000895A3F800B0FFF788BA0698029913AA4F
:103B6000CDF804C0FFF706FADDF804C000287FF4A2
:103B70009CAE149B159A591C4E46B1E5DDF820B059
:103B8000099CDBF800300BF1040BCDF820B01C6071
:103B9000FFF76BBA089404F029FA9DF847400590A6
:103BA00007944FF0000CFFF761BB0698029913AA27
:103BB000CDF804C0FFF7DEF9DDF804C000287FF47B
:103BC00074AE149B159A591C4E46ADE5149B159A7C
:103BD0000133024DFFF79ABB508D0800608D08003D
:103BE000BCF1060F34BF63460623089423EAE3744E
:103BF00005930394164F72E4089C099D23680434CE
:103C000008941D60FFF731BA1498124D0130FCE59D
:103C10009DF84750CDF814C0079508948446FFF7E7
:103C200025BB0846B1E6A0460025FFF75ABADDF8E5
:103C300020B098F80130DBF800500BF10402002DA1
:103C40000892A046BFF64BAA4FF0FF35FFF747BAE0
:103C5000348D0800608D08002DE9F0474F6EADF5FA
:103C60008D6D88461997D8F81C70B1F80CA0B1F882
:103C70000E900797D8F824701AAC4FF480652AF09C
:103C8000020A002669460094049402950595ADF851
:103C90000CA0ADF80E90099706960546FFF7B2F90D
:103CA000041E07DB2846694602F012FCB04218BF2A
:103CB0004FF0FF34BDF80C305B0605D5B8F80C307A
:103CC00043F04003A8F80C3020460DF58D6DBDE89B
:103CD000F08700BF2DE9F04FC9B01C4689460A9213
:103CE0000D9002F0DBFF00680F94159004F07EF950
:103CF0000D9D18901DB1AB6B002B00F00981B9F838
:103D00000C2093B29F040AD4D9F8641042F40053F3
:103D100021F40051A9F80C30C9F864109BB21E07B9
:103D200040F1C080D9F81020002A00F0BB8003F0D9
:103D30001A030A2B00F0C28038ACA44608942B94D6
:103D400000250024CDE91645002311932D932C93D3
:103D50001A931993109366460A9D2B78002B00F056
:103D6000DB80252B00F0D8806A1C02E0252B00F0B8
:103D70008B80137814460132002BF7D10A98251A4C
:103D80007DB12C9B2D9A01330A982A44072B86E893
:103D900021002D922C9300F3A48008361099294419
:103DA00010912378002B00F0A4800023651C94F868
:103DB00001804FF0FF341A468DF88F300E9309932F
:103DC0000A950B942B460133A8F12001582900F2E3
:103DD000F483DFE811F03802F203F2030303F20385
:103DE000F203F203F203F203F2033F023402F2039E
:103DF00060003503F20376037D037D037D037D03BD
:103E00007D037D037D037D037D03F203F203F20353
:103E1000F203F203F203F203F203F203F20352039A
:103E20009D03F2039D03F203F203F203F2038E03F8
:103E3000F203F203D003F203F203F203F203F203FC
:103E4000A302F203F203C302F203F203F203F2034A
:103E5000F203F203F203F203F203F2030A031C0378
:103E60009D039D039D03D9021C03F203F203E202AA
:103E7000F203EE020A021C024B02F2035402F203A6
:103E8000A300F203F2037B020A99651A78E70E9CFD
:103E90000F9164420E94099D45F00405099593F82D
:103EA000008090E70D98494601F044FAA0B9B9F8AE
:103EB0000C3003F01A030A2B7FF43EAFB9F90E3031
:103EC000002BFFF639AF0D9849460A9A234601F0B8
:103ED0009FF949B0BDE8F08F4FF0FF3049B0BDE821
:103EE000F08F0D9849462BAAFFF780F840B938AEFD
:103EF00054E72D9B23B10D9849462BAAFFF776F87E
:103F0000B9F80C305B06E7D4109849B0BDE8F08FE3
:103F1000284602F0F9FAF2E60A9C42E7099C0A9365
:103F2000A20640F106820F9DEB1D23F0070303F16B
:103F3000080CD3E90045CDF83CC001234FF0000A3E
:103F40008DF88FA00B99002905DBDDF824C02CF03B
:103F5000800CCDF824C054EA050040F047830B994B
:103F6000002940F04383002B40F0B984DDF824C0E1
:103F70001CF0010F00F0B38448AF3023089D07F810
:103F8000413DEC1BDDF82CC000256445A8BFA446CC
:103F9000CDF830C01495BAF1000F02D00C9D013558
:103FA0000C95099B13F00203129302D00C9D02356D
:103FB0000C95DDF824C01CF0840CCDF84CC040F00A
:103FC00012830E9DDDF830C0CCEB050BBBF1000F6A
:103FD00040F30983BBF1100F2D992C9ADFF828A527
:103FE00027DD1B9710255746A2460D9C06E0ABF136
:103FF000100BBBF1100F06F1080617DD013210316E
:10400000072A2D912C9237607560F0DD20464946D5
:104010002BAAFEF7EBFF00287FF472AFABF1100B79
:10402000BBF1100F2D992C9A38AEE7DC5446BA46F6
:104030001B9F01320BEB010C072ACDF8B4C02C9268
:1040400086E8000C00F39A849DF88FA00836BAF138
:10405000000F0FD02C9B0CF1010C01330DF18F01DF
:104060000122072BCDF8B4C02C9386E8060000F39C
:104070001C840836129B73B12C9B0CF1020C01338B
:1040800024A90222072BCDF8B4C02C9386E80600A1
:1040900000F318840836139D802D00F048830B9A96
:1040A000151B002D3DDD102D2C9BDFF860A42CDDB1
:1040B00051460B94AA464FF0100B62460D9C0D46DC
:1040C00006E0AAF1100ABAF1100F06F1080617DD92
:1040D00001331032072B2D922C9386E82008F0DD57
:1040E000204649462BAAFEF781FF00287FF408AF3F
:1040F000AAF1100ABAF1100F2D9A2C9B38AEE7DC0A
:1041000094460B9C2A46554692460133AC44072BF5
:10411000CDF8B4C02C93C6F800A0756000F3B98345
:104120000836099DEB0500F1A2822C9BA4440133C3
:10413000072BCDF8B4C0376074602C9300F39383E1
:104140000836099C620740D50E9D0C982C1A002C4D
:104150003BDD102C2C9BDFF8B0A322DD102562463E
:10416000DDF83480574604E0103C102C06F10806B8
:1041700015DD01331032072B2D922C9337607560BB
:10418000F2DD404649462BAAFEF730FF00287FF4B7
:10419000B7AE103C102C2D9A2C9B38AEE9DC94461F
:1041A000BA460133A444072BCDF8B4C02C93C6F80B
:1041B00000A0746009DD0D9849462BAAFEF716FF92
:1041C00000287FF49DAEDDF8B4C0109C0C980E9DC5
:1041D000A842ACBF241864191094BCF1000F40F041
:1041E0004E8300232C9338AEB6E5DDF824C00A9345
:1041F0001CF0200300F0CA810F9CE31D23F007038D
:1042000003F108050F95D3E90045002396E6DDF894
:1042100024C00F9D0A930F9BB94804351C684FF0CA
:10422000780830234CF0020C0F958DF89030CDF8C3
:1042300024C000258DF891801A9002237EE693F821
:1042400000802B22BFE593F80080002A7FF4BBADED
:104250002022B8E50F9C0F9D2468291D002C0E9488
:10426000FFF615AE0F9193F80080ACE5DDF824C0A1
:104270004CF0200CCDF824C093F80080A3E50F9CEF
:104280004FF0000A27680A938DF88FA0251D002F94
:1042900000F05C860B9C3846002CC0F20786514625
:1042A000224603F013F8002800F09C860B9CC01BEC
:1042B000A042B8BF04460F9524EAE475CDF82CA0BF
:1042C000CDF850A00C959DF88FA064E6099D8C4C0C
:1042D000AF060A931A948DF88F2047D5DDF83CC0BD
:1042E0000CF1070323F0070303F108040F94D3E94B
:1042F0000045DDF824C01CF0010F00F0F48254EA00
:10430000050000F0F08230234CF0020C8DF8903064
:104310008DF89180CDF824C002230FE6DDF824C08B
:104320000A934CF0100CCDF824C0099CA2063FF56E
:10433000FAAD099CE30600F13083DDF824C01CF0DF
:10434000400F00F02A83DDF83CC00025BCF8004097
:104350000CF1040C0123CDF83CC0EFE5099D694C3C
:10436000AF060A938DF88F201A94B7D4099DED06F5
:1043700040F1C984DDF83CC00025DCF800400CF1B8
:10438000040CCDF83CC0B4E7DDF824C04CF0400C80
:10439000CDF824C093F8008015E593F80080194605
:1043A000B8F16C0F00F06D85099D45F01005099579
:1043B00009E5DDF824C00A931CF0200F8DF88F204A
:1043C00000F0B0840F9C2168109CE5172B460F9DD0
:1043D000224604350F95C1E90023BDE4099D45F04F
:1043E0000105099593F80080EDE40A930F9B0F9D5A
:1043F0001A680124002304359A460C948DF8B820DD
:104400000F958DF88F300B9314932EAFC9E5099C4F
:104410000A93A5068DF88F203BD50F9DE91D21F04D
:104420000701D1E9002308310F9114461D46002AE7
:1044300073F1000CC0F2CA839DF88FA0012381E5BF
:1044400093F80080581CB8F12A0F00F0AE86A8F14E
:104450003001092998BF002300F20C8610F8018B67
:1044600003EB830301EB4303A8F130010929F5D9DC
:1044700043EAE3730B930346A6E4DDF824C00A93F2
:104480004CF0100CCDF824C0099C8DF88F20A506A7
:10449000C3D4DDF824C01CF0100F40F0B082DDF86A
:1044A00024C01CF0400F00F0AA82DDF83CC0BCF92B
:1044B00000400CF1040CE51722462B46CDF83CC019
:1044C000B5E7099D45F08005099593F800807AE4E9
:1044D0000024A8F130010E94204613F8018B00EB64
:1044E000800001EB4000A8F130010929F5D90E90B8
:1044F0006AE4099D45F00805099593F8008062E497
:10450000208D08000C8D0800708D0800808D08003B
:104510000F9D0A93EB1D23F0070303F1080C8DF8A0
:104520008F20CDF83CC0D3E90045CDE91645DDE943
:10453000160103F0DFFC0128DDE9160140F050838D
:104540000022002303F0D8FF002840F031859DF8B9
:104550008FA003250C95099D9E4F25F080059E4B4D
:104560000024099500250B94B8F1470FD8BF1F46CA
:10457000032414950FE5099D0A9345F0100509954C
:10458000DDF824C01CF020037FF436AEDDF824C033
:104590001CF0100240F03B82DDF824C01CF0400308
:1045A00000F03582DDF83CC01346BCF800400CF149
:1045B000040C0025CDF83CC0C0E40A938DF88F2090
:1045C000B8F1000F3FF495AC00234FF0010C9A4670
:1045D000CDF830C08DF8B8808DF88F300B931493E0
:1045E00064462EAFDDE4DDF8B4C030E5012B00F009
:1045F000E380022B0DF1DF0318D1DDF868C0194606
:1046000004F00F0022091CF8000042EA05722B0991
:10461000087052EA03000F4614461D4601F1FF31AF
:10462000EED1089DCDE91E23EC1BABE4E00840EA87
:10463000457004F00702E908303250EA010C1F46C9
:104640001A7004460D4603F1FF33EFD1099CCDE902
:104650001C01E007394640F1B880302A00F0B580EF
:10466000089D1F463023EC1B01F8013C8AE4B8F199
:10467000650F40F3B780DDE9160100220023CDF875
:104680001CC003F02FFFDDF81CC0002800F02E81B5
:104690002C9B524901330CF1010C0122072BCDF860
:1046A000B4C02C9386E8060000F361830836259B8E
:1046B000119CA34203DB099DEF077FF542AD2C9BC4
:1046C000189C0133159DA444072BCDF8B4C0356068
:1046D00074602C9300F3DE830836119D6C1E002C51
:1046E0007FF72FAD102C2C9BDFF8F4A040F39881BE
:1046F00010256246DDF83480574604E00836103C49
:10470000102C40F38B8101331032072B2D922C9308
:1047100037607560F2DD404649462BAAFEF766FC1D
:1047200000287FF4EDAB2D9A2C9B38AEE7E70E986E
:104730000C99451A002D7FF7B2AC102D2C9BDFF899
:10474000A0A02CDD51461294AA464FF0100B6246F1
:104750000D9C0D4606E0AAF1100ABAF1100F06F101
:10476000080617DD01331032072B2D922C9386E8B3
:104770002008F0DD204649462BAAFEF737FC00282A
:104780007FF4BEABAAF1100ABAF1100F2D9A2C9B40
:1047900038AEE7DC9446129C2A46554692460133D1
:1047A000AC44072BCDF8B4C02C93C6F800A07560BC
:1047B00000F3FF81083672E4002D08BF0A2C80F058
:1047C0003B81303448AF07F8414D089DEC1BFFF7A3
:1047D000D9BB00BF008D0800FC8C08003C8D080090
:1047E000808D0800119C012C2C9C40F3A481013485
:1047F0000CF101050123072C2D952C943760736073
:1048000000F3B48108361898013415990544072C33
:104810002D952C943160706000F3B4810836DDE989
:1048200016010022002303F05DFE002840F0BD8049
:10483000119A0134531E01371D44072C2C942D95D9
:104840003760736000F386810836DDF864C0013498
:10485000AC44199D27AB072CCDF8B4C02C9486E846
:1048600028007FF76DAC0D9849462BAAFEF7BEFBDA
:1048700000287FF445ABDDF8B4C038AE61E40D9894
:1048800049462BAAFEF7B2FB00283FF4AAACFFF77B
:1048900037BB0D9849462BAAFEF7A8FB00287FF4EA
:1048A0002FABDDF8B4C038AE3BE40D9849462BAAD7
:1048B000FEF79CFB00287FF423ABDDF8B4C038AED4
:1048C000FFF7D8BB0D9849462BAAFEF78FFB0028AF
:1048D0007FF416ABDDF8B4C038AEFFF7DCBB0B9C41
:1048E00038AFFFF74FBB0223FFF728BB259B002BF8
:1048F00040F34982119C149DDDF84480AC42A8BF6E
:104900002C46002CB8440BDD2C9BA4440133072B10
:10491000CDF8B4C0376074602C9300F3F082083691
:10492000149D24EAE4742C1B002C40F3AD80102C61
:104930002C9BDFF8D8A640F30D8251461025BA46CD
:104940006246DDF834B00F4604E00836103C102C07
:1049500040F3FC8101331032072B2D922C933760EA
:104960007560F2DD584649462BAAFEF73FFB00284A
:104970007FF4C6AA2D9A2C9B38AEE7E70D984946DE
:104980002BAAFEF733FB00287FF4BAAA9DF88FA06C
:10499000DDF8B4C038AEFFF75ABB0F9D01232C6879
:1049A00004350F950025FFF7C9BA119B5F1E002F34
:1049B0007FF74BAF102FDFF854A640F3EF804FF096
:1049C0001008DDF834B004E00836103F102F40F333
:1049D000E58001341035072C2D952C94C6F800A0E5
:1049E000C6F80480F0DD584649462BAAFEF7FEFAC9
:1049F00000287FF485AA2D9D2C9C38AEE5E70F9DFD
:104A00002C6804350F95E51722462B460FE50F9DC0
:104A10002C6804350F950025FFF790BA9446BA46E6
:104A20000133A444072BCDF8B4C02C93C6F800A0E2
:104A300074607FF785AB16E70DF1DF0B2046294642
:104A40000A22002303F080FD30328BF8002020463C
:104A500029460A22002303F077FD04460D4654EA56
:104A6000050C5F460BF1FF3BE8D1089DEC1BFFF7FF
:104A700089BA0D9849462BAAFEF7B8FA00287FF4A8
:104A80003FAADDF8B4C038AE149D259C2F44119D7B
:104A9000AC4240DB099DE8073DD41198C7EB0805FF
:104AA000041BAC42B8BF2546002D0BDD2C9BAC444B
:104AB0000133072BCDF8B4C0376075602C9300F339
:104AC0005482083625EAE575641B002C7FF739AB64
:104AD000102C2C9BDFF834A5A2DD10256246DDF8F2
:104AE0003480574603E00836103C102C96DD013325
:104AF0001032072B2D922C9337607560F3DD404602
:104B000049462BAAFEF772FA00287FF4F9A92D9ADC
:104B10002C9B38AEE8E7189D2C9BAC44159D0133C7
:104B20003560189D072BCDF8B4C075602C9300F349
:104B300000820836B1E7099DE9073FF558AE013418
:104B40000CF101050123072C2D952C94376073601F
:104B50007FF77AAE0D9849462BAAFEF747FA002850
:104B60007FF4CEA92D9D2C9C38AE6EE60D9849465B
:104B70002BAAFEF73BFA00287FF4C2A92D9D2C9C9E
:104B800038AE40E60D9849462BAAFEF72FFA0028CA
:104B90007FF4B6A92D9D2C9C38AE40E601343D44EF
:104BA000072C2D952C94C6F800A077607FF74CAEAB
:104BB000D0E70D9849462BAAFEF718FA00287FF493
:104BC0009FA9DDF8B4C038AEFFF769BA4FF02D0ADF
:104BD000644265EB45058DF88FA00123FFF7B2B95C
:104BE00003F088F9002800F01B810B9D28F0200AB3
:104BF000013500F06C82BAF1470F04D10B9D002DF6
:104C000008BF01250B95DDF824C0DDE916234CF41F
:104C1000807C002BCDF848C0C0F25082DDE91645FB
:104C2000CDE920454FF0000BB8F1660F00F034825B
:104C3000B8F1460F00F08C82BAF1450F0ABF0B9C09
:104C40000B9D651C022025A926AA29AB8DE8210011
:104C50000392049302910D98DDE9202300F078FC83
:104C6000B8F1670F074602D0B8F1470F05D1DDF85C
:104C700024C01CF0010F00F03B82BAF1460F07EB95
:104C8000050400F0A881DDE920010022002303F0E3
:104C900029FC002840F09D81299B9C4206D93021A7
:104CA0005A1C29921970299B9C42F9D8DB1BBAF136
:104CB000470F119300F07481B8F1650F40F39482AF
:104CC000B8F1660F00F00682259C1494119C149D87
:104CD000AC4200F3D481DDF824C01CF0010F40F099
:104CE000538225EAE5732C464FF06708BBF1000FAD
:104CF00040F06481129D0C930995CDF82CB09DF87D
:104D00008FA0FFF748B9099C640640F1A680DDF842
:104D10003CC00025BCF800400CF1040CCDF83CC0B0
:104D2000FFF7E7BADDF824C01CF0100F40F08D80CB
:104D3000DDF824C01CF0400F00F026810F9C109D70
:104D4000236804340F941D80FFF706B894463A4652
:104D5000574692460133A444072BCDF8B4C02C9398
:104D6000C6F800A074603FF784AE08368CE60D9854
:104D700049462BAAFEF73AF900287FF4C1A8DDF8CE
:104D8000B4C038AE93E42C9A9C4901320CF1010C6A
:104D90000120072ACDF8B4C02C923160706063DC2A
:104DA00008361C462CB9119D1DB9099DED077FF5EC
:104DB000C8A92C9B159D189A01333560189D624433
:104DC000072B2D9275602C9300F3478108366442BF
:104DD000002C40F38680102CDFF830A240F39E8038
:104DE00051461025BA46DDF834800F4604E00836F7
:104DF000103C102C40F38F8001331032072B2D9282
:104E00002C9337607560F2DD404649462BAAFEF7C9
:104E1000EDF800287FF474A82D9A2C9B38AEE7E7B4
:104E2000099C774F774B4FF0030C24F080040994D2
:104E30000B90CDF830C01490B8F1470FD8BF1F4683
:104E400064469DF88FA0FFF7A6B80F9C109D2368BD
:104E500004340F941D60FEF77FBF0F9D2C6804354E
:104E60000F950025FFF745BA0D9849462BAAFEF786
:104E7000BDF800287FF444A8259CDDF8B4C038AE06
:104E800090E7099C013344F02004099491F80180D3
:104E9000FEF799BF0D9849462BAAFEF7A7F8002800
:104EA0007FF42EA8DDF8B4C038AE16E4CDF82CA0FF
:104EB00003F09CF80F950B9D20EAE07C0446CDF8AA
:104EC00030C014959DF88FA0FFF765B80D9849463E
:104ED0002BAAFEF78BF800287FF412A82D9A2C9BA2
:104EE00038AEDDF844C00133119C9444072BCDF853
:104EF000B4C02C93376074607FF722A9B3E40D9897
:104F000049462BAAFEF772F800287EF4F9AFDDF8C7
:104F1000B4C038AE04E5394657468A4601332244C8
:104F2000072B2D922C93C6F800A07460CEDC0836B7
:104F3000D7E70D9849462BAAFEF758F800287EF4CB
:104F4000DFAF259CDDF8B4C038AEA6E50B9CBA46B1
:104F5000062C28BF062424EAE47C0B9714970F95AF
:104F6000CDF830C0284FFFF716B80D9849462BAA48
:104F7000FEF73CF800287EF4C3AF259C1199DDF8BC
:104F8000B4C00C1B38AE9DE5DDF83CC0109CDCF8CD
:104F900000300CF1040CCDF83CC01C60FEF7DCBE08
:104FA000259BDC1C34DB0B9C9C4231DB14938DE68F
:104FB0004FF02D0A8DF88FA0FFF7CBBA129D4FF05E
:104FC0002D0A099500250C938DF88FA00B95FEF7FF
:104FD000E5BF23466AE63B78302B00F0C080259D74
:104FE0002C4450E624EAE47CCDF830C00B9C0F95AD
:104FF0000B9014909DF88FA0FEF7CDBF3C8D08005C
:10500000088D0800048D0800348D0800808D08008C
:10501000A8F10208591E00292591BABF49422D2343
:105020002B2309298DF89C808DF89D3062DC30237C
:1050300030318DF89E308DF89F1028AB119D27AA36
:10504000119C9A1A012D1992144440F3A480013442
:10505000002524EAE473149548E60D9849462BAAE6
:10506000FDF7C4FF00287EF44BAF259C2D9A2C9BA6
:1050700038AEACE6002403460B94FEF7A5BE149CA4
:10508000119D002CD4BFC4F1020401242C4424EA55
:10509000E4734FF0670829E60B9C032025A926AA94
:1050A00029AB019400900392049302910D98DDE9DD
:1050B000202300F04DFA0B9D0746DEE51799169860
:1050C00001F10041209021914FF02D0BACE5062419
:1050D0000B9498E5259D0B9C002D149578DD002CF4
:1050E0004BD1099DE80748D4149C24EAE473FDE5FC
:1050F000299BDBE50DF1AA023E4DCB1785FB015044
:10510000C3EBA00000EB8003A1EB43010928134689
:1051100001F130021A70014603F1FF32ECDC00F1BC
:1051200030010DF1AB04C9B2944203F8011C5DD902
:105130000DF19D001A4601E012F8011BA24200F891
:10514000011FF9D10DF5907CC3EB4C03F63B75E7DD
:105150000B9D032025A926AA29AB0195A2E7DDE92D
:1051600020010022002303F0BDF900287FF437AFAF
:10517000C5F1010525952C4485E50B9D6C1C149DFE
:105180002C4424EAE473B1E5149D4FF067086C1CCD
:1051900024EAE473AAE5DDF824C01CF001037FF4DF
:1051A00056AF149324EAE473A0E50F9DDDF83CC0EC
:1051B0002D680CF10401002D93F801800B950F91DF
:1051C0000346BEF600AE4FF0FF340B94FEF7FBBD76
:1051D0002CB9099DE90702D401231C4686E50B9DE5
:1051E000AC1C24EAE47381E5259B13E70DF19E03D3
:1051F00024E700BF6766666630B4044C0D4613466C
:1052000001462A46206830BCFEF764BD68050720C9
:105210002DE9F0474F6EADF58D6D88461997D8F89A
:105220001C70B1F80CA0B1F80E900797D8F8247054
:105230001AAC4FF480652AF0020A002669460094F1
:10524000049402950595ADF80CA0ADF80E90099761
:1052500006960546FEF73EFD041E07DB2846694616
:1052600001F036F9B04218BF4FF0FF34BDF80C30F2
:105270005B0605D5B8F80C3043F04003A8F80C30B5
:1052800020460DF58D6DBDE8F08700BFF8B50D46E1
:105290001446074610B1836B002B48D0A289A06941
:1052A00093B2A060180738D52669002E35D099042E
:1052B000EDB215D5236862699E1B96421CDA013651
:1052C000A268591C013AA26021601D706369B34253
:1052D0001AD0A389DB0701D50A2D15D02846F8BDC1
:1052E000636E42F4005223F4005363662368A28184
:1052F00062699E1B9642E2DB3846214601F0E8F8DF
:1053000040B923680126DBE73846214601F0E0F882
:105310000028E3D04FF0FF30F8BD3846214600F0BA
:1053200009F80028F6D1A289266993B2BFE701F0F7
:10533000EBF8B3E72F4B70B5064618680C4610B172
:10534000826B002A36D0A589ABB219070CD5226929
:10535000AAB113F001011ED0636900215B42A36171
:10536000A160F2B1002070BDDA063AD55B0724D403
:10537000226945F00803A3819BB2002AE9D103F416
:105380002071B1F5007FE4D03046214601F08AFC5F
:10539000A3892269DDE7980758BF6169A160002AE7
:1053A000E0D1A3891A06DDD543F04003A3814FF075
:1053B000FF3070BD01F0A8F8C5E7216B49B104F1D9
:1053C0004003994203D0304601F0E2F9A589002359
:1053D0002363226925F024050021ADB222606160BB
:1053E000C7E745F04005092333604FF0FF30A58142
:1053F00070BD00BF68050720024B13B1024800F0E2
:1054000005B870470000000005660800014600204E
:105410000246034602F0E4BE2DE9F04F03690D6930
:1054200083B09D42834600F38C80013D01F114045A
:1054300000F1140A54F825205AF825300132B3FB44
:10544000F2F8AA00914600925244A1440192B8F1A8
:10545000000F3ED000263046224653468C4652F876
:10546000047B19681FFA87FE3F0C0EFB086E07FBD2
:1054700008F606EB1E461FFA8EFECEEB000E8FB22C
:10548000B0B27744C0EB114000EB2740BFB247EA0F
:105490000047914543F8047B4FEA20404FEA164607
:1054A000DDD2009A61465AF8023093B9019A131F6F
:1054B0009A450CD252F8043C4BB9A2F1080302E021
:1054C0001A68043B1AB99A4505F1FF35F8D3CBF8B1
:1054D0001050584602F040FA00282EDB08F101086F
:1054E0005346002254F8046B1868B1B2511A87B2BF
:1054F000360C3944C6EB104000EB214289B241EA38
:105500000241A14543F8041B4FEA2242EAD25AF86D
:1055100025200AEB850382B91A1F92450BD253F856
:10552000042C42B9083B02E01A68043B1AB99A45B8
:1055300005F1FF35F8D3CBF81050404603B0BDE875
:10554000F08F002003B0BDE8F08F00BF0000000026
:105550002DE9F04F016C9BB0044692469B46279D77
:1055600041B1436C01229A404B608A6001F0FEFF1A
:1055700000232364BBF1000FD94633DB00232B60EB
:10558000A54B1A4609EA0303934214D050465946E4
:105590000022002302F0A6FF804648B3269E289DE5
:1055A00001233360002D00F0CA809C482860013838
:1055B0001BB0BDE8F08F269D42F20F732B60BAF14D
:1055C000000F00F0A5809648289E002EF0D0C378EA
:1055D000002B00F0B68000F10803289D2B601BB063
:1055E000BDE8F08F01232BF000492B60CB46C7E7C5
:1055F00019AA18AB8DE80C00204652465B4602F013
:105600003BFA5FEA19550A9040F08B80189F199D6C
:105610006FF482633D449D42C0F295821F3305F2D0
:1056200012425B1B09FA03F32AFA02F243EA020070
:10563000FBF73EFE0126013DB846A1F1F871169632
:105640000022784BFBF7F6FC6DA3D3E90023FBF7B0
:10565000A5FE6DA3D3E90023FBF7EEFC0646284622
:105660000F46FBF735FE6AA3D3E90023FBF796FE4E
:1056700002460B4630463946FBF7DEFC06460F462F
:10568000FCF79EF83946079000223046002302F0CE
:1056900033FF002840F02982079E162E00F2228256
:1056A0006149524601EBC6015B46D1E9000102F0B7
:1056B00041FF002800F04C82013E079600260E961E
:1056C000C5EB0805013D069500F1268200250895E9
:1056D000079E002EC0F21782069D0D9635440026C7
:1056E00006950C96249D092D2DD8052DC4BF043D8B
:1056F0002495249EC8BF0025A6F10203D8BF01252A
:10570000032B22D8DFE813F0B7039E02C0039A04EC
:10571000464A434BC9F3130000280CBF10461846F5
:1057200052E7CBF3130343F07F51CDF85880504636
:10573000A5F2FF3541F44011DDF8608080E73C4878
:1057400036E7C31C49E700252495002565642946F2
:10575000204601F0E5FE4FF0FF390126099025951E
:105760002064CDF83C900B96199B002BC0F2D280A0
:10577000079E0E2E00F3CE802B4B03EBC603D3E91E
:105780000001CDE9040125990029C0F28083DDE9FB
:10579000042359465046FBF72BFFFCF711F805464A
:1057A000FBF796FDDDE90423FBF7F8FD02460B4607
:1057B00050465946FBF73EFC099A05F13003B9F112
:1057C000010F06460F46137002F1010B64D0002250
:1057D000184BFBF7E3FD0022002306460F4602F0BC
:1057E00081FE002840F08180DDF82480099DC844B6
:1057F000DDE904AB05F10209039428E0AFF3008072
:1058000061436F63A787D23FB3C8608B288AC63FC6
:10581000FB799F501344D33F0000F07F3D8D08007B
:105820009C8D08000000F83FB08D0800908D0800A6
:105830003C8D080000002440FBF7B0FD002200234F
:1058400006460F4602F04EFE002840F0C183524645
:105850005B4630463946FBF7CBFEFBF7B1FF05460A
:10586000FBF736FD52465B46FBF798FD02460B46BA
:1058700030463946FBF7DEFB05F1300EC14509F82D
:1058800001EC4C4606460F464FF00002A74B09F1CB
:105890000109D1D1A346039C32463B4630463946E6
:1058A000FBF7CAFB06460F463246DDE904013B46DC
:1058B00002F022FE40B9DDE9040132463B4602F027
:1058C00011FE90B1EB0710D51BF8015C099A05E0B9
:1058D0009A4200F0298413F8015C9B46392D0BF1A4
:1058E000FF33F5D06A1CD2B21A7020460A9901F033
:1058F0003DFE079E269D731C289E00228BF80020EB
:105900002B60002E00F025830998C6F800B01BB06C
:10591000BDE8F08F0B9D002D00F00381249E012E29
:1059200040F3DC820C9E09F1FF37BE42C0F289834E
:10593000F71BB9F1000FC0F28784089D4B46089E03
:1059400020461E440896069E01211E44069601F03C
:10595000AFFE064665B10698002809DD03460899A2
:10596000AB42A8BF2B46C91AC01A0891ED1A06907F
:105970000C9A002A1DDD0B9B002B00F05883002F92
:1059800011DD31463A46204601F03AFF06463146DF
:105990000A9A204601F096FE0A998046204601F0B8
:1059A000E5FDCDF82880DDF830E0BEEB070240F0E1
:1059B0008F822046012101F07BFE80460D98002851
:1059C00005DD414620460D9A01F01AFF80462499D4
:1059D000012940F3C18200270D98002840F0AF82D2
:1059E0000120069B034413F01F0300F0A180C3F1C4
:1059F0002002042A40F3B7840899069AC3F11C03D5
:105A000019441A4408911D4406920899002905DD9D
:105A10000A99089A204601F041FF0A90069A002A46
:105A200004DD4146204601F039FF80460E9B002BE5
:105A300040F06A82B9F1000F40F3A6820B9800286B
:105A400040F088800B9D0A9FDDF824B006E03946BF
:105A500020460A22002301F093FD074638464146BE
:105A6000FFF7DAFC30300BF805000135A945EEDC14
:105A7000DDF824B082460A97B9F1010FACBFCB44E0
:105A80000BF1010B00250A990122204601F006FFC7
:105A900041460A9001F060FF002840F309831BF89B
:105AA000012C099905E0994200F08B8213F8012C32
:105AB0009B46392A0BF1FF33F5D001321A7041466B
:105AC000204601F053FD002E3FF40FAF2DB1B5423B
:105AD00003D02946204601F049FD3146204601F019
