:0200000280007C
:10000000802B0720710F08006D0F08006D0F08008E
:100010006D0F08006D0F08006D0F08000000000054
:100020000000000000000000000000006D0F08004C
:100030006D0F0800000000006D0F08006D0F080034
:100040006D0F08006D0F08006D0F08006D0F0800A0
:100050006D0F08006D0F08006D0F08006D0F080090
:100060006D0F08006D0F080000000000DD0D080096
:10007000F10D0800050E0800190E08000000000030
:1000800000000000F90308008D1108006D0F080042
:100090006D0F08006D0F08006D0F08006D0F080050
:1000A0006D0F0800000000006D0F08006D0F0800C4
:1000B0006D0F08006D0F08006D0F08006D0F080030
:1000C0006D0F08006D0F08006D0F08006D0F080020
:1000D0006D0F08006D0F08006D0F08006D0F080010
:1000E0006D0F08006D0F08006D0F08006D0F080000
:1000F0006D0F080010B5054C237833B9044B13B1CC
:100100000448AFF300800123237010BDDC090720F1
:1001100000000000C881080008B5064B1BB1064866
:100120000649AFF300800648036813B1054B03B1DD
:10013000984708BD00000000C8810800E0090720BA
:10014000C8810800000000002DE9F04F83B005468B
:100150009046002A47D04E1C254F264CDFF8A8A019
:10016000DFF894B006F1FF3900230193224B9D4242
:1001700006D158464946214B98470028F9D119E045
:100180001F4B9D4209D19946484601A9A047002826
:10019000FAD1019B06F8013C17E01A4B9D4209D1A8
:1001A0009946484601A9A0470028FAD1019B06F8C4
:1001B000013C14E0554508D1504601A9A04700284C
:1001C000FAD1019B06F8013C09E0BD4207D138464F
:1001D00001A9A0470028FAD1019B06F8013C01368D
:1001E000B8F10108BED1002003B0BDE8F08F00BF18
:1001F00000400A40E103080000080E40DD0208004C
:100200000080094000C0094000000A402DE9F0418B
:100210000C46904660B9002A0EDD8F18094E0A4D33
:10022000306821462B6898470134BC42F8D106E07B
:100230004FF0FF30BDE8F0810020BDE8F08140467E
:10024000BDE8F081640B07205C0B07202DE9F0412D
:100250000E461546013802280FD892B10024DFF867
:100260003C800D4FD8F80000315D3B68984700286E
:100270000ADB0134A542F5D10AE04FF0FF30BDE8BA
:10028000F0810020BDE8F0814FF0FF30BDE8F08143
:100290002046BDE8F08100BF600B0720640B0720FB
:1002A00010B489014318022444504FF0FF31996281
:1002B000196A5A605DF8044B704700BFC0F8C4105B
:1002C000704700BF8901052343507047890102230D
:1002D0004350704700EB811108697047436913F080
:1002E000010F1DBF83690B7000200120704700BF04
:1002F00010B40B0193420DD91AE0416841F400217A
:10030000416042EA03430362002020E001201EE036
:1003100001201CE0D20002EB5302B2FBF3F3DA0837
:1003200003F00703541E4FF6FE718C42E9D9EDE746
:10033000C900D30003EB5103B3FBF1F3DA0803F078
:100340000703541E4FF6FE718C42D6D9E0E75DF8E4
:10035000044B7047084BC0F8E4300023436043620D
:10036000836288230360242303604FF48073036057
:100370004FF40023036070470041535570B50546A4
:100380000C4616460F4B984700210F4B19609CB145
:100390002846216832460D4B9847034670B9A1683C
:1003A00062680A4321690A43E068024306490A6019
:1003B00069680A436A6002E0012300E001231846ED
:1003C00070BD00BF55030800F8090720F1020800BE
:1003D00040230360704700BF10230360704700BFD5
:1003E000436913F0010F05D08369C3F308030B6061
:1003F000002070470120704700B583B011480DF10F
:1004000007010122104B984772B6BFF35F8F00229D
:100410000E4B1A700E4B1B789DF807100D4AD154E5
:100420009B2B03D100220A4B1A7002E00133084AC9
:1004300013700122054B1A70BFF35F8F62B603B0D1
:100440005DF804FB008009404901080034010720E1
:10045000980A0720FC090720401A7047401A704785
:100460002DE9F04107460E4601FB01F400FB004474
:10047000DFF870802046C047154B984704460D466C
:100480003046C04722462B46124CA047124B984795
:100490000DA3D3E90023114CA047114B9847002E20
:1004A00009DA002F02DD5A30BDE8F081002F08DAAA
:1004B000B430BDE8F081002E03DD002FB8BF00F599
:1004C0008770BDE8F08100BFF8C1631ADCA54C401D
:1004D0009D140800AD210800F5130800591F0800FD
:1004E0008D2408008D1E080070B4204B4FF08062F0
:1004F0001A61C3F8A0201E494FF480430B61C1F874
:10050000A0304FF400434B61C1F8A030194B0224D6
:100510005C61C3F8A04008205861C3F8A0004FF404
:1005200000725A61C3F8A0204FF480625A61C3F888
:10053000A020114A04255561C2F8A05001265E6131
:10054000C3F8A0605D61C3F8A05040255D61C3F8A9
:10055000A05080234B61C1F8A0305461C2F8A04084
:100560005061C2F8A00070BC704700BF00100E4080
:10057000000E0E4000140E4000120E402DE9F04F08
:1005800089B04FF08062424B5A634FF48042A3F52A
:1005900000735A630028009071DD00261D46019209
:1005A0003C4CDFF814914FF0806A394BC3F834A00B
:1005B000019B6B633848394B9847D5F83CE0E06BBA
:1005C000E16BE26BE36BD9F83C70CEF3C03EC0F355
:1005D00040000EEB4000C1F3C00100EB8101C2F30B
:1005E000402201EBC202C3F3802302EB0313C7F3E3
:1005F000800703EB4717D4F83CC0D4F83CE0E06B2D
:10060000E96BD9F83C30D9F83C200CF0010CCEF362
:10061000800E0CEB4E0EC0F380100EEB8000C1F389
:10062000C01100EBC101C3F3400301EB0313C2F39C
:10063000C00B03EB4B1B0020CBEB0701184B98477B
:100640003E4403A817493A46DFF87080C04703A824
:10065000154FB84703A815495A46C04703A8B847DD
:1006600003A813493246C04703A8B847084BC3F84C
:1006700030A04FF480432B63009BB34293DC40F2E5
:10068000DC5001460B4B984709B0BDE8F08F00BF26
:1006900000100E4000140E4020A10700790708004A
:1006A000C5060800807F0800392508008C7F0800F7
:1006B0009C7F0800FD07080000120E40F525080089
:1006C000704700BF08B5164B1B68164A1360164AE0
:1006D0001360411A00290CDD144A106800FB01F078
:1006E000191A104A116018440F4B1860104B9847A4
:1006F00012E000290CDA0D4A106800FB01F019180D
:10070000084A1160181A084B1860094B984703E013
:1007100018461946064B98470648074B984708BDA8
:10072000300107209C0A0720A00A07202C0107207F
:10073000FD07080020A107007907080010B51B205D
:10074000084B9847084C204600210A46074B98471B
:1007500020460021064B984720460021054B98472C
:1007600010BD00BF150F080000000840A1020800DE
:10077000BD020800CD020800F8B504460948002172
:10078000094B98472A2707FB04F7064E0025074C1C
:1007900030462946A047B842FAD302480021044B0C
:1007A0009847F8BD00000840C5020800D5020800BF
:1007B000CD020800044B10221A61C3F8A0202022A9
:1007C0001A61C3F8A020704700120E4038B5034CE0
:1007D00010252563024B9847656338BD00120E4013
:1007E0007907080038B5034C20252563024B98474C
:1007F000656338BD00120E407907080010B50C463D
:10080000044B98472046044B984741F28240034BE3
:10081000984710BDCD070800E507080079070800D4
:1008200070B4204B4FF080621A61C3F8A0201E49BB
:100830004FF480430B61C1F8A0304FF400434B618B
:10084000C1F8A030194B02245C61C3F8A040082015
:100850005861C3F8A0004FF400725A61C3F8A02099
:100860004FF480625A61C3F8A020114A04255561F3
:10087000C2F8A05001265E61C3F8A0605D61C3F8B4
:10088000A05040255D61C3F8A05080234B61C1F8A2
:10089000A0305461C2F8A0405061C2F8A00070BC02
:1008A000704700BF00100E40000E0E4000140E40B6
:1008B00000120E402DE9F04F87B08346604B9847F9
:1008C0000022604B604CA04704460D464FF4804226
:1008D0005E4B5A634FF0806203F500735A63002247
:1008E00000235B4EB047002842D020462946594B92
:1008F000984780EAE079A9EBE079574B1B68994566
:1009000030DD564EDFF844A1DFF87081D6F83CC0E8
:10091000D6F83CE0F06BDAF83C10D8F83C20D8F878
:100920003C304D4F0CF0010CCEF3800E0CEB4E0E14
:10093000C0F380100EEB8000C1F3C01100EBC101C9
:10094000C2F3400201EB0212C3F3C00302EB4313F4
:100950003B604FF4C8604FF4AF61414B98473B6830
:100960004B45D3DB40F2DC5001463D4B984747E016
:1009700020462946002200233A4EB04700283FD0A7
:1009800020462946334B984780EAE078A8EBE07888
:10099000354B1B6898452EDDDFF8B0A02F4EDFF8F1
:1009A000DC90DAF83CC0D6F83CE0F06BF16BF26B0F
:1009B000D9F83C302C4FCCF3C03CCEF3400E0CEBBE
:1009C0004E0EC0F3C0000EEB8000C1F3402100EBDF
:1009D000C101C2F3802201EB0212C3F3800302EBD8
:1009E00043133B604FF4AF604FF4C8611C4B984712
:1009F0003B684345D5DB40F2DC500146184B984735
:100A00000023154A1360184A13604FF480420F4BBD
:100A10001A634FF0806203F500731A6301A813494B
:100A20005A46134FB84701A8124EB04701A81249C1
:100A300022462B46B84701A8B04707B0BDE8F08F63
:100A40008D1E08000000D03F591F0800000E0E4008
:100A5000792408008D240800A40A072000140E4001
:100A6000FD0708003D240800A80A0720A87F080009
:100A7000F525080039250800B47F080000120E4053
:100A800010B50E480E4B984700203E210D4B98475D
:100A90000D4CA0470028FCD00C4B98470C4A0D4B3E
:100AA0009A620D4CA0470028FCD010200B4B9847B1
:100AB0000B4B98470148024B984710BD00BD0105FC
:100AC000A5000720910E0800E50E0800F50E0800AD
:100AD000013F0D2000060E40050F08002D0E0800F6
:100AE0002110080010B54FF40042184B5A600B203B
:100AF000174CA0470C20A0470D20A0470E20A04770
:100B00003B204FF06051134CA04755204FF06051EF
:100B1000A04756204FF06051A04768200E49A047DB
:100B20005C200E49A0470E484FF4405303664365CE
:100B30004362C0F88030026F22F440520267436083
:100B40004FF44071074A084B984710BD501A0E40A9
:100B5000150F0800110C080079000028010000287A
:100B6000000E0E4001000008E50C08004264B1F1DF
:100B7000805F16D004D8C1B1B1F1006F0AD013E084
:100B8000B1F1405F11D0B1F1605F0ED0B1F1205FE3
:100B90000AD17047036F016F0B4023EA020303671A
:100BA00002E0036F1343036742607047416412F031
:100BB000010F14BF4166016612F00A0F14BF0162F3
:100BC000416212F0020F02D0C0F8801004E012F06F
:100BD000080F18BFC0F8841041610160704700BF62
:100BE00010B44164019C0CB1416600E001660BB198
:100BF000016500E041650AB1016300E04163016104
:100C000001605DF8044B7047C06C7047806C7047A2
:100C100070B582B00D46440904F5001404F207745F
:100C2000660201F0F044B4F1205F30D006D8B4F190
:100C3000006F0AD0B4F1805F18D049E0B4F1405F92
:100C400030D0B4F1605F2DD042E000F01F000124ED
:100C5000844030464FF0006122461F4B984715F004
:100C6000010F14BF74663466012032E000F01F00EB
:100C70000124844030464FF080512246164B98475D
:100C800015F0010F14BF74663466012021E000F0F6
:100C90001F010124304604FA01F12A460F4B984700
:100CA000204616E000F01F01012405F0605205EA1D
:100CB00004030093304604FA01F1B2F1605F14BFFF
:100CC00000220122C5F38003054DA847204600E01D
:100CD000002002B070BD00BF6D0B0800AD0B080016
:100CE000E10B0800F0B583B007460E46154602F04A
:100CF000F044B4F1205F26D006D8B4F1006F0AD0DA
:100D0000B4F1805F13D034E0B4F1405F1FD0B4F190
:100D1000605F1CD02DE04FF000613246164B9847C3
:100D200015F0010F14BF7E663E66012022E04FF0F1
:100D300080513246104B984715F0010F14BF7E6664
:100D40003E66012016E00D4B9847012012E005F0A9
:100D5000605205F00103009338463146B2F1605FFE
:100D600014BF00220122C5F38003054CA0470120D7
:100D700000E0002003B0F0BD6D0B0800AD0B0800D3
:100D8000E10B08002DE9F04104460E46104B984750
:100D9000054620460F4B9847054017D00E4F07F1E8
:100DA0000C046C3754F80C3CB3420AD154F8081CBC
:100DB000294206D023683046984754F8083C25EA73
:100DC0000305BC4202D01034002DEBD1BDE8F08108
:100DD000090C08000D0C0800AC0A072008B50248F1
:100DE0000B21024B984708BD000E0E40850D0800F0
:100DF00008B502480C21024B984708BD00100E4070
:100E0000850D080008B502480D21024B984708BD22
:100E100000120E40850D080008B502480E21024B55
:100E2000984708BD00140E40850D0800174B1A6B3B
:100E300022F07002104318639B6E13F0080F09D163
:100E40004FF40063114901E0013B19D08A6E12F0A2
:100E5000080FF9D00D4B1A6B22F0030242F0020288
:100E60001A63986E10F008000CD14FF40063074924
:100E700001E0013B08D08A6E12F0080FF9D07047EC
:100E800001207047002070470120704700060E4087
:100E900038B111490B6A114A1A40114B13430B62C6
:100EA00070470D4A136A23F45C1323F0030343F4E1
:100EB0005C1343F00103090289B20B431362936E82
:100EC00013F0010FFBD0044A136A43F09B7343F401
:100ED00080331362704700BF00060E40FCFFC8FE5F
:100EE00002003701024B986E00F48030704700BF5B
:100EF00000060E404FF00052014B9A62704700BF4F
:100F000000060E40024B986E00F00200704700BFD2
:100F100000060E402C2820D81F280DD8124B9A69A5
:100F2000012383401A40934219D0012303FA00F0B1
:100F30000D4B1861002070470B4BD3F80821203867
:100F4000012383401A4093420BD0012303FA00F09F
:100F5000054BC3F8000100207047012070470020B6
:100F600070470020704700BF00060E40FEE700BF3C
:100F700010B51E4B1E4A9A4203D01E4B1B4A9A4282
:100F800004D31D4B1D4A9A420FD31AE01C4B1D4C33
:100F9000E41A24F0030404340023144814495A5872
:100FA0001A500433A342FAD1EBE7174B1749C91A79
:100FB00021F003011A1D1144002243F8042F8B4233
:100FC000FBD1134A22F0604323F07F0311498B6069
:100FD00002F16042B2F5801F03D28A6842F00052EB
:100FE0008A600D4B98470D4B9847FEE7000007209D
:100FF000C8810800DC0907207C0B0720DC090720DA
:1010000004000720DF090720D8090720770B0720F5
:101010000000080000ED00E0E924080001120800CB
:101020003E4B1B6B03F00303032B5FD8DFE803F099
:10103000020E2B2B3A4B5B6913F0800F14BF4FF459
:1010400000424FF4FA42374B1A604FE0334B1B6AB1
:1010500013F0807F03D0344A324B1A6046E0334AA3
:10106000304B1A602D4B1B6A03F07003102B02D01B
:10107000202B04D03AE02E4A2A4B1A6036E02A4A46
:10108000284B1A6032E0254B1B6A13F0807F03D097
:10109000254A244B1A6012E0244A224B1A601F4B47
:1010A0001B6A03F07003102B02D0202B04D006E043
:1010B0001F4A1C4B1A6002E01B4A1A4B1A60174B5E
:1010C0001B6B03F00303022B0DD1144B986A996A32
:1010D000144BC0F30A401A6800FB0222C9B2B2FBEB
:1010E000F1F21A6002E0134A0E4B1A600B4B1B6BB5
:1010F00003F07003702B07D10A4B1A680E49A1FB4D
:10110000020252081A607047044B196B054BC1F379
:1011100002111A68CA401A60704700BF00060E40EC
:10112000101A0E4038010720001BB70000093D00CF
:1011300000127A00001C4E0EABAAAAAA094B1B682B
:1011400013B9094A074B1A60064B1B681A1807495E
:10115000914204DB1046034A1060184670474FF076
:10116000FF3070471C0B0720802B0720FC7F0820D6
:101170004FF0FF30704700BF4FF400534B6000202A
:10118000704700BF0120704700207047094B1A6864
:1011900042F010021A60084801784A1CD2B202706C
:1011A0009869064B58540F2A02D90022024B1A7034
:1011B000704700BF00C00940200B0720680B0720C4
:1011C0000B78303BC3EB431203EB8203DB009BB293
:1011D00003804A78303A02EB820202EB820203EB90
:1011E000820292B202808B78303B03EB830302EBE6
:1011F00043039BB20380CA78303A1344038070479C
:10120000F0B595B0624B9847624B98470B20624D02
:10121000A8470C20A8470D20A8470E20A8475F4BE1
:1012200098475F4B98475F4B98475F4B98475F4E97
:101230003046A8474FF416530393C02304934FF44A
:10124000006305930024069407941220A8473046B3
:1012500003A9574A574B98473046574B9847304653
:10126000564B9847564B9847ADF83E40ADF83C403A
:10127000ADF83A40ADF83840502440F27266514D16
:1012800030463146A847BDF83E300133ADF83E3018
:10129000BDF83C30013BADF83C30013CF0D140F2B0
:1012A000DC500146474B9847BDF83C50BDF83E0026
:1012B0000021454B9847044628460021434B984758
:1012C00005462146424B9847424B1860009009A8BA
:1012D000414922462B46414CA04709A8404B98471C
:1012E0000026404C404D414F23788DF84C306378B8
:1012F0008DF84D30A3788DF84E30E3788DF84F306F
:1013000023798DF8483063798DF84930A3798DF8C9
:101310004A30E3798DF84B30237A8DF84430637A84
:101320008DF84530A37A8DF84630E37A8DF8473052
:10133000237B8DF84030637B8DF84130A37B8DF8A3
:101340004230E37B8DF843300DF13E0013A9A847EE
:101350000FA812A9A8470DF13A0011A9A8470EA895
:1013600010A9A8474EB9322000210A46B8476FF0AD
:1013700059001F4B98470126B6E7322000210A4644
:10138000B8476FF059001A4B98470026ACE700BFEA
:10139000810A0800E50A0800150F08003D0708004B
:1013A000C1060800B50708002108080000C0094070
:1013B00000BD01057D030800D1030800D903080022
:1013C000E9040800FD070800590408005D0408004E
:1013D00061040800240B0720C07F0800F5250800E1
:1013E00039250800680B0720C11108007D05080099
:1013F000B50808002DE9F0418AB004460D4600F01A
:10140000A3F8DFF89480064698F900300F460133C0
:1014100004D02046294600F0B7FB20B930463946B3
:101420000AB0BDE8F0812046294600F0A9FB002261
:10143000164B01F021F80028F0D0154900230122B5
:1014400014480893CDE90445CDE902450191009285
:1014500000F0C4FB98F90030CDE90601022B0AD058
:10146000684600F0B9FB30B1089B4BB9DDE90601D5
:101470000AB0BDE8F08101F031F821230360F3E701
:1014800001F02CF8089B0360F0E700BF0000F03F7C
:10149000E47F08002C8008003C0107202DE9F0477C
:1014A0008AB004460D4600F0ABFADFF898A0064675
:1014B0009AF900300F4601330FD02046294600F03C
:1014C00063FB50B14FF000084FF0000942464B4615
:1014D0002046294600F0B2FF20B9304639460AB00E
:1014E000BDE8F08716499AF8006001220023CDE993
:1014F0000445CDE9024501910092089366B9CDE912
:101500000689684600F068FB80B1089B9BB9DDE95D
:1015100006010AB0BDE8F0874046494642464B46C0
:1015200000F044FE022ECDE90601EAD100F0D6FF1C
:1015300021230360E9E700F0D1FF089B0360E6E7A1
:10154000EC7F08003C0107202DE9F84F804F21F087
:101550000046BE4204460D460EDD06F1404C0CF539
:10156000801C5CEA000C40F0BB80002940F37C81C9
:1015700000200021BDE8F88F764FBE4240F3A880DE
:101580000029C0F2768102460B460020724900F025
:101590002FFB0022714B00F0DFFC04460D4600F0EB
:1015A0002FFA55A3D3E900238946804629462046D1
:1015B00000F0D2FC52A3D3E9002300F01BFB22462B
:1015C0002B4600F0C9FC50A3D3E9002300F010FB28
:1015D00022462B4600F0C0FC4DA3D3E9002300F0C7
:1015E00009FB22462B4600F0B7FC4BA3D3E90023AE
:1015F00000F0FEFA22462B4600F0AEFC48A3D3E9E9
:10160000002300F0F7FA22462B4600F0A5FC46A383
:10161000D3E9002382468B462046294600F09CFCF5
:1016200043A3D3E9002300F0E3FA22462B4600F05F
:1016300093FC41A3D3E9002300F0DCFA22462B46B9
:1016400000F08AFC3EA3D3E9002300F0D1FA224641
:101650002B4600F081FC00223F4B00F0CBFA024603
:101660000B465046594600F0A1FD42464B4600F05D
:1016700073FC002682468B4632464B46304649462E
:1016800000F06AFC02460B462046294600F0B0FAFC
:10169000324604460D464B464046494600F0AAFAFB
:1016A00002460B462046294600F080FD02460B46C6
:1016B0005046594600F09EFA02460B4630464946CF
:1016C00000F098FA02460B4600F094FABDE8F88F55
:1016D000234B9E4246DC1CA1D1E90001BDE8F88FF6
:1016E00002460B4600F084FA02460B4600F05EFD0F
:1016F000BDE8F88FAFF3008009F7FD0DE13D023F33
:1017000088B20175E0EF493F3B8F68B52882A43F5E
:101710005544880E55C1C93F7D6FEB0312D6D43FA7
:10172000555555555555C53F82922EB1C5B8B33F55
:1017300059018D1B6C06E63FC88A599CE52A00407A
:101740004B2D8A1C273A0340182D4454FB21F93FA6
:10175000FFFFEF3FFFFFDF3F0000F03F0000E03FF3
:101760000000603C02460B4600F0F6FB88A3D3E97C
:10177000002306460F4600F0EFFB87A3D3E90023C2
:1017800000F038FA32463B4600F0E6FB84A3D3E98A
:10179000002300F02DFA32463B4600F0DDFB82A329
:1017A000D3E9002300F026FA32463B4600F0D4FB92
:1017B0007FA3D3E9002300F01BFA32463B4600F03A
:1017C000CBFB7DA3D3E9002300F014FA32463B465D
:1017D00000F0C2FB7AA3D3E9002380468946304655
:1017E000394600F0B9FB78A3D3E9002300F000FAF2
:1017F00032463B4600F0B0FB75A3D3E9002300F06E
:10180000F9F932463B4600F0A7FB73A3D3E9002366
:1018100000F0EEF932463B4600F09EFB0022764B8C
:1018200000F0E8F902460B464046494600F0BEFC8F
:1018300002460B462046294600F08EFB02460B4628
:1018400067A1D1E9000100F0D3F902460B4620461A
:10185000294600F0CDF902460B4663A1D1E900010B
:1018600000F0C6F9BDE8F88F61A1D1E90001BDE83B
:10187000F88F0022604B00F0BDF900225F4B00F0B2
:101880006BFB43A3D3E9002304460D4600F064FB41
:1018900041A3D3E9002300F0ADF922462B4600F026
:1018A0005BFB3FA3D3E9002300F0A2F922462B46BD
:1018B00000F052FB3CA3D3E9002300F09BF9224641
:1018C0002B4600F049FB3AA3D3E9002300F090F93E
:1018D00022462B4600F040FB37A3D3E9002300F05B
:1018E00089F922462B4600F037FB80468946204680
:1018F000294600F085F832A3D3E9002306460F46B7
:101900002046294600F028FB2FA3D3E9002300F04E
:101910006FF922462B4600F01FFB2DA3D3E90023CD
:1019200000F068F922462B4600F016FB2AA3D3E903
:10193000002300F05DF922462B4600F00DFB00224B
:101940002D4B00F057F902460B464046494600F041
:101950002DFC32463B4600F0FFFA21A3D3E90023D9
:1019600000F046F902460B463046394600F042F98F
:1019700002460B4600F03EF902460B461CA1D1E997
:10198000000100F035F9BDE8F88F00BFAFF300802B
:1019900009F7FD0DE13D023F88B20175E0EF493FD7
:1019A0003B8F68B52882A43F5544880E55C1C93F76
:1019B0007D6FEB0312D6D43F555555555555C53F50
:1019C00082922EB1C5B8B33F59018D1B6C06E63F1C
:1019D000C88A599CE52A00404B2D8A1C273A0340AF
:1019E000075C143326A6913C182D4454FB21F93F83
:1019F000182D4454FB2109400000F03F0000E03F57
:101A000021F0004C2DE9F8434FEA1C5CDFF86C81B3
:101A10004FEA0C5CC44506460F460B46024600F0F2
:101A20008F8000296FDD0F1578D0A7F2FF37C3F341
:101A30001303F90743F4801360D4D10F4FF0000C67
:101A400001EB43037F105200654616204FF400114E
:101A50006C189C424FEAD2764FEA420202DC1B1B12
:101A600065188C44013806EB43034FEA5101EFD16E
:101A7000804620264FF0004109E023D0D40F013EDC
:101A80004FEA510104EB43034FEA42021ED0AB423E
:101A900001EB0804F1DD04F00049B9F1004F04EB5B
:101AA000010809D0A9465B1B944288BF03F1FF33AC
:101AB000121B08444D46E1E7B8F1000FF2DB05F1D7
:101AC0000109F0E79442E6D91D46D7E71A4304D04E
:101AD000431C41D000F00103184446084FEA6C0350
:101AE0001CF0010F03F17F5303F5001318BF46F0FC
:101AF000004603EB07513046BDE8F883D10F01EBF8
:101B00004303520099E721F00043034322D051BB25
:101B10000F46D30A153F5205002BFAD013F480115B
:101B20001DD15B00D80201F10101FAD5C1F101001C
:101B3000C1F1200422FA04F407448A40234374E7E5
:101B400002460B4600F008FA32463B4600F052F8D7
:101B5000BDE8F883BDE8F8830CF1010CBEE7202452
:101B600001200021E6E702460B4600F041F802465C
:101B70000B4600F01BFBBDE8F88300BF0000F07FC0
:101B800021F00041704700BF31F0004310B408D08D
:101B90000F4AA3F5801494420AD804205DF8044B40
:101BA000704700280CBF022003205DF8044B7047EB
:101BB000B3F5801F01D20320F7E7064A934201D014
:101BC0000020F2E7D0F1010038BF0020EDE700BFB0
:101BD000FFFFDF7F0000F07F0020704700200149F9
:101BE000704700BF0000F87F81F0004102E000BFB5
:101BF00083F0004330B54FEA41044FEA430594EACD
:101C0000050F08BF90EA020F1FBF54EA000C55EA07
:101C1000020C7FEA645C7FEA655C00F0E2804FEAD8
:101C20005454D4EB5555B8BF6D420CDD2C4480EABA
:101C3000020281EA030382EA000083EA010180EAEA
:101C4000020281EA0303362D88BF30BD11F0004F38
:101C50004FEA01314FF4801C4CEA113102D040426E
:101C600061EB410113F0004F4FEA03334CEA1333A9
:101C700002D0524263EB430394EA050F00F0A780C1
:101C8000A4F10104D5F1200E0DDB02FA0EFC22FABC
:101C900005F2801841F1000103FA0EF2801843FAB0
:101CA00005F359410EE0A5F120050EF1200E012AA1
:101CB00003FA0EFC28BF4CF0020C43FA05F3C018DF
:101CC00051EBE37101F0004507D54FF0000EDCF158
:101CD000000C7EEB00006EEB0101B1F5801F1BD301
:101CE000B1F5001F0CD349085FEA30004FEA3C0C05
:101CF00004F101044FEA445212F5800F80F09A80FB
:101D0000BCF1004F08BF5FEA500C50F1000041EBFE
:101D1000045141EA050130BD5FEA4C0C404141EB02
:101D2000010111F4801FA4F10104E9D191F0000F29
:101D300004BF01460020B1FA81F308BF2033A3F1AC
:101D40000B03B3F120020CDA0C3208DD02F1140CA3
:101D5000C2F10C0201FA0CF021FA02F10CE002F1DE
:101D60001402D8BFC2F1200C01FA02F120FA0CFCD7
:101D7000DCBF41EA0C019040E41AA2BF01EB045120
:101D8000294330BD6FEA04041F3C1CDA0C340EDC1E
:101D900004F11404C4F1200220FA04F001FA02F361
:101DA00040EA030021FA04F345EA030130BDC4F11F
:101DB0000C04C4F1200220FA02F001FA04F340EA14
:101DC0000300294630BD21FA04F0294630BD94F0C5
:101DD000000F83F4801306BF81F480110134013DAC
:101DE0004EE77FEA645C18BF7FEA655C29D094EA1D
:101DF000050F08BF90EA020F05D054EA000C04BF9B
:101E00001946104630BD91EA030F1EBF0021002085
:101E100030BD5FEA545C05D14000494128BF41F024
:101E2000004130BD14F580043CBF01F5801130BD88
:101E300001F0004545F0FE4141F470014FF0000013
:101E400030BD7FEA645C1ABF194610467FEA655CC4
:101E50001CBF0B46024650EA013406BF52EA033566
:101E600091EA030F41F4002130BD00BF90F0000F54
:101E700004BF0021704730B54FF4806404F1320490
:101E80004FF000054FF0000150E700BF90F0000F49
:101E900004BF0021704730B54FF4806404F1320470
:101EA00010F0004548BF40424FF000013EE700BF40
:101EB00042004FEAE2014FEA31014FEA02701FBFD0
:101EC00012F07F4393F07F4F81F06051704792F0A2
:101ED000000F14BF93F07F4F704730B54FF460741C
:101EE00001F0004521F0004120E700BF50EA010267
:101EF00008BF704730B54FF000050AE050EA010214
:101F000008BF704730B511F0004502D5404261EB83
:101F100041014FF4806404F132045FEA915C3FF4C4
:101F2000DCAE4FF003025FEADC0C18BF03325FEA5D
:101F3000DC0C18BF033202EBDC02C2F1200300FA12
:101F400003FC20FA02F001FA03FE40EA0E0021FA37
:101F500002F11444C1E600BF70B54FF0FF0C4CF421
:101F6000E06C1CEA11541DBF1CEA135594EA0C0FD7
:101F700095EA0C0F00F0DEF82C4481EA030621EA12
:101F80004C5123EA4C5350EA013518BF52EA03354D
:101F900041F4801143F4801338D0A0FB02CE4FF0FF
:101FA0000005E1FB02E506F00042E0FB03E54FF02F
:101FB0000006E1FB03569CF0000F18BF4EF0010E27
:101FC000A4F1FF04B6F5007F64F5407404D25FEA23
:101FD0004E0E6D4146EB060642EAC62141EA5551D6
:101FE0004FEAC52040EA5E504FEACE2EB4F1FD0C18
:101FF00088BFBCF5E06F1ED8BEF1004F08BF5FEA96
:10200000500E50F1000041EB045170BD06F0004647
:1020100046EA010140EA020081EA0301B4EB5C04F4
:10202000C2BFD4EB0C0541EA045170BD41F48011EC
:102030004FF0000E013C00F3AB8014F1360FDEBF11
:10204000002001F0004170BDC4F10004203C35DAED
:102050000C341BDC04F11404C4F1200500FA05F370
:1020600020FA04F001FA05F240EA020001F0004211
:1020700021F0004110EBD37021FA04F642EB060187
:102080005EEA430E08BF20EAD37070BDC4F10C04B1
:10209000C4F1200500FA04F320FA05F001FA04F275
:1020A00040EA020001F0004110EBD37041F1000161
:1020B0005EEA430E08BF20EAD37070BDC4F120056C
:1020C00000FA05F24EEA020E20FA04F301FA05F2D4
:1020D00043EA020321FA04F001F0004121FA04F27C
:1020E00020EA020000EBD3705EEA430E08BF20EA4C
:1020F000D37070BD94F0000F0FD101F00046400086
:1021000041EB010111F4801F08BF013CF7D041EA07
:10211000060195F0000F18BF704703F0004652000B
:1021200043EB030313F4801F08BF013DF7D043EADC
:102130000603704794EA0C0F0CEA135518BF95EA92
:102140000C0F0CD050EA410618BF52EA4306D1D119
:1021500081EA030101F000414FF0000070BD50EA38
:10216000410606BF1046194652EA430619D094EAC2
:102170000C0F02D150EA013613D195EA0C0F05D1AC
:1021800052EA03361CBF104619460AD181EA030100
:1021900001F0004141F0FE4141F470014FF00000B8
:1021A00070BD41F0FE4141F4780170BD70B54FF053
:1021B000FF0C4CF4E06C1CEA11541DBF1CEA1355D3
:1021C00094EA0C0F95EA0C0F00F0A7F8A4EB0504B5
:1021D00081EA030E52EA03354FEA013100F08880AC
:1021E0004FEA03334FF0805545EA131343EA126375
:1021F0004FEA022245EA111545EA10654FEA00262A
:102200000EF000419D4208BF964244F1FD0404F5E2
:10221000407402D25B084FEA3202B61A65EB03053E
:102220005B084FEA32024FF480104FF4002CB6EBFB
:10223000020E75EB030E22BFB61A754640EA0C007B
:102240005B084FEA3202B6EB020E75EB030E22BFBB
:10225000B61A754640EA5C005B084FEA3202B6EBFC
:10226000020E75EB030E22BFB61A754640EA9C00BB
:102270005B084FEA3202B6EB020E75EB030E22BF8B
:10228000B61A754640EADC0055EA060E18D04FEA49
:10229000051545EA16754FEA06164FEAC30343EAE9
:1022A00052734FEAC2025FEA1C1CC0D111F4801FB6
:1022B0000BD141EA00014FF000004FF0004CB6E7AF
:1022C00011F4801F04BF01430020B4F1FD0C88BF4E
:1022D000BCF5E06F3FF6AFAEB5EB030C04BFB6EB59
:1022E000020C5FEA500C50F1000041EB045170BD4C
:1022F0000EF0004E4EEA113114EB5C04C2BFD4EB79
:102300000C0541EA045170BD41F480114FF0000EFC
:10231000013C90E645EA060E8DE60CEA135594EA78
:102320000C0F08BF95EA0C0F3FF43BAF94EA0C0F7B
:102330000AD150EA01347FF434AF95EA0C0F7FF4F0
:1023400025AF104619462CE795EA0C0F06D152EA44
:1023500003353FF4FDAE1046194622E750EA410628
:1023600018BF52EA43067FF4C5AE50EA41047FF439
:102370000DAF52EA43057FF4EBAE12E74FF0FF3C9E
:1023800006E000BF4FF0010C02E000BF4FF0010C6F
:102390004DF804CD4FEA410C7FEA6C5C4FEA430CE8
:1023A00018BF7FEA6C5C1BD001B050EA410C0CBF37
:1023B00052EA430C91EA030F02BF90EA020F002099
:1023C000704710F1000F91EA030F58BF994208BF00
:1023D00090422CBFD8176FEAE37040F001007047BD
:1023E0004FEA410C7FEA6C5C02D150EA013C07D114
:1023F0004FEA430C7FEA6C5CD6D152EA033CD3D05F
:102400005DF8040B704700BF8446104662468C4658
:102410001946634600E000BF01B5FFF7B7FF00288B
:1024200048BF10F1000F01BD4DF808EDFFF7F4FFB4
:102430000CBF012000205DF808FB00BF4DF808ED3F
:10244000FFF7EAFF34BF012000205DF808FB00BF62
:102450004DF808EDFFF7E0FF94BF012000205DF884
:1024600008FB00BF4DF808EDFFF7CEFF94BF012039
:1024700000205DF808FB00BF4DF808EDFFF7C4FF32
:1024800034BF012000205DF808FB00BF4FEA410285
:1024900012F5001215D211D56FF47873B3EB6252B6
:1024A00012D94FEAC12343F0004343EA505311F0DD
:1024B000004F23FA02F018BF404270474FF000006F
:1024C000704750EA013005D111F0004008BF6FF0AD
:1024D000004070474FF00000704700BF014B186884
:1024E000704700BF6805072070B50F4E0F4D761B73
:1024F000B61007D0043D0024013455F8043F984736
:10250000A642F9D10A4E0B4D05F048FE761BB610D7
:1025100008D0043D0024013455F8043F9847A642F2
:10252000F9D170BD70BD00BFA8810800A881080066
:10253000B0810800A88108000FB410B5074B82B025
:1025400004AC54F8042B186823468168019401F008
:1025500023FB02B0BDE8104004B0704768050720B7
:10256000F0B4840743D0541E002A3ED0CDB20346B7
:1025700003E0621E002C38D0144603F8015B9A0772
:10258000F7D1032C2AD9CDB245EA05250F2C45EA0F
:10259000054515D9A4F110073F0903F1100606EB14
:1025A00007161A46156055609560D5601032B24224
:1025B000F8D104F00F040137032C03EB07130DD9F6
:1025C0001E462246043A032A46F8045BFAD8221F24
:1025D00022F003020432134404F003042CB1C9B204
:1025E0001C4403F8011BA342FBD1F0BC7047144606
:1025F0000346C6E70EB4F0B59CB021AC54F8042BEA
:102600000E49064623464FF4027E6FF000450868E7
:102610004FF6FF7702A9029606960194ADF814E0F2
:1026200004950795ADF8167000F00AF8029B002299
:102630001A701CB0BDE8F04003B070476805072071
:102640002DE9F04FC9B010930C9191460D9003F015
:10265000BDFD0068159004F039FF0C9C1890A3890B
:102660001E0603D52369002B01F0818038ACA446F7
:1026700008942B9400250024CDE9164500231193DE
:102680002D932C931A9319930E93664699F8003064
:10269000002B00F0F880252B00F0F58009F10102F5
:1026A00001E0252B04D0137814460132002BF8D119
:1026B000C9EB04057DB12C9B2D9A01332A44072BCD
:1026C000C6F8009075602D922C9300F3C2800836F6
:1026D0000E9828440E902378002B00F0C28000232F
:1026E00094F801801A468DF88F300F93099304F106
:1026F00001094FF0FF340A9409F10109A8F1200300
:10270000582B00F2C583DFE813F06A02C303C3034A
:102710007102C303C303C303C303C303C30314038B
:102720006603C3039D00C000C30378027F027F02DB
:102730007F027F027F027F027F027F027F02C3034C
:10274000C303C303C303C303C303C303C303C30359
:10275000C30390027103C3037103C303C303C30321
:10276000C3036A03C303C3037800C303C303C303E0
:10277000C303C3035900C303C303AF02C303C303AB
:10278000C303C303C303C303C303C303C303C30319
:1027900037034803710371037103FF024803C30346
:1027A000C3030803C303C5027C002003A303C303C0
:1027B000D902C3035F00C303C303DE00DDF824C0F6
:1027C0004CF0100CCDF824C0099CA20600F15483F3
:1027D000099CE30600F1BD85DDF824C01CF0400F24
:1027E00000F0B785DDF840C00025BCF800400CF1D2
:1027F000040C0123CDF840C08CE0099D45F0100584
:102800000995DDF824C01CF0200340F02A83DDF890
:1028100024C01CF0100240F0A485DDF824C01CF098
:10282000400300F09E85DDF840C01346BCF8004030
:102830000CF1040C0025CDF840C06BE00F9C109308
:1028400064420F94099D45F00405099599F80080AC
:1028500052E70D980C992BAA04F068FE40B938AEE7
:1028600036E72D9B23B10D980C992BAA04F05EFE40
:102870000C9C0E98A38913F0400F18BF4FF0FF3047
:1028800049B0BDE8F08F4C4625E799F8008009F182
:102890000100B8F12A0F01F00C81A8F13003092BD7
:1028A00098BF002101F26B8010F8018B01EB8101D0
:1028B00003EB4101A8F13003092BF5D941EAE1719D
:1028C0000A9181461AE7099DA14CAF061A948DF82A
:1028D0008F2040F1D181DDF840C00CF1070323F0D7
:1028E000070303F108041094D3E90045DDF824C080
:1028F0001CF0010F00F0628454EA050000F05E84D1
:1029000030234CF0020C8DF890308DF89180CDF88A
:1029100024C002234FF0000A8DF88FA00A990029E5
:1029200005DBDDF824C02CF0800CCDF824C054EA7F
:10293000050040F0C5820A99002940F0C182002BB1
:1029400040F03884DDF824C01CF0010F00F0328420
:1029500048AF3023089D07F8413DEC1BDDF828C047
:1029600000256445A8BFA446CDF82CC01495BAF143
:10297000000F02D00B9D01350B95099B13F002034C
:10298000129302D00B9D02350B95DDF824C01CF08C
:10299000840CCDF84CC040F090820F9DDDF82CC027
:1029A000CCEB050BBBF1000F40F38782BBF1100F9E
:1029B0002D992C9ADFF8A0A12CDD1B9730465746A5
:1029C0001025CA460C9EA1460D9C06E0ABF1100BEB
:1029D000BBF1100F00F1080017DD01321031072A9A
:1029E0002D912C9207604560F0DD204631462BAAE0
:1029F00004F09CFD00287FF43BAFABF1100BBBF162
:102A0000100F2D992C9A38A8E7DC4C46D146BA46CF
:102A10001B9F064601320BEB010C072ACDF8B4C010
:102A20002C9286E8000C00F31A849DF88FA00836DB
:102A3000BAF1000F0FD02C9B0CF1010C01330DF1FA
:102A40008F010122072BCDF8B4C02C9386E8060035
:102A500000F3A4830836129B73B12C9B0CF1020C7B
:102A6000013324A90222072BCDF8B4C02C9386E8A9
:102A7000060000F387830836139D802D00F0CA827C
:102A80000A9DC4EB050ABAF1000F3BDDBAF1100F45
:102A90002C9B304D2BDD0A9432464FF0100B2E4606
:102AA00061460D9C0C9D06E0AAF1100ABAF1100FC8
:102AB00002F1080217DD01331031072B2D912C9301
:102AC00082E84008F0DD204629462BAA04F02EFDBE
:102AD00000287FF4CDAEAAF1100ABAF1100F2D999B
:102AE0002C9B38AAE7DC0A9C35468C4616460133F7
:102AF000D444072BCDF8B4C02C9386E8200400F30F
:102B000035830836099DED0500F124822C9BA444F1
:102B10000133072BCDF8B4C0376074602C9300F3F9
:102B20000F830836099C630749D50F9D0B982C1A13
:102B3000002C44DD102C2C9BDFF81CA02BDD57460D
:102B400010256246DDF83080DDF834A00BE000BFD0
:102B500030800800FC7F080050800800103C102CDA
:102B600006F1080615DD01331032072B2D922C9348
:102B700037607560F2DD504641462BAA04F0D6FC62
:102B800000287FF475AE103C102C2D9A2C9B38AE8B
:102B9000E9DC9446BA460133A444072BCDF8B4C00F
:102BA0002C93C6F800A0746009DD0D980C992BAA2F
:102BB00004F0BCFC00287FF45BAEDDF8B4C00E9CD2
:102BC0000B980F9DA842ACBF241864190E94BCF159
:102BD000000F40F0C18200232C9338AE56E599F8DF
:102BE0000080002A7FF488AD202285E5099D45F00C
:102BF0000105099599F800807EE5099D45F080055D
:102C0000099599F8008077E50024A8F130030F9426
:102C1000214619F8018B01EB810103EB4101A8F179
:102C20003003092BF5D90F9168E5DDF824C08DF844
:102C30008F204CF0100CCDF824C0099CA50640F163
:102C4000B280109DE91D21F00701D1E90023083170
:102C5000109114461D46002A73F1000CC0F29483B3
:102C60009DF88FA0012359E6099DB64CAF068DF85B
:102C70008F201A943FF52FAE099DED0640F1438455
:102C8000DDF840C00025DCF800400CF1040CCDF864
:102C900040C02BE6DDF824C08DF88F201CF0200FFB
:102CA00000F04084109C21680E9CE5172B46109D77
:102CB000224604351095C1E90023E7E4109C4FF04B
:102CC000000A27688DF88FA0251D002F00F0E985E8
:102CD0000A9C3846002CC0F29B855146224603F0E0
:102CE0008DFD002800F013860A9CC01BA042B8BFCF
:102CF0000446109524EAE475CDF828A0CDF850A03C
:102D00000B959DF88FA032E6DDF824C04CF0400C06
:102D1000CDF824C099F80080EEE499F800804B4685
:102D2000B8F16C0F00F07F84099D45F010050995FE
:102D3000E2E4109C109D24682B1D002C0F94FFF6DC
:102D40007DAD109399F80080D6E4109BDDF824C087
:102D5000109D7D4804351C684FF0780830234CF0F6
:102D6000020C10958DF89030CDF824C000258DF818
:102D700091801A900223CDE5109B109D1A680124C2
:102D8000002304359A460B948DF8B82010958DF8E1
:102D90008F300A9314932EAFEFE5099C8DF88F20A6
:102DA000A5063FF54EAFDDF824C01CF0100F40F033
:102DB000DF82DDF824C01CF0400F00F0D982DDF87E
:102DC00040C0BCF900400CF1040CE51722462B462C
:102DD000CDF840C03FE799F800802B228CE4099D94
:102DE00045F00805099599F8008085E4109D8DF857
:102DF0008F20EB1D23F0070303F1080CCDF840C032
:102E0000D3E90045CDE91645DDE91601FEF7BCFE24
:102E10000128DDE9160140F05C8300220023FFF762
:102E20000DFB002840F063859DF88FA003250B95CE
:102E3000099D464F25F08005454B00240995002546
:102E40000A94B8F1470FD8BF1F46032414958EE5A6
:102E5000DDF824C04CF0200CCDF824C099F8008097
:102E60004AE4109CE31D23F0070303F108051095C5
:102E7000D3E9004500234DE5109DEB1D23F007032A
:102E800003F1080CD3E90045CDF840C0012341E52A
:102E90008DF88F20B8F1000F3FF4E3AC00234FF022
:102EA000010C9A46CDF82CC08DF8B8808DF88F3083
:102EB0000A93149364462EAF5FE5DDF8B4C0B7E51E
:102EC000012B00F0EC80022B0DF1DF0318D1DDF8AF
:102ED00068C0194604F00F0022091CF8000042EAFD
:102EE00005722B09087052EA03000F4614461D466E
:102EF00001F1FF31EED1089DCDE91E23EC1B2DE53C
:102F0000E00840EA457004F00702E908303250EA70
:102F1000010C1F461A7004460D4603F1FF33EFD132
:102F2000099CCDE91C01E007394640F1C180302AF7
:102F300000F0BE80089D1F463023EC1B01F8013CC9
:102F40000CE500BF1C8008003080080010800800DD
:102F50000C800800B8F1650F40F3AD80DDE9160183
:102F600000220023CDF81CC0FFF75EFADDF81CC07C
:102F7000002800F026812C9BAA4901330CF1010C9A
:102F80000122072BCDF8B4C02C9386E8060000F38D
:102F9000ED820836259B119CA34203DB099DEC07BB
:102FA0007FF5C0AD2C9B189C0133159DA444072BC5
:102FB000CDF8B4C0356074602C9300F33E830836BE
:102FC000119D6C1E002C7FF7ADAD102C2C9B964DE7
:102FD00040F3978110276246DDF83480DDF830A099
:102FE00004E00836103C102C40F38A810133103283
:102FF000072B2D922C9386E8A000F2DD4046514627
:103000002BAA04F093FA00287FF432AC2D9A2C9B63
:1030100038AEE7E70F9D0B98C0EB050ABAF1000F39
:103020007FF72EADBAF1100F2C9B7F4D2BDD129444
:1030300032464FF0100B2E4661460D9C0C9D06E06B
:10304000AAF1100ABAF1100F02F1080217DD0133DC
:103050001031072B2D912C9382E84008F0DD20469B
:1030600029462BAA04F062FA00287FF401ACAAF1E9
:10307000100ABAF1100F2D992C9B38AAE7DC129C8C
:1030800035468C4616460133D444072BCDF8B4C0E0
:103090002C9386E8200400F30F820836F0E4002D1C
:1030A00008BF0A2C80F03881303448AF07F8414D12
:1030B000089DEC1B52E4119C012C2C9C40F3D28106
:1030C00001340CF101030122072C2D9337602C945D
:1030D000726000F3D8810836159DDDF860800134F8
:1030E0003560189D9844072CCDF8B4802C947560F9
:1030F00000F3D5810836DDE9160100220023FFF731
:1031000093F9119D002840F0B9806B1E01340137FE
:103110009844072C2C94CDF8B4803760736000F38A
:10312000E2800836DDF864C00134199DC44427AB41
:10313000072CCDF8B4C02C9486E828007FF7F1ACBA
:103140000D980C992BAA04F0F1F900287FF490ABAC
:10315000DDF8B4C038AEE5E40D980C992BAA04F064
:10316000E5F900283FF437ADFFF782BB0D980C99C5
:103170002BAA04F0DBF900287FF47AABDDF8B4C0A9
:1031800038AEBFE40D980C992BAA04F0CFF90028B3
:103190007FF46EABDDF8B4C038AE6DE40D980C99D9
:1031A0002BAA04F0C3F900287FF462ABDDF8B4C0A9
:1031B00038AE50E40A9C38AFFFF7D0BB0223FFF7CC
:1031C000A9BB259B002B40F3DD81119C149DDDF8EC
:1031D00044A0AC42A8BF2C46002CBA440BDD2C9B6B
:1031E000A4440133072BCDF8B4C0376074602C932E
:1031F00000F31E830836149D24EAE4742C1B002C73
:1032000040F3D780102C2C9B074D40F3A3810A97E5
:103210004FF010082F4662462546DDF834B00C9C6E
:1032200009E000BF4C800800FC7F08000836103D14
:10323000102D40F38B8101331032072B2D922C93EC
:1032400086E88001F2DD584621462BAA04F06EF98B
:1032500000287FF40DAB2D9A2C9B38AEE7E70D9834
:103260000C992BAA04F062F900287FF401AB9DF8B9
:103270008FA0DDF8B4C038AEFFF7DABB6F1E002FA9
:103280007FF750AF102FAE4D23DD43464FF0100AAD
:10329000DDF83480DDF830B004E0103F102F06F187
:1032A000080615DD01341033072C2D932C9486E885
:1032B0002004F2DD404659462BAA04F037F90028D5
:1032C0007FF4D6AA103F102F2D9B2C9C38AEE9DC42
:1032D00098460134B844072CCDF8B4802C9486E885
:1032E000A0007FF71EAF0D980C992BAA04F01EF9D1
:1032F00000287FF4BDAADDF8B4802C9C38AE11E71D
:1033000094460133A444072BCDF8B4C02C93356008
:1033100074607FF706AC13E70DF1DF0B20462946FA
:103320000A22002304F04CFB30328BF800202046A8
:1033300029460A22002304F043FB04460D4654EAC2
:10334000050C5F460BF1FF3BE8D1089DEC1BFFF736
:1033500005BB109D01232C68043510950025FFF74F
:10336000D9BA109D2C68043510950025FFF7D2BA04
:10337000109D2C6804351095E51722462B46002A2F
:1033800073F1000CBFF66CAC4FF02D0A644265EB94
:1033900045058DF88FA00123FFF7C0BA0D980C9951
:1033A0002BAA04F0C3F800287FF462AADDF8B4C0A9
:1033B00038AE149D259C2F44119DAC4242DB099DE3
:1033C000E9073FD41198C7EB0A05041BAC42B8BF0C
:1033D0002546002D0BDD2C9BAC440133072BCDF88B
:1033E000B4C0376075602C9300F34C82083625EA30
:1033F000E575641B002C7FF795AB102C2C9B504D72
:103400007FF77FAF10276246DDF83480DDF830A00B
:1034100004E00836103C102C7FF772AF01331032F5
:10342000072B2D922C9386E8A000F2DD40465146F2
:103430002BAA04F07BF800287FF41AAA2D9A2C9B63
:1034400038AEE7E7189D2C9BAC44159D01333560E1
:10345000189D072BCDF8B4C075602C9300F3F48150
:103460000836AFE7099DEA073FF52AAE01340CF1B3
:1034700001080123072CCDF8B4802C9437607360C9
:103480007FF74FAE2FE70D980C992BAA04F04EF85A
:1034900000287FF4EDA92D9B2C9C38AE1CE60D98DE
:1034A0000C992BAA04F042F800287FF4E1A9DDF87A
:1034B000B4802C9C38AE1EE60D980C992BAA04F013
:1034C00035F800287FF4D4A9DDF8B4C038AEFFF792
:1034D000D7BAFEF759FB002840F0BB80099C194F72
:1034E000194B4FF0030C24F0800409940A90CDF896
:1034F0002CC01490B8F1470FD8BF1F4664469DF802
:103500008FA0FFF734BA099C640640F15081DDF8C2
:1035100040C00025BCF800400CF1040CCDF840C0C0
:10352000FFF7E4B9DDF824C01CF0100F00F046816D
:10353000109C0E9D2368043410941D60FFF7A6B8FC
:10354000FC7F080018800800148008002C463D46C7
:103550000A9F94460133A444072BCDF8B4C02C93A2
:10356000356074603FF71AAF083622E70D980C9962
:103570002BAA03F0DBFF00287FF47AA9DDF8B4C0A2
:1035800038AE07E52C9AB74901320CF1010C012045
:10359000072ACDF8B4C02C923160706000F3F78038
:1035A00008361C462CB9119D1DB9099DE8077FF509
:1035B000B9AA2C9B159D189901333560189D61445B
:1035C000072B2D9175602C9300F3DE8106F1080224
:1035D0006442002C40F30B81102CA34D40F3488132
:1035E000A34610260C46DDF83480DDF830A006E056
:1035F0000832ABF1100BBBF1100F40F337810133F0
:103600001034072B2D942C9382E86000F0DD4046A7
:1036100051462BAA03F08AFF00287FF429A92D9C8C
:103620002C9B38AAE5E7099C09F1010944F0200424
:10363000099493F80180FFF75FB80D980C992BAAB5
:1036400003F074FF00287FF413A9DDF8B4C038AE8E
:10365000B6E40A9D28F0200A013500F0A580BAF1F1
:10366000470F04D10A9D002D08BF01250A95DDF8FA
:1036700024C0DDE916234CF4807C002BCDF848C033
:10368000C0F29C81DDE91645CDE920454FF0000BE5
:10369000B8F1660F00F09B81B8F1460F00F0A981E8
:1036A000BAF1450F0ABF0A9C0A9D651C022025A994
:1036B00026AA29AB8DE821000392049302910D986C
:1036C000DDE9202301F0DCF9B8F1670F074602D0ED
:1036D000B8F1470F05D1DDF824C01CF0010F00F050
:1036E0009C81BAF1460F07EB050400F01C81DDE96F
:1036F000200100220023FEF797FE002840F00581FC
:10370000299B9C4206D930215A1C29921970299B69
:103710009C42F9D8DB1BBAF1470F119300F0ED8002
:10372000B8F1650F40F3F281B8F1660F00F06881DF
:10373000259C1494119C149DAC4200F33281DDF859
:1037400024C01CF0010F40F0AD8125EAE5732C4642
:103750004FF06708BBF1000F40F0B280129D0B9351
:103760000995CDF828B09DF88FA0FFF700B90D9806
:10377000402102F0A7FD20602061002800F0BF81F9
:10378000DDF830C04023CCF81430FEF76FBF0D9841
:103790000C992BAA03F0CAFE00287FF469A8259C87
:1037A000DDF8B4C038AEFDE606240A945FE7109D4C
:1037B0002C68043510950025FFF798B8DDF824C073
:1037C0001CF0400F00F08780109C0E9D236804348D
:1037D00010941D80FEF75ABF0D980C992BAA03F088
:1037E000A5FE00287FF444A82D992C9B38AADDF86B
:1037F00044C00133119C8C44072BCDF8B4C02C93EA
:10380000176054603FF79CAC02F10806FFF78AB9D5
:10381000CDF828A003F05AFE10950A9D20EAE07C1E
:103820000446CDF82CC014959DF88FA0FFF79FB8E3
:103830000D980C992BAA03F079FE00287FF418A8A4
:10384000DDF8B4C038AED6E40D980C992BAA03F07D
:103850006DFE00287FF40CA8259CDDF8B4C038AEBE
:10386000B0E500BF4C800800FC7F080021465C46A4
:1038700001332144072B2D912C9315605460ABDC50
:103880000832B4E70D980C992BAA03F04FFE0028DC
:103890007EF4EEAF259C1199DDF8B4C00C1B38AE58
:1038A000A5E50A9CBA46062C28BF062424EAE47C37
:1038B0000A9714971095CDF82CC0974FFFF757B87B
:1038C000129D4FF02D0A099500250B938DF88FA0BE
:1038D0000A95FFF74FB8DDF840C00E9CDCF80030C9
:1038E0000CF1040CCDF840C01C60FEF7CFBE4FF0C9
:1038F0002D0A8DF88FA0FFF799BA259BDC1C19DBE8
:103900000A9C9C4216DB149314E7234602E724EA40
:10391000E47CCDF82CC00A9C10950A9014909DF878
:103920008FA0FFF724B83B78302B00F0AD80259DA9
:103930002C44DCE6A8F10208591E00292591BABFE3
:1039400049422D232B2309298DF89C808DF89D3029
:1039500065DC302330318DF89E308DF89F1028AB18
:10396000119D27AA119C9A1A012D1992144440F313
:10397000B7800134002524EAE4731495EAE60024B4
:1039800081460A94FEF7BABE0D980C992BAA03F053
:10399000CDFD00287EF46CAF259C2D992C9B38AA78
:1039A00016E6149C119D002CD4BFC4F1020401241E
:1039B0002C4424EAE4734FF06708CBE61799169875
:1039C00001F10041209021914FF02D0B60E60A9DFE
:1039D000032025A926AA29AB019500900392049300
:1039E00002910D98DDE9202301F04AF80A9D07466F
:1039F00077E60A9C032025A926AA29AB0194ECE7C7
:103A0000259D0A9C002D149563DDB4BB099DE80734
:103A100033D4149C24EAE4739CE6299B7AE60DF1E6
:103A2000AA023E4DCB1785FB0150C3EBA00000EB73
:103A30008003A1EB43010928134601F130021A70FB
:103A4000014603F1FF32ECDC00F130010DF1AB0473
:103A5000C9B2944203F8011C5AD90DF19D001A46CF
:103A600001E012F8011BA24200F8011FF9D10DF587
:103A7000907CC3EB4C03F63B72E70A9D6C1C149DD3
:103A80002C4424EAE47365E6DDE9200100220023EA
:103A9000FEF7CAFC00287FF44AAFC5F10105259561
:103AA0002C4424E6149D4FF067086C1C24EAE47350
:103AB00050E6109DDDF840C02D680CF10403002D88
:103AC00099F801800A9510938146BEF615AEFEF76F
:103AD00010BE7CB9099DE9070CD401231C4639E6C8
:103AE000DDF824C01CF001037FF443AF149324EAF3
:103AF000E4732FE60A9DAC1C24EAE4732AE60D9DCC
:103B00000C232B604FF0FF30FEF7BABE259B13E766
:103B10000DF19E0324E700BF4480080067666666D7
:103B20004B6E2DE9F0479C040E46804691462AD5FF
:103B30009368126802F1080A1BB31AE9A000BF08D3
:103B400017D0043D002401E0A74210D0404655F8AC
:103B5000041F324602F006F8431C04F10104F3D1BD
:103B60000023C9F80830C9F80430BDE8F087D9F857
:103B70000830A3EB8703C9F808300AF1080A002BC4
:103B8000DBD10020ECE702F067F90023C9F8083028
:103B9000C9F80430BDE8F0872DE9F04FB1B01C46FC
:103BA000029190460893069018B1836B002B00F0A9
:103BB000E880029DAB899AB2900407D46A6E43F400
:103BC000005322F40051AB819AB26966110740F1AB
:103BD000B780DDF808B0DBF81030002B00F0B080C3
:103BE00002F01A020A2A00F0B78000230DF18009C2
:103BF0000A93159314930993CDF84C904E4698F878
:103C00000030002B00F0C884252B00F0C58408F19B
:103C1000010201E0252B04D0137814460132002B59
:103C2000F8D1C8EB040595B1149B159A01332A44C9
:103C3000072BC6F800807560159214937BDD002A6F
:103C400040F0D5840998149228444E460990237870
:103C5000002B00F0ED8300214FF000024FF0FF3CFD
:103C600063788DF8472004918A4604F101080846DC
:103C7000654608F10108A3F12002582A00F2D98212
:103C8000DFE812F0CB02D702D702D202D702D70266
:103C9000D702D702D702D70282028F02D70284004E
:103CA0009302D7022B019601960196019601960187
:103CB0009601960196019601D702D702D702D70244
:103CC000D702D702D702D702D702D7023001D702D4
:103CD000D702D702D702D702D702D702D702D7021C
:103CE000D7027B01D702D702D702D702D702A4019D
:103CF000D702D702BF01D702D702D702D702D70215
:103D0000D702D702D702D702D702E401FA01D702BD
:103D1000D702D7021602FA01D702D7021B02D70236
:103D20002802890066027D02D7023A02D7021901F1
:103D3000D702D702AF02083609982844099086E7CF
:103D40000698029900F090FDB0B9029DAA8902F090
:103D50001A020A2A7FF449AFDDF808B0BBF90E3029
:103D6000002BFFF642AF069859464246234600F024
:103D70003DFD31B0BDE8F08F4FF0FF3031B0BDE810
:103D8000F08F01F059FE14E7404208934AF0040A0C
:103D900098F800306DE71AF020030490AC4600F06C
:103DA000F480DDF820B00BF1070323F0070303F1E3
:103DB00008040894D3E9004500234FF000000021D7
:103DC0008DF84700CDF814C00791BCF1000FA8BFD3
:103DD0002AF0800A54EA050240F0AD80BCF1000FE1
:103DE00040F0A980002B40F0C0831AF0010F00F0D2
:103DF000BC83302330AF07F8413DC7EB090405947D
:103E0000DDF814B0079CE345B8BFE346CDF80CB02D
:103E10001CB10BF1010BCDF80CB01AF0020507959F
:103E200005D0DDF80CB00BF1020BCDF80CB01AF098
:103E300084030B9340F01B82049DDDF80CB0CBEBA8
:103E40000504002C40F31382102C40F38984BE4DEE
:103E5000159A2B46149825464FF0100B6446B4462D
:103E60001E4606E0831C0CF1080C0846103D102D80
:103E700011DD411C1032072915928CE8400814917D
:103E8000F0DD002A40F0E681103D102D4FF00103D7
:103E90001046CC46EDDC31466646A4462C460D461F
:103EA0002244072B159235607460149300F36D83E0
:103EB0000836591CDEE11AF0200F0490AC4600F0E1
:103EC0008D80089DEB1D23F0070303F1080BD3E958
:103ED0000045CDF820B001236FE74AF0800A98F83A
:103EE0000030C6E64AF0100A1AF0200F0490AC46E3
:103EF0008DF8471000F0C880089CE11D21F00701F3
:103F0000D1E900230831089114461D46002A73F1B7
:103F1000000BC0F2CE83BCF1000F9DF84700A8BF94
:103F20002AF0800A54EA05020790CDF814C04FF039
:103F300001033FF453AF012B00F01983022B0DF165
:103F40007F0340F04C82DDF828B0194604F00F00E2
:103F500022091BF8000042EA05722B09087052EA98
:103F600003000F4614461D4601F1FF31EED1CDE9A5
:103F70000E23C7EB0903059342E74AF0100A1AF033
:103F800020030490AC467FF40CAF1AF0100240F00E
:103F900011831AF0400300F00D83DDF820B01346C2
:103FA000BBF800400BF1040B0025CDF820B004E76E
:103FB000A3F13002002018F8013B00EB800002EB77
:103FC0004000A3F13002092AF5D954E64AF0100A5C
:103FD0001AF0200F0490AC467FF473AF1AF0100F64
:103FE00040F0EF821AF0400F00F0EB82DDF820B0D5
:103FF0000025BBF800400BF1040B0123CDF820B0E5
:10400000DBE6AC46514D1AF0200F04908DF84710B6
:104010000A9500F0F080089DEA1D22F0070202F1E7
:10402000080BCDF820B0D2E900451AF0010F00F0DE
:10403000AA8254EA050B00F0A68230228DF849309E
:104040004AF0020A8DF848200223B6E6089BDDF804
:1040500020B01B6801244FF000050BF1040B049005
:1040600003948DF847508DF85830CDF820B0059462
:1040700016AF4FF0000CD0E61AF0200F0490AC46BB
:104080008DF847107FF438AF1AF0100F40F0A78278
:104090001AF0400F00F0A382DDF820B0BBF9004019
:1040A0000BF1040BE51722462B46CDF820B02DE787
:1040B0004AF0400A98F80030DBE598F800304246B4
:1040C0006C2B03BF08F101084AF0200A53784AF02C
:1040D000100ACEE51AF0200F8DF8471000F0F78295
:1040E000089C2168099CE5172B46089D224604354B
:1040F0000895C1E9002382E5089CAC4627684FF08B
:10410000000504908DF847500434002F00F03283EE
:10411000BCF1000F3846C0F2078362460021CDF89B
:1041200004C002F06BFBDDF804C0002800F03A8305
:10413000C01B9DF847506045A8BF60460590089495
:1041400007954FF0000C5BE6708008001C800800AB
:10415000089BDDF820B00490B2481C683022782318
:104160000BF1040BAC468DF849304AF0020ACDF849
:1041700020B000258DF848200A9002231DE64AF061
:10418000200A98F8003074E5DDF820B0DBF8000074
:104190000BF104030028FFF6F7AD089398F8003000
:1041A00067E598F800302B2163E598F8003008F1B6
:1041B00001042A2B00F00583A3F13002092A98BFDD
:1041C000002500F2FA8214F8013B05EB850502EBAD
:1041D0004505A3F13002092AF5D945EAE575A0465F
:1041E00049E5904C1AF0200F0490AC460A948DF8E3
:1041F00047107FF410AF1AF0100F40F0EA811AF068
:10420000400F00F0E681DDF820B00025BBF800404B
:104210000BF1040BCDF820B007E798F80030002927
:104220007FF427AD202124E54AF0010A98F80030F8
:104230001FE504908DF84710002B00F0F980012550
:104240004FF0000B03958DF858308DF847B0059569
:1042500016AF0EE70698029913AAFFF761FC002833
:1042600040F0ED801498159A431CCC46FEE5149B53
:10427000159A591C9DF8470068B101320DF14700AD
:10428000012307291592149186E8090000F3608143
:104290000B4608360131079C64B1023212A8022392
:1042A00007291592149186E8090000F357810B46FF
:1042B000083601310B9D802D00F00181059DC5EB75
:1042C0000C04002C2FDD102C574D22DD30464FF012
:1042D000100B2E462546069C06E003F1020C083022
:1042E0000B46103D102D10DD591C10320729159278
:1042F00080E840081491F0DD002A63D1103D102DB4
:104300004FF0010C13464846EEDC2C46614635461C
:10431000064622440729159235607460149100F313
:10432000C18008360131059D07292A44159237605E
:104330007560149140F3C180002A40F030811492DE
:104340004E461AF0040F00F08B80049DDDF80CB08F
:10435000CBEB0504002C40F38380102C40F31E822D
:104360001499324D1027DDF818A0DDF808B005E0EB
:10437000881C08361946103C102C10DD4B1C1032DE
:10438000072B159286E8A0001493F1DD002A7DD159
:10439000103C102C4FF0010011464E46EEDC22443A
:1043A0000728159235607460149059DD002A4FD1AA
:1043B000099CDDF80CB0049DAB45ACBF5C446419AE
:1043C00009945EE02046029913AAFFF7A9FB002892
:1043D00035D1149B159A03F1010C484681E7E0089A
:1043E00040EA457004F00702E908303250EA010B58
:1043F0001F461A7004460D4603F1FF33EFD11AF041
:10440000010FCDE90C01394600F0B980302A3FF4A4
:10441000F4AC1F46C7EB09053023059501F8013CB4
:10442000EEE400BF30800800608008007080080063
:10443000159B23B10698029913AAFFF771FB029C02
:10444000A3895B063FF598AC099831B0BDE8F08FC1
:104450000698029913AAFFF763FB0028EFD1159A7B
:10446000099CDDF80CB0049DAB45ACBF5C446419FD
:10447000099432B10698029913AAFFF751FB00285C
:10448000DDD1002014904E46FFF7B9BB5046594687
:1044900013AAFFF745FB0028D1D11499159A481C9F
:1044A0004E4668E7002A40F0F780059C01232097DC
:1044B00021941594224614934E46083641E7049DF4
:1044C000DDF80CB0CBEB0504002C7FF7F7AE102C19
:1044D000A64D40F3708129464FF0100B25466446E7
:1044E000B4460E4606E0981C0CF1080C0B46103D35
:1044F000102D0FDD591C1032072915928CE8400849
:104500001491F0DDBAB9103D102D4FF001001346A3
:10451000CC46EFDC33466646A4462C461D46224474
:104520000728159235607460149000F3AF80083648
:10453000411C0346C2E60698029913AAFFF7F0FA57
:1045400000287FF47CAF149B159A581CCC46CEE70C
:10455000002A79D119464E4613469CE6002A40F0BF
:104560008480012113464E46A4E64F4648E4002DC0
:1045700008BF0A2C46D2303430AF07F8414DC7EBA4
:10458000090305933CE4022317E4002A40F0AF80BE
:10459000134601214E466DE64446FFF758BB069888
:1045A000029913AAFFF7BCFA00287FF448AF159AC6
:1045B0004E46C6E6089D2C68043508950025FFF791
:1045C000FCBB089D01232C68043508950025FFF7E6
:1045D000F4BB089D2C6804350895002525E5089D49
:1045E0002C6804350895E51722462B468EE406987C
:1045F000029913AAFFF794FA00287FF420AF4E46E1
:10460000FFF79ABB0DF17F0B03965E46E34620460B
:1046100029460A22002303F0D3F9303232702046B3
:1046200029460A22002303F0CBF904460D4654EA3A
:104630000500374606F1FF36E9D1C7EB0903DC4632
:10464000039E0593FFF7DCBB0698029913AACDF8E9
:1046500004C0FFF765FADDF804C000287FF4EFAE70
:10466000149B159A591C4E4615E60698029913AAF2
:10467000CDF804C0FFF754FADDF804C000287FF439
:10468000DEAE149B159A591C4E4613E6002A56D1ED
:10469000012113464E4611E60698029913AAFFF728
:1046A0003FFA00287FF4CBAE1499159A01314E469B
:1046B00039E64FF02D0B644265EB45058DF847B0A8
:1046C000CDF81CB0CDF814C00123FFF77EBB1AF063
:1046D000100F1DD11AF0400F58D0089DDDF824B0FE
:1046E0002B6804350895A3F800B0FFF788BA069840
:1046F000029913AACDF804C0FFF712FADDF804C03E
:1047000000287FF49CAE149B159A591C4E46B1E5C7
:10471000DDF820B0099CDBF800300BF1040BCDF87C
:1047200020B01C60FFF76BBA089402F0CFFE9DF832
:104730004740059007944FF0000CFFF761BB0698C7
:10474000029913AACDF804C0FFF7EAF9DDF804C016
:1047500000287FF474AE149B159A591C4E46ADE5A3
:10476000149B159A0133024DFFF79ABB6080080035
:1047700070800800BCF1060F34BF6346062308941E
:1047800023EAE37405930394164F72E4089C099D91
:104790002368043408941D60FFF731BA1498124D51
:1047A0000130FCE59DF84750CDF814C007950894FA
:1047B0008446FFF725BB0846B1E6A0460025FFF773
:1047C0005ABADDF820B098F80130DBF800500BF150
:1047D0000402002D0892A046BFF64BAA4FF0FF3509
:1047E000FFF747BA44800800708008002DE9F047C1
:1047F0004F6EADF58D6D88461997D8F81C70B1F8DD
:104800000CA0B1F80E900797D8F824701AAC4FF4AA
:1048100080652AF0020A00266946009404940295F5
:104820000595ADF80CA0ADF80E90099706960546D3
:10483000FFF7B2F9041E07DB2846694601F0E0F8ED
:10484000B04218BF4FF0FF34BDF80C305B0605D501
:10485000B8F80C3043F04003A8F80C3020460DF5B2
:104860008D6DBDE8F08700BF2F4B70B50646186808
:104870000C4610B1826B002A36D0A589ABB219075D
:104880000CD52269AAB113F001011ED06369002181
:104890005B42A361A160F2B1002070BDDA063AD597
:1048A0005B0724D4226945F00803A3819BB2002A48
:1048B000E9D103F42071B1F5007FE4D03046214600
:1048C00001F088FCA3892269DDE7980758BF616978
:1048D000A160002AE0D1A3891A06DDD543F0400388
:1048E000A3814FF0FF3070BD01F0A6F8C5E7216B42
:1048F00049B104F14003994203D0304601F0E0F998
:10490000A58900232363226925F024050021ADB287
:1049100022606160C7E745F04005092333604FF02E
:10492000FF30A58170BD00BF68050720024B13B1A1
:10493000024800F005B8704700000000355B080031
:10494000014600200246034602F00EBF2DE9F04F5B
:1049500003690D6983B09D42834600F38C80013D5D
:1049600001F1140400F1140A54F825205AF82530F6
:104970000132B3FBF2F8AA00914600925244A144DE
:104980000192B8F1000F3ED0002630462246534631
:104990008C4652F8047B19681FFA87FE3F0C0EFB09
:1049A000086E07FB08F606EB1E461FFA8EFECEEBDE
:1049B000000E8FB2B0B27744C0EB114000EB27403D
:1049C000BFB247EA0047914543F8047B4FEA2040D5
:1049D0004FEA1646DDD2009A61465AF8023093B982
:1049E000019A131F9A450CD252F8043C4BB9A2F11C
:1049F000080302E01A68043B1AB99A4505F1FF352D
:104A0000F8D3CBF81050584602F03EFA00282EDBBF
:104A100008F101085346002254F8046B1868B1B23B
:104A2000511A87B2360C3944C6EB104000EB2142D4
:104A300089B241EA0241A14543F8041B4FEA2242F0
:104A4000EAD25AF825200AEB850382B91A1F92454B
:104A50000BD253F8042C42B9083B02E01A68043B1D
:104A60001AB99A4505F1FF35F8D3CBF810504046F6
:104A700003B0BDE8F08F002003B0BDE8F08F00BFA9
:104A80002DE9F04F016C9BB0044692469B46279D52
:104A900041B1436C01229A404B608A6001F0FEFFF5
:104AA00000232364BBF1000FD94633DB00232B60C6
:104AB000A54B1A4609EA0303934214D050465946BF
:104AC00000220023FDF7B0FC804648B3269E289DB7
:104AD00001233360002D00F0CA809C482860013813
:104AE0001BB0BDE8F08F269D42F20F732B60BAF128
:104AF000000F00F0A5809648289E002EF0D0C378C5
:104B0000002B00F0B68000F10803289D2B601BB03D
:104B1000BDE8F08F01232BF000492B60CB46C7E79F
:104B200019AA18AB8DE80C00204652465B4602F0ED
:104B30003BFA5FEA19550A9040F08B80189F199D47
:104B40006FF482633D449D42C0F295821F3305F2AB
:104B500012425B1B09FA03F32AFA02F243EA02004B
:104B6000FDF784F90126013DB846A1F1F8711696CA
:104B70000022784BFDF73CF86DA3D3E90023FDF745
:104B8000EBF96DA3D3E90023FDF734F80646284678
:104B90000F46FDF77BF96AA3D3E90023FDF7DCF9A3
:104BA00002460B4630463946FDF724F806460F46C6
:104BB000FDF76CFC39460790002230460023FDF7D4
:104BC0003DFC002840F02982079E162E00F222822A
:104BD0006149524601EBC6015B46D1E90001FDF790
:104BE0004BFC002800F04C82013E079600260E96F2
:104BF000C5EB0805013D069500F1268200250895C4
:104C0000079E002EC0F21782069D0D9635440026A1
:104C100006950C96249D092D2DD8052DC4BF043D65
:104C20002495249EC8BF0025A6F10203D8BF012504
:104C3000032B22D8DFE813F0B7039E02C0039A04C7
:104C4000464A434BC9F3130000280CBF10461846D0
:104C500052E7CBF3130343F07F51CDF85880504611
:104C6000A5F2FF3541F44011DDF8608080E73C4853
:104C700036E7C31C49E700252495002565642946CD
:104C8000204601F0E5FE4FF0FF39012609902595F9
:104C90002064CDF83C900B96199B002BC0F2D2807B
:104CA000079E0E2E00F3CE802B4B03EBC603D3E9F9
:104CB0000001CDE9040125990029C0F28083DDE9D6
:104CC000042359465046FDF771FAFDF7DFFB054610
:104CD000FDF7DCF8DDE90423FDF73EF902460B465B
:104CE00050465946FCF784FF099A05F13003B9F1A3
:104CF000010F06460F46137002F1010B64D000222B
:104D0000184BFDF729F90022002306460F46FDF750
:104D10008BFB002840F08180DDF82480099DC84489
:104D2000DDE904AB05F10209039428E0AFF300804C
:104D300061436F63A787D23FB3C8608B288AC63FA1
:104D4000FB799F501344D33F0000F07F4D80080053
:104D50008C8008000000F83FA080080080800800D8
:104D60004C80080000002440FDF7F6F800220023E4
:104D700006460F46FDF758FB002840F0C183524617
:104D80005B4630463946FDF711FAFDF77FFB0546D5
:104D9000FDF77CF852465B46FDF7DEF802460B460F
:104DA00030463946FCF724FF05F1300EC14509F8BD
:104DB00001EC4C4606460F464FF00002A74B09F1A6
:104DC0000109D1D1A346039C32463B4630463946C1
:104DD000FCF710FF06460F463246DDE904013B466C
:104DE000FDF72CFB40B9DDE9040132463B46FDF7F7
:104DF0001BFB90B1EB0710D51BF8015C099A05E08D
:104E00009A4200F0298413F8015C9B46392D0BF17E
:104E1000FF33F5D06A1CD2B21A7020460A9901F00D
:104E20003DFE079E269D731C289E00228BF80020C5
:104E30002B60002E00F025830998C6F800B01BB047
:104E4000BDE8F08F0B9D002D00F00381249E012E04
:104E500040F3DC820C9E09F1FF37BE42C0F2898329
:104E6000F71BB9F1000FC0F28784089D4B46089EDE
:104E700020461E440896069E01211E44069601F017
:104E8000AFFE064665B10698002809DD034608997D
:104E9000AB42A8BF2B46C91AC01A0891ED1A06905A
:104EA0000C9A002A1DDD0B9B002B00F05883002F6D
:104EB00011DD31463A46204601F03AFF06463146BA
:104EC0000A9A204601F096FE0A998046204601F093
:104ED000E5FDCDF82880DDF830E0BEEB070240F0BC
:104EE0008F822046012101F07BFE80460D9800282C
:104EF00005DD414620460D9A01F01AFF80462499AF
:104F0000012940F3C18200270D98002840F0AF82AC
:104F10000120069B034413F01F0300F0A180C3F19E
:104F20002002042A40F3B7840899069AC3F11C03AF
:104F300019441A4408911D4406920899002905DD78
:104F40000A99089A204601F041FF0A90069A002A21
:104F500004DD4146204601F039FF80460E9B002BC0
:104F600040F06A82B9F1000F40F3A6820B98002846
:104F700040F088800B9D0A9FDDF824B006E039469A
:104F800020460A22002301F093FD07463846414699
:104F9000FFF7DCFC30300BF805000135A945EEDCED
:104FA000DDF824B082460A97B9F1010FACBFCB44BB
:104FB0000BF1010B00250A990122204601F006FFA2
:104FC00041460A9001F060FF002840F309831BF876
:104FD000012C099905E0994200F08B8213F8012C0D
:104FE0009B46392A0BF1FF33F5D001321A70414646
:104FF000204601F053FD002E3FF40FAF2DB1B54216
:1050000003D02946204601F049FD3146204601F0F3
:1050100045FD02E701260E96EAE50798FCF736FF04
:1050200032463B46FDF700FA00287FF4CDAD079EDF
:10503000013E0796C8E5079E089DAD1B0895754281
:1050400000260C950D96E5E56D420026089506961E
:10505000D6E50C9F089D0B9E14E700BF000024407E
:105060001C23DDF820E006989E441844CDF820E08B
:105070001D44069061E7A748401B0AFA00F06FE55F
:105080000E90B5E5002D05DD31462A46204601F09B
:105090009DFE0646002F40F0E9823746099D09989B
:1050A0004D4408950AF001050B95DDF82890451C44
:1050B0000AE001F0FDFC394606460A22204600239C
:1050C00001F0F6FC0746013541464846FFF73EFC35
:1050D00031468346484601F0D7FE414603903A46A2
:1050E000204601F0F5FEC268691E03460BF1300A46
:1050F0000691002A40F0938119464846029301F038
:10510000C3FE029B024619462046029201F0C6FCED
:10511000029A2AB9249B1BB90B98002800F09383AC
:10512000039B002BC0F2348205D1249818B90B9947
:10513000002900F02D82002A00F3AC82DDF820E087
:1051400005F801AC7545AB4600F0B48249460A2229
:105150000023204601F0ACFCBE4281463146204689
:105160004FF00A024FF00003A3D101F0A1FC064664
:105170000746A8E700260B96079EDDF894E0B644A4
:105180000EF10109B9F1000FCDF83CE04E4640F3B5
:1051900050810021172E61640AD9012204235B008B
:1051A00003F11400B042114602F10102F7D9616423
:1051B000204601F04DFC0E2E099020643FF66CADA8
:1051C000002D3FF469AD079DCDE912AB002D40F3F2
:1051D0001C82514B05F00F0203EBC2032D11D3E9E2
:1051E0000067EB0640F1CD814C4B50465946D3E960
:1051F0000823FCF7DBFFCDE9100105F00F054FF0A8
:1052000003088DB1DFF814A130463946EE0705D505
:10521000DAE9002308F10108FCF79EFE6D100AF19F
:10522000080AF3D106460F46DDE9100132463B4637
:10523000FCF7BCFF82468B460E9D45B15046594651
:105240000022374BFDF7FAF8002840F0AA824046CA
:10525000FCF71CFE52465B46FCF77EFE0022314BFB
:10526000FCF7C8FC0646A1F15077B9F1000F00F039
:105270005A81079DC84617950B9D002D00F023828B
:10528000254B002003EBC80353E902232649FCF712
:105290008DFF32463B46FCF7ABFCCDE91001594689
:1052A0005046FDF7F3F80546FCF7F0FD02460B46C5
:1052B00050465946FCF79CFC3035099ECDE9040167
:1052C000DDE90423DDE91001EDB2357006F1010BD3
:1052D000FDF7D2F8002840F0AB82DDE9042300207E
:1052E0000F49FCF785FC02460B46DDE91001FDF78E
:1052F000C3F8002840F0A282B8F1010F40F3818189
:10530000B044CDF85090A246C146DDE90467DDE91E
:10531000104519E0EEFBFFFFA0800800688108003F
:105320000000F03F00001C400000E03F0020A849C2
:10533000FCF75EFC22462B46FDF780F8002840F083
:105340007B82CB4500F05A81204629460022A14BA2
:10535000FCF702FE00229F4B04460D4630463946BC
:10536000FCF7FAFD0F460646FDF790F88046FCF77D
:105370008DFD02460B4630463946FCF739FC08F1F4
:1053800030085FFA88F822462B460BF8018B064658
:105390000F46FDF753F832463B460028C6D0179E0D
:1053A0005446079639E500260B96259800283CDDE3
:1053B00006460F908146ECE601260B96F5E7B9F11B
:1053C000000F3FF77CAC40F0C680DDE9040100220D
:1053D000814BFCF7C1FD52465B46FDF743F8C846DA
:1053E0004E4600287CD0259DDDF824B0ED4307957E
:1053F0004146204601F052FB002E7FF406AE0CE53C
:105400000A99204601F094FC0A906AE5169D002D49
:1054100000F0B88103F233430C9F089D27E5014655
:10542000204601F03BFB01227AE6012625960F96E5
:10543000B14600216164BBE60A98414601F024FDB3
:105440000028BFF68FADDDF81CE00A990EF1FF3E93
:1054500020460A220023CDF81CE001F029FB0A9027
:105460000B98002840F00982DDF83C907AE5D8F8E6
:10547000103008EB8303186901F064FBC0F12000D1
:1054800047E50998FFF72CBBBAF1000F7FF43BAD5D
:10549000CBF31303002B40F07C812BF000473F0D32
:1054A0003F05002F3FF430AD089A069B01320133CF
:1054B00008920693012727E5249902297FF756AD24
:1054C000B9F1000F8FD141464B460522204601F02D
:1054D000EFFA804641460A9801F0D6FC002882DDAA
:1054E000079D312301350795099D2B7005F1010BAF
:1054F0007EE7079809993123013007900B7076E514
:10550000A346039C89E44046FCF7C0FC02460B46D8
:1055100050465946FCF720FD0022304BFCF76AFB51
:105520000646A1F150775046594600222A4BFCF717
:105530005FFB32463B4682468B46FCF79DFF0028C8
:1055400040F0BD80324607F1004350465946FCF713
:1055500075FF002855D04FF00008464643E70A99EA
:105560000C9A204601F0E4FB0A90BAE401260B965F
:1055700002E60C9D0D9E7B1B1E440C970D9600278A
:105580006FE4DDE912014FF00208CDE9100138E6C1
:10559000002ACDF82890D94611DD0A99012220462B
:1055A00001F014FC41460A9001F06EFC002840F323
:1055B0005D81BAF1390F00F01B8109F1310A069BB8
:1055C000354683F800A003F1010B3E460FE500BF0E
:1055D0000000F03F000024400000144000001C4088
:1055E00003D11AF0010F7FF4F2AC5B4613F8012CE3
:1055F0009B46302A03F1FF33F8D0F8E4DDF85090F1
:105600005446DDE912ABFFF747BB079E7542002DFC
:1056100000F0C280A34B05F00F0203EBC203D3E9F5
:105620000023DDE91201FCF797FC2D1182468B4621
:1056300000F02E819C4E4FF00208EA0705D5D6E90E
:10564000002308F10108FCF787FC6D1006F108063D
:10565000F3D182468B46EFE5079E099D30222A70E2
:105660000136312207961A70FFF7D7BB71682046C2
:1056700001F0EEF9336905469A1C920006F10C011F
:105680000C3001F005F920462946012201F09EFB6D
:10569000074603E5BAF1390FCDF8289000F0A8804D
:1056A000069D0AF101032B703546069E06F1010B9B
:1056B0003E469CE43546CDF828903E467BE44FF0CC
:1056C000000846460CE7774908F1FF3501EBC501B4
:1056D00032463B46D1E900011095FCF73DFCCDE98F
:1056E000140159465046FCF7D1FE0546FCF7CEFBA7
:1056F00002460B4650465946FCF77AFADDF824E09C
:105700003035B8F1010F06460F468EF800500EF105
:10571000010B1ED0099D6B1E03EB080A0022634B90
:10572000FCF71AFC0F460646FCF7B0FE8046FCF775
:10573000ADFB08F1300802460B4630463946FCF70F
:1057400057FA05F8018F5545E8D1109D06460F46DA
:10575000AB440022564BDDE91401FCF74BFA32460C
:105760003B46FCF76BFE00284DD0179E099A079622
:105770001BF8015CFFF74ABB089E0023C9EB060536
:10578000FFF775BB189B0C9FC3F13603089DFFF70D
:105790006EBB5746FFF7B8BBDDE912AB4FF002080E
:1057A0004AE5B9F1000F3FF4AEAE0F9E002E7FF731
:1057B00028AF00223D4B50465946FCF7CDFB8246B0
:1057C00008F101008B46FCF761FB02460B46504690
:1057D0005946FCF7C1FB0022364BFCF70BFA079D3C
:1057E0000646013DA1F150771795DDF83C8043E571
:1057F0003546069B069E3922327003F1010B3E4668
:105800000999FFF7EEBBDDE9142300202849FCF7D6
:10581000EFF932463B46FCF72FFE00283FF4F1AE8D
:105820005B4613F8012C9B46302A03F1FF33F8D076
:10583000179D0795FFF7F1BA45465446179E099AFA
:105840000796FFF7E3BABAF1390FCDF82890CFD019
:10585000039B3546002B069EC8BF0BF1310A86F824
:1058600000A006F1010B3E46FFF7C1BB7FF4A7AED7
:105870001AF0010F3FF4A3AE9BE6314620460A2200
:105880000023DDF83C9001F013F90646FFF76ABBF0
:105890004FF00208D0E43FF450ABC3F13C03FFF7F4
:1058A000E0BB00BFA0800800688108000000244021
:1058B0000000E03F00001C408B892DE9F0419AB2C6
:1058C0000D46110780463CD46A6843F40063002A01
:1058D000AB8159DDAC6A002C4BD09BB203F48052F3
:1058E000002192B2D8F80060C8F80010002A4FD00A
:1058F0002A6D5F0705D569682B6B521A0BB1EB6BEC
:10590000D21A4046E9690023A047441C4AD0AB891B
:105910002A6923F400639BB200212A60DA04AB8178
:1059200069604CD4296BC8F8006011B305F14003DD
:10593000994202D0404600F0C3F900202863BDE838
:10594000F0812E69AEB191072C680CBF6B69002302
:105950002E60A41BAB600AE0324623466F6A4046C5
:10596000E969B8470028C0EB0404064404DD002CB4
:10597000F2DC0020BDE8F081AB894FF0FF3043F04E
:105980004003AB81BDE8F081EA6B002AA2DCF0E7BE
:1059900001234046E969A047431C02461ED0AB895B
:1059A000AC6AA6E7D8F800305BB9AA89296922F465
:1059B000006292B26B60D304AA812960B2D52865D7
:1059C000B0E71D2B01D0162B13D1A9892B6921F427
:1059D00000610022A9812B606A60A3E7D8F800303B
:1059E000002BDCD01D2B01D0162BC5D1C8F80060D0
:1059F000BFE7AB8943F04003AB81BDE8F08100BF56
:105A000010B5044682B008B1836B53B1B1F90C00F4
:105A100008B902B010BD204602B0BDE81040FFF743
:105A20004BBF019100F008F80199EFE7014900F040
:105A30009FBB00BF157908002DE9F04F846B83B040
:105A40000746002C65D17D6833480423032107F500
:105A50003B72F863C7F8E412C7F8E822C7F8E042DF
:105A600005F15C00AB812C606C60AC606C66EC8115
:105A70002C616C61AC6121460822FCF771FDDFF8F6
:105A80009CB0BE68DFF898A0DFF89890DFF89880A7
:105A900001230922ED61C5F820B0C5F824A0C5F89E
:105AA0002890C5F82C802146F381B281346074605F
:105AB000B460746634617461B461082206F15C00FC
:105AC0000193FCF74DFDFD6812200222F661C6F835
:105AD00020B0C6F824A0C6F82890C6F82C8021462D
