S00F0000546573745F41412E7372656394
S214080000C02B072065190800611908006119080047
S214080010611908006119080061190800000000004D
S2140800200000000000000000000000006119080041
S214080030611908000000000061190800611908002D
S214080040611908006119080061190800611908009B
S214080050611908006119080061190800611908008B
S214080060611908006119080000000000D11708008F
S214080070E5170800F91708000D180800000000002A
S21408008000000000110D0800611908006119080039
S214080090611908006119080061190800611908004B
S2140800A061190800000000006119080061190800BD
S2140800B0611908006119080061190800611908002B
S2140800C0611908006119080061190800611908001B
S2140800D0611908006119080061190800611908000B
S2140800E061190800611908006119080061190800FB
S2140800F06119080010B5054C237833B9044B13B1C1
S2140801000448AFF300800123237010BDAC09072014
S21408011000000000C060080008B5064B1BB1064882
S2140801200649AFF300800648036813B1054B03B1D0
S214080130984708BD00000000C0600800B009072006
S214080140C06008000000000008B502200521044B26
S214080150984718B103480F21034B984708BD00BFBE
S214080160710D0800585F0800BD080800704700BFFA
S214080170704700BF2DE9F0410546B0F1004F32D177
S2140801805F4B186882689368013B9360002B1DDA02
S214080190826891689369994212DB13682D221A7057
S2140801A0574B18688268136819780A2902D00133F1
S2140801B013604FE00A21534B98474FF0004549E03B
S2140801C02D21504B98474FF0004543E083681B6845
S2140801D02D221A704A4B1B689B681A6801321A60EF
S2140801E04FF0004536E0002834DA454B1868826838
S2140801F09368013B9360002B19DA826891689369CB
S214080200994210DB13682D221A703D4B18688268D5
S214080210136819780A2902D00133136011E00A21FD
S214080220384B98470DE02D21364B984709E08368F0
S2140802301B682D221A70324B1B689B681A6801329D
S2140802401A606D4206E004EB84035B009C4206DA03
S2140802501C4600E00124B5FBF4F3092BF3D8284E1E
S214080260294FDFF8A080306882689368013B936066
S214080270002B29DA826891689369994217DB11681E
S214080280B5FBF4F3A7FB0302D20802EB8202A3EB4A
S214080290420330330B7030688268136819780A296D
S2140802A002D00133136021E00A21C0471EE0B5FBE7
S2140802B0F4F3A7FB03E1C90801EB8101A3EB4101B5
S2140802C03031C9B2C04711E083681968B5FBF4F34A
S2140802D0A7FB0302D20802EB8202A3EB42033033E9
S2140802E00B7033689B681A6801321A60074B83FBE9
S2140802F00423E417C4EBA304002CB4DCBDE8F081A7
S21408030070050720293F0800CDCCCCCC676666660A
S2140803102DE9F84306460C465E4B186882689368D3
S214080320013B9360002B19DA8268916893699942B9
S21408033010DB136830221A70564B186882681368E8
S21408034019780A2902D00133136011E00A21524BAA
S21408035098470DE03021504B984709E083681B68A2
S21408036030221A704B4B1B689B681A6801321A6059
S214080370484B186882689368013B9360002B1BDA29
S214080380826891689369994210DB136878221A701C
S214080390404B18688268136819780A2902D0013316
S2140803A0136006E00A213C4B984702E078213A4B56
S2140803B0984764B9BDE8F88383681B6878221A7082
S2140803C0344B1B689B681A6801321A60F1E7314D96
S2140803D0DFF8C4904FF00A08013CE4B2A30026FAFE
S2140803E003F303F00F03092B28D8286881688A6866
S2140803F0013A8A60002A17DA826891689769B942D2
S2140804000EDB126830331370286882681368197810
S2140804100A2902D00133136038E04146C84735E060
S21408042003F13001C84731E0826812683033137030
S2140804302B689B681A6801321A6027E0286881686A
S2140804408A68013A8A60002A17DA8268916897698A
S214080450B9420EDB1268373313702868826813684F
S21408046019780A2902D0013313600FE04146C847BD
S2140804700CE003F13701C84708E082681268373392
S21408048013702B689B681A6801321A60002CA3D177
S214080490BDE8F88370050720293F0800F8B500284E
S2140804A000F00A810378002B00F00681441C834D77
S2140804B0834E844FA3F12002D2B25E2A2AD8286837
S2140804C082689368013B9360002B18DA826891680B
S2140804D0936999420FDB136814F8012C1A70286880
S2140804E08268136819780A2902D001331360DEE09F
S2140804F00A21B847DBE014F8011CB847D7E0836840
S2140805001B6814F8012C1A702B689B681A6801324D
S2140805101A60CCE00D2B4ED1286882689368013BA0
S2140805209360002B16DA82689168936999420EDB0D
S21408053013685C221A7028688268136819780A2972
S21408054002D0013313600EE00A21B8470BE05C21A5
S214080550B84708E083681B685C221A702B689B689B
S2140805601A6801321A60286882689368013B9360AB
S214080570002B16DA82689168936999420EDB136835
S21408058072221A7028688268136819780A2902D0B5
S214080590013313608BE00A21B84788E07221B84718
S2140805A085E083681B6872221A702B689B681A6835
S2140805B001321A607BE00A2B4ED12868826893685D
S2140805C0013B9360002B16DA82689168936999421A
S2140805D00EDB13685C221A7028688268136819781C
S2140805E00A2902D0013313600EE00A21B8470BE04F
S2140805F05C21B84708E083681B685C221A702B6881
S2140806009B681A6801321A60286882689368013BFA
S2140806109360002B16DA82689168936999420EDB1C
S21408062013686E221A7028688268136819780A296F
S21408063002D0013313603AE00A21B84737E06E214A
S214080640B84734E083681B686E221A702B689B686C
S2140806501A6801321A602AE0286882689368013BA3
S2140806609360002B16DA82689168936999420EDBCC
S21408067013685C221A7028688268136819780A2931
S21408068002D0013313600EE00A21B8470BE05C2164
S214080690B84708E083681B685C221A702B689B685A
S2140806A01A6801321A6014F8010C0221B04714F8CF
S2140806B0013B002B7FF4FEAEF8BD00BF7005072097
S2140806C011030800293F080038B50D46464B9847E1
S2140806D0464B18688468A268013AA260002A19DAAC
S2140806E08268936891698B4210DB13683A221A7005
S2140806F03E4B18688268136819780A2902D00133B5
S214080700136011E00A213A4B98470DE03A21384B1E
S214080710984709E083681B683A221A70334B1B68AF
S2140807209B681A6801321A602846324B98472F4B46
S214080730186882689368013B9360002B19DA826810
S21408074091689369994210DB13683A221A70274B0E
S21408075018688268136819780A2902D0013313606A
S21408076011E00A21224B98470DE03A21204B984782
S21408077009E083681B683A221A701C4B1B689B6842
S2140807801A6801321A601C4B5868174B9847174B63
S214080790186882689368013B9360002B19DA8268B0
S2140807A091689369994210DB13683A221A700F4BC6
S2140807B018688268136819780A2902D0013313600A
S2140807C038BD0A210A4B984738BD3A21084B984746
S2140807D038BD83681B683A221A70044B1B689B68EE
S2140807E01A6801321A6038BD9D0408007005072093
S2140807F0293F080075010800340B072008B5024891
S214080800024B984708BD00BF745F08009D040800A7
S21408081008B5244BDB6923B1224B5A6901325A6169
S2140808200FE0204B9B6943B91E4B186899681E4B0E
S21408083098471E481E4B984703E01A4B1A69013220
S2140808401A61184B00229A61DA611A4B1868826896
S2140808509368013B9360002B19DA82689168936964
S214080860994210DB13680A221A70124B18688268BD
S214080870136819780A2902D00133136008BD0A21C3
S2140808800D4B984708BD0A210B4B984708BD83684F
S2140808901B680A221A70074B1B689B681A68013285
S2140808A01A6008BD340B0720C90608007C5F0800DC
S2140808B09D04080070050720293F080010B5044667
S2140808C03A4B9B69002B6FD1384BDB69002B6BD1F9
S2140808D0364B1868364B9847364B9847002C5DD0F1
S2140808E0354B186882689368013B9360002B19DAC9
S2140808F0826891689369994210DB13683A221A70E5
S2140809002D4B18688268136819780A2902D00133B3
S214080910136011E00A21294B98470DE03A21274B2E
S214080920984709E083681B683A221A70224B1B68AE
S2140809309B681A6801321A602378202B2BD01E4B2E
S214080940186882689368013B9360002B19DA8268FE
S21408095091689369994210DB136820221A70164B27
S21408096018688268136819780A2902D00133136058
S21408097011E00A21114B98470DE020210F4B9847AC
S21408098009E083681B6820221A700B4B1B689B685B
S2140809901A6801321A602046094B98470348012115
S2140809A081612030074B984710BD00BF340B0720E5
S2140809B0C9060800FD07080070050720293F08003B
S2140809C09D040800D130080000B583B001900E4899
S2140809D041608260C3680133C36020300B4B984780
S2140809E018B90B4B9847019B98470A48074B9847F6
S2140809F020B9054BDB690BB9074B9847074B984757
S214080A0003B05DF804FB00BF340B0720C5300800B0
S214080A106D010800540B0720710108001108080032
S214080A20054B186000225A609A60DA601A615A61AB
S214080A309A61DA61704700BF340B07202DE9F04F42
S214080A4083B005469046002A47D04E1C254F264CB4
S214080A50DFF8A8A0DFF894B006F1FF390023019369
S214080A60224B9D4206D158464946214B98470028B6
S214080A70F9D119E01F4B9D4209D19946484601A96C
S214080A80A0470028FAD1019B06F8013C17E01A4B4C
S214080A909D4209D19946484601A9A0470028FAD19F
S214080AA0019B06F8013C14E0554508D1504601A9BB
S214080AB0A0470028FAD1019B06F8013C09E0BD4290
S214080AC007D1384601A9A0470028FAD1019B06F8A5
S214080AD0013C0136B8F10108BED1002003B0BDE8DC
S214080AE0F08F00BF00400A40F90C080000080E40CE
S214080AF0E10B08000080094000C0094000000A40D9
S214080B002DE9F0410C46904660B9002A0EDD8F1894
S214080B10094E0A4D306821462B6898470134BC4276
S214080B20F8D106E04FF0FF30BDE8F0810020BDE8C0
S214080B30F0814046BDE8F081B80B0720B00B0720CF
S214080B402DE9F0410E461546013802280FD892B115
S214080B500024DFF83C800D4FD8F80000315D3B6874
S214080B60984700280ADB0134A542F5D10AE04FF081
S214080B70FF30BDE8F0810020BDE8F0814FF0FF307F
S214080B80BDE8F0812046BDE8F08100BFB40B072021
S214080B90B80B072010B489014318022444504FF0BC
S214080BA0FF319962196A5A605DF8044B704700BFB6
S214080BB0C0F8C410704700BF89010523435070472A
S214080BC0890102234350704700EB8111086970477A
S214080BD0436913F0020F1ABFC16100200120704755
S214080BE0436913F0010F1DBF83690B7000200120B5
S214080BF0704700BF10B40B0193420DD91AE0416844
S214080C0041F40021416042EA03430362002020E0E9
S214080C1001201EE001201CE0D20002EB5302B2FBCA
S214080C20F3F3DA0803F00703541E4FF6FE718C42FE
S214080C30E9D9EDE7C900D30003EB5103B3FBF1F3A1
S214080C40DA0803F00703541E4FF6FE718C42D6D915
S214080C50E0E75DF8044B7047084BC0F8E430002323
S214080C6043604362836288230360242303604FF44F
S214080C70807303604FF400230360704700415355A8
S214080C8070B505460C4616460F4B984700210F4B85
S214080C9019609CB12846216832460D4B9847034692
S214080CA070B9A16862680A4321690A43E06802438A
S214080CB006490A6069680A436A6002E0012300E0A0
S214080CC00123184670BD00BF590C0800C809072044
S214080CD0F50B080040230360704700BF102303602D
S214080CE0704700BF436913F0020F1DBFC1F3080128
S214080CF0C161002001207047436913F0010F05D039
S214080D008369C3F308030B6000207047012070470F
S214080D1000B583B011480DF107010122104B984722
S214080D2072B6BFF35F8F00220E4B1A700E4B1B78FD
S214080D309DF807100D4AD1549B2B03D100220A4B6D
S214080D401A7002E00133084A13700122054B1A7024
S214080D50BFF35F8F62B603B05DF804FB00800940FE
S214080D603D0A080034010720680A0720CC09072036
S214080D70401A7047401A70472DE9F04107460E465C
S214080D8001FB01F400FB0044DFF870802046C047F2
S214080D90154B984704460D463046C04722462B4614
S214080DA0124CA047124B98470DA3D3E90023114CC9
S214080DB0A047114B9847002E09DA002F02DD5A305B
S214080DC0BDE8F081002F08DAB430BDE8F081002EC7
S214080DD003DD002FB8BF00F58770BDE8F08100BFBF
S214080DE0F8C1631ADCA54C405D1F08006D2C08008E
S214080DF0B51E0800192A08004D2F08004D290800BE
S214080E0038B501FB01F100FB0015044C2846A04745
S214080E10034B9847034B984738BD00BF4D29080039
S214080E205D1F08004D2F080070B4204B4FF08062FD
S214080E301A61C3F8A0201E494FF480430B61C1F81D
S214080E40A0304FF400434B61C1F8A030194B022480
S214080E505C61C3F8A04008205861C3F8A0004FF4AE
S214080E6000725A61C3F8A0204FF480625A61C3F832
S214080E70A020114A04255561C2F8A05001265E61DB
S214080E80C3F8A0605D61C3F8A05040255D61C3F853
S214080E90A05080234B61C1F8A0305461C2F8A0402E
S214080EA05061C2F8A00070BC704700BF00100E402A
S214080EB0000E0E4000140E4000120E402DE9F04FB2
S214080EC083B04FF08062354B5A634FF48042A3F5E7
S214080ED000735A63B0F1000B58DD0027DFF8BCA09A
S214080EE01D4601922E4C2F4E4FF08068CAF834806B
S214080EF0019B6B632C482D4B9847D5F83CC0D4F81B
S214080F003CE0E06BE16BE36BF26BCCF3C03CCEF3FA
S214080F10400E0CEB4E0EC0F3C0000EEB8000C1F383
S214080F20402100EBC101C3F3802301EB0313C2F396
S214080F30800903EB4919D4F83CC0D4F83CE0E06BD0
S214080F40EA6BF36BF16B0CF0010CCEF3800E0CEB36
S214080F504E0EC0F380100EEB8000C2F3C01200EBFA
S214080F60C202C3F3400302EB0313C1F3C00103EB51
S214080F7041110020C1EB09010D4B98474F44CAF8B0
S214080F8030804FF480432B63BB45ADDC40F2DC5029
S214080F900146084B984703B0BDE8F08F00100E4096
S214080FA000140E4000120E4020A107007110080021
S214080FB0BD0F0800F5100800704700BF08B5164BAF
S214080FC01B68164A1360164A1360411A00290CDD7E
S214080FD0144A106800FB01F0191A104A11601844E8
S214080FE00F4B1860104B984712E000290CDA0D4A90
S214080FF0106800FB01F01918084A1160181A084B07
S2140810001860094B984703E018461946064B984758
S2140810100648074B984708BD300107206C0A07208A
S214081020700A07202C010720F510080020A10700E9
S2140810307110080010B51B20084B9847084C20462E
S21408104000210A46074B984720460021064B98473A
S21408105020460021054B984710BD00BF0919080017
S21408106000000840950B0800B10B0800C10B0800EB
S214081070F8B5044609480021094B98472A2707FB74
S21408108004F7064E0025074C30462946A047B842C6
S214081090FAD302480021044B9847F8BD00000840E0
S2140810A0B90B0800C90B0800C10B0800044B102236
S2140810B01A61C3F8A02020221A61C3F8A02070473E
S2140810C000120E4038B5034C10252563024B98478E
S2140810D0656338BD00120E407110080038B5034C21
S2140810E020252563024B9847656338BD00120E40DD
S2140810F07110080010B50C46044B98472046044B60
S214081100984741F28240034B984710BDC510080027
S214081110DD1008007110080070B4204B4FF0806294
S2140811201A61C3F8A0201E494FF480430B61C1F82A
S214081130A0304FF400434B61C1F8A030194B02248D
S2140811405C61C3F8A04008205861C3F8A0004FF4BB
S21408115000725A61C3F8A0204FF480625A61C3F83F
S214081160A020114A04255561C2F8A05001265E61E8
S214081170C3F8A0605D61C3F8A05040255D61C3F860
S214081180A05080234B61C1F8A0305461C2F8A0403B
S2140811905061C2F8A00070BC704700BF00100E4037
S2140811A0000E0E4000140E4000120E40024B18802F
S2140811B0024B1980704700BF880A0720740A072068
S2140811C038B50A4B18800A4C21800A4B19880A4BF6
S2140811D0984705462088094B1988094B9847294699
S2140811E0084B9847084B186038BD00BF800A072090
S2140811F0820A0720880A0720710D0800740A07204B
S214081200750D0800790D08007C0A0720084900F5C6
S214081210B4700B68C01A074A80FB0223C218C317AB
S214081220C3EB22234FF4B47202FB13000860704726
S2140812307C0A0720B7600BB62DE9F04F83B0019003
S2140812407F4B1968B4317F4A81FB0223CA18CB1733
S214081250C3EB22234FF4B47A0AFB13114FF48042EF
S214081260794B5A634FF0806203F500735A63019B0B
S214081270591A65D581EAE17AAAEBE17A734E744B7E
S2140812801868B04704460D466D4B18685044B0477A
S2140812900022704B704EB04702460B462046294641
S2140812A06E4CA047002842D0DFF89CB16C4EDFF8A1
S2140812B0C091DFF89C81DBF83C50F46BF06BF16B67
S2140812C0F26BD9F83C30C5F3C035C4F3400405EBDF
S2140812D04404C0F3C00004EB8000C1F3402100EBD7
S2140812E0C101C2F3802201EB0212C3F3800302EBB2
S2140812F04313C8F800304FF4AF604FF4C861594B39
S2140813009847524FD8F80000B84704460D464C4B4D
S21408131018685044B84700224E4B4F4FB84702460D
S2140813200B46204629464D4CA0470028C3D10198B5
S2140813304D4B984740F2DC5001464A4B98476DE0C3
S214081340002966DD81EAE17AAAEBE17A3F4E474B4F
S2140813501868B04704460D46394B18685044B047DD
S21408136000223C4B3C4EB04702460B4620462946D8
S2140813703A4CA047002843D0394EDFF8CCB0DFF807
S214081380F090DFF8E880F56BF46BF06BDBF83C1058
S214081390D9F83C20D9F83C3005F00105C4F38004A0
S2140813A005EB4404C0F3801004EB8000C1F3C011C1
S2140813B000EBC101C2F3400201EB0212C3F3C00303
S2140813C002EB4313C8F800304FF4C8604FF4AF611F
S2140813D0244B98471D4FD8F80000B84704460D46DA
S2140813E0174B18685044B84700221A4B1A4FB8478C
S2140813F002460B4620462946184CA0470028C2D16C
S2140814000198194B984740F2DC500146154B98470F
S21408141004E040F2DC500146124B98470023134A7A
S21408142013600B4A13604FF48042074B1A634FF061
S214081430806203F500731A6303B0BDE8F08F00BF3F
S2140814407C0A0720B7600BB6000E0E404D29080030
S214081450840A07200000D03F192A0800FD2E08003D
S21408146000140E40F51008000D120800780A072030
S21408147000120E4010B50E480E4B984700203E212D
S2140814800D4B98470D4CA0470028FCD00C4B9847AE
S2140814900C4A0D4B9A620D4CA0470028FCD0102031
S2140814A00B4B98470B4B98470148024B984710BD83
S2140814B000BD0105A500072085180800D9180800F2
S2140814C0E9180800013F0D2000060E40F91808002C
S2140814D021180800151A080010B54FF40042184BDA
S2140814E05A600B20174CA0470C20A0470D20A04799
S2140814F00E20A0473B204FF06051134CA0475520C4
S2140815004FF06051A04756204FF06051A047682022
S2140815100E49A0475C200E49A0470E484FF440539A
S214081520036643654362C0F88030026F22F4405277
S214081530026743604FF44071074A084B984710BD4E
S214081540501A0E40091908000516080079000028E8
S21408155001000028000E0E4001000008D9160800F9
S2140815604264B1F1805F16D004D8C1B1B1F1006F02
S2140815700AD013E0B1F1405F11D0B1F1605F0ED030
S214081580B1F1205F0AD17047036F016F0B4023EA61
S2140815900203036702E0036F134303674260704762
S2140815A0416412F0010F14BF4166016612F00A0F7B
S2140815B014BF0162416212F0020F02D0C0F8801018
S2140815C004E012F0080F18BFC0F8841041610160EB
S2140815D0704700BF10B44164019C0CB1416600E03E
S2140815E001660BB1016500E041650AB1016300E0E0
S2140815F04163016101605DF8044B7047C06C704739
S214081600806C704770B582B00D46440904F5001426
S21408161004F20774660201F0F044B4F1205F30D09B
S21408162006D8B4F1006F0AD0B4F1805F18D049E04C
S214081630B4F1405F30D0B4F1605F2DD042E000F0E6
S2140816401F000124844030464FF0006122461F4B9D
S214081650984715F0010F14BF74663466012032E00F
S21408166000F01F000124844030464FF08051224687
S214081670164B984715F0010F14BF746634660120A0
S21408168021E000F01F010124304604FA01F12A4641
S2140816900F4B9847204616E000F01F01012405F07E
S2140816A0605205EA04030093304604FA01F1B2F1E9
S2140816B0605F14BF00220122C5F38003054DA847CA
S2140816C0204600E0002002B070BD00BF611508008B
S2140816D0A1150800D5150800F0B583B007460E46D4
S2140816E0154602F0F044B4F1205F26D006D8B4F1CF
S2140816F0006F0AD0B4F1805F13D034E0B4F1405FD5
S2140817001FD0B4F1605F1CD02DE04FF00061324668
S214081710164B984715F0010F14BF7E663E660120EB
S21408172022E04FF080513246104B984715F0010FD3
S21408173014BF7E663E66012016E00D4B98470120D2
S21408174012E005F0605205F0010300933846314672
S214081750B2F1605F14BF00220122C5F38003054C76
S214081760A047012000E0002003B0F0BD6115080086
S214081770A1150800D51508002DE9F04104460E46C7
S214081780104B9847054620460F4B9847054017D0FC
S2140817900E4F07F10C046C3754F80C3CB3420AD1D0
S2140817A054F8081C294206D023683046984754F84F
S2140817B0083C25EA0305BC4202D01034002DEBD1C4
S2140817C0BDE8F081FD150800011608008C0A072000
S2140817D008B502480B21024B984708BD000E0E407C
S2140817E07917080008B502480C21024B984708BD2F
S2140817F000100E407917080008B502480D21024B64
S214081800984708BD00120E407917080008B5024828
S2140818100E21024B984708BD00140E4079170800A1
S214081820174B1A6B22F07002104318639B6E13F066
S214081830080F09D14FF40063114901E0013B19D0A4
S2140818408A6E12F0080FF9D00D4B1A6B22F00302BD
S21408185042F002021A63986E10F008000CD14FF49A
S2140818600063074901E0013B08D08A6E12F0080FB2
S214081870F9D0704701207047002070470120704754
S21408188000060E4038B111490B6A114A1A40114B2E
S21408189013430B6270470D4A136A23F45C1323F054
S2140818A0030343F45C1343F00103090289B20B43B4
S2140818B01362936E13F0010FFBD0044A136A43F0C9
S2140818C09B7343F480331362704700BF00060E40D4
S2140818D0FCFFC8FE02003701024B986E00F4803009
S2140818E0704700BF00060E404FF00052014B9A6248
S2140818F0704700BF00060E40024B986E00F00200CC
S214081900704700BF00060E402C2820D81F280DD888
S214081910124B9A69012383401A40934219D0012337
S21408192003FA00F00D4B1861002070470B4BD3F8F4
S21408193008212038012383401A4093420BD0012304
S21408194003FA00F0054BC3F8000100207047012099
S2140819507047002070470020704700BF00060E4002
S214081960FEE700BF10B51E4B1E4A9A4203D01E4B18
S2140819701B4A9A4204D31D4B1D4A9A420FD31AE0BB
S2140819801C4B1D4CE41A24F00304043400231448AA
S21408199014495A581A500433A342FAD1EBE7174BA6
S2140819A01749C91A21F003011A1D1144002243F8E9
S2140819B0042F8B42FBD1134A22F0604323F07F03A7
S2140819C011498B6002F16042B2F5801F03D28A6823
S2140819D042F000528A600D4B98470D4B9847FEE739
S2140819E000000720C0600800AC090720C00B0720CD
S2140819F0AC09072004000720AF090720A80907201C
S214081A00BB0B07200000080000ED00E0A92F080027
S214081A10D11C08003E4B1B6B03F00303032B5FD857
S214081A20DFE803F0020E2B2B3A4B5B6913F0800FAE
S214081A3014BF4FF400424FF4FA42374B1A604FE097
S214081A40334B1B6A13F0807F03D0344A324B1A603C
S214081A5046E0334A304B1A602D4B1B6A03F070037E
S214081A60102B02D0202B04D03AE02E4A2A4B1A60BC
S214081A7036E02A4A284B1A6032E0254B1B6A13F0D8
S214081A80807F03D0254A244B1A6012E0244A224B52
S214081A901A601F4B1B6A03F07003102B02D0202B12
S214081AA004D006E01F4A1C4B1A6002E01B4A1A4B79
S214081AB01A60174B1B6B03F00303022B0DD1144B54
S214081AC0986A996A144BC0F30A401A6800FB022207
S214081AD0C9B2B2FBF1F21A6002E0134A0E4B1A6062
S214081AE00B4B1B6B03F07003702B07D10A4B1A685D
S214081AF00E49A1FB020252081A607047044B196B84
S214081B00054BC1F302111A68CA401A60704700BF35
S214081B1000060E40101A0E4038010720001BB700BA
S214081B2000093D0000127A00001C4E0EABAAAAAAB5
S214081B30094B1B6813B9094A074B1A60064B1B6802
S214081B401A180749914204DB1046034A10601846E3
S214081B5070474FF0FF307047FC0A0720C02B07205D
S214081B60FC7F08204FF0FF30704700BF4FF400534B
S214081B704B600020704700BF012070470020704768
S214081B80F0B583B004460D46002301931F4B9842D8
S214081B9007D11F461E4E38462946B0470028FAD1B8
S214081BA019E01C4B984209D11F461B4E384601A91E
S214081BB0B0470028FAD1019B2B7019E0174B9842C2
S214081BC009D11E46144C304601A9A0470028FAD170
S214081BD0019B2B7018E0124B9C4209D11E460E4CF6
S214081BE0304601A9A0470028FAD1019B2B700BE0CC
S214081BF00C4B9C4208D11E46074C304601A9A0470C
S214081C000028FAD1019B2B7003B0F0BD00080E40E7
S214081C10E10B080000800940F90C080000C00940E4
S214081C2000000A4000400A4070B50C46214B984216
S214081C3007D11E46204D30462146A8470028FAD12F
S214081C402BE01E4B984207D11E461D4D30462146B6
S214081C50A8470028FAD122E01A4B984207D11E4618
S214081C60174D30462146A8470028FAD119E0164BEA
S214081C70984207D11E46124D30462146A8470028EE
S214081C80FAD110E0114B98420FD11E460C4D304643
S214081C902146A8470028FAD109E0012070BD012096
S214081CA070BD012070BD012070BD002070BD0120F0
S214081CB070BD00BF00080E40D10B08000080094028
S214081CC0E50C080000C0094000000A4000400A4031
S214081CD02DE9F04F87B0484B9847484B98470B205C
S214081CE0474CA0470C20A0470D20A0470E20A04731
S214081CF0444B9847444B9847444B9847444B98471F
S214081D000820A047434E444B1E60444A444B1A6082
S214081D10444A454B1A604FF4165300930025019524
S214081D204FF400630293039504951220A0473046AB
S214081D3069463E4A3E4B984730463E4B98473046A3
S214081D403D4B98473D4E3368986829463C4CA0471B
S214081D50336858682946A0473A483B4CA0473B4852
S214081D60A0473B483B49A0473B483C493C4AA0471C
S214081D703C48A0473C4B98473C483D4B98473D4815
S214081D803D490A223D4B9847DFF81CA1DFF81C8125
S214081D90DFF81C9100200146D04740F272600146E9
S214081DA0C0474846364B984740F2DC500146C04785
S214081DB014200146334B9847334F38680021334E7A
S214081DC0B0478346324D28680021324CA04701466A
S214081DD05846314B9847314B984738680021B047EA
S214081DE0064628680021A047014630462C4B9847EF
S214081DF02C4B9847CEE700BF75140800D914080086
S214081E000919080035100800B90F0800AD100800B9
S214081E101911080000C00940B80B0720291C080043
S214081E20B40B0720811B0800B00B072000BD010576
S214081E30810C0800D50C0800DD0C0800700507208A
S214081E40B5300800845F0800F92F0800945F080082
S214081E50A85F0800B05F0800C05F0800D85F0800E9
S214081E60E45F0800F05F0800290E0800FC5F080021
S214081E70210A0800490108001C600800C909080072
S214081E8071100800C11108003C010720750D0800F4
S214081E9040010720710D0800790D08003912080066
S214081EA0010E0800BD0E0800AD110800F510080068
S214081EB040420F002DE9F0418AB004460D4600F076
S214081EC0A3F8DFF89480064698F900300F460133E9
S214081ED004D02046294600F0B7FB20B930463946DC
S214081EE00AB0BDE8F0812046294600F0A9FB00228A
S214081EF0164B01F021F80028F0D0154900230122DE
S214081F0014480893CDE90445CDE9024501910092AD
S214081F1000F0C4FB98F90030CDE90601022B0AD080
S214081F20684600F0B9FB30B1089B4BB9DDE90601FD
S214081F300AB0BDE8F08101F031F821230360F3E729
S214081F4001F02CF8089B0360F0E700BF0000F03FA4
S214081F502C600800A45F0800440107202DE9F0471C
S214081F608AB004460D4600F0ABFADFF898A006469D
S214081F709AF900300F4601330FD02046294600F064
S214081F8063FB50B14FF000084FF0000942464B463D
S214081F902046294600F0B2FF20B9304639460AB036
S214081FA0BDE8F08716499AF8006001220023CDE9BB
S214081FB00445CDE9024501910092089366B9CDE93A
S214081FC00689684600F068FB80B1089B9BB9DDE986
S214081FD006010AB0BDE8F0874046494642464B46E9
S214081FE000F044FE022ECDE90601EAD100F0D6FF45
S214081FF021230360E9E700F0D1FF089B0360E6E7CA
S21408200034600800440107202DE9F84F804F21F07E
S2140820100046BE4204460D460EDD06F1404C0CF561
S214082020801C5CEA000C40F0BB80002940F37C81F1
S21408203000200021BDE8F88F764FBE4240F3A88006
S2140820400029C0F2768102460B460020724900F04D
S2140820502FFB0022714B00F0DFFC04460D4600F013
S2140820602FFA55A3D3E900238946804629462046F9
S21408207000F0D2FC52A3D3E9002300F01BFB224653
S2140820802B4600F0C9FC50A3D3E9002300F010FB50
S21408209022462B4600F0C0FC4DA3D3E9002300F0EF
S2140820A009FB22462B4600F0B7FC4BA3D3E90023D6
S2140820B000F0FEFA22462B4600F0AEFC48A3D3E911
S2140820C0002300F0F7FA22462B4600F0A5FC46A3AC
S2140820D0D3E9002382468B462046294600F09CFC1E
S2140820E043A3D3E9002300F0E3FA22462B4600F088
S2140820F093FC41A3D3E9002300F0DCFA22462B46E2
S21408210000F08AFC3EA3D3E9002300F0D1FA224669
S2140821102B4600F081FC00223F4B00F0CBFA02462B
S2140821200B465046594600F0A1FD42464B4600F085
S21408213073FC002682468B4632464B463046494656
S21408214000F06AFC02460B462046294600F0B0FA24
S214082150324604460D464B464046494600F0AAFA23
S21408216002460B462046294600F080FD02460B46EE
S2140821705046594600F09EFA02460B4630464946F7
S21408218000F098FA02460B4600F094FABDE8F88F7D
S214082190234B9E4246DC1CA1D1E90001BDE8F88F1E
S2140821A002460B4600F084FA02460B4600F05EFD37
S2140821B0BDE8F88FAFF3008009F7FD0DE13D023F5B
S2140821C088B20175E0EF493F3B8F68B52882A43F87
S2140821D05544880E55C1C93F7D6FEB0312D6D43FD0
S2140821E0555555555555C53F82922EB1C5B8B33F7E
S2140821F059018D1B6C06E63FC88A599CE52A0040A3
S2140822004B2D8A1C273A0340182D4454FB21F93FCE
S214082210FFFFEF3FFFFFDF3F0000F03F0000E03F1B
S2140822200000603C02460B4600F0F6FB88A3D3E9A4
S214082230002306460F4600F0EFFB87A3D3E90023EA
S21408224000F038FA32463B4600F0E6FB84A3D3E9B2
S214082250002300F02DFA32463B4600F0DDFB82A351
S214082260D3E9002300F026FA32463B4600F0D4FBBA
S2140822707FA3D3E9002300F01BFA32463B4600F062
S214082280CBFB7DA3D3E9002300F014FA32463B4685
S21408229000F0C2FB7AA3D3E900238046894630467D
S2140822A0394600F0B9FB78A3D3E9002300F000FA1A
S2140822B032463B4600F0B0FB75A3D3E9002300F096
S2140822C0F9F932463B4600F0A7FB73A3D3E900238F
S2140822D000F0EEF932463B4600F09EFB0022764BB5
S2140822E000F0E8F902460B464046494600F0BEFCB8
S2140822F002460B462046294600F08EFB02460B4651
S21408230067A1D1E9000100F0D3F902460B46204642
S214082310294600F0CDF902460B4663A1D1E9000133
S21408232000F0C6F9BDE8F88F61A1D1E90001BDE863
S214082330F88F0022604B00F0BDF900225F4B00F0DA
S2140823406BFB43A3D3E9002304460D4600F064FB69
S21408235041A3D3E9002300F0ADF922462B4600F04E
S2140823605BFB3FA3D3E9002300F0A2F922462B46E5
S21408237000F052FB3CA3D3E9002300F09BF9224669
S2140823802B4600F049FB3AA3D3E9002300F090F966
S21408239022462B4600F040FB37A3D3E9002300F083
S2140823A089F922462B4600F037FB804689462046A8
S2140823B0294600F085F832A3D3E9002306460F46DF
S2140823C02046294600F028FB2FA3D3E9002300F077
S2140823D06FF922462B4600F01FFB2DA3D3E90023F6
S2140823E000F068F922462B4600F016FB2AA3D3E92C
S2140823F0002300F05DF922462B4600F00DFB002274
S2140824002D4B00F057F902460B464046494600F069
S2140824102DFC32463B4600F0FFFA21A3D3E9002301
S21408242000F046F902460B463046394600F042F9B7
S21408243002460B4600F03EF902460B461CA1D1E9BF
S214082440000100F035F9BDE8F88F00BFAFF3008053
S21408245009F7FD0DE13D023F88B20175E0EF493FFF
S2140824603B8F68B52882A43F5544880E55C1C93F9E
S2140824707D6FEB0312D6D43F555555555555C53F78
S21408248082922EB1C5B8B33F59018D1B6C06E63F44
S214082490C88A599CE52A00404B2D8A1C273A0340D7
S2140824A0075C143326A6913C182D4454FB21F93FAB
S2140824B0182D4454FB2109400000F03F0000E03F7F
S2140824C021F0004C2DE9F8434FEA1C5CDFF86C81DC
S2140824D04FEA0C5CC44506460F460B46024600F01B
S2140824E08F8000296FDD0F1578D0A7F2FF37C3F36A
S2140824F01303F90743F4801360D4D10F4FF0000C90
S21408250001EB43037F105200654616204FF4001176
S2140825106C189C424FEAD2764FEA420202DC1B1B3A
S21408252065188C44013806EB43034FEA5101EFD196
S214082530804620264FF0004109E023D0D40F013E04
S2140825404FEA510104EB43034FEA42021ED0AB4266
S21408255001EB0804F1DD04F00049B9F1004F04EB83
S214082560010809D0A9465B1B944288BF03F1FF33D4
S214082570121B08444D46E1E7B8F1000FF2DB05F1FF
S2140825800109F0E79442E6D91D46D7E71A4304D076
S214082590431C41D000F00103184446084FEA6C0378
S2140825A01CF0010F03F17F5303F5001318BF46F024
S2140825B0004603EB07513046BDE8F883D10F01EB20
S2140825C04303520099E721F00043034322D051BB4E
S2140825D00F46D30A153F5205002BFAD013F4801184
S2140825E01DD15B00D80201F10101FAD5C1F1010045
S2140825F0C1F1200422FA04F407448A40234374E70E
S21408260002460B4600F008FA32463B4600F052F8FF
S214082610BDE8F883BDE8F8830CF1010CBEE720247A
S21408262001200021E6E702460B4600F041F8024684
S2140826300B4600F01BFBBDE8F88300BF0000F07FE8
S21408264021F00041704700BF31F0004310B408D0B5
S2140826500F4AA3F5801494420AD804205DF8044B68
S214082660704700280CBF022003205DF8044B704713
S214082670B3F5801F01D20320F7E7064A934201D03C
S2140826800020F2E7D0F1010038BF0020EDE700BFD8
S214082690FFFFDF7F0000F07F002070470020014921
S2140826A0704700BF0000F87F81F0004102E000BFDD
S2140826B083F0004330B54FEA41044FEA430594EAF5
S2140826C0050F08BF90EA020F1FBF54EA000C55EA30
S2140826D0020C7FEA645C7FEA655C00F0E2804FEA01
S2140826E05454D4EB5555B8BF6D420CDD2C4480EAE3
S2140826F0020281EA030382EA000083EA010180EA13
S214082700020281EA0303362D88BF30BD11F0004F60
S2140827104FEA01314FF4801C4CEA113102D0404296
S21408272061EB410113F0004F4FEA03334CEA1333D1
S21408273002D0524263EB430394EA050F00F0A780E9
S214082740A4F10104D5F1200E0DDB02FA0EFC22FAE4
S21408275005F2801841F1000103FA0EF2801843FAD8
S21408276005F359410EE0A5F120050EF1200E012AC9
S21408277003FA0EFC28BF4CF0020C43FA05F3C01807
S21408278051EBE37101F0004507D54FF0000EDCF180
S214082790000C7EEB00006EEB0101B1F5801F1BD329
S2140827A0B1F5001F0CD349085FEA30004FEA3C0C2D
S2140827B004F101044FEA445212F5800F80F09A8023
S2140827C0BCF1004F08BF5FEA500C50F1000041EB27
S2140827D0045141EA050130BD5FEA4C0C404141EB2B
S2140827E0010111F4801FA4F10104E9D191F0000F52
S2140827F004BF01460020B1FA81F308BF2033A3F1D5
S2140828000B03B3F120020CDA0C3208DD02F1140CCB
S214082810C2F10C0201FA0CF021FA02F10CE002F106
S2140828201402D8BFC2F1200C01FA02F120FA0CFCFF
S214082830DCBF41EA0C019040E41AA2BF01EB045148
S214082840294330BD6FEA04041F3C1CDA0C340EDC46
S21408285004F11404C4F1200220FA04F001FA02F389
S21408286040EA030021FA04F345EA030130BDC4F147
S2140828700C04C4F1200220FA02F001FA04F340EA3C
S2140828800300294630BD21FA04F0294630BD94F0ED
S214082890000F83F4801306BF81F480110134013DD4
S2140828A04EE77FEA645C18BF7FEA655C29D094EA45
S2140828B0050F08BF90EA020F05D054EA000C04BFC3
S2140828C01946104630BD91EA030F1EBF00210020AE
S2140828D030BD5FEA545C05D14000494128BF41F04D
S2140828E0004130BD14F580043CBF01F5801130BDB1
S2140828F001F0004545F0FE4141F470014FF000003C
S21408290030BD7FEA645C1ABF194610467FEA655CEC
S2140829101CBF0B46024650EA013406BF52EA03358E
S21408292091EA030F41F4002130BD00BF90F0000F7C
S21408293004BF0021704730B54FF4806404F13204B8
S2140829404FF000054FF0000150E700BF90F0000F71
S21408295004BF0021704730B54FF4806404F1320498
S21408296010F0004548BF40424FF000013EE700BF68
S21408297042004FEAE2014FEA31014FEA02701FBFF8
S21408298012F07F4393F07F4F81F06051704792F0CA
S214082990000F14BF93F07F4F704730B54FF4607444
S2140829A001F0004521F0004120E700BF50EA01028F
S2140829B008BF704730B54FF000050AE050EA01023C
S2140829C008BF704730B511F0004502D5404261EBAC
S2140829D041014FF4806404F132045FEA915C3FF4ED
S2140829E0DCAE4FF003025FEADC0C18BF03325FEA86
S2140829F0DC0C18BF033202EBDC02C2F1200300FA3B
S214082A0003FC20FA02F001FA03FE40EA0E0021FA5F
S214082A1002F11444C1E600BF70B54FF0FF0C4CF449
S214082A20E06C1CEA11541DBF1CEA135594EA0C0FFF
S214082A3095EA0C0F00F0DEF82C4481EA030621EA3A
S214082A404C5123EA4C5350EA013518BF52EA033575
S214082A5041F4801143F4801338D0A0FB02CE4FF027
S214082A600005E1FB02E506F00042E0FB03E54FF057
S214082A700006E1FB03569CF0000F18BF4EF0010E4F
S214082A80A4F1FF04B6F5007F64F5407404D25FEA4B
S214082A904E0E6D4146EB060642EAC62141EA5551FE
S214082AA04FEAC52040EA5E504FEACE2EB4F1FD0C40
S214082AB088BFBCF5E06F1ED8BEF1004F08BF5FEABE
S214082AC0500E50F1000041EB045170BD06F0004670
S214082AD046EA010140EA020081EA0301B4EB5C041D
S214082AE0C2BFD4EB0C0541EA045170BD41F4801115
S214082AF04FF0000E013C00F3AB8014F1360FDEBF3A
S214082B00002001F0004170BDC4F10004203C35DA15
S214082B100C341BDC04F11404C4F1200500FA05F398
S214082B2020FA04F001FA05F240EA020001F0004239
S214082B3021F0004110EBD37021FA04F642EB0601AF
S214082B405EEA430E08BF20EAD37070BDC4F10C04D9
S214082B50C4F1200500FA04F320FA05F001FA04F29D
S214082B6040EA020001F0004110EBD37041F1000189
S214082B705EEA430E08BF20EAD37070BDC4F1200594
S214082B8000FA05F24EEA020E20FA04F301FA05F2FC
S214082B9043EA020321FA04F001F0004121FA04F2A4
S214082BA020EA020000EBD3705EEA430E08BF20EA74
S214082BB0D37070BD94F0000F0FD101F000464000AE
S214082BC041EB010111F4801F08BF013CF7D041EA30
S214082BD0060195F0000F18BF704703F00046520034
S214082BE043EB030313F4801F08BF013DF7D043EA05
S214082BF00603704794EA0C0F0CEA135518BF95EABB
S214082C000C0F0CD050EA410618BF52EA4306D1D141
S214082C1081EA030101F000414FF0000070BD50EA60
S214082C20410606BF1046194652EA430619D094EAEA
S214082C300C0F02D150EA013613D195EA0C0F05D1D4
S214082C4052EA03361CBF104619460AD181EA030128
S214082C5001F0004141F0FE4141F470014FF00000E0
S214082C6070BD41F0FE4141F4780170BD70B54FF07B
S214082C70FF0C4CF4E06C1CEA11541DBF1CEA1355FB
S214082C8094EA0C0F95EA0C0F00F0A7F8A4EB0504DD
S214082C9081EA030E52EA03354FEA013100F08880D4
S214082CA04FEA03334FF0805545EA131343EA12639D
S214082CB04FEA022245EA111545EA10654FEA002652
S214082CC00EF000419D4208BF964244F1FD0404F50B
S214082CD0407402D25B084FEA3202B61A65EB030567
S214082CE05B084FEA32024FF480104FF4002CB6EB24
S214082CF0020E75EB030E22BFB61A754640EA0C00A4
S214082D005B084FEA3202B6EB020E75EB030E22BFE3
S214082D10B61A754640EA5C005B084FEA3202B6EB24
S214082D20020E75EB030E22BFB61A754640EA9C00E3
S214082D305B084FEA3202B6EB020E75EB030E22BFB3
S214082D40B61A754640EADC0055EA060E18D04FEA71
S214082D50051545EA16754FEA06164FEAC30343EA11
S214082D6052734FEAC2025FEA1C1CC0D111F4801FDE
S214082D700BD141EA00014FF000004FF0004CB6E7D7
S214082D8011F4801F04BF01430020B4F1FD0C88BF76
S214082D90BCF5E06F3FF6AFAEB5EB030C04BFB6EB81
S214082DA0020C5FEA500C50F1000041EB045170BD74
S214082DB00EF0004E4EEA113114EB5C04C2BFD4EBA1
S214082DC00C0541EA045170BD41F480114FF0000E25
S214082DD0013C90E645EA060E8DE60CEA135594EAA1
S214082DE00C0F08BF95EA0C0F3FF43BAF94EA0C0FA4
S214082DF00AD150EA01347FF434AF95EA0C0F7FF419
S214082E0025AF104619462CE795EA0C0F06D152EA6C
S214082E1003353FF4FDAE1046194622E750EA410650
S214082E2018BF52EA43067FF4C5AE50EA41047FF461
S214082E300DAF52EA43057FF4EBAE12E74FF0FF3CC6
S214082E4006E000BF4FF0010C02E000BF4FF0010C97
S214082E504DF804CD4FEA410C7FEA6C5C4FEA430C10
S214082E6018BF7FEA6C5C1BD001B050EA410C0CBF5F
S214082E7052EA430C91EA030F02BF90EA020F0020C1
S214082E80704710F1000F91EA030F58BF994208BF28
S214082E9090422CBFD8176FEAE37040F001007047E5
S214082EA04FEA410C7FEA6C5C02D150EA013C07D13C
S214082EB04FEA430C7FEA6C5CD6D152EA033CD3D087
S214082EC05DF8040B704700BF8446104662468C4681
S214082ED01946634600E000BF01B5FFF7B7FF0028B4
S214082EE048BF10F1000F01BD4DF808EDFFF7F4FFDD
S214082EF00CBF012000205DF808FB00BF4DF808ED68
S214082F00FFF7EAFF34BF012000205DF808FB00BF8A
S214082F104DF808EDFFF7E0FF94BF012000205DF8AC
S214082F2008FB00BF4DF808EDFFF7CEFF94BF012061
S214082F3000205DF808FB00BF4DF808EDFFF7C4FF5A
S214082F4034BF012000205DF808FB00BF4FEA4102AD
S214082F5012F5001215D211D56FF47873B3EB6252DE
S214082F6012D94FEAC12343F0004343EA505311F005
S214082F70004F23FA02F018BF404270474FF0000097
S214082F80704750EA013005D111F0004008BF6FF0D5
S214082F90004070474FF00000704700BF014B1868AC
S214082FA0704700BF7005072070B50F4E0F4D761B93
S214082FB0B61007D0043D0024013455F8043F98475E
S214082FC0A642F9D10A4E0B4D03F064F8761BB610EC
S214082FD008D0043D0024013455F8043F9847A6421B
S214082FE0F9D170BD70BD00BFA0600800A0600800E1
S214082FF0A8600800A06008000FB410B5074B82B0A0
S21408300004AC54F8042B186823468168019400F031
S21408301023F902B0BDE8104004B0704770050720D9
S214083020F0B4840743D0541E002A3ED0CDB20346DF
S21408303003E0621E002C38D0144603F8015B9A079A
S214083040F7D1032C2AD9CDB245EA05250F2C45EA37
S214083050054515D9A4F110073F0903F1100606EB3C
S21408306007161A46156055609560D5601032B2424C
S214083070F8D104F00F040137032C03EB07130DD91E
S2140830801E462246043A032A46F8045BFAD8221F4C
S21408309022F003020432134404F003042CB1C9B22C
S2140830A01C4403F8011BA342FBD1F0BC704714462E
S2140830B00346C6E700290CBF022200224FF48063AD
S2140830C000F00EB8EC46A0E8F05F4FF0000070473E
S2140830D0B0E8F05FE546080008BF0120704700BF6B
S2140830E02DE9F0413C4D04462D68884616461F4695
S2140830F015B1AB6B002B4FD0022E30D8002F2EDB2D
S2140831002846214601F07AF8A38900226260A26167
S2140831101A0628D423F083039BB2022EA3812DD04F
S214083120B8F1000F3CD0012E13D09BB203F0080074
S2140831302A4A80B2EA63C4F80080C4F8108067613F
S21408314078B113F0030F18BF0027A7600020BDE86A
S214083150F08143F001037A42A381A261E5E74FF0CC
S214083160FF30BDE8F0812846216901F0A7F9A38958
S214083170022E23F083039BB2A381D1D1002004F151
S214083180430243F0020300250121A381A5602260C3
S21408319022616161BDE8F081284601F04BF8ABE793
S2140831A0002F08BF4FF48067384601F07DFC804644
S2140831B028B1A38943F080039BB2A381B3E74FF4F9
S2140831C0806001F071FC804618B9A3894FF0FF3083
S2140831D0D5E74FF48067ECE770050720294208001A
S2140831E04B6E2DE9F0479C040E46804691462AD53C
S2140831F09368126802F1080A1BB31AE9A000BF0810
S21408320017D0043D002401E0A74210D0404655F8E8
S214083210041F324601F0A4F8431C04F10104F3D15C
S2140832200023C9F80830C9F80430BDE8F087D9F893
S2140832300830A3EB8703C9F808300AF1080A002B00
S214083240DBD10020ECE701F005FA0023C9F80830C6
S214083250C9F80430BDE8F0872DE9F04FB1B01C4638
S214083260029190460893069018B1836B002B00F0E5
S214083270E880029DAB899AB2900407D46A6E43F43C
S214083280005322F40051AB819AB26966110740F1E7
S214083290B780DDF808B0DBF81030002B00F0B080FF
S2140832A002F01A020A2A00F0B78000230DF18009FE
S2140832B00A93159314930993CDF84C904E4698F8B4
S2140832C00030002B00F0C884252B00F0C58408F1D8
S2140832D0010201E0252B04D0137814460132002B96
S2140832E0F8D1C8EB040595B1149B159A01332A4406
S2140832F0072BC6F800807560159214937BDD002AAC
S21408330040F0D5840998149228444E4609902378AC
S214083310002B00F0ED8300214FF000024FF0FF3C39
S21408332063788DF8472004918A4604F10108084618
S214083330654608F10108A3F12002582A00F2D9824E
S214083340DFE812F0CB02D702D702D202D702D702A2
S214083350D702D702D702D70282028F02D70284008A
S2140833609302D7022B0196019601960196019601C3
S2140833709601960196019601D702D702D702D70280
S214083380D702D702D702D702D702D7023001D70210
S214083390D702D702D702D702D702D702D702D70258
S2140833A0D7027B01D702D702D702D702D702A401D9
S2140833B0D702D702BF01D702D702D702D702D70251
S2140833C0D702D702D702D702D702E401FA01D702FA
S2140833D0D702D7021602FA01D702D7021B02D70273
S2140833E02802890066027D02D7023A02D70219012E
S2140833F0D702D702AF02083609982844099086E70C
S2140834000698029900F0E4FDB0B9029DAA8902F078
S2140834101A020A2A7FF449AFDDF808B0BBF90E3065
S214083420002BFFF642AF069859464246234600F060
S2140834303DFD31B0BDE8F08F4FF0FF3031B0BDE84C
S214083440F08F00F0F7FE14E7404208934AF0040AAB
S21408345098F800306DE71AF020030490AC4600F0A8
S214083460F480DDF820B00BF1070323F0070303F11F
S21408347008040894D3E9004500234FF00000002113
S2140834808DF84700CDF814C00791BCF1000FA8BF0F
S2140834902AF0800A54EA050240F0AD80BCF1000F1D
S2140834A040F0A980002B40F0C0831AF0010F00F00E
S2140834B0BC83302330AF07F8413DC7EB09040594B9
S2140834C0DDF814B0079CE345B8BFE346CDF80CB06A
S2140834D01CB10BF1010BCDF80CB01AF002050795DC
S2140834E005D0DDF80CB00BF1020BCDF80CB01AF0D5
S2140834F084030B9340F01B82049DDDF80CB0CBEBE5
S2140835000504002C40F31382102C40F38984BE4D2A
S214083510159A2B46149825464FF0100B6446B44669
S2140835201E4606E0831C0CF1080C0846103D102DBC
S21408353011DD411C1032072915928CE840081491B9
S214083540F0DD002A40F0E681103D102D4FF0010313
S2140835501046CC46EDDC31466646A4462C460D465B
S2140835602244072B159235607460149300F36D831C
S2140835700836591CDEE11AF0200F0490AC4600F01D
S2140835808D80089DEB1D23F0070303F1080BD3E994
S2140835900045CDF820B001236FE74AF0800A98F876
S2140835A00030C6E64AF0100A1AF0200F0490AC461F
S2140835B08DF8471000F0C880089CE11D21F007012F
S2140835C0D1E900230831089114461D46002A73F1F4
S2140835D0000BC0F2CE83BCF1000F9DF84700A8BFD1
S2140835E02AF0800A54EA05020790CDF814C04FF076
S2140835F001033FF453AF012B00F01983022B0DF1A2
S2140836007F0340F04C82DDF828B0194604F00F001E
S21408361022091BF8000042EA05722B09087052EAD4
S21408362003000F4614461D4601F1FF31EED1CDE9E1
S2140836300E23C7EB0903059342E74AF0100A1AF06F
S21408364020030490AC467FF40CAF1AF0100240F04A
S21408365011831AF0400300F00D83DDF820B01346FE
S214083660BBF800400BF1040B0025CDF820B004E7AA
S214083670A3F13002002018F8013B00EB800002EBB3
S2140836804000A3F13002092AF5D954E64AF0100A98
S2140836901AF0200F0490AC467FF473AF1AF0100FA0
S2140836A040F0EF821AF0400F00F0EB82DDF820B011
S2140836B00025BBF800400BF1040B0123CDF820B021
S2140836C0DBE6AC46514D1AF0200F04908DF84710F3
S2140836D00A9500F0F080089DEA1D22F0070202F124
S2140836E0080BCDF820B0D2E900451AF0010F00F01B
S2140836F0AA8254EA050B00F0A68230228DF84930DB
S2140837004AF0020A8DF848200223B6E6089BDDF840
S21408371020B01B6801244FF000050BF1040B049041
S21408372003948DF847508DF85830CDF820B005949E
S21408373016AF4FF0000CD0E61AF0200F0490AC46F7
S2140837408DF847107FF438AF1AF0100F40F0A782B4
S2140837501AF0400F00F0A382DDF820B0BBF9004055
S2140837600BF1040BE51722462B46CDF820B02DE7C3
S2140837704AF0400A98F80030DBE598F800304246F0
S2140837806C2B03BF08F101084AF0200A53784AF068
S214083790100ACEE51AF0200F8DF8471000F0F782D1
S2140837A0089C2168099CE5172B46089D2246043587
S2140837B00895C1E9002382E5089CAC4627684FF0C7
S2140837C0000504908DF847500434002F00F032832B
S2140837D0BCF1000F3846C0F2078362460021CDF8D8
S2140837E004C001F005FCDDF804C0002800F03A83A8
S2140837F0C01B9DF847506045A8BF604605900894D2
S21408380007954FF0000C5BE68460080044600800EB
S214083810089BDDF820B00490B2481C683022782354
S2140838200BF1040BAC468DF849304AF0020ACDF885
S21408383020B000258DF848200A9002231DE64AF09D
S214083840200A98F8003074E5DDF820B0DBF80000B0
S2140838500BF104030028FFF6F7AD089398F800303C
S21408386067E598F800302B2163E598F8003008F1F2
S21408387001042A2B00F00583A3F13002092A98BF19
S214083880002500F2FA8214F8013B05EB850502EBE9
S2140838904505A3F13002092AF5D945EAE575A0469B
S2140838A049E5904C1AF0200F0490AC460A948DF81F
S2140838B047107FF410AF1AF0100F40F0EA811AF0A4
S2140838C0400F00F0E681DDF820B00025BBF8004088
S2140838D00BF1040BCDF820B007E798F80030002964
S2140838E07FF427AD202124E54AF0010A98F8003035
S2140838F01FE504908DF84710002B00F0F98001258D
S2140839004FF0000B03958DF858308DF847B00595A5
S21408391016AF0EE70698029913AAFFF761FC00286F
S21408392040F0ED801498159A431CCC46FEE5149B8F
S214083930159A591C9DF8470068B101320DF14700E9
S214083940012307291592149186E8090000F360817F
S2140839500B4608360131079C64B1023212A80223CE
S21408396007291592149186E8090000F357810B463B
S214083970083601310B9D802D00F00181059DC5EBB1
S2140839800C04002C2FDD102C574D22DD30464FF04E
S214083990100B2E462546069C06E003F1020C08305E
S2140839A00B46103D102D10DD591C103207291592B4
S2140839B080E840081491F0DD002A63D1103D102DF0
S2140839C04FF0010C13464846EEDC2C466146354659
S2140839D0064622440729159235607460149100F350
S2140839E0C18008360131059D07292A44159237609B
S2140839F07560149140F3C180002A40F0308114921B
S214083A004E461AF0040F00F08B80049DDDF80CB0CB
S214083A10CBEB0504002C40F38380102C40F31E8269
S214083A201499324D1027DDF818A0DDF808B005E027
S214083A30881C08361946103C102C10DD4B1C10321A
S214083A40072B159286E8A0001493F1DD002A7DD195
S214083A50103C102C4FF0010011464E46EEDC224476
S214083A600728159235607460149059DD002A4FD1E6
S214083A70099CDDF80CB0049DAB45ACBF5C446419EA
S214083A8009945EE02046029913AAFFF7A9FB0028CE
S214083A9035D1149B159A03F1010C484681E7E008D6
S214083AA040EA457004F00702E908303250EA010B94
S214083AB01F461A7004460D4603F1FF33EFD11AF07D
S214083AC0010FCDE90C01394600F0B980302A3FF4E1
S214083AD0F4AC1F46C7EB09053023059501F8013CF1
S214083AE0EEE400BF586008007460080084600800B0
S214083AF0159B23B10698029913AAFFF771FB029C3F
S214083B00A3895B063FF598AC099831B0BDE8F08FFD
S214083B100698029913AAFFF763FB0028EFD1159AB7
S214083B20099CDDF80CB0049DAB45ACBF5C44641939
S214083B30099432B10698029913AAFFF751FB002898
S214083B40DDD1002014904E46FFF7B9BB50465946C3
S214083B5013AAFFF745FB0028D1D11499159A481CDB
S214083B604E4668E7002A40F0F780059C0123209718
S214083B7021941594224614934E46083641E7049D30
S214083B80DDF80CB0CBEB0504002C7FF7F7AE102C55
S214083B90A64D40F3708129464FF0100B2546644623
S214083BA0B4460E4606E0981C0CF1080C0B46103D71
S214083BB0102D0FDD591C1032072915928CE8400885
S214083BC01491F0DDBAB9103D102D4FF001001346E0
S214083BD0CC46EFDC33466646A4462C461D462244B1
S214083BE00728159235607460149000F3AF80083685
S214083BF0411C0346C2E60698029913AAFFF7F0FA94
S214083C0000287FF47CAF149B159A581CCC46CEE748
S214083C10002A79D119464E4613469CE6002A40F0FB
S214083C208480012113464E46A4E64F4648E4002DFC
S214083C3008BF0A2C46D2303430AF07F8414DC7EBE0
S214083C40090305933CE4022317E4002A40F0AF80FA
S214083C50134601214E466DE64446FFF758BB0698C4
S214083C60029913AAFFF7BCFA00287FF448AF159A02
S214083C704E46C6E6089D2C68043508950025FFF7CD
S214083C80FCBB089D01232C68043508950025FFF722
S214083C90F4BB089D2C6804350895002525E5089D85
S214083CA02C6804350895E51722462B468EE40698B8
S214083CB0029913AAFFF794FA00287FF420AF4E461D
S214083CC0FFF79ABB0DF17F0B03965E46E346204648
S214083CD029460A22002301F05FFE30323270204661
S214083CE029460A22002301F057FE04460D4654EAE8
S214083CF00500374606F1FF36E9D1C7EB0903DC466F
S214083D00039E0593FFF7DCBB0698029913AACDF825
S214083D1004C0FFF765FADDF804C000287FF4EFAEAC
S214083D20149B159A591C4E4615E60698029913AA2E
S214083D30CDF804C0FFF754FADDF804C000287FF475
S214083D40DEAE149B159A591C4E4613E6002A56D129
S214083D50012113464E4611E60698029913AAFFF764
S214083D603FFA00287FF4CBAE1499159A01314E46D7
S214083D7039E64FF02D0B644265EB45058DF847B0E4
S214083D80CDF81CB0CDF814C00123FFF77EBB1AF09F
S214083D90100F1DD11AF0400F58D0089DDDF824B03A
S214083DA02B6804350895A3F800B0FFF788BA06987C
S214083DB0029913AACDF804C0FFF712FADDF804C07A
S214083DC000287FF49CAE149B159A591C4E46B1E504
S214083DD0DDF820B0099CDBF800300BF1040BCDF8B9
S214083DE020B01C60FFF76BBA089401F05FFC9DF8E2
S214083DF04740059007944FF0000CFFF761BB069804
S214083E00029913AACDF804C0FFF7EAF9DDF804C052
S214083E1000287FF474AE149B159A591C4E46ADE5DF
S214083E20149B159A0133024DFFF79ABB746008007D
S214083E3084600800BCF1060F34BF63460623089466
S214083E4023EAE37405930394164F72E4089C099DCD
S214083E502368043408941D60FFF731BA1498124D8D
S214083E600130FCE59DF84750CDF814C00795089436
S214083E708446FFF725BB0846B1E6A0460025FFF7AF
S214083E805ABADDF820B098F80130DBF800500BF18C
S214083E900402002D0892A046BFF64BAA4FF0FF3545
S214083EA0FFF747BA6C600800846008002DE9F04701
S214083EB04F6EADF58D6D88461997D8F81C70B1F819
S214083EC00CA0B1F80E900797D8F824701AAC4FF4E7
S214083ED080652AF0020A0026694600940494029532
S214083EE00595ADF80CA0ADF80E9009970696054610
S214083EF0FFF7B2F9041E07DB2846694600F07EF98C
S214083F00B04218BF4FF0FF34BDF80C305B0605D53D
S214083F10B8F80C3043F04003A8F80C3020460DF5EE
S214083F208D6DBDE8F08700BFF8B50D461446074608
S214083F3010B1836B002B48D0A289A06993B2A06009
S214083F40180738D52669002E35D09904EDB215D550
S214083F50236862699E1B96421CDA0136A268591CC1
S214083F60013AA26021601D706369B3421AD0A38922
S214083F70DB0701D50A2D15D02846F8BD636E42F436
S214083F80005223F4005363662368A28162699E1B6D
S214083F909642E2DB3846214600F030F940B92368FD
S214083FA00126DBE73846214600F028F90028E3D04A
S214083FB04FF0FF30F8BD3846214600F009F80028D3
S214083FC0F6D1A289266993B2BFE700F033F9B3E7C2
S214083FD02F4B70B5064618680C4610B1826B002A3F
S214083FE036D0A589ABB219070CD52269AAB113F049
S214083FF001011ED0636900215B42A361A160F2B192
S214084000002070BDDA063AD55B0724D4226945F04D
S2140840100803A3819BB2002AE9D103F42071B1F505
S214084020007FE4D03046214600F0CEFCA389226902
S214084030DDE7980758BF6169A160002AE0D1A38927
S2140840401A06DDD543F04003A3814FF0FF3070BD5C
S21408405000F0F0F8C5E7216B49B104F14003994236
S21408406003D0304600F02AFAA58900232363226984
S21408407025F024050021ADB222606160C7E745F04F
S2140840804005092333604FF0FF30A58170BD00BF9F
S21408409070050720024B13B1024800F005B87047B8
S2140840A0000000003143080001460020024603468F
S2140840B001F076BB8B892DE9F0419AB20D461107BF
S2140840C080463CD46A6843F40063002AAB8159DD15
S2140840D0AC6A002C4BD09BB203F48052002192B2FB
S2140840E0D8F80060C8F80010002A4FD02A6D5F077D
S2140840F005D569682B6B521A0BB1EB6BD21A404682
S214084100E9690023A047441C4AD0AB892A6923F4EE
S21408411000639BB200212A60DA04AB8169604CD444
S214084120296BC8F8006011B305F14003994202D024
S214084130404600F0C3F900202863BDE8F0812E69E8
S214084140AEB191072C680CBF6B6900232E60A41BC8
S214084150AB600AE0324623466F6A4046E969B847CC
S2140841600028C0EB0404064404DD002CF2DC002022
S214084170BDE8F081AB894FF0FF3043F04003AB81D8
S214084180BDE8F081EA6B002AA2DCF0E7012340468E
S214084190E969A047431C02461ED0AB89AC6AA6E76D
S2140841A0D8F800305BB9AA89296922F4006292B26D
S2140841B06B60D304AA812960B2D52865B0E71D2BA9
S2140841C001D0162B13D1A9892B6921F4006100228E
S2140841D0A9812B606A60A3E7D8F80030002BDCD0F2
S2140841E01D2B01D0162BC5D1C8F80060BFE7AB89D8
S2140841F043F04003AB81BDE8F08100BF10B504462C
S21408420082B008B1836B53B1B1F90C0008B902B09B
S21408421010BD204602B0BDE81040FFF74BBF019125
S21408422000F008F80199EFE7014900F09FBB00BFCE
S214084230ED5808002DE9F04F846B83B00746002C34
S21408424065D17D6833480423032107F53B72F8637C
S214084250C7F8E412C7F8E822C7F8E04205F15C00A0
S214084260AB812C606C60AC606C66EC812C616C6118
S214084270AC6121460822FEF7D3FEDFF89CB0BE6884
S214084280DFF898A0DFF89890DFF8988001230922D5
S214084290ED61C5F820B0C5F824A0C5F82890C5F883
S2140842A02C802146F381B28134607460B4607466F1
S2140842B034617461B461082206F15C000193FEF76C
S2140842C0AFFEFD6812200222F661C6F820B0C6F8D6
S2140842D024A0C6F82890C6F82C802146A881EA8132
S2140842E02C606C60AC606C662C616C61AC6105F12E
S2140842F05C000822FEF794FE019BED61C5F820B02D
S214084300C5F824A0C5F82890C5F82C80BB6303B070
S214084310BDE8F08F29420800295608004D560800C7
S21408432085560800A5560800704700BF704700BFAE
S21408433038B5094D094C641BA41018BF05EB840555
S21408434005D0013C55F8043D9847002CF9D1BDE846
S214084350384001F0A9BE00BFB4600800B860080085
S2140843602DE9F04193890F46990482B01446804699
S21408437006D4526E43F4005342F40052A381626698
S21408438000F01CFB01283ED03A46404601A904F13D
S2140843905C0301F0BBF9421C06462DD000283AD033
S2140843A09DF80410002509E0236819702368013376
S2140843B023600135B5422ED201ABE95CA368013B08
S2140843C0002BA360F0DAA269934206DB2368197013
S2140843D02368197801330A29EAD140462246FFF7AE
S2140843E0A3FDB0F1FF33584258410028E1D04FF002
S2140843F0FF3002B0BDE8F081A38943F04003A381F3
S21408440002B0BDE8F0817B1EFE2BBDD8F9B2064689
S2140844108DF80410C6E7384602B0BDE8F08100BF44
S214084420F8B5234D0F46044600F008FFAB685E68F3
S21408443026F00306F11B01F6EF7121F47F6121F0E7
S2140844400F01A1F58057B7F5805F07DB20460021EE
S21408445001F0D8F8AB683344984204D0204600F000
S214084460EFFE0020F8BD2046794201F0CBF8013077
S2140844700DD0104BAA681968F61B46F001062046B0
S214084480C91B5660196000F0DBFE0120F8BD204607
S214084490002101F0B7F8AB68C21A0F2ADEDD064D18
S2140844A004492D6842F00102401B5A600860D5E7AF
S2140844B0980507200C0B0720A40907202DE9F041D2
S2140844C00D460646002955D000F0B8FE55F8041CDF
S2140844D0DFF870C1A5F1080421F00103E218DCF842
S2140844E008005768904227F0030768D011F00101CA
S2140844F0576032D00021D0194068C00706D43B4424
S214084500906800294DD0D268C260906043F00102DE
S2140845106260E350E1B9B3F5007F2DD35A0A042A46
S21408452069D89809383041000CEB810CDCF8082073
S2140845304449624565D0516821F003018B4202D296
S21408454092689445F7D1D368E360A2609C60D46013
S2140845503046BDE8F04100F073BE55F8085C0CF133
S2140845600808641BA0682B44404542D0E568C5602F
S214084570A860C0E7BDE8F081DB089A1001209040EB
S214084580DCF804100CEBC3039A680143A260E360EE
S214084590CCF8041030469C60D460BDE8F04100F0CA
S2140845A04FBE294DA842AED143F00102CCF81440C4
S2140845B0CCF81040E060A0606260E350C8E71F4493
S2140845C0CB0707D455F8081C641AE368A2680F449A
S2140845D0D3609A601D4B47F001021B6862609F42D9
S2140845E0CCF80840B4D31A4B30461968FFF718FFC2
S2140845F0AEE701217FE7142A0BD802F15B004100E1
S21408460092E780100125854048681346284348608D
S2140846109AE7542A03D8180B6E30410084E7B2F59F
S214084620AA7F03D8D80B773041007DE740F2545173
S2140846308A4203D8980C7C30410075E7FC217E201E
S21408464072E700BF98050720A0050720A0090720E5
S214084650080B07202DE9F04F936883B0164681466D
S2140846600C462BB38B89190726D5226922B303F08B
S214084670020292B23568002A2CD04FF0000ADFF802
S214084680E8B2D046D84534BF43465B46524648460D
S214084690B8F1000F4FD0E169676AB847002856DDC1
S2140846A0B36882441B1AC0EB0808B360002BE9D134
S2140846B0002003B0BDE8F08F48462146FFF788FC87
S2140846C0002840F04881A389356803F0020292B2B8
S2140846D0002AD2D113F0010A42D1D046B8F1000F11
S2140846E023D09A05A76876D5B845C0F0A48013F4F9
S2140846F0906F40F0B2802068BB4651465A4600F09C
S21408470037FDA2682168D21B01EB0B03A260236069
S2140847104246B36892449B1AC2EB0808B360002B63
S214084720C6D0A389B8F1000FDBD1D5F800A0D5F81C
S21408473004800835D2E7D5F800A0D5F804800835F7
S214084740A0E748462146FFF759FD002859D0A38917
S21408475043F040034FF0FF30A38103B0BDE8F08F6D
S2140847609246019293469046B8F1000F2BD0019FCF
S214084770002F64D020682169C24534BF534643469B
S21408478088421F46D4F808C0626903D99444634532
S21408479000F3AE80934236DB1346676A4846E16903
S2140847A05A46B847071ED2DDBAEB070A3AD0B368AE
S2140847B0BB44DB1BC7EB0808B360002B3FF478AF9D
S2140847C0B8F1000FD3D10027D5F800B0D5F804808B
S2140847D001970835C8E720682369984202D86369B4
S2140847E0984572D2B84538BF47463A46514600F013
S2140847F0BFFCA3682268DB1B3A44A3602260002B38
S2140848009FD03A4685E71A465946009300F0B0FC12
S214084810009BA1682268C91ABAEB070A1344A1606C
S2140848202360C4D148462146FFF7E8FC00288ED10D
S214084830CDF804A0BBE720684746C3465DE7584660
S2140848400A21424600F0D4FB00287FD000F1010A76
S2140848500127CBEB0A0A01978CE72268216967696A
S214084860C1EB020C07EB47070CF1010207EBD77701
S21408487042447F10974234BF17463A465B054FD5E9
S21408488011464846CDF800C000F016F9DDF800C01D
S2140848908346002862D062462169CDF800C000F041
S2140848A0F1FBA289DDF800C022F4906242F0800293
S2140848B0A2810BEB0C00CCEB0702C4F810B06761C2
S2140848C02060A2604746C34617E76FF0004290454F
S2140848D038BF424692FBF3F202FB03F3676A484688
S2140848E0E1695246B84700287FF731AF024610E71D
S2140848F062465946CDF800C000F03AFCDDF800C024
S21408490023684846634423602146CDF800C0FFF775
S21408491075FCDDF800C000287FF419AF674643E74A
S2140849204846CDF800C000F08DFCDDF800C0834690
S2140849300028BED148462169FFF7C0FDA3890C228E
S21408494023F080039BB2C9F8002001E7012708F18D
S214084950010A01970EE74FF0FF30AAE60C23C9F8C4
S2140849600030A389F4E600BF00FCFF7F2DE9F04184
S21408497010F53877884619D000267D68BC68013D52
S2140849800ED4A389013D012B06D9B4F90E30204672
S214084990013301D0C04706436B1C04F16804F0D10C
S2140849A03F68002FE9D13046BDE8F0813E463046E4
S2140849B0BDE8F0810048704774050720014B186869
S2140849C0704700BF94050720F0B58B8991B09AB25E
S2140849D096070C46054637D4B1F90E10002917DBA2
S2140849E001AA00F08BFF002810DB029B03F470433B
S2140849F0B3F500514F424F41B3F5004F2CD0A38971
S214084A004FF4806643F40063A3810BE0A3899AB24F
S214084A1012F0800F43F40063A38114BF40264FF4BE
S214084A20806600272846314600F046F8A389002805
S214084A3029D01B4A43F08003EA63A38120602061E3
S214084A406661A7B911B0F0BD01F1430301220B60FE
S214084A500B614A6111B0F0BD124AA36A9342CED1E7
S214084A60A3894FF480663343A381E664DAE72846D1
S214084A70B4F90E1000F056FF0028E3D0A38943F0DF
S214084A800103A381DEE79A05DCD404F1430243F070
S214084A9002030121A381226022616161D2E700BF7F
S214084AA02942080085560800024B0146186800F09F
S214084AB003B800BF700507202DE9F04F01F10B057C
S214084AC0162D83B0064627D935F0070527D4A94200
S214084AD025D8304600F0B2FBB5F5FC7F26D2C14F8C
S214084AE04FEAD50C07EBCC03DC689C4200F0D28179
S214084AF06368E26823F0030323445868A16840F01B
S214084B000105CA60304691605D6000F099FB083484
S214084B10204603B0BDE8F08F1025A942D9D9002455
S214084B200C232046336003B0BDE8F08F5FEA552CAF
S214084B3000F08980BCF1040F00F260814FEA951CF2
S214084B400CF1380C4FEA4C01A64F07EB8101CC68F4
S214084B50A14205D10CE0002B79DAE468A14207D01F
S214084B60626822F00302531B0F2BF4DD0CF1FF3CA6
S214084B700CF1010C9B4B3C6903F1080E744500F0E0
S214084B807E81616821F003014A1B0F2A00F36481C5
S214084B90002AC3F814E0C3F810E069DAB1F5007F1C
S214084BA080F03A81C9088A104FF0010808FA02F81E
S214084BB003EBC1015A68886848EA0202A060E1600F
S214084BC05A608C60C4604FEAAC030120984090425B
S214084BD05BD8024206D12CF0030C400002420CF1CE
S214084BE0040CFAD007EBCC084446E146E3689C423E
S214084BF007D146E1002A80F25781DB689C4200F024
S214084C004081596821F003014A1B0F2AF2DD1C4631
S214084C1054F808CFD96845F0010942F001081D4448
S214084C20C3F804903046CCF80C10C1F808C07D6173
S214084C303D61C5F80CE0C5F808E0C5F80480AA5040
S214084C4000F0FEFA64E77E214FF03F0C7CE7224432
S214084C505068E368A16840F00105CB60304699606B
S214084C60556000F0EDFA0834204603B0BDE8F08F32
S214084C7021444B68304643F001034B6000F0E0FAED
S214084C800834204603B0BDE8F08FBC68636823F09C
S214084C900309A94504D3C5EB09030F2B00F391803C
S214084CA0514B524A1968136805EB010A013304EBA5
S214084CB0090B00F061810AF5805A0AF10F0A2AF4F6
S214084CC07F6A2AF00F0A30465146019200F09AFC95
S214084CD0B0F1FF3F8046019A00F00181834500F25B
S214084CE0FB80DFF814C1C345DCF800305344CCF829
S214084CF0003000F04A8112683C4901321BBFCBEBFA
S214084D00080B5B44C1F80080CCF8003018F00703A5
S214084D1000F01481C3F10802C3F5805390440833A9
S214084D20C244CAF30B0ACAEB030A51463046CDF80A
S214084D3004C000F067FC431CDDF804C000F03581B1
S214084D40C8EB0002524442F00102DCF80030BC42D4
S214084D505344C7F80880CCF80030C8F80420DFF8B9
S214084D6098A015D0B9F10F0F40F2EB806168A9F151
S214084D700C0222F0070201F0010142EA010E0520AA
S214084D80A1180F2AC4F804E04860886000F2118170
S214084D90174ABC6811688B4288BF1360154A1168A9
S214084DA08B4288BF1360626822F003029542C5EB07
S214084DB0020301D80F2B04DC304600F041FA002429
S214084DC0A6E645F0010243F001032544626030463A
S214084DD0BD606B6000F034FA0834204603B0BDE8C6
S214084DE0F08F00BF98050720080B0720A4090720A6
S214084DF0040B0720000B07200C0B0720BCF1140F30
S214084E0061D9BCF1540F00F28F804FEA153C0CF1C3
S214084E106E0C4FEA4C0197E64B0A042B58D9142B14
S214084E2000F2AD8003F15B02500007EB8000836858
S214084E30DFF8B881834200F08A805A6822F00302BD
S214084E40914202D29B689842F7D1D9687A68E160A5
S214084E50A3608C60DC60B6E645F0010742F001010D
S214084E602544676030465D611D61C5F80CE0C5F8ED
S214084E7008E06960AA50083400F0E2F948E65A6883
S214084E80A1E609F1010919F0030F04F108047FF4FB
S214084E90ADAE2DE004F108036469A34208BF0CF127
S214084EA0020C3FF467AE23E6194448681C4654F8DB
S214084EB0082FDB6840F001054D603046D3609A60E5
S214084EC000F0BEF924E60CF15B0C4FEA4C013BE619
S214084ED08A0938325000A8E7BC423FF402AFBC68E3
S214084EE0626822F0030261E7D8F8008098457AD114
S214084EF01CF0030FA8F108030CF1FF3CF4D17B6803
S214084F0023EA00037B60400098423FF6BEAE0028C6
S214084F103FF4BBAE0342CC467FF464AE4000034287
S214084F200CF1040CFAD05DE6BCF5AA7F19D84FEA56
S214084F30D53C0CF1770C4FEA4C0105E64FF480534C
S214084F40EEE60123C8F80430444600222EE7921005
S214084F5001209040D8F8042019460243C8F80420D7
S214084F6075E740F254539C451BD84FEA954C0CF114
S214084F707C0C4FEA4C01E7E50AF1100AA3E6542B2D
S214084F801FD80A0B6E3250004FE7CBF30B010029EF
S214084F907FF4B1AE0AEB0901BA6841F0010151602D
S214084FA0F6E6FC214FF07E0CCEE501224FF0000A13
S214084FB0CBE604F108013046FFF780FADAF800304D
S214084FC0E6E6B3F5AA7F03D8CA0B773250002CE77B
S214084FD040F25452934203D88A0C7C32500024E79D
S214084FE0FC207E2221E77B688DE700BF9805072016
S214084FF0830770B4C9B240D0541E2AB303788B42D4
S21408500023D0431C04E0FCB1057814468D421CD01E
S21408501013F0030F184604F1FF3203F10103F2D12F
S214085020032C14D8651E54B303788B420DD0421C4B
S214085030002302E004788C4207D0AB42104603F106
S214085040010302F10102F5D1002070BC704741EA65
S2140850500126034646EA06461A6818467240A2F132
S214085060013525EA020212F0803F03F10403D9D184
S214085070043C032C1846EFD8D4E71446D0E720465D
S214085080E3E700BF844641EA000313F0030349D16F
S214085090403A23D30B6803604B6843608B68836091
S2140850A0CB68C3600B6903614B6943618B69836195
S2140850B0CB69C3610B6A03624B6A43628B6A83627D
S2140850C0CB6AC3620B6B03634B6B43638B6B836365
S2140850D0CB6BC36340304031403ADBD230320BD31F
S2140850E00B6803604B6843608B688360CB68C3605B
S2140850F010301031103AF3D20C3205D351F8043B75
S21408510040F8043B043AF9D2043208D0D2071CBF50
S21408511011F8013B00F8013B01D30B880380604679
S214085120704700BF082A13D38B07B1D010F00303CB
S214085130AED0C3F10403D21ADB071CBF11F8013B3B
S21408514000F8013BA4D331F8023B20F8023B9FE766
S214085150043AD9D3013A11F8013B00F8013BF9D2D9
S2140851600B7803704B7843708B7883706046704773
S2140851708842F0B410D98C18A0420DD28518531E58
S21408518042B121462A4611F8014D013B02F8014D6D
S2140851905C1CF8D1F0BC70470F2A44D940EA0103DA
S2140851A09B0744D1A2F110073F0900EB07161036FB
S2140851B00C4603462568103343F8105C65681034BF
S2140851C043F80C5C54F8085C43F8085C54F8045C34
S2140851D043F8045CB342EDD17B1C02F00F0C1B01B4
S2140851E0BCF1030F1944034423D90E461D466446F2
S2140851F056F8047B043C032C45F8047BF8D8ACF13D
S214085200040424F00304043402F003022344214473
S214085210002ABFD01A4411F8014B03F8014B9342F9
S214085220F9D1F0BC70470346002AF3D1B2E703462B
S214085230F0E76246002AEDD1ACE700BF704700BF32
S214085240704700BF2DE9F04F0C4683B09046814664
S214085250002900F0BA80FFF7F1FF08F10B0654F8B2
S214085260043C162E23F00305A4F108074BD810219A
S2140852700E46B0454CD88D4251DADFF884B378191B
S214085280DBF808E0864500F0A680426822F0010CAC
S2140852908444DCF804C01CF0010F54D000221046E9
S2140852A0DB076FD454F8083CC3EB070ADAF8043077
S2140852B023F003032B44002862D0704500F0E980F1
S2140852C002EB030E8E455BDBC3688268D046D3606C
S2140852D09A6058F8081FDAF80C302A1F242ACB6080
S2140852E0996000F22381132A40F2B08023681B2AB3
S2140852F0CAF808306368CAF80C3000F22B81083404
S2140853000AF11003A3E026F00706002E3146B0DAAD
S2140853100C230020C9F8003003B0BDE8F08FA04683
S214085320AA1B0F2A03F001031AD82B437B603D44BF
S2140853306B6843F001036B604846FFF781FF404601
S21408534003B0BDE8F08F22F0030202EB050C8C4593
S214085350A6DBC2688168A046CA6065469160DFE73A
S214085360B919334342F001007B600A444860536829
S214085370083143F0010353604846FFF79FF8DBE720
S2140853808B4233DA41464846FFF796FB80460028AC
S214085390D2D054F8043CA0F1080123F001023A44A4
S2140853A0914200F0BC802A1F242A6ED8132A42D8BD
S2140853B003462246116819605168596092689A60D7
S2140853C021464846FFF77AF8B6E7114603B0BDE827
S2140853D0F04FFFF771BBDEF8042006F1100C22F040
S2140853E00302501960453DDA704659E7D04658F82A
S2140853F0080FDAF80C102A1F242AC160886000F209
S214085400A080132A40F29B8021681B2ACAF808103D
S2140854106168CAF80C1000F2B28008340AF110026B
S21408542021681D461160616857465160A3689360FD
S214085430DAF8043074E723681B2A0360636843605D
S21408544062D800F1080304F10802B3E7434622686D
S21408545075461A60626857465A60A2689A60DAF813
S21408546004305DE7831B374443F00103CBF808702C
S2140854707B6054F8043C484603F001031E4344F896
S214085480046CFFF7DDFE20465AE72146FFF770FE5C
S21408549096E702EB030C06F110029445FFF670AF90
S2140854A0574657F8081FDAF80C302A1F242ACB600C
S2140854B0996000F28680132A77D923681B2ACAF8CF
S2140854C008306368CAF80C3000F2848008340AF1A1
S2140854D0100322681A6062685A60A2689A60C6EB6F
S2140854E00C020AEB060342F00102CBF808305A60B9
S2140854F0DAF80430484603F001031E43CAF804608D
S214085500FFF79EFE38461BE7A368242A8360E368F5
S214085510C3602BD000F1100304F110024AE750F8DC
S214085520042CA04622F003021544F9E6214640461C
S21408553075465746FFF71CFEDAF80430F0E6424692
S2140855406EE7214640461D465746FFF711FEDAF835
S2140855500430E5E6A368242ACAF81030E368CAF8D7
S214085560143018D010340AF1180370E7226900F1D5
S21408557018030261616904F1180241611AE7A1681B
S214085580242ACAF81010E168CAF814100FD010348C
S2140855900AF1180244E722690AF12003CAF818201B
S2140855A062691834CAF81C2051E73B4691E721691E
S2140855B00AF12002CAF8181061691834CAF81C10D3
S2140855C02EE721463846CDF804C0FFF7D1FDDDF8B2
S2140855D004C084E7A368242ACAF81030E368CAF827
S2140855E0143003D010340AF1180372E722690AF15E
S2140855F02003CAF8182062691834CAF81C2068E71D
S2140856009805072038B5074C00230546084623604A
S214085610FCF78EFA431C00D038BD2368002BFBD05D
S2140856202B6038BDBC0B072010B50C46B1F90E1020
S21408563000F09EF9002803DB236D0344236510BDA4
S214085640A38923F48053A38110BD00BF2DE9F04140
S2140856500C4689891D46CB051646074606D5B4F975
S2140856600E100022022300F06FF9A18921F4805160
S214085670A1813846B4F90E1032462B46BDE8F041F3
S21408568000F07AB810B50C46B1F90E1000F05CF9C7
S214085690A389421C0EBF23F4805343F4805320652D
S2140856A0A38110BDB1F90E1000F0CEB820F00301AA
S2140856B010F00300C0F1000051F8043B00F1040CA0
S2140856C04FEACC0C6FF000021CBF22FA0CF2134310
S2140856D04FF0010C4CEA0C2C4CEA0C4CA3EB0C02D9
S2140856E022EA030212EACC1204BF51F8043B043043
S2140856F0F4D013F0FF0F1FBF013013F47F4F0130B3
S21408570013F47F0F18BF0130704700BF2DE9F04132
S2140857101E4686B00C46054617460F4B91B1D3F881
S2140857200080FFF747F90096034621463A46284682
S214085730C047431C03D100228A2332602B6006B080
S214085740BDE8F0811F68FFF735F900960346224644
S214085750284603A9B847ECE7A809072021B1FF2A7D
S21408576004D80A7001207047084670478A230360E9
S2140857704FF0FF30704700BF70B5084C064600254E
S214085780084611461A462560FBF7DAF9431C00D08E
S21408579070BD2368002BFBD0336070BDBC0B0720A0
S2140857A0F0B5274C85B026680746D6F84841002C41
S2140857B040D065681F2D1EDD224818B94FF0FF300F
S2140857C005B0F0BD4FF4C870039102920193FFF73D
S2140857D06BF903990446029A019B0028EED0D6F886
S2140857E048510020256060600546C6F84841C4F860
S2140857F08801C4F88C013FB96B1C00200235636031
S21408580044F8251005B0F0BD0126AE4004EB85002F
S214085810C0F88820D4F88821022F42EA0602C4F885
S2140858208821C0F80831E7D1D4F88C311E43C4F873
S2140858308C61E1E706F5A674C6F84841B9E700BFEB
S21408584040600800A94A080038B5074C00230546FA
S21408585008462360FCF786F9431C00D038BD236849
S214085860002BFBD02B6038BDBC0B072070B50C4650
S214085870054631B110B1836B002B2FD0B4F90C302C
S2140858800BB9002070BD28462146FEF7B7FCE36A30
S214085890064633B12846E16998470028B8BF4FF056
S2140858A0FF36A3891B061CD4216B41B104F14003C3
S2140858B0994202D02846FEF701FE00232363616C56
S2140858C021B12846FEF7FAFD00236364FEF72CFD97
