S0180000696D706C656D656E746174696F6E30312E73726563C5
S214080000D0AC0720C90C0800C50C0800C50C0800B1
S214080010C50C0800C50C0800C50C08000000000048
S214080020000000000000000000000000BD0F0800EF
S214080030C50C0800000000003910080075100800FC
S214080040C50C0800C50C0800C50C0800C50C08003F
S214080050C50C0800C50C0800C50C0800C50C08002F
S214080060C50C0800C50C080000000000DD090800E3
S214080070F1090800050A0800190A0800000000002F
S21408008000000000E524080049030800C50C080025
S214080090C50C0800C50C0800C50C0800C50C0800EF
S2140800A0C50C080000000000C50C0800C50C0800B8
S2140800B0C50C0800C50C0800C50C0800C50C0800CF
S2140800C0C50C0800C50C0800C50C0800C50C0800BF
S2140800D0C50C0800C50C0800C50C0800C50C0800AF
S2140800E0C50C0800C50C0800C50C0800C50C08009F
S2140800F0C50C080010B5054C237833B9044B13B16A
S2140801000448AFF300800123237010BD8809072038
S21408011000000000C448080008B5064B1BB1064896
S2140801200649AFF300800648036813B1054B03B1D0
S214080130984708BD00000000C44808008C0907203E
S214080140C44808000000000010B51B20084B98475C
S214080150084C204600210A46074B984720460021AF
S214080160064B984720460021054B984710BD00BF10
S214080170150B0800000008406D0B0800890B0800E6
S214080180990B0800F8B5044609480021094B98471A
S2140801902A2707FB04F7064E0025074C3046294653
S2140801A0A047B842FAD302480021044B9847F8BD46
S2140801B000000840910B0800A10B0800990B0800E6
S2140801C038B5034C10252563024B9847656338BD40
S2140801D000120E408501080038B5034C202525631B
S2140801E0024B9847656338BD00120E40850108002B
S2140801F010B50C46044B98472046044B984741F2E6
S2140802008240034B984710BDC1010800D901080079
S2140802108501080008B51B4B1B681B4A13601B4A60
S2140802201360411A00290CDD194A106800FB01F01A
S214080230191A154A11601844144B1860154B98473C
S21408024012E000290CDA124A106800FB01F01918AF
S2140802500D4A1160181A0D4B18600E4B984703E0AC
S214080260184619460B4B98470B480C4B98474FF0C7
S21408027080620B4B5A634FF48042A3F500735A63AF
S21408028008BD00BF30010720A4090720A8090720D9
S2140802902C010720F101080020A1070085010800AD
S2140802A000100E4070B4244A10231361C2F8A03020
S2140802B020231361C2F8A030204B4FF080611961EB
S2140802C0C3F8A0101E494FF480430B61C1F8A03054
S2140802D04FF400434B61C1F8A0301A4B02245C610E
S2140802E0C3F8A04008205861C3F8A0004FF4007572
S2140802F05D61C3F8A0504FF480655D61C3F8A050F7
S21408030004255561C2F8A05001265E61C3F8A060B6
S2140803105D61C3F8A05040255D61C3F8A0508023F6
S2140803204B61C1F8A0305461C2F8A0405061C2F8D1
S214080330A00070BC704700BF00120E4000100E40B0
S214080340000E0E4000140E40094B1A6842F01002C8
S2140803501A60084801784A1CD2B202709869064B9F
S21408036058540F2A02D90022024B1A70704700BF51
S21408037000C00940B0090720AC8C07200B78303B3A
S214080380C3EB431203EB8203DB009BB203804A787D
S214080390303A02EB820202EB820203EB820292B24E
S2140803A002808B78303B03EB830302EB43039BB25C
S2140803B00380CA78303A13440380704770B588B013
S2140803C0334B9847334B9847ADF81E000023ADF8DB
S2140803D00A30ADF80830ADF80630ADF804302E4ACD
S2140803E013602E4C2E4D164623788DF818306378F9
S2140803F08DF81930A3788DF81A30E3788DF81B300D
S21408040023798DF8143063798DF81530A3798DF833
S2140804101630E3798DF81730237A8DF81030637A22
S2140804208DF81130A37A8DF81230E37A8DF81330F0
S214080430237B8DF80C30637B8DF80D30A37B8DF80D
S2140804400E30E37B8DF80F300DF10A0006A9A84799
S21408045002A805A9A8470DF1060004A9A84701A8FF
S21408046003A9A847BDF80A30B3F5967F05D140F230
S214080470DC5001460B4B984704E03068BDF808107E
S214080480094B98470DF11E006421084B9847ABE7C7
S214080490A5020800711A0800AC090720AC8C0720D2
S2140804A07D030800F101080015020800C51C0800B5
S2140804B070B50022114C124E124DE36B13F4000F68
S2140804C005D05AB930460021A847012206E0E36B5A
S2140804D013F4000FF1D1002AEFD003E0E36B13F416
S2140804E0000FEAD1064C20460021074B98470546E0
S2140804F020460021054B9847284670BD00120E403E
S21408050000000840910B0800A10B0800990B080092
S214080510054B4FF480021A61C3F8A0204FF400027E
S2140805205A61C3F8A020704700120E400000000071
S2140805302DE9F04182B01A4B9847ADF80600194BE2
S2140805409847194FDFF8888013A5D5E9004517485E
S214080550174B98474FF480063E6342F21070154BCF
S21408056098477E63144B984788FB0023C017C0EB58
S214080570E300124B984722462B46114EB047114BC4
S2140805809847114B18600DF1060064210F4B9847E9
S214080590DDE700BFAFF300809A99999999194D4005
S2140805A0711A08001105080000120E404C48080091
S2140805B03D30080085010800B1040800CD28080071
S2140805C0ED2B0800BD2D0800B4090720C51C08003F
S2140805D0310CC330AFF3008010B50E480E4B984769
S2140805E000203E210D4B98470D4CA0470028FCD014
S2140805F00C4B98470C4A0D4B9A620D4CA0470028A6
S214080600FCD010200B4B98470B4B98470148024BE1
S214080610984710BD00BD0105A5000720910A0800EF
S214080620E50A0800F50A0800013F0D2000060E40FE
S214080630050B08002D0A0800790D08002DE9F04F73
S21408064083B005469046002A47D04E1C254F264CB8
S214080650DFF8A8A0DFF894B006F1FF39002301936D
S214080660224B9D4206D158464946214B98470028BA
S214080670F9D119E01F4B9D4209D19946484601A970
S214080680A0470028FAD1019B06F8013C17E01A4B50
S2140806909D4209D19946484601A9A0470028FAD1A3
S2140806A0019B06F8013C14E0554508D1504601A9BF
S2140806B0A0470028FAD1019B06F8013C09E0BD4294
S2140806C007D1384601A9A0470028FAD1019B06F8A9
S2140806D0013C0136B8F10108BED1002003B0BDE8E0
S2140806E0F08F00BF00400A40AD0C080000080E401E
S2140806F0A90B08000080094000C0094000000A4015
S2140807002DE9F0410C46904660B9002A0EDD8F1898
S214080710094E0A4D306821462B6898470134BC427A
S214080720F8D106E04FF0FF30BDE8F0810020BDE8C4
S214080730F0814046BDE8F081C48C0720BC8C0720B9
S2140807402DE9F0410E461546013802280FD892B119
S2140807500024DFF83C800D4FD8F80000315D3B6878
S214080760984700280ADB0134A542F5D10AE04FF085
S214080770FF30BDE8F0810020BDE8F0814FF0FF3083
S214080780BDE8F0812046BDE8F08100BFC08C072098
S214080790C48C072010B54FF40042164B5A600B2045
S2140807A0154CA0470C20A0470D20A0470E20A047B8
S2140807B03B204FF06051114CA04755204FF0605138
S2140807C0A04756204FF06051A04768200C49A04724
S2140807D05C200C49A0470C4B4FF440521A665A65E9
S2140807E05A62C3F88020196F21F4405119675A607D
S2140807F010BD00BF501A0E40150B0800B1080800BF
S2140808007900002801000028000E0E404264B1F16D
S214080810805F16D004D8C1B1B1F1006F0AD013E0DA
S214080820B1F1405F11D0B1F1605F0ED0B1F1205F39
S2140808300AD17047036F016F0B4023EA0203036770
S21408084002E0036F1343036742607047416412F087
S214080850010F14BF4166016612F00A0F14BF016249
S214080860416212F0020F02D0C0F8801004E012F0C5
S214080870080F18BFC0F8841041610160704700BFB8
S21408088010B44164019C0CB1416600E001660BB1EE
S214080890016500E041650AB1016300E0416301615A
S2140808A001605DF8044B7047C06C7047806C7047F9
S2140808B070B582B00D46440904F5001404F20774B6
S2140808C0660201F0F044B4F1205F30D006D8B4F1E7
S2140808D0006F0AD0B4F1805F18D049E0B4F1405FE9
S2140808E030D0B4F1605F2DD042E000F01F00012444
S2140808F0844030464FF0006122461F4B984715F05B
S214080900010F14BF74663466012032E000F01F0041
S2140809100124844030464FF080512246164B9847B3
S21408092015F0010F14BF74663466012021E000F04C
S2140809301F010124304604FA01F12A460F4B984756
S214080940204616E000F01F01012405F0605205EA73
S21408095004030093304604FA01F1B2F1605F14BF55
S21408096000220122C5F38003054DA847204600E073
S214080970002002B070BD00BF0D0808004D08080032
S214080980810808002DE9F04104460E46104B9847AA
S214080990054620460F4B9847054017D00E4F07F1DF
S2140809A00C046C3754F80C3CB3420AD154F8081CB3
S2140809B0294206D023683046984754F8083C25EA6A
S2140809C00305BC4202D01034002DEBD1BDE8F081FF
S2140809D0A9080800AD080800B809072008B50248A5
S2140809E00B21024B984708BD000E0E4085090800EB
S2140809F008B502480C21024B984708BD00100E4067
S214080A008509080008B502480D21024B984708BD1D
S214080A1000120E408509080008B502480E21024B50
S214080A20984708BD00140E4085090800174B1A6B36
S214080A3022F07002104318639B6E13F0080F09D15A
S214080A404FF40063114901E0013B19D08A6E12F099
S214080A50080FF9D00D4B1A6B22F0030242F002027F
S214080A601A63986E10F008000CD14FF4006307491B
S214080A7001E0013B08D08A6E12F0080FF9D07047E3
S214080A8001207047002070470120704700060E407E
S214080A9038B111490B6A114A1A40114B13430B62BD
S214080AA070470D4A136A23F45C1323F0030343F4D8
S214080AB05C1343F00103090289B20B431362936E79
S214080AC013F0010FFBD0044A136A43F09B7343F4F8
S214080AD080331362704700BF00060E40FCFFC8FE56
S214080AE002003701024B986E00F48030704700BF52
S214080AF000060E404FF00052014B9A62704700BF46
S214080B0000060E40024B986E00F00200704700BFC9
S214080B1000060E402C2820D81F280DD8124B9A699C
S214080B20012383401A40934219D0012303FA00F0A8
S214080B300D4B1861002070470B4BD3F8082120385E
S214080B40012383401A4093420BD0012303FA00F096
S214080B50054BC3F8000100207047012070470020AD
S214080B6070470020704700BF00060E4010B4890189
S214080B704318022444504FF0FF319962196A5A60AC
S214080B805DF8044B704700BFC0F8C410704700BF3C
S214080B908901052343507047890102234350704753
S214080BA000EB811108697047436913F0010F1DBFF8
S214080BB083690B7000200120704700BF10B40B013A
S214080BC093420DD91AE0416841F40021416042EA97
S214080BD003430362002020E001201EE001201CE001
S214080BE0D20002EB5302B2FBF3F3DA0803F0070372
S214080BF0541E4FF6FE718C42E9D9EDE7C900D300C2
S214080C0003EB5103B3FBF1F3DA0803F00703541EB2
S214080C104FF6FE718C42D6D9E0E75DF8044B704774
S214080C20084BC0F8E430002343604362836288239D
S214080C300360242303604FF4807303604FF400239B
S214080C40036070470041535570B505460C46164676
S214080C500F4B984700210F4B19609CB12846216816
S214080C6032460D4B9847034670B9A16862680A4336
S214080C7021690A43E068024306490A6069680A432C
S214080C806A6002E0012300E00123184670BD00BF39
S214080C90210C0800280A0720BD0B08004023036023
S214080CA0704700BF10230360704700BF436913F006
S214080CB0010F05D08369C3F308030B600020704753
S214080CC001207047FEE700BF10B51E4B1E4A9A4229
S214080CD003D01E4B1B4A9A4204D31D4B1D4A9A4208
S214080CE00FD31AE01C4B1D4CE41A24F003040434FA
S214080CF00023144814495A581A500433A342FAD108
S214080D00EBE7174B1749C91A21F003011A1D1144BE
S214080D10002243F8042F8B42FBD1134A22F060438B
S214080D2023F07F0311498B6002F16042B2F5801F01
S214080D3003D28A6842F000528A600D4B98470D4BE2
S214080D409847FEE700000720C448080084090720E3
S214080D50CC8C07208809072004000720870907206D
S214080D6084090720C78C07200000080000ED00E073
S214080D700D2E0800512508003E4B1B6B03F003039D
S214080D80032B5FD8DFE803F0020E2B2B3A4B5B6988
S214080D9013F0800F14BF4FF400424FF4FA42374B5B
S214080DA01A604FE0334B1B6A13F0807F03D0344A37
S214080DB0324B1A6046E0334A304B1A602D4B1B6A9A
S214080DC003F07003102B02D0202B04D03AE02E4AF2
S214080DD02A4B1A6036E02A4A284B1A6032E0254B1E
S214080DE01B6A13F0807F03D0254A244B1A6012E052
S214080DF0244A224B1A601F4B1B6A03F07003102B01
S214080E0002D0202B04D006E01F4A1C4B1A6002E0D2
S214080E101B4A1A4B1A60174B1B6B03F00303022B73
S214080E200DD1144B986A996A144BC0F30A401A6895
S214080E3000FB0222C9B2B2FBF1F21A6002E0134AC2
S214080E400E4B1A600B4B1B6B03F07003702B07D10D
S214080E500A4B1A680E49A1FB020252081A6070472C
S214080E60044B196B054BC1F302111A68CA401A6085
S214080E70704700BF00060E40101A0E4038010720C3
S214080E80001BB70000093D0000127A00001C4E0E39
S214080E90ABAAAAAA094B1B6813B9094A074B1A60DA
S214080EA0064B1B681A180749914204DB1046034A8A
S214080EB01060184670474FF0FF3070472C0A07201E
S214080EC0D0AC0720FC7F08204FF0FF30704700BFEB
S214080ED04FF400534B600020704700BF0120704756
S214080EE00020704700F1080343604FF6FF72028146
S214080EF0C360036100230360704700BF00230361DB
S214080F00704700BF43685A684A6042688A605A68F1
S214080F109160596041600861036801330360704757
S214080F2010B40C884FF6FF739C4201D103690CE09D
S214080F3000F10803C268128892B2944205D35B682F
S214080F405A68128892B29442F9D25A684A609160F6
S214080F508B60596008610368013303605DF8044BD1
S214080F60704700BF436882689A60836842685A6020
S214080F7003695A68824204BF82685A600022026186
S214080F801A68013A1A601868704700BF0348006874
S214080F90006880F3088862B600DF00BF08ED00E04E
S214080FA04FF0807340F8043C40F8081C002340F8D3
S214080FB00C3C40F8202C4038704700BF064B196898
S214080FC00868B0E8F00F80F309884FF0000080F357
S214080FD011884EF00D0E7047588B07204FF0805240
S214080FE0014B1A60704700BF04ED00E0EFF3118074
S214080FF04FF0A00181F311887047002008B5034B15
S2140810009847034B1A6801321A6008BDED0F0800AE
S2140810103C01072080F31188704700BF08B5044AD2
S2140810201368013B136013B90020024B984708BDAC
S2140810303C01072015100800EFF309800C4B1A68CE
S21408104020E9F00F10602DE908404FF0A00080F36B
S214081050118800F0C5FE4FF0000080F31188BDE847
S214081060084019680868B0E8F00F80F309887047E8
S214081070588B072008B54FF08052054B1A60054B71
S2140810809847054B98470020044B984708BD00BF73
S21408109004ED00E0ED0F0800911A0800151008008E
S2140810A0034A044B1A600722043B1A60704700BFC5
S2140810B01F48010014E000E010B5094B1A6842F416
S2140810C070021A601A6842F070421A60054B984718
S2140810D00024054B1C60054B9847204610BD00BFF2
S2140810E020ED00E0A11008003C0107208D0F080045
S2140810F030B4134A1368834201D21A46FAE71146F7
S21408110054681519854203D168680444546010462B
S21408111042688418A3420CD10A4C24689C4206D024
S2140811205B681A4442600B681B68036002E0036051
S21408113000E00360814218BF086030BC704700BFFB
S214081140348A0720308A072038B50446284B984743
S214081150284B1B689BB9284A284B1360002151600E
S21408116047F6F0729818234D286047F6F4755951DB
S21408117099505A601860224B1A68103A1A60002C68
S2140811802DD004F1100212F0070F1CBF22F0070240
S2140811900832511E47F6FE73994222D816490C6843
S2140811A063689A4204D9236813B121461C46F7E7B8
S2140811B0104B1B689C4216D00D68103523680B60D0
S2140811C063689B1A202B04D9A018436062600D4BF5
S2140811D098470B4B1A686168521A1A6004E0002593
S2140811E002E0002500E00025074B9847284638BD52
S2140811F0611A0800308A0720348A0720300A072038
S21408120040010720F1100800BD1B080010B5044671
S21408121068B1074B9847074B196854F80C2C0A44D2
S2140812201A60A4F11000044B9847044B984710BD69
S214081230611A080040010720F1100800BD1B0800CD
S21408124010B50446036C3BB903681BBB4068134BD8
S2140812509847002363601DE06AB980681A46104BF9
S2140812609847A268236C1344A3606268934211D31C
S2140812702368A3600EE0C0681A46094B9847226C9C
S2140812805242E3681344E36021688B4202D26368E3
S2140812901A44E260A36B0133A36310BD092108005A
S2140812A05D2E080038B5034605685DB1026CC46853
S2140812B01444C4604068844228BFDD600846D96884
S2140812C0014B984738BD00BF5D2E0800F8B50446A8
S2140812D01D4B9847A36C002B12DD636A83B104F19B
S2140812E024061A4D1A4F01E0636A4BB13046A847E8
S2140812F000B1B847A36C013BA364A36C002BF3DCD6
S2140813004FF0FF33A364134B98470F4B9847636C13
S214081310002B12DD236983B104F110060B4D0C4F28
S21408132001E023694BB13046A84700B1B847636C63
S214081330013B6364636C002BF3DC4FF0FF3363649C
S214081340044B9847F8BD00BFFD0F08001D1F080096
S214081350552008001D10080038B50D46044618B973
S214081360164B984700BFFDE7154B98472368226C35
S214081370E06B00FB02F0191861600021A163A3600E
S214081380821A1344E3604FF0FF336364A36455B9CD
S21408139023697BB104F110000A4B9847012809D14C
S2140813A0094B984706E004F11000084DA84704F1D9
S2140813B02400A847064B9847012038BDED0F0800C3
S2140813C0FD0F08001D1F0800DD0F0800E50E0800C9
S2140813D01D100800F8B50D461746064688B1502079
S2140813E00E4B9847044660B105FB06F001300B4BE0
S2140813F09847206040B92046094B984701E000BF4F
S214081400FDE7084B9847FAE7E6632564204601217E
S214081410054B984784F84D702046F8BD49110800DA
S2140814200D120800ED0F0800591308002DE9F04FBB
S21408143085B08A469B46ADF80620044618B9384B50
S214081440984700BFFDE709B9036C1BB90027354E5E
S214081450354D03E0324B984700BFFDE7B047A26B17
S214081460E36B9A4212D2204651465A462F4B98476B
S214081470636A3BB104F124002D4B9847012801D13B
S2140814802C4B9847284B9847012046E0BDF8063075
S2140814901BB9254B984700203FE01FB902A8264BEA
S2140814A098470127A847254B9847B047636CB3F180
S2140814B0FF3F04BF00236364A36CB3F1FF3F04BF80
S2140814C00023A364A84702A80DF106011C4B984701
S2140814D0E8B9B047D4F83890D4F83C80A847C14556
S2140814E00FD104F11000BDF80610164B9847204699
S2140814F0154B9847154B98470028AFD10D4B984782
S214081500ACE72046104B9847104B9847A6E720466E
S2140815100D4B98470D4B9847002005B0BDE8F08F57
S214081520ED0F0800FD0F08001D1008004112080006
S2140815301D1F0800DD0F0800A11F0800611A08001B
S214081540C91F0800711E0800CD120800BD1B080040
S2140815502DE9F0410E4615469846044618B91C4B28
S214081560984700BFFDE729B9036C1BB1184B98478D
S21408157000BFFDE7164B98470746A26BE36B9A42F7
S21408158018D2204631464246124B9847A36CB3F110
S214081590FF3F0AD1636A7BB104F124000E4B9847DB
S2140815A060B16DB101242C600BE0A36C0133A36419
S2140815B0012406E0002404E0012402E0012400E0FF
S2140815C001243846054B98472046BDE8F08100BF01
S2140815D0ED0F0800411208001D1F0800151008002E
S2140815E02DE9F04F85B089469A46ADF806200446A0
S2140815F018B9464B984700BFFDE709B9036C2BB9E5
S2140816000027434EDFF838B1424D03E03F4B98477A
S21408161000BFFDE7B047A36B002B28D0E56820463F
S21408162049463D4B9847BAF1000F12D1A36B013BD0
S214081630A363236813B9394B98476060236993B14D
S21408164004F11000364B984701280CD1354B9847C3
S21408165009E0E560636A33B104F12400304B98472B
S21408166008B1304B98472B4B984701204BE0BDF804
S21408167006301BB9274B9847002044E017B902A844
S214081680D8470127A847284B9847B047636CB3F15B
S214081690FF3F04BF00236364A36CB3F1FF3F04BF9E
S2140816A00023A364A84702A80DF106011F4B98471C
S2140816B018BBB047D4F83880A847B8F1000F16D141
S2140816C0236823B9B0476068194B9847A84704F1C0
S2140816D02400BDF80610174B98472046164B984727
S2140816E0164B9847002895D10E4B984792E7204608
S2140816F0114B9847114B98478CE720460E4B984756
S2140817000E4B9847002005B0BDE8F08FED0F080097
S214081710FD0F08001D100800A5120800612008002B
S2140817201D1F0800DD0F0800611A0800C91F080001
S2140817308D200800711E0800CD120800BD1B080089
S214081740A11F080038B504460D460D4B9847636C34
S214081750B3F1FF3F04BF00236364A36CB3F1FF3FFC
S21408176004BF0023A364074B9847A36B23B904F16F
S21408177024002946044B98472046044B984738BD12
S214081780FD0F08001D100800D51E0800CD12080021
S21408179010B504460F4B1B6898800F4B1B889BB2EE
S2140817A0984207D20D4B18680A4B196804310C4B3F
S2140817B0984710BD0B4B1868064B19680431084B40
S2140817C09847094B1B889BB29C423CBF064B1C8023
S2140817D010BD00BF588B0720748B0720788B072016
S2140817E0210F0800548A0720440107202DE9F84FE6
S2140817F00E4617469A460A9DDDF83080814618B987
S214081800624B984700BFFDE7092D03D95F4B984701
S21408181000BFFDE750205E4B98470446002800F0BE
S214081820B180B8F1000F40F0A980B800584B98472F
S214081830206318B92046574B9847A3E0A521BA005D
S214081840554B984707F18047013F236B03EB870307
S21408185023F0070B04F13400314610224F4B98470B
S214081860002384F84330092D34BF2E460926E66245
S214081870E664271D3846DFF87081C04704F1180073
S214081880C0472461C6F10A0626836462584649465C
S2140818905246434B9847206010F0070F03D03B4B47
S2140818A0984700BFFDE70B9B03B11C603D4B98476C
S2140818B03D4B1A6801321A603C4B1B682BBB3B4BEE
S2140818C01C60394B1B68012B29D1394E06F1C80913
S2140818D0DFF8E0803046C04714364E45FAD1DFF8C8
S2140818E00C914846334EB047DFF804814046B0476F
S2140818F03148B0473148B0473148B047314BC3F854
S2140819000090314BC3F8008009E0304B1B6833B9B0
S214081910264B1B68DB6A9D4224BF244B1C60E36A87
S2140819202B4A1268934284BF294A1360294A1168D1
S214081930616401311160284A1268934284BF264ABE
S214081940136003EB83031A4800EB83003946234BE6
S2140819509847234B98471D4B1B684BB1134B1B6886
S214081960DB6A9D4207D91F4B98470120BDE8F88FD0
S2140819700120BDE8F88F0120BDE8F88FC0F8308058
S21408198040465BE74FF0FF30BDE8F88FED0F0800E4
S214081990491108000D120800492F0800AD3008004C
S2140819A0A10F0800FD0F0800988B0720588B07200A
S2140819B08C8A0720E50E08005C8B0720608A0720C3
S2140819C0408A0720548A0720788B0720588A0720E1
S2140819D09C8B07207C8B0720888A0720050F080029
S2140819E01D100800DD0F0800FD0E0800808B07207C
S2140819F0748A072010B584B00023009301930293DD
S214081A0003930F480F494FF480720F4CA0470128E4
S214081A100ED10E4B984701280AD10D4B9847012244
S214081A200C4B1A6000220C4B1A800C4B984704E0AB
S214081A3018B9074B984700BFFDE704B010BD00BFB4
S214081A405D1D080070480800ED170800052208000C
S214081A50ED0F0800588A0720748B0720B910080075
S214081A60024B1A6801321A60704700BF548B072071
S214081A7010B5044B9847044B1C88A4B2034B9847F0
S214081A80204610BDFD0F0800748B07201D100800A7
S214081A902DE9F0413D4B1B68002B71D13C4B1A8851
S214081AA0013292B21A801B889BB203BB394B1B6863
S214081AB01B681BB1384B984700BFFDE7354B1968C4
S214081AC0364A106818601160354A1168013111608D
S214081AD01B681B6823B94FF6FF72324B1A8006E064
S214081AE02C4B1B68DB68DB689A882E4B1A80284BC1
S214081AF01A8892B22B4B1B889BB29A4244D3254B2A
S214081B001B681B6853B1234B1B68DB68DC68A3881B
S214081B101F4A128892B2934214D90FE04FF6FF720A
S214081B20204B1A80BDE8F0811A4B1B68DB68DC681E
S214081B30A388174A128892B2934207D9194A138083
S214081B40BDE8F081184E194FDFF86C80251D284631
S214081B50B047A36A13B104F11800B047E36A3A68BD
S214081B60934288BF3B6003EB830008EB800029465E
S214081B700F4B9847074B1B681B68002BD4D1CDE743
S214081B800C4B1A6801321A60BDE8F081548B0720A6
S214081B90748B0720548A0720ED0F0800788B0720DF
S214081BA0708B072044010720650F0800888A0720E5
S214081BB0050F08003C8A07208C8A07202DE9F84381
S214081BC0314B1B681BB9314B984700BFFDE7304BBC
S214081BD098472D4B1A68013A1A601B68002B48D1A3
S214081BE02C4B1B68002B46D00025DFF8D4802A4FE4
S214081BF02A4E1DE0D8F80C30DC6804F11800B84707
S214081C0004F104094846B847E36A3268934288BF35
S214081C10336003EB8303224800EB83004946214BDD
S214081C209847214B1B68E26ADB6A9A4228BF01255F
S214081C30D8F80030002BDDD11C4B1B6863B11B4B5A
S214081C401B687BB11A4D194CA8472368013B2360D3
S214081C502368002BF8D105E0012D03D0154B1B682F
S214081C60012B0AD10022134B1A60134B9847012404
S214081C7004E0002402E0002400E000240F4B98470C
S214081C802046BDE8F88300BF548B0720ED0F0800F8
S214081C90FD0F0800988B0720650F0800888A072024
S214081CA08C8A0720050F0800588B07203C8A0720D7
S214081CB0911A0800948B0720DD0F08001D100800F5
S214081CC05C8B072038B50C46054618B91B4B984759
S214081CD000BFFDE719B9194B984700BFFDE7184B39
S214081CE098472B881C44A4B2164A128892B293428C
S214081CF008D9A3421ED9134B1B889BB22C809C4242
S214081D0010D907E0A34213D80E4B1B889BB29C42FF
S214081D100ED80FE00C4B186804300C4B984720463A
S214081D200B4B98470B4B984730B90B4B984738BD29
S214081D302C80EFE72C80F5E738BD00BFED0F0800D4
S214081D40611A0800748B0720588B0720650F080057
S214081D5091170800BD1B0800DD0F080080B5154D5B
S214081D60154EDFF878801CE0144B9847144B1C6817
S214081D70144B9847ACB1144B9847114BDB68DC689A
S214081D80201D124B9847124B1A68013A1A602B68A6
S214081D90013B2B600F4B9847206B0F4FB8472046E8
S214081DA0B8472B68002BDFD13368012BF9D9C04719
S214081DB0F7E700BF5C8A07208C8A0720611A0800AC
S214081DC0608A0720BD1B0800FD0F0800650F080085
S214081DD0988B07201D1008000D120800DD0F08005C
S214081DE008B51D4B1B685BB91C4B1B6803EB8303CC
S214081DF09B001B4AD358CBB9184B1B6853B905E050
S214081E000122184B1A6008BD1A682AB9164B98475B
S214081E1000BFFDE7114B12491A68013A1A601A68A2
S214081E2002EB820251F82220002AEDD00B4B1B68E9
S214081E3003EB83030A4A02EB83035A6852685A6024
S214081E4003F108018A4204BF52685A605B68DA6880
S214081E50064B1A6008BD00BF548B0720888A0720E7
S214081E608C8A0720948B0720ED0F0800588B0720D4
S214081E7038B50C4618B90F4B984700BFFDE70E4D0E
S214081E80296818310D4B9847286804300C4B98473A
S214081E904FF6FF739C4205D129680A4804310A4B5D
S214081EA0984738BD094B1888204480B2084B984795
S214081EB038BD00BFED0F0800588B0720210F08001B
S214081EC0650F0800408A0720050F0800748B072056
S214081ED09117080038B50D4618B90A4B984700BF41
S214081EE0FDE7094C21681831084B984720680430EC
S214081EF0074B9847074B1888284480B2064B9847E4
S214081F0038BD00BFED0F0800588B0720050F0800E6
S214081F10650F0800748B07209117080038B5C3684A
S214081F20DC681CB9164B984700BFFDE704F1180596
S214081F302846144B9847144B1B689BB9251D284602
S214081F40104B9847E36A114A1268934284BF0F4AB7
S214081F50136003EB83030E4800EB830029460D4B02
S214081F60984703E00C4829460A4B98470B4B1B68D2
S214081F70E06ADB6A984234BF0020012038BD00BF03
S214081F80ED0F0800650F0800548B0720888A072085
S214081F908C8A0720050F08005C8B0720588B0720C3
S214081FA008B518B9054B984700BFFDE7044A1268FC
S214081FB00260044A1288828008BD00BFED0F080040
S214081FC0708B0720748B072038B50D46044618B961
S214081FD01A4B984700BFFDE719B9184B984700BF3A
S214081FE0FDE7174B98472B884FF6FF7293421CD095
S214081FF0144A116822688A4205D0134A128892B297
S214082000A188914213D9104A1188A288891A89B2E0
S2140820108B420ED90C49098889B2521A13442B8070
S21408202020460A4B9847002404E0002402E00124D6
S21408203000E00124064B9847204638BDED0F0800FF
S214082040FD0F0800708B0720748B0720A11F08005F
S2140820501D1008000122014B1A607047948B072058
S214082060014B1868704700BF588B0720054B1B6844
S21408207033B1054B1B68002B14BF022001207047A4
S21408208000207047588A0720548B072038B5044626
S21408209000282ED0C36A174A1268D26A934228D2FA
S2140820A0144A1268D26AC2F10A02028303EB830357
S2140820B0114A02EB830342699A4216D1051D284647
S2140820C00E4B98470B4B1B68DB6AE3620C4A126898
S2140820D0934284BF0A4A136003EB8303064800EB67
S2140820E083002946074B984738BD024B1B68DB6AB6
S2140820F0C36238BD588B07208C8A0720650F0800F6
S214082100888A0720050F080038B50446D0B1C26A89
S214082110C36C9A4216D0051D28460B4B9847E36CAD
S214082120E362C3F10A022283084A1268934284BF14
S214082130064A136003EB8303054800EB8300294631
S214082140044B984738BD00BF650F0800888A0720EB
S2140821508C8A0720050F080010B504468180206188
S21408216091420BD8D31A018B9BB2994211D90B4BCB
S2140821701868211D0A4B9847002010BD9A4201D2C4
S214082180994208D2074B1868211D054B984700202E
S21408219010BD012010BD012010BD00BFD48B072044
S2140821A0210F0800A08B072070B50D4B98470D4BE4
S2140821B01B688BB90C4D28460C4EB0470C4C204675
S2140821C0B0470C4B1D600C4B1C6005200C210022F0
S2140821D00A4B9847034B1860094B984770BD00BFD9
S2140821E0FD0F0800D08B0720A48B0720E50E0800FB
S2140821F0B88B0720A08B0720D48B0720D5130800A0
S2140822001D10080010B584B00B4B98470B4B1B6885
S21408221063B10923009300230193029303930848AC
S21408222008494FF40072084CA04718B9074B98475E
S21408223000BFFDE704B010BDA9210800D08B072019
S214082240652308007C480800ED170800ED0F080015
S21408225010B584B0104C2468D4B10191ADF80820AC
S214082260039073B90D4B984701280B4B186801A9C2
S21408227007BFBDF81820002300221346084CA047C5
S21408228007E0204601A91A460023064CA04700E0AE
S214082290002004B010BD00BFD08B07206D200800BA
S2140822A02D140800511508002DE9F04782B0814624
S2140822B0244B98478046244B1B88834237D9234EA5
S2140822C0234F27E0DA68B2F800A01FFA8AFADB681C
S2140822D0DC68251D2846B847636A20469847E369A0
S2140822E0012B17D1238B53449BB2534506D9A380A1
S2140822F0246130682946174B98470BE00023009363
S214082300204619465246144CA04718B9134B98470E
S21408231000BFFDE733681A68002AD3D1104A11684F
S2140823200A48016013600123C9F8003002E0002360
S214082330C9F80030044BA3F80080404602B0BDE858
S214082340F08700BF711A0800CC8B0720A08B0720E7
S214082350650F0800210F080051220800ED0F08003D
S214082360D48B07202DE9F04387B0514DDFF87081F4
S214082370504B1B681A68002A00F09080DB681E889D
S214082380B6B24D4B984703A84C4B98470746039B55
S214082390002B32D1864225D8494B9847454B1B68B7
S2140823A0DB68DC68201DC047E369012B15D1218B4B
S2140823B03144204689B23A463346424FB847012848
S2140823C00BD1002300932046194632463E4EB047AE
S2140823D018B93E4B984700BFFDE7636A2046984702
S2140823E00DE00026F11B286889B2394B9847344B14
S2140823F0984720B9374B984701E0314B984702A8D1
S2140824002E4B98470746344EDFF8B8903EE0059CBA
S2140824101CB1616909B1201DC0470399022923D060
S214082420032930D0002931D1BDF81030218B19444A
S214082430204689B23A46C847012827D1636A20460B
S2140824409847E369012B21D1228BBDF810301A4436
S214082450002300932046194692B21B4CA047A8B901
S2140824601A4B984700BFFDE7BDF8103023831BB909
S214082470164B984700BFFDE7F918204689B23A463A
S2140824803B46C84702E02046144B9847286803A9ED
S21408249000221346B0470028B9D169E7064B98478B
S2140824A003A8064B98470746039B002B99D0A4E73A
S2140824B0D08B0720A08B0720611A0800A9220800E5
S2140824C0BD1B08005921080051220800ED0F08001E
S2140824D045170800DD0F0800E11508000D12080072
S2140824E0650F080000B583B013480DF107010122F7
S2140824F0124B984772B6BFF35F8F0022104B1A70C4
S214082500104B1A7801321A700F4B1B789DF807107B
S2140825100E4AD1549B2B03D100220B4B1A7002E0B3
S2140825200133094A13700122054B1A70BFF35F8FF7
S21408253062B603B05DF804FB008009403D0608005B
S21408254034010720758C0720748C0720D88B072049
S21408255000B58BB0234B9847234B9847234B984797
S214082560234B9847234B98470B20234DA8470C200E
S214082570A8470D20A8470E20A847204E3046A84753
S2140825804FF416530493C02305934FF40063069341
S2140825900024079408941220A847304604A9184A2D
S2140825A0184B98473046184B98473046174B98476D
S2140825B004230093019402940394154815494FF494
S2140825C080722346144DA84703230093019402946F
S2140825D00394124812494FF480722346A847114BB9
S2140825E09847FEE795070800D90508001105080072
S2140825F049010800A5020800150B080000C009409C
S21408260000BD0105490C08009D0C0800A50C080033
S214082610BD03080084480800ED17080031050800C7
S2140826208C480800F519080081F0004102E000BF58
S21408263083F0004330B54FEA41044FEA430594EA75
S214082640050F08BF90EA020F1FBF54EA000C55EAB0
S214082650020C7FEA645C7FEA655C00F0E2804FEA81
S2140826605454D4EB5555B8BF6D420CDD2C4480EA63
S214082670020281EA030382EA000083EA010180EA93
S214082680020281EA0303362D88BF30BD11F0004FE1
S2140826904FEA01314FF4801C4CEA113102D0404217
S2140826A061EB410113F0004F4FEA03334CEA133352
S2140826B002D0524263EB430394EA050F00F0A7806A
S2140826C0A4F10104D5F1200E0DDB02FA0EFC22FA65
S2140826D005F2801841F1000103FA0EF2801843FA59
S2140826E005F359410EE0A5F120050EF1200E012A4A
S2140826F003FA0EFC28BF4CF0020C43FA05F3C01888
S21408270051EBE37101F0004507D54FF0000EDCF100
S214082710000C7EEB00006EEB0101B1F5801F1BD3A9
S214082720B1F5001F0CD349085FEA30004FEA3C0CAD
S21408273004F101044FEA445212F5800F80F09A80A3
S214082740BCF1004F08BF5FEA500C50F1000041EBA7
S214082750045141EA050130BD5FEA4C0C404141EBAB
S214082760010111F4801FA4F10104E9D191F0000FD2
S21408277004BF01460020B1FA81F308BF2033A3F155
S2140827800B03B3F120020CDA0C3208DD02F1140C4C
S214082790C2F10C0201FA0CF021FA02F10CE002F187
S2140827A01402D8BFC2F1200C01FA02F120FA0CFC80
S2140827B0DCBF41EA0C019040E41AA2BF01EB0451C9
S2140827C0294330BD6FEA04041F3C1CDA0C340EDCC7
S2140827D004F11404C4F1200220FA04F001FA02F30A
S2140827E040EA030021FA04F345EA030130BDC4F1C8
S2140827F00C04C4F1200220FA02F001FA04F340EABD
S2140828000300294630BD21FA04F0294630BD94F06D
S214082810000F83F4801306BF81F480110134013D54
S2140828204EE77FEA645C18BF7FEA655C29D094EAC5
S214082830050F08BF90EA020F05D054EA000C04BF43
S2140828401946104630BD91EA030F1EBF002100202E
S21408285030BD5FEA545C05D14000494128BF41F0CD
S214082860004130BD14F580043CBF01F5801130BD31
S21408287001F0004545F0FE4141F470014FF00000BC
S21408288030BD7FEA645C1ABF194610467FEA655C6D
S2140828901CBF0B46024650EA013406BF52EA03350F
S2140828A091EA030F41F4002130BD00BF90F0000FFD
S2140828B004BF0021704730B54FF4806404F1320439
S2140828C04FF000054FF0000150E700BF90F0000FF2
S2140828D004BF0021704730B54FF4806404F1320419
S2140828E010F0004548BF40424FF000013EE700BFE9
S2140828F042004FEAE2014FEA31014FEA02701FBF79
S21408290012F07F4393F07F4F81F06051704792F04A
S214082910000F14BF93F07F4F704730B54FF46074C4
S21408292001F0004521F0004120E700BF50EA01020F
S21408293008BF704730B54FF000050AE050EA0102BC
S21408294008BF704730B511F0004502D5404261EB2C
S21408295041014FF4806404F132045FEA915C3FF46D
S214082960DCAE4FF003025FEADC0C18BF03325FEA06
S214082970DC0C18BF033202EBDC02C2F1200300FABB
S21408298003FC20FA02F001FA03FE40EA0E0021FAE0
S21408299002F11444C1E600BF70B54FF0FF0C4CF4CA
S2140829A0E06C1CEA11541DBF1CEA135594EA0C0F80
S2140829B095EA0C0F00F0DEF82C4481EA030621EABB
S2140829C04C5123EA4C5350EA013518BF52EA0335F6
S2140829D041F4801143F4801338D0A0FB02CE4FF0A8
S2140829E00005E1FB02E506F00042E0FB03E54FF0D8
S2140829F00006E1FB03569CF0000F18BF4EF0010ED0
S214082A00A4F1FF04B6F5007F64F5407404D25FEACB
S214082A104E0E6D4146EB060642EAC62141EA55517E
S214082A204FEAC52040EA5E504FEACE2EB4F1FD0CC0
S214082A3088BFBCF5E06F1ED8BEF1004F08BF5FEA3E
S214082A40500E50F1000041EB045170BD06F00046F0
S214082A5046EA010140EA020081EA0301B4EB5C049D
S214082A60C2BFD4EB0C0541EA045170BD41F4801195
S214082A704FF0000E013C00F3AB8014F1360FDEBFBA
S214082A80002001F0004170BDC4F10004203C35DA96
S214082A900C341BDC04F11404C4F1200500FA05F319
S214082AA020FA04F001FA05F240EA020001F00042BA
S214082AB021F0004110EBD37021FA04F642EB060130
S214082AC05EEA430E08BF20EAD37070BDC4F10C045A
S214082AD0C4F1200500FA04F320FA05F001FA04F21E
S214082AE040EA020001F0004110EBD37041F100010A
S214082AF05EEA430E08BF20EAD37070BDC4F1200515
S214082B0000FA05F24EEA020E20FA04F301FA05F27C
S214082B1043EA020321FA04F001F0004121FA04F224
S214082B2020EA020000EBD3705EEA430E08BF20EAF4
S214082B30D37070BD94F0000F0FD101F0004640002E
S214082B4041EB010111F4801F08BF013CF7D041EAB0
S214082B50060195F0000F18BF704703F000465200B4
S214082B6043EB030313F4801F08BF013DF7D043EA85
S214082B700603704794EA0C0F0CEA135518BF95EA3B
S214082B800C0F0CD050EA410618BF52EA4306D1D1C2
S214082B9081EA030101F000414FF0000070BD50EAE1
S214082BA0410606BF1046194652EA430619D094EA6B
S214082BB00C0F02D150EA013613D195EA0C0F05D155
S214082BC052EA03361CBF104619460AD181EA0301A9
S214082BD001F0004141F0FE4141F470014FF0000061
S214082BE070BD41F0FE4141F4780170BD70B54FF0FC
S214082BF0FF0C4CF4E06C1CEA11541DBF1CEA13557C
S214082C0094EA0C0F95EA0C0F00F0A7F8A4EB05045D
S214082C1081EA030E52EA03354FEA013100F0888054
S214082C204FEA03334FF0805545EA131343EA12631D
S214082C304FEA022245EA111545EA10654FEA0026D2
S214082C400EF000419D4208BF964244F1FD0404F58B
S214082C50407402D25B084FEA3202B61A65EB0305E7
S214082C605B084FEA32024FF480104FF4002CB6EBA4
S214082C70020E75EB030E22BFB61A754640EA0C0024
S214082C805B084FEA3202B6EB020E75EB030E22BF64
S214082C90B61A754640EA5C005B084FEA3202B6EBA5
S214082CA0020E75EB030E22BFB61A754640EA9C0064
S214082CB05B084FEA3202B6EB020E75EB030E22BF34
S214082CC0B61A754640EADC0055EA060E18D04FEAF2
S214082CD0051545EA16754FEA06164FEAC30343EA92
S214082CE052734FEAC2025FEA1C1CC0D111F4801F5F
S214082CF00BD141EA00014FF000004FF0004CB6E758
S214082D0011F4801F04BF01430020B4F1FD0C88BFF6
S214082D10BCF5E06F3FF6AFAEB5EB030C04BFB6EB01
S214082D20020C5FEA500C50F1000041EB045170BDF4
S214082D300EF0004E4EEA113114EB5C04C2BFD4EB21
S214082D400C0541EA045170BD41F480114FF0000EA5
S214082D50013C90E645EA060E8DE60CEA135594EA21
S214082D600C0F08BF95EA0C0F3FF43BAF94EA0C0F24
S214082D700AD150EA01347FF434AF95EA0C0F7FF499
S214082D8025AF104619462CE795EA0C0F06D152EAED
S214082D9003353FF4FDAE1046194622E750EA4106D1
S214082DA018BF52EA43067FF4C5AE50EA41047FF4E2
S214082DB00DAF52EA43057FF4EBAE12E74FEA410245
S214082DC012F5001215D211D56FF47873B3EB625270
S214082DD012D94FEAC12343F0004343EA505311F097
S214082DE0004F23FA02F018BF404270474FF0000029
S214082DF0704750EA013005D111F0004008BF6FF067
S214082E00004070474FF00000704700BF70B50F4E87
S214082E100F4D761BB61007D0043D0024013455F834
S214082E20043F9847A642F9D10A4E0B4D01F038FDEB
S214082E30761BB61008D0043D0024013455F8043F2C
S214082E409847A642F9D170BD70BD00BFAC480800CF
S214082E50AC480800B4480800AC480800844641EA74
S214082E60000313F0030349D1403A23D30B680360E9
S214082E704B6843608B688360CB68C3600B690361EB
S214082E804B6943618B698361CB69C3610B6A0362D3
S214082E904B6A43628B6A8362CB6AC3620B6B0363BB
S214082EA04B6B43638B6B8363CB6BC36340304031A0
S214082EB0403ADBD230320BD30B6803604B68436072
S214082EC08B688360CB68C36010301031103AF3D239
S214082ED00C3205D351F8043B40F8043B043AF9D2C7
S214082EE0043208D0D2071CBF11F8013B00F8013B9A
S214082EF001D30B8803806046704700BF082A13D3A7
S214082F008B07B1D010F00303AED0C3F10403D21A76
S214082F10DB071CBF11F8013B00F8013BA4D331F8CE
S214082F20023B20F8023B9FE7043AD9D3013A11F84E
S214082F30013B00F8013BF9D20B7803704B784370DD
S214082F408B78837060467047F0B4840743D0541E6D
S214082F50002A3ED0CDB2034603E0621E002C38D0CD
S214082F60144603F8015B9A07F7D1032C2AD9CDB289
S214082F7045EA05250F2C45EA054515D9A4F110079D
S214082F803F0903F1100606EB07161A46156055604A
S214082F909560D5601032B242F8D104F00F040137BC
S214082FA0032C03EB07130DD91E462246043A032AC0
S214082FB046F8045BFAD8221F22F0030204321344B0
S214082FC004F003042CB1C9B21C4403F8011BA34245
S214082FD0FBD1F0BC704714460346C6E7F0B5044676
S214082FE089B008460D4600F031F8A36802219A8990
S214082FF0DFF844E000F1010C012704AE02919104C9
S21408300004950590CDF80CC0CDF818E00797019602
S21408301006D4596E42F4005221F400519A8159663A
S2140830202046194601AA00F055FB00280CBF0A20C6
S2140830304FF0FF3009B0F0BD6C480800024B01465F
S2140830401868FFF7CBBF00BF7005072020F0030104
S21408305010F00300C0F1000051F8043B00F1040C26
S2140830604FEACC0C6FF000021CBF22FA0CF2134396
S2140830704FF0010C4CEA0C2C4CEA0C4CA3EB0C025F
S21408308022EA030212EACC1204BF51F8043B0430C9
S214083090F4D013F0FF0F1FBF013013F47F4F013039
S2140830A013F47F0F18BF0130704700BF40EA0103D2
S2140830B09B0770B42AD1032A28D90C460346214612
S2140830C054F8045BA5F1013626EA050616F0803F9B
S2140830D005D1043A032A43F8045B2146EFD89AB18F
S2140830E00C78013A1C7001333CB16AB111F8014FF3
S2140830F0013A03F8014B002CF7D12AB11A440021F3
S21408310003F8011B9342FBD170BC70470346E6E701
S2140831102F4B70B5064618680C4610B1826B002A0D
S21408312036D0A589ABB219070CD52269AAB113F017
S21408313001011ED0636900215B42A361A160F2B160
S214083140002070BDDA063AD55B0724D4226945F01C
S2140831500803A3819BB2002AE9D103F42071B1F5D4
S214083160007FE4D03046214600F064FCA38922693B
S214083170DDE7980758BF6169A160002AE0D1A389F6
S2140831801A06DDD543F04003A3814FF0FF3070BD2B
S21408319000F0F0F8C5E7216B49B104F14003994205
S2140831A003D0304600F0CAF9A589002323632269B4
S2140831B025F024050021ADB222606160C7E745F01E
S2140831C04005092333604FF0FF30A58170BD00BF6E
S2140831D070050720024B13B1024800F005B8704787
S2140831E0000000007134080001460020024603462D
S2140831F001F030BA8B892DE9F0419AB20D461107D5
S21408320080463CD46A6843F40063002AAB8159DDE3
S214083210AC6A002C4BD09BB203F48052002192B2C9
S214083220D8F80060C8F80010002A4FD02A6D5F074B
S21408323005D569682B6B521A0BB1EB6BD21A404650
S214083240E9690023A047441C4AD0AB892A6923F4BD
S21408325000639BB200212A60DA04AB8169604CD413
S214083260296BC8F8006011B305F14003994202D0F3
S214083270404600F063F900202863BDE8F0812E6917
S214083280AEB191072C680CBF6B6900232E60A41B97
S214083290AB600AE0324623466F6A4046E969B8479B
S2140832A00028C0EB0404064404DD002CF2DC0020F1
S2140832B0BDE8F081AB894FF0FF3043F04003AB81A7
S2140832C0BDE8F081EA6B002AA2DCF0E7012340465D
S2140832D0E969A047431C02461ED0AB89AC6AA6E73C
S2140832E0D8F800305BB9AA89296922F4006292B23C
S2140832F06B60D304AA812960B2D52865B0E71D2B78
S21408330001D0162B13D1A9892B6921F4006100225C
S214083310A9812B606A60A3E7D8F80030002BDCD0C0
S2140833201D2B01D0162BC5D1C8F80060BFE7AB89A6
S21408333043F04003AB81BDE8F08100BF10B50446FA
S21408334082B008B1836B53B1B1F90C0008B902B06A
S21408335010BD204602B0BDE81040FFF74BBF0191F4
S21408336000F008F80199EFE7014900F03FBB00BFFD
S214083370A14708002DE9F04F846B83B00746002C60
S21408338065D17D6833480423032107F53B72F8634B
S214083390C7F8E412C7F8E822C7F8E04205F15C006F
S2140833A0AB812C606C60AC606C66EC812C616C61E7
S2140833B0AC6121460822FFF7C7FDDFF89CB0BE685F
S2140833C0DFF898A0DFF89890DFF8988001230922A4
S2140833D0ED61C5F820B0C5F824A0C5F82890C5F852
S2140833E02C802146F381B28134607460B4607466C0
S2140833F034617461B461082206F15C000193FFF73A
S214083400A3FDFD6812200222F661C6F820B0C6F8B1
S21408341024A0C6F82890C6F82C802146A881EA8100
S2140834202C606C60AC606C662C616C61AC6105F1FC
S2140834305C000822FFF788FD019BED61C5F820B007
S214083440C5F824A0C5F82890C5F82C80BB6303B03F
S214083450BDE8F08F69330800A9450800CD45080087
S2140834600546080025460800704700BF704700BF9D
S21408347038B5094D094C641BA41018BF05EB840524
S21408348005D0013C55F8043D9847002CF9D1BDE815
S214083490384001F00FBA00BFC0480800C44808000A
S2140834A0F8B5234D0F46044600F088FEAB685E6804
S2140834B026F00306F11B01F6EF7121F47F6121F077
S2140834C00F01A1F58057B7F5805F07DB204600217E
S2140834D001F058F8AB683344984204D0204600F010
S2140834E06FFE0020F8BD2046794201F04BF8013007
S2140834F00DD0104BAA681968F61B46F00106204640
S214083500C91B5660196000F05BFE0120F8BD204616
S214083510002101F037F8AB68C21A0F2ADEDD064D27
S21408352004492D6842F00102401B5A600860D5E73E
S21408353074050720848C0720800907202DE9F041B0
S2140835400D460646002955D000F038FE55F8041CEE
S214083550DFF870C1A5F1080421F00103E218DCF8D1
S21408356008005768904227F0030768D011F0010159
S214083570576032D00021D0194068C00706D43B44B3
S214083580906800294DD0D268C260906043F001026E
S2140835906260E350E1B9B3F5007F2DD35A0A042AD6
S2140835A069D89809383041000CEB810CDCF8082003
S2140835B04449624565D0516821F003018B4202D226
S2140835C092689445F7D1D368E360A2609C60D460A3
S2140835D03046BDE8F04100F0F3BD55F8085C0CF144
S2140835E00808641BA0682B44404542D0E568C560BF
S2140835F0A860C0E7BDE8F081DB089A10012090407B
S214083600DCF804100CEBC3039A680143A260E3607D
S214083610CCF8041030469C60D460BDE8F04100F059
S214083620CFBD294DA842AED143F00102CCF81440D4
S214083630CCF81040E060A0606260E350C8E71F4422
S214083640CB0707D455F8081C641AE368A2680F4429
S214083650D3609A601D4B47F001021B6862609F4268
S214083660CCF80840B4D31A4B30461968FFF718FF51
S214083670AEE701217FE7142A0BD802F15B00410070
S21408368092E780100125854048681346284348601D
S2140836909AE7542A03D8180B6E30410084E7B2F52F
S2140836A0AA7F03D8D80B773041007DE740F2545103
S2140836B08A4203D8980C7C30410075E7FC217E20AE
S2140836C072E700BF740507207C0507207C090720E1
S2140836D0808C07202DE9F04F936883B01646814604
S2140836E00C462BB38B89190726D5226922B303F01B
S2140836F0020292B23568002A2CD04FF0000ADFF892
S214083700E8B2D046D84534BF43465B46524648469C
S214083710B8F1000F4FD0E169676AB847002856DD50
S214083720B36882441B1AC0EB0808B360002BE9D1C3
S214083730002003B0BDE8F08F48462146FFF7E8FCB6
S214083740002840F04881A389356803F0020292B247
S214083750002AD2D113F0010A42D1D046B8F1000FA0
S21408376023D09A05A76876D5B845C0F0A48013F488
S214083770906F40F0B2802068BB4651465A4600F02B
S214083780B7FCA2682168D21B01EB0B03A26023607A
S2140837904246B36892449B1AC2EB0808B360002BF3
S2140837A0C6D0A389B8F1000FDBD1D5F800A0D5F8AC
S2140837B004800835D2E7D5F800A0D5F80480083587
S2140837C0A0E748462146FFF7B9FD002859D0A38947
S2140837D043F040034FF0FF30A38103B0BDE8F08FFD
S2140837E09246019293469046B8F1000F2BD0019F5F
S2140837F0002F64D020682169C24534BF534643462B
S21408380088421F46D4F808C0626903D994446345C1
S21408381000F3AE80934236DB1346676A4846E16992
S2140838205A46B847071ED2DDBAEB070A3AD0B3683D
S214083830BB44DB1BC7EB0808B360002B3FF478AF2C
S214083840B8F1000FD3D10027D5F800B0D5F804801A
S21408385001970835C8E720682369984202D8636943
S214083860984572D2B84538BF47463A46514600F0A2
S2140838703FFCA3682268DB1B3A44A3602260002B47
S2140838809FD03A4685E71A465946009300F030FC22
S214083890009BA1682268C91ABAEB070A1344A160FC
S2140838A02360C4D148462146FFF748FD00288ED13C
S2140838B0CDF804A0BBE720684746C3465DE75846F0
S2140838C00A21424600F0CAFB00287FD000F1010A10
S2140838D00127CBEB0A0A01978CE7226821696769FA
S2140838E0C1EB020C07EB47070CF1010207EBD77791
S2140838F042447F10974234BF17463A465B054FD579
S21408390011464846CDF800C000F00CF9DDF800C0B6
S2140839108346002862D062462169CDF800C0FFF7CA
S2140839209DFAA289DDF800C022F4906242F0800277
S214083930A2810BEB0C00CCEB0702C4F810B0676151
S2140839402060A2604746C34617E76FF000429045DE
S21408395038BF424692FBF3F202FB03F3676A484617
S214083960E1695246B84700287FF731AF024610E7AC
S21408397062465946CDF800C000F0BAFBDDF800C034
S21408398023684846634423602146CDF800C0FFF705
S214083990D5FCDDF800C000287FF419AF674643E77A
S2140839A04846CDF800C000F00DFCDDF800C08346A0
S2140839B00028BED148462169FFF7C0FDA3890C221E
S2140839C023F080039BB2C9F8002001E7012708F11D
S2140839D0010A01970EE74FF0FF30AAE60C23C9F854
S2140839E00030A389F4E600BF00FCFF7F2DE9F04114
S2140839F010F53877884619D000267D68BC68013DE2
S214083A000ED4A389013D012B06D9B4F90E30204601
S214083A10013301D0C04706436B1C04F16804F0D19B
S214083A203F68002FE9D13046BDE8F0813E46304673
S214083A30BDE8F081F0B58B8991B09AB296070C462E
S214083A40054637D4B1F90E10002917DB01AA00F095
S214083A50AFFE002810DB029B03F47043B3F5005159
S214083A604F424F41B3F5004F2CD0A3894FF48066E0
S214083A7043F40063A3810BE0A3899AB212F0800F87
S214083A8043F40063A38114BF40264FF480660027E2
S214083A902846314600F046F8A389002829D01B4A54
S214083AA043F08003EA63A381206020616661A7B9BA
S214083AB011B0F0BD01F1430301220B600B614A61AE
S214083AC011B0F0BD124AA36A9342CED1A3894FF42F
S214083AD080663343A381E664DAE72846B4F90E1015
S214083AE000F07AFE0028E3D0A38943F00103A381FF
S214083AF0DEE79A05DCD404F1430243F00203012111
S214083B00A381226022616161D2E700BF69330800A1
S214083B1005460800024B0146186800F003B800BFC7
S214083B20700507202DE9F04F01F10B05162D83B01F
S214083B30064627D935F0070527D4A94225D83046A2
S214083B4000F03CFBB5F5FC7F26D2C14F4FEAD50CFA
S214083B5007EBCC03DC689C4200F0D2816368E2681D
S214083B6023F0030323445868A16840F00105CA609F
S214083B70304691605D6000F023FB0834204603B0B1
S214083B80BDE8F08F1025A942D9D900240C23204679
S214083B90336003B0BDE8F08F5FEA552C00F08980EB
S214083BA0BCF1040F00F260814FEA951C0CF1380C4A
S214083BB04FEA4C01A64F07EB8101CC68A14205D11C
S214083BC00CE0002B79DAE468A14207D0626822F09C
S214083BD00302531B0F2BF4DD0CF1FF3C0CF1010C18
S214083BE09B4B3C6903F1080E744500F07E816168C2
S214083BF021F003014A1B0F2A00F36481002AC3F848
S214083C0014E0C3F810E069DAB1F5007F80F03A8175
S214083C10C9088A104FF0010808FA02F803EBC10138
S214083C205A68886848EA0202A060E1605A608C60B8
S214083C30C4604FEAAC030120984090425BD8024229
S214083C4006D12CF0030C400002420CF1040CFAD00A
S214083C5007EBCC084446E146E3689C4207D146E1B8
S214083C60002A80F25781DB689C4200F04081596840
S214083C7021F003014A1B0F2AF2DD1C4654F808CF30
S214083C80D96845F0010942F001081D44C3F80490BC
S214083C903046CCF80C10C1F808C07D613D61C5F807
S214083CA00CE0C5F808E0C5F80480AA5000F088FAC9
S214083CB064E77E214FF03F0C7CE722445068E368B7
S214083CC0A16840F00105CB6030469960556000F069
S214083CD077FA0834204603B0BDE8F08F21444B68D5
S214083CE0304643F001034B6000F06AFA0834204679
S214083CF003B0BDE8F08FBC68636823F00309A945E4
S214083D0004D3C5EB09030F2B00F39180514B524A9D
S214083D101968136805EB010A013304EB090B00F078
S214083D2061810AF5805A0AF10F0A2AF47F6A2AF096
S214083D300F0A30465146019200F024FCB0F1FF3FCE
S214083D408046019A00F00181834500F2FB80DFF887
S214083D5014C1C345DCF800305344CCF8003000F0FA
S214083D604A8112683C4901321BBFCBEB080B5B4407
S214083D70C1F80080CCF8003018F0070300F0148172
S214083D80C3F10802C3F5805390440833C244CAF30B
S214083D900B0ACAEB030A51463046CDF804C000F0B9
S214083DA0F1FB431CDDF804C000F03581C8EB0002C7
S214083DB0524442F00102DCF80030BC425344C7F8D3
S214083DC00880CCF80030C8F80420DFF898A015D092
S214083DD0B9F10F0F40F2EB806168A9F10C0222F0EE
S214083DE0070201F0010142EA010E0520A1180F2A78
S214083DF0C4F804E04860886000F21181174ABC687D
S214083E0011688B4288BF1360154A11688B4288BFB9
S214083E101360626822F003029542C5EB020301D8DC
S214083E200F2B04DC304600F0CBF90024A6E645F05C
S214083E30010243F00103254462603046BD606B60B2
S214083E4000F0BEF90834204603B0BDE8F08F00BF86
S214083E5074050720808C0720800907207C8C0720A3
S214083E60788C0720848C0720BCF1140F61D9BCF12C
S214083E70540F00F28F804FEA153C0CF16E0C4FEA97
S214083E804C0197E64B0A042B58D9142B00F2AD8048
S214083E9003F15B02500007EB80008368DFF8B88107
S214083EA0834200F08A805A6822F00302914202D2C6
S214083EB09B689842F7D1D9687A68E160A3608C60FD
S214083EC0DC60B6E645F0010742F00101254467606C
S214083ED030465D611D61C5F80CE0C5F808E069600C
S214083EE0AA50083400F06CF948E65A68A1E609F1C9
S214083EF0010919F0030F04F108047FF4ADAE2DE0B4
S214083F0004F108036469A34208BF0CF1020C3FF4ED
S214083F1067AE23E6194448681C4654F8082FDB6841
S214083F2040F001054D603046D3609A6000F048F9CD
S214083F3024E60CF15B0C4FEA4C013BE68A09383262
S214083F405000A8E7BC423FF402AFBC68626822F0A3
S214083F50030261E7D8F8008098457AD11CF0030F71
S214083F60A8F108030CF1FF3CF4D17B6823EA0003B0
S214083F707B60400098423FF6BEAE00283FF4BBAEDA
S214083F800342CC467FF464AE400003420CF1040CB6
S214083F90FAD05DE6BCF5AA7F19D84FEAD53C0CF1F5
S214083FA0770C4FEA4C0105E64FF48053EEE6012302
S214083FB0C8F80430444600222EE7921001209040AC
S214083FC0D8F8042019460243C8F8042075E740F2DA
S214083FD054539C451BD84FEA954C0CF17C0C4FEA81
S214083FE04C01E7E50AF1100AA3E6542B1FD80A0B82
S214083FF06E3250004FE7CBF30B0100297FF4B1AEC9
S2140840000AEB0901BA6841F001015160F6E6FC21A5
S2140840104FF07E0CCEE501224FF0000ACBE604F105
S21408402008013046FFF78AFADAF80030E6E6B3F514
S214084030AA7F03D8CA0B773250002CE740F25452B6
S214084040934203D88A0C7C32500024E7FC207E2258
S21408405021E77B688DE700BF74050720830770B4E7
S214084060C9B240D0541E2AB303788B4223D0431CCF
S21408407004E0FCB1057814468D421CD013F0030FFB
S214084080184604F1FF3203F10103F2D1032C14D8C9
S214084090651E54B303788B420DD0421C002302E001
S2140840A004788C4207D0AB42104603F1010302F1B4
S2140840B00102F5D1002070BC704741EA012603468C
S2140840C046EA06461A6818467240A2F1013525EAFD
S2140840D0020212F0803F03F10403D9D1043C032CFA
S2140840E01846EFD8D4E71446D0E72046E3E700BFE3
S2140840F08842F0B410D98C18A0420DD28518531EE9
S21408410042B121462A4611F8014D013B02F8014DFD
S2140841105C1CF8D1F0BC70470F2A44D940EA01036A
S2140841209B0744D1A2F110073F0900EB071610368B
S2140841300C4603462568103343F8105C656810344F
S21408414043F80C5C54F8085C43F8085C54F8045CC4
S21408415043F8045CB342EDD17B1C02F00F0C1B0144
S214084160BCF1030F1944034423D90E461D46644682
S21408417056F8047B043C032C45F8047BF8D8ACF1CD
S214084180040424F00304043402F003022344214404
S214084190002ABFD01A4411F8014B03F8014B93428A
S2140841A0F9D1F0BC70470346002AF3D1B2E70346BC
S2140841B0F0E76246002AEDD1ACE700BF704700BFC3
S2140841C0704700BF2DE9F04F0C4683B090468146F5
S2140841D0002900F0BA80FFF7F1FF08F10B0654F843
S2140841E0043C162E23F00305A4F108074BD810212B
S2140841F00E46B0454CD88D4251DADFF884B37819AC
S214084200DBF808E0864500F0A680426822F0010C3C
S2140842108444DCF804C01CF0010F54D00022104679
S214084220DB076FD454F8083CC3EB070ADAF8043007
S21408423023F003032B44002862D0704500F0E98081
S21408424002EB030E8E455BDBC3688268D046D360FC
S2140842509A6058F8081FDAF80C302A1F242ACB6010
S214084260996000F22381132A40F2B08023681B2A43
S214084270CAF808306368CAF80C3000F22B81083494
S2140842800AF11003A3E026F00706002E3146B0DA3E
S2140842900C230020C9F8003003B0BDE8F08FA04614
S2140842A0AA1B0F2A03F001031AD82B437B603D4450
S2140842B06B6843F001036B604846FFF781FF404692
S2140842C003B0BDE8F08F22F0030202EB050C8C4524
S2140842D0A6DBC2688168A046CA6065469160DFE7CB
S2140842E0B919334342F001007B600A4448605368BA
S2140842F0083143F0010353604846FFF71FF9DBE730
S2140843008B4233DA41464846FFF70CFC80460028C5
S214084310D2D054F8043CA0F1080123F001023A4434
S214084320914200F0BC802A1F242A6ED8132A42D84D
S21408433003462246116819605168596092689A6067
S21408434021464846FFF7FAF8B6E7114603B0BDE837
S214084350F04FFFF7E7BBDEF8042006F1100C22F05A
S2140843600302501960453DDA704659E7D04658F8BA
S214084370080FDAF80C102A1F242AC160886000F299
S214084380A080132A40F29B8021681B2ACAF80810CE
S2140843906168CAF80C1000F2B28008340AF11002FC
S2140843A021681D461160616857465160A36893608E
S2140843B0DAF8043074E723681B2A036063684360EE
S2140843C062D800F1080304F10802B3E743462268FE
S2140843D075461A60626857465A60A2689A60DAF8A4
S2140843E004305DE7831B374443F00103CBF80870BD
S2140843F07B6054F8043C484603F001031E4344F827
S214084400046CFFF7DDFE20465AE72146FFF770FEEC
S21408441096E702EB030C06F110029445FFF670AF20
S214084420574657F8081FDAF80C302A1F242ACB609C
S214084430996000F28680132A77D923681B2ACAF85F
S21408444008306368CAF80C3000F2848008340AF131
S214084450100322681A6062685A60A2689A60C6EBFF
S2140844600C020AEB060342F00102CBF808305A6049
S214084470DAF80430484603F001031E43CAF804601D
S214084480FFF79EFE38461BE7A368242A8360E36886
S214084490C3602BD000F1100304F110024AE750F86D
S2140844A0042CA04622F003021544F9E621464046AD
S2140844B075465746FFF71CFEDAF80430F0E6424623
S2140844C06EE7214640461D465746FFF711FEDAF8C6
S2140844D00430E5E6A368242ACAF81030E368CAF868
S2140844E0143018D010340AF1180370E7226900F166
S2140844F018030261616904F1180241611AE7A168AC
S214084500242ACAF81010E168CAF814100FD010341C
S2140845100AF1180244E722690AF12003CAF81820AB
S21408452062691834CAF81C2051E73B4691E72169AE
S2140845300AF12002CAF8181061691834CAF81C1063
S2140845402EE721463846CDF804C0FFF7D1FDDDF842
S21408455004C084E7A368242ACAF81030E368CAF8B7
S214084560143003D010340AF1180372E722690AF1EE
S2140845702003CAF8182062691834CAF81C2068E7AD
S2140845807405072038B5074C0023054608462360FF
S214084590FCF780FC431C00D038BD2368002BFBD0FA
S2140845A02B6038BDC88C072010B50C46B1F90E1024
S2140845B000F038F9002803DB236D0344236510BD9B
S2140845C0A38923F48053A38110BD00BF2DE9F041D1
S2140845D00C4689891D46CB051646074606D5B4F906
S2140845E00E100022022300F009F9A18921F4805157
S2140845F0A1813846B4F90E1032462B46BDE8F04184
S21408460000F014B810B50C46B1F90E1000F0F6F824
S214084610A389421C0EBF23F4805343F480532065BD
S214084620A38110BDB1F90E1000F068B870B5084C3B
S21408463006460025084611461A462560FCF780F807
S214084640431C00D070BD2368002BFBD0336070BDC0
S214084650C88C0720F0B5274C85B026680746D6F8DC
S2140846604841002C40D065681F2D1EDD224818B929
S2140846704FF0FF3005B0F0BD4FF4C87003910292BA
S2140846800193FFF747FA03990446029A019B00280C
S214084690EED0D6F848510020256060600546C6F87A
S2140846A04841C4F88801C4F88C013FB96B1C002047
S2140846B00235636044F8251005B0F0BD0126AE400B
S2140846C004EB8500C0F88820D4F88821022F42EA37
S2140846D00602C4F88821C0F80831E7D1D4F88C312E
S2140846E01E43C4F88C61E1E706F5A674C6F848418F
S2140846F0B9E700BF9C480800153B080038B5074CCA
S2140847000023054608462360FCF7DEFB431C00D062
S21408471038BD2368002BFBD02B6038BDC88C07201B
S21408472070B50C46054631B110B1836B002B2FD0FF
S214084730B4F90C300BB9002070BD28462146FEF7A8
S214084740FDFDE36A064633B12846E1699847002826
S214084750B8BF4FF0FF36A3891B061CD4216B41B1A6
S21408476004F14003994202D02846FEF7E7FE0023EC
S2140847702363616C21B12846FEF7E0FE00236364DC
S214084780FEF772FE0023A381FEF770FE304670BD6A
S214084790FEF7F0FDCCE728462169FEF7CFFEDDE7F9
S2140847A0024B01461868FFF7BBBF00BF700507201D
S2140847B038B5084C00230546084611462360FCF722
S2140847C087FB431C00D038BD2368002BFBD02B602A
S2140847D038BD00BFC88C072038B5074C00230546EF
S2140847E008462360FCF77AFB431C00D038BD2368D4
S2140847F0002BFBD02B6038BDC88C072070B5084C42
S21408480006460025084611461A462560FCF768FB4A
S214084810431C00D070BD2368002BFBD0336070BDEE
S214084820C88C072070B5084C064600250846114671
S2140848301A462560FBF764FF431C00D070BD23684A
S214084840002BFBD0336070BDC88C07205461736B97
S2140848502053454E534F525252525200257309095F
S21408486025630925750925750925750D0A000000B3
S21408487049444C45000000000D0A0000546D7220A3
S214084880537663004D6F746F72000000536F756E39
S2140848906473656E736F720043000000480107205A
S2140848A0F8B500BFF8BC08BC9E467047D53108006E
S2140848B019010800F8B500BFF8BC08BC9E4670474A
S2080848C0F5000800EA
S2140848C44FF48063204A136002F5007213601F4B8E
S2140848D41B6A13F0807F07D11D4A1C4B1A621A46BE
S2140848E4936E13F0010FFBD01A4A184B1A621A4635
S2140848F4936E13F4803FFBD0144B1A6B22F003021A
S21408490442F001021A631A46936E13F0080FFBD09E
S214084914114A0E4B9A621A46936E13F0020FFBD096
S21408492411220A4B1A631A46936E13F0080FFBD02B
S2140849341222064B1A631A46936E13F0080FFBD01E
S214084944064A074B1A607047000A0E4000060E40D7
S2140849540908370009083701013F0D2000BD010585
S214084964380107201B4B984206D800231A4A1360BE
S21408497402F5007213607047184B984207D84FF434
S2140849848073154A136002F5007213607047144B5F
S214084994984207D84FF400730F4A136002F5007262
S2140849A4136070470F4B984207D84FF440730A4A6F
S2140849B4136002F50072136070470B4B984294BF5D
S2140849C44FF480634FF4A063034A136002F5007241
S2140849D413607047BFEA2101000A0E407FF0FA020E
S2140849E4FF8FD003FFB3C4047F4A5D0504000000AC
S2140849F4720600000100000000093D00AAAAAAAA3F
S214084A0400800000FFFF00000000000034040720B8
S214084A149C0407200405072000000000000000008E
S214084A240000000000000000000000000000000075
S214084A34000000000000000000000000984808007D
S214084A440000000000000000000000000000000055
S214084A540000000000000000000000000000000045
S214084A640000000000000000000000000000000035
S214084A740000000000000000000000000000000025
S214084A840000000000000000000000000000000015
S214084A940000000000000000000000000000000005
S214084AA400000000000000000000000000000000F5
S214084AB401000000000000000E33CDAB34126DE692
S214084AC4ECDE05000B0000000000000000000000FB
S214084AD400000000000000000000000000000000C5
S214084AE400000000000000000000000000000000B5
S214084AF400000000000000000000000000000000A5
S214084B040000000000000000000000000000000094
S214084E344801072000000000000000007405072051
S214084E44740507207C0507207C05072084050720B1
S214084E54840507208C0507208C0507209405072061
S214084E64940507209C0507209C050720A405072011
S214084E74A4050720AC050720AC050720B4050720C1
S214084E84B4050720BC050720BC050720C405072071
S214084E94C4050720CC050720CC050720D405072021
S214084EA4D4050720DC050720DC050720E4050720D1
S214084EB4E4050720EC050720EC050720F405072081
S214084EC4F4050720FC050720FC0507200406072030
S214084ED4040607200C0607200C06072014060720DD
S214084EE4140607201C0607201C060720240607208D
S214084EF4240607202C0607202C060720340607203D
S214084F04340607203C0607203C06072044060720EC
S214084F14440607204C0607204C060720540607209C
S214084F24540607205C0607205C060720640607204C
S214084F34640607206C0607206C06072074060720FC
S214084F44740607207C0607207C06072084060720AC
S214084F54840607208C0607208C060720940607205C
S214084F64940607209C0607209C060720A40607200C
S214084F74A4060720AC060720AC060720B4060720BC
S214084F84B4060720BC060720BC060720C40607206C
S214084F94C4060720CC060720CC060720D40607201C
S214084FA4D4060720DC060720DC060720E4060720CC
S214084FB4E4060720EC060720EC060720F40607207C
S214084FC4F4060720FC060720FC060720040707202B
S214084FD4040707200C0707200C07072014070720D8
S214084FE4140707201C0707201C0707202407072088
S214084FF4240707202C0707202C0707203407072038
S214085004340707203C0707203C07072044070720E7
S214085014440707204C0707204C0707205407072097
S214085024540707205C0707205C0707206407072047
S214085034640707206C0707206C07072074070720F7
S214085044740707207C0707207C07072084070720A7
S214085054840707208C0707208C0707209407072057
S214085064940707209C0707209C070720A407072007
S214085074A4070720AC070720AC070720B4070720B7
S214085084B4070720BC070720BC070720C407072067
S214085094C4070720CC070720CC070720D407072017
S2140850A4D4070720DC070720DC070720E4070720C7
S2140850B4E4070720EC070720EC070720F407072077
S2140850C4F4070720FC070720FC0707200408072026
S2140850D4040807200C0807200C08072014080720D3
S2140850E4140807201C0807201C0807202408072083
S2140850F4240807202C0807202C0807203408072033
S214085104340807203C0807203C08072044080720E2
S214085114440807204C0807204C0807205408072092
S214085124540807205C0807205C0807206408072042
S214085134640807206C0807206C08072074080720F2
S214085144740807207C0807207C08072084080720A2
S214085154840807208C0807208C0807209408072052
S214085164940807209C0807209C080720A408072002
S214085174A4080720AC080720AC080720B4080720B2
S214085184B4080720BC080720BC080720C408072062
S214085194C4080720CC080720CC080720D408072012
S2140851A4D4080720DC080720DC080720E4080720C2
S2140851B4E4080720EC080720EC080720F408072072
S2140851C4F4080720FC080720FC0807200409072021
S2140851D4040907200C0907200C09072014090720CE
S2140851E4140907201C0907201C090720240907207E
S2140851F4240907202C0907202C090720340907202E
S214085204340907203C0907203C09072044090720DD
S214085214440907204C0907204C090720540907208D
S214085224540907205C0907205C090720640907203D
S214085234640907206C0907206C090720000002008F
S208085244FFFFFFFF5D
S804080CC91E
