S0180000696D706C656D656E746174696F6E30312E73726563C5
S214080000B0AC07209D0B0800990B0800990B080058
S214080010990B0800990B0800990B080000000000CF
S214080020000000000000000000000000750E080038
S214080030990B080000000000F10E08002D0F0800BC
S214080040990B0800990B0800990B0800990B0800F3
S214080050990B0800990B0800990B0800990B0800E3
S214080060990B0800990B080000000000A109080079
S214080070B5090800C9090800DD09080000000000E5
S21408008000000000E9230800990B0800990B0800F7
S214080090990B0800990B0800990B0800990B0800A3
S2140800A0990B080000000000990B0800990B08003F
S2140800B0990B0800990B0800990B0800990B080083
S2140800C0990B0800990B0800990B0800990B080073
S2140800D0990B0800990B0800990B0800990B080063
S2140800E0990B0800990B0800990B0800990B080053
S2140800F0990B080010B5054C237833B9044B13B197
S2140801000448AFF300800123237010BD8809072038
S214080110000000002C38080008B5064B1BB106483E
S2140801200649AFF300800648036813B1054B03B1D0
S214080130984708BD000000002C3808008C090720E6
S2140801402C3808000000000010B51B20084B984704
S214080150084C204600210A46074B984720460021AF
S214080160064B984720460021054B984710BD00BF10
S214080170D90A080000000840310B08004D0B08009B
S2140801805D0B0800F8B5044609480021094B984756
S2140801902A2707FB04F7064E0025074C3046294653
S2140801A0A047B842FAD302480021044B9847F8BD46
S2140801B000000840550B0800650B08005D0B08009A
S2140801C070B4244A10231361C2F8A03020231361A8
S2140801D0C2F8A030204B4FF080611961C3F8A01018
S2140801E01E494FF480430B61C1F8A0304FF400431A
S2140801F04B61C1F8A0301A4B02245C61C3F8A040DA
S21408020008205861C3F8A0004FF400755D61C3F874
S214080210A0504FF480655D61C3F8A0500425556171
S214080220C2F8A05001265E61C3F8A0605D61C3F8FD
S214080230A05040255D61C3F8A05080234B61C1F8EB
S214080240A0305461C2F8A0405061C2F8A00070BC4B
S214080250704700BF00120E4000100E40000E0E4001
S21408026000140E4038B5034C10252563024B9847FA
S214080270656338BD00120E408501080038B5034C8A
S21408028020252563024B9847656338BD00120E404B
S2140802908501080010B50C46044B98472046044BC9
S2140802A0984741F28240034B984710BD6502080004
S2140802B07D02080085010800F8B53D4AD2F83CC022
S2140802C03C4BD3F83CE0DF6BDE6BDD6B3A49CC6B1E
S2140802D0CCF3C03CCEF3400E0CEB4E0EC7F3C00773
S2140802E00EEB8707C6F3402607EBC606C5F3802540
S2140802F006EB0515C4F3800405EB44142F4D2C605B
S2140803004FF080662E4D2E63D3F83CE0DF6BDE6B35
S214080310D56BCB6BC96B0EF0010EC7F380070EEBDF
S2140803204707C6F3801607EB8606C5F3C01506EB27
S214080330C505C3F3400305EB0313C1F3C00103EB84
S2140803404111204B19604FF4804313631E4B1B6802
S2140803501E4A13601E4A13600C1B204400280ADD40
S2140803601C4A126802FB00F0191A184A1160184451
S214080370174A10600BE0002809DA164A126802FBD2
S21408038000F01918114A1160181A114A1060104B1B
S21408039018680E4B1968104B98474FF08062084B48
S2140803A05A634FF48042A3F500735A63F8BD00BF42
S2140803B0000E0E4000140E4000120E40B009072032
S2140803C000100E40A409072030010720A8090720BE
S2140803D0AC0907202C01072095020800F0B583B069
S2140803E00C4B9847ADF806000B4B4FF000621A61AD
S2140803F0C3F8A02000241F461646084D0CB13E63DD
S21408040000E07E63E443E4B20DF106006421A847E9
S214080410F4E700BF2919080000100E407D1B0800ED
S21408042070B582B00E4B98470E4B9847ADF806004D
S2140804300D4C0E4E0E4D2368092B05DC40F2DC50A1
S21408044001460C4B984704E00020B0474FF47A70FA
S214080450A8470DF106006421074B9847EBE700BF55
S214080460C101080029190800B4090720B9020800C4
S214080470151C0800950208007D1B080070B50022B0
S214080480114C124E124DE36B13F4000F05D05AB9F7
S21408049030460021A847012206E0E36B13F4000F5C
S2140804A0F1D1002AEFD003E0E36B13F4000FEAD192
S2140804B0064C20460021074B984705462046002153
S2140804C0054B9847284670BD00120E4000000840AD
S2140804D0550B0800650B08005D0B0800054B4FF42C
S2140804E080021A61C3F8A0204FF400025A61C3F8CC
S2140804F0A020704700120E402DE9F04782B01A4B34
S2140805009847ADF80600194B9847194E4FF48007E0
S214080510BA46DFF87490DFF8748011A5D5E900456F
S214080520C6F830A042F21070C8477763114B984758
S21408053088FB0023C017C0EBE3000F4B9847224602
S2140805402B46DFF84CC0E0470C4B98470C4B18601E
S2140805500DF1060064210B4B9847E1E7AFF30080E6
S2140805609A99999999194D4029190800DD040800A7
S21408057000120E407D040800A9270800992C0800E0
S214080580B40907207D1B080085010800310CC3301C
S214080590C92A0800AFF3008010B50E480E4B9847DE
S2140805A000203E210D4B98470D4CA0470028FCD054
S2140805B00C4B98470C4A0D4B9A620D4CA0470028E6
S2140805C0FCD010200B4B98470B4B98470148024B22
S2140805D0984710BD00BD0105A5000720550A08006C
S2140805E0A90A0800B90A0800013F0D2000060E40B7
S2140805F0C90A0800F10908004D0C08002DE9F04F5B
S21408060083B005469046002A47D04E1C254F264CF8
S214080610DFF8A8A0DFF894B006F1FF3900230193AD
S214080620224B9D4206D158464946214B98470028FA
S214080630F9D119E01F4B9D4209D19946484601A9B0
S214080640A0470028FAD1019B06F8013C17E01A4B90
S2140806509D4209D19946484601A9A0470028FAD1E3
S214080660019B06F8013C14E0554508D1504601A9FF
S214080670A0470028FAD1019B06F8013C09E0BD42D4
S21408068007D1384601A9A0470028FAD1019B06F8E9
S214080690013C0136B8F10108BED1002003B0BDE820
S2140806A0F08F00BF00400A40810B080000080E408B
S2140806B06D0B08000080094000C0094000000A4091
S2140806C010B54FF40042134B5A600B20124CA0474B
S2140806D00C20A0470D20A0470E20A0473B204FF037
S2140806E060510E4CA04755204FF06051A047562049
S2140806F04FF06051A04768200949A0475C20094987
S214080700A04709484FF440714FF00062074B9847DE
S21408071010BD00BF501A0E40D90A0800D5070800B9
S2140807207900002801000028000E0E40A9080800DD
S2140807304264B1F1805F16D004D8C1B1B1F1006F40
S2140807400AD013E0B1F1405F11D0B1F1605F0ED06E
S214080750B1F1205F0AD17047036F016F0B4023EA9F
S2140807600203036702E0036F1343036742607047A0
S214080770416412F0010F14BF4166016612F00A0FB9
S21408078014BF0162416212F0020F02D0C0F8801056
S21408079004E012F0080F18BFC0F884104161016029
S2140807A0704700BF10B44164019C0CB1416600E07C
S2140807B001660BB1016500E041650AB1016300E01E
S2140807C04163016101605DF8044B7047C06C704777
S2140807D0806C704770B582B00D46440904F5001465
S2140807E004F20774660201F0F044B4F1205F30D0DA
S2140807F006D8B4F1006F0AD0B4F1805F18D049E08B
S214080800B4F1405F30D0B4F1605F2DD042E000F024
S2140808101F000124844030464FF0006122461F4BDB
S214080820984715F0010F14BF74663466012032E04D
S21408083000F01F000124844030464FF080512246C5
S214080840164B984715F0010F14BF746634660120DE
S21408085021E000F01F010124304604FA01F12A467F
S2140808600F4B9847204616E000F01F01012405F0BC
S214080870605205EA04030093304604FA01F1B2F127
S214080880605F14BF00220122C5F38003054DA84708
S214080890204600E0002002B070BD00BF3107080007
S2140808A071070800A5070800F0B583B007460E468E
S2140808B0154602F0F044B4F1205F26D006D8B4F10D
S2140808C0006F0AD0B4F1805F13D034E0B4F1405F13
S2140808D01FD0B4F1605F1CD02DE04FF000613246A7
S2140808E0164B984715F0010F14BF7E663E6601202A
S2140808F022E04FF080513246104B984715F0010F12
S21408090014BF7E663E66012016E00D4B9847012010
S21408091012E005F0605205F00103009338463146B0
S214080920B2F1605F14BF00220122C5F38003054CB4
S214080930A047012000E0002003B0F0BD3107080002
S21408094071070800A50708002DE9F04104460E4681
S214080950104B9847054620460F4B9847054017D03A
S2140809600E4F07F10C046C3754F80C3CB3420AD10E
S21408097054F8081C294206D023683046984754F88D
S214080980083C25EA0305BC4202D01034002DEBD102
S214080990BDE8F081CD070800D1070800B809072090
S2140809A008B502480B21024B984708BD000E0E40BA
S2140809B04909080008B502480C21024B984708BDAB
S2140809C000100E404909080008B502480D21024BE0
S2140809D0984708BD00120E404909080008B50248A5
S2140809E00E21024B984708BD00140E40490908001E
S2140809F0174B1A6B22F07002104318639B6E13F0A5
S214080A00080F09D14FF40063114901E0013B19D0E2
S214080A108A6E12F0080FF9D00D4B1A6B22F00302FB
S214080A2042F002021A63986E10F008000CD14FF4D8
S214080A300063074901E0013B08D08A6E12F0080FF0
S214080A40F9D0704701207047002070470120704792
S214080A5000060E4038B111490B6A114A1A40114B6C
S214080A6013430B6270470D4A136A23F45C1323F092
S214080A70030343F45C1343F00103090289B20B43F2
S214080A801362936E13F0010FFBD0044A136A43F007
S214080A909B7343F480331362704700BF00060E4012
S214080AA0FCFFC8FE02003701024B986E00F4803047
S214080AB0704700BF00060E404FF00052014B9A6286
S214080AC0704700BF00060E40024B986E00F002000A
S214080AD0704700BF00060E402C2820D81F280DD8C7
S214080AE0124B9A69012383401A40934219D0012376
S214080AF003FA00F00D4B1861002070470B4BD3F833
S214080B0008212038012383401A4093420BD0012342
S214080B1003FA00F0054BC3F80001002070470120D7
S214080B207047002070470020704700BF00060E4040
S214080B3010B489014318022444504FF0FF319962DB
S214080B40196A5A605DF8044B704700BFC0F8C410B5
S214080B50704700BF89010523435070478901022367
S214080B604350704700EB811108697047436913F0DA
S214080B70010F1DBF83690B7000200120704700BF5E
S214080B80436913F0010F05D08369C3F308030B60AC
S214080B900020704701207047FEE700BF10B51E4BC7
S214080BA01E4A9A4203D01E4B1B4A9A4204D31D4B38
S214080BB01D4A9A420FD31AE01C4B1D4CE41A24F027
S214080BC0030404340023144814495A581A500433AA
S214080BD0A342FAD1EBE7174B1749C91A21F00301CC
S214080BE01A1D1144002243F8042F8B42FBD1134AE6
S214080BF022F0604323F07F0311498B6002F16042C4
S214080C00B2F5801F03D28A6842F000528A600D4B04
S214080C1098470D4B9847FEE7000007202C38080039
S214080C2084090720B08C07208809072004000720BD
S214080C308709072084090720AB8C072000000800D6
S214080C4000ED00E0E92C0800552408003E4B1B6B1D
S214080C5003F00303032B5FD8DFE803F0020E2B2B09
S214080C603A4B5B6913F0800F14BF4FF400424FF401
S214080C70FA42374B1A604FE0334B1B6A13F0807FFB
S214080C8003D0344A324B1A6046E0334A304B1A6077
S214080C902D4B1B6A03F07003102B02D0202B04D0B8
S214080CA03AE02E4A2A4B1A6036E02A4A284B1A603F
S214080CB032E0254B1B6A13F0807F03D0254A244B6D
S214080CC01A6012E0244A224B1A601F4B1B6A03F074
S214080CD07003102B02D0202B04D006E01F4A1C4BB2
S214080CE01A6002E01B4A1A4B1A60174B1B6B03F07C
S214080CF00303022B0DD1144B986A996A144BC0F360
S214080D000A401A6800FB0222C9B2B2FBF1F21A6066
S214080D1002E0134A0E4B1A600B4B1B6B03F0700372
S214080D20702B07D10A4B1A680E49A1FB020252081B
S214080D301A607047044B196B054BC1F302111A6809
S214080D40CA401A60704700BF00060E40101A0E40D0
S214080D5038010720001BB70000093D0000127A0082
S214080D60001C4E0EABAAAAAA094B1B6813B9094A5F
S214080D70074B1A60064B1B681A180749914204DB92
S214080D801046034A1060184670474FF0FF30704709
S214080D90280A0720B0AC0720FC7F082000F10803CB
S214080DA043604FF6FF720281C3600361002303604D
S214080DB0704700BF00230361704700BF43685A6846
S214080DC04A6042688A605A68916059604160086162
S214080DD0036801330360704710B40C884FF6FF733E
S214080DE09C4201D103690CE000F10803C26812882E
S214080DF092B2944205D35B685A68128892B29442BB
S214080E00F9D25A684A6091608B6059600861036835
S214080E10013303605DF8044B704700BF436882687F
S214080E209A60836842685A6003695A68824204BFB7
S214080E3082685A60002202611A68013A1A601868C5
S214080E40704700BF03480068006880F3088862B6E9
S214080E5000DF00BF08ED00E04FF0807340F8043C68
S214080E6040F8081C002340F80C3C40F8202C40387A
S214080E70704700BF064B19680868B0E8F00F80F3A3
S214080E8009884FF0000080F311884EF00D0E704769
S214080E90588B07204FF08052014B1A60704700BFEE
S214080EA004ED00E0EFF311804FF0A00181F3118804
S214080EB07047002008B5034B9847034B1A68013261
S214080EC01A6008BDA50E08003C01072080F31188AB
S214080ED0704700BF08B5044A1368013B136013B98E
S214080EE00020024B984708BD3C010720CD0E08009D
S214080EF0EFF309800C4B1A6820E9F00F10602DE913
S214080F0008404FF0A00080F3118800F0EBFE4FF089
S214080F10000080F31188BDE8084019680868B0E842
S214080F20F00F80F309887047588B072008B54FF0F4
S214080F308052054B1A60054B9847054B984700208A
S214080F40044B984708BD00BF04ED00E0A50E080056
S214080F5049190800CD0E0800034A044B1A600722F8
S214080F60043B1A60704700BF1F48010014E000E009
S214080F7010B5094B1A6842F470021A601A6842F0F3
S214080F8070421A60054B98470024054B1C60054BB9
S214080F909847204610BD00BF20ED00E0590F080016
S214080FA03C010720450E080030B4134A13688342F4
S214080FB001D21A46FAE7114654681519854203D134
S214080FC0686804445460104642688418A3420CD1EA
S214080FD00A4C24689C4206D05B681A4442600B6838
S214080FE01B68036002E0036000E00360814218BFEC
S214080FF0086030BC704700BF348A0720308A072054
S21408100038B50446284B9847284B1B689BB9284A8E
S214081010284B13600021516047F6F0729818234D4C
S214081020286047F6F475595199505A601860224B53
S2140810301A68103A1A60002C2DD004F1100212F02B
S214081040070F1CBF22F007020832511E47F6FE7330
S214081050994222D816490C6863689A4204D92368CC
S21408106013B121461C46F7E7104B1B689C4216D066
S2140810700D68103523680B6063689B1A202B04D90B
S214081080A018436062600D4B98470B4B1A6861685E
S214081090521A1A6004E0002502E0002500E0002548
S2140810A0074B9847284638BD19190800308A072084
S2140810B0348A0720300A072040010720A90F0800B5
S2140810C0751A080010B5044668B1074B9847074BD1
S2140810D0196854F80C2C0A441A60A4F11000044B42
S2140810E09847044B984710BD191908004001072077
S2140810F0A90F0800751A080010B50446036C3BB91A
S21408110003681BBB4068134B9847002363601DE0C9
S2140811106AB980681A46104B9847A268236C13442D
S214081120A3606268934211D32368A3600EE0C06888
S2140811301A46094B9847226C5242E3681344E36008
S21408114021688B4202D263681A44E260A36B0133BB
S214081150A36310BD0D200800392D080038B50346D6
S21408116005685DB1026CC4681444C4604068844273
S21408117028BFDD600846D968014B984738BD00BFD0
S214081180392D0800F8B504461D4B9847A36C002B6C
S21408119012DD636A83B104F124061A4D1A4F01E082
S2140811A0636A4BB13046A84700B1B847A36C013B09
S2140811B0A364A36C002BF3DC4FF0FF33A364134B3C
S2140811C098470F4B9847636C002B12DD236983B151
S2140811D004F110060B4D0C4F01E023694BB1304665
S2140811E0A84700B1B847636C013B6364636C002B87
S2140811F0F3DC4FF0FF336364044B9847F8BD00BF39
S214081200B50E0800211E0800591F0800D50E080054
S21408121038B50D46044618B9164B984700BFFDE783
S214081220154B98472368226CE06B00FB02F01918F0
S21408123061600021A163A360821A1344E3604FF043
S214081240FF336364A36455B923697BB104F11000C6
S2140812500A4B9847012809D1094B984706E004F13C
S2140812601000084DA84704F12400A847064B9847E5
S214081270012038BDA50E0800B50E0800211E08007E
S214081280950E08009D0D0800D50E0800F8B50D4609
S2140812901746064688B150200E4B9847044660B15C
S2140812A005FB06F001300B4B9847206040B92046F6
S2140812B0094B984701E000BFFDE7084B9847FAE757
S2140812C0E663256420460121054B984784F84D704F
S2140812D02046F8BD01100800C5100800A50E080035
S2140812E0111208002DE9F04F85B08A469B46ADF8E6
S2140812F00620044618B9384B984700BFFDE709B9D9
S214081300036C1BB90027354E354D03E0324B984722
S21408131000BFFDE7B047A26BE36B9A4212D22046A5
S21408132051465A462F4B9847636A3BB104F124004E
S2140813302D4B9847012801D12C4B9847284B9847A6
S214081340012046E0BDF806301BB9254B984700201B
S2140813503FE01FB902A8264B98470127A847254B08
S2140813609847B047636CB3F1FF3F04BF002363643C
S214081370A36CB3F1FF3F04BF0023A364A84702A8E9
S2140813800DF106011C4B9847E8B9B047D4F83890D9
S214081390D4F83C80A847C1450FD104F11000BDF829
S2140813A00610164B98472046154B9847154B9847F6
S2140813B00028AFD10D4B9847ACE72046104B98470E
S2140813C0104B9847A6E720460D4B98470D4B984775
S2140813D0002005B0BDE8F08FA50E0800B50E080081
S2140813E0D50E0800F9100800211E0800950E080002
S2140813F0A51E080019190800CD1E0800751D08004E
S21408140085110800751A08002DE9F0410E461546A4
S2140814109846044618B91C4B984700BFFDE729B9FB
S214081420036C1BB1184B984700BFFDE7164B98474F
S2140814300746A26BE36B9A4218D2204631464246CC
S214081440124B9847A36CB3F1FF3F0AD1636A7BB18E
S21408145004F124000E4B984760B16DB101242C604E
S2140814600BE0A36C0133A364012406E0002404E027
S214081470012402E0012400E001243846054B984781
S2140814802046BDE8F08100BFA50E0800F910080048
S214081490211E0800CD0E08002DE9F04F85B08946BC
S2140814A09A46ADF80620044618B9464B984700BF3A
S2140814B0FDE709B9036C2BB90027434EDFF838B1AE
S2140814C0424D03E03F4B984700BFFDE7B047A36B8C
S2140814D0002B28D0E568204649463D4B9847BAF188
S2140814E0000F12D1A36B013BA363236813B9394BD2
S2140814F098476060236993B104F11000364B98470B
S21408150001280CD1354B984709E0E560636A33B18A
S21408151004F12400304B984708B1304B98472B4BC2
S214081520984701204BE0BDF806301BB9274B984773
S214081530002044E017B902A8D8470127A847284B37
S2140815409847B047636CB3F1FF3F04BF002363645A
S214081550A36CB3F1FF3F04BF0023A364A84702A807
S2140815600DF106011F4B984718BBB047D4F83880D2
S214081570A847B8F1000F16D1236823B9B0476068AA
S214081580194B9847A84704F12400BDF80610174BD6
S21408159098472046164B9847164B9847002895D1EB
S2140815A00E4B984792E72046114B9847114B9847A1
S2140815B08CE720460E4B98470E4B9847002005B000
S2140815C0BDE8F08FA50E0800B50E0800D50E080079
S2140815D05D110800651F0800211E0800950E08000A
S2140815E019190800CD1E0800911F0800751D08006F
S2140815F085110800751A0800A51E080038B50446A7
S2140816000D460D4B9847636CB3F1FF3F04BF0023AC
S2140816106364A36CB3F1FF3F04BF0023A364074BC6
S2140816209847A36B23B904F124002946044B98472E
S2140816302046044B984738BDB50E0800D50E08005E
S214081640D91D08008511080010B504460F4B1B6805
S21408165098800F4B1B889BB2984207D20D4B186890
S2140816600A4B196804310C4B984710BD0B4B186889
S214081670064B19680431084B9847094B1B889BB2E0
S2140816809C423CBF064B1C8010BD00BF588B0720F1
S214081690748B0720788B0720D90D0800548A0720FA
S2140816A0440107202DE9F84F0E4617469A460A9D2C
S2140816B0DDF83080814618B9624B984700BFFDE7D1
S2140816C0092D03D95F4B984700BFFDE750205E4BB6
S2140816D098470446002800F0B180B8F1000F40F0A3
S2140816E0A980B800584B9847206318B92046574B2E
S2140816F09847A3E0A521BA00554B984707F18047BD
S214081700013F236B03EB870323F0070B04F1340038
S214081710314610224F4B9847002384F84330092D52
S21408172034BF2E460926E662E664271D3846DFF8EB
S2140817307081C04704F11800C0472461C6F10A0644
S21408174026836462584649465246434B984720606B
S21408175010F0070F03D03B4B984700BFFDE70B9BE5
S21408176003B11C603D4B98473D4B1A6801321A601E
S2140817703C4B1B682BBB3B4B1C60394B1B68012B37
S21408178029D1394E06F1C809DFF8E0803046C0474F
S21408179014364E45FAD1DFF80C914846334EB0471A
S2140817A0DFF804814046B0473148B0473148B04773
S2140817B03148B047314BC3F80090314BC3F800802E
S2140817C009E0304B1B6833B9264B1B68DB6A9D4221
S2140817D024BF244B1C60E36A2B4A1268934284BFDA
S2140817E0294A1360294A1168616401311160284A40
S2140817F01268934284BF264A136003EB83031A4891
S21408180000EB83003946234B9847234B98471D4BDC
S2140818101B684BB1134B1B68DB6A9D4207D91F4BED
S21408182098470120BDE8F88F0120BDE8F88F012011
S214081830BDE8F88FC0F8308040465BE74FF0FF30D1
S214081840BDE8F88FA50E080001100800C5100800AE
S214081850252E0800B92E0800590E0800B50E0800F7
S214081860988B0720588B07208C8A07209D0D080028
S2140818705C8B0720608A0720408A0720548A072046
S214081880788B0720588A07209C8B07207C8B07209C
S214081890888A0720BD0D0800D50E0800950E08009A
S2140818A0B50D0800808B0720748A072010B584B011
S2140818B0002300930193029303930F480F494FF4B4
S2140818C080720F4CA04701280ED10E4B984701286E
S2140818D00AD10D4B984701220C4B1A6000220C4B7C
S2140818E01A800C4B984704E018B9074B984700BF76
S2140818F0FDE704B010BD00BF611C0800D037080023
S214081900A516080009210800A50E0800588A072011
S214081910748B0720710F0800024B1A6801321A6090
S214081920704700BF548B072010B5044B9847044BEC
S2140819301C88A4B2034B9847204610BDB50E080075
S214081940748B0720D50E08002DE9F0413D4B1B6827
S214081950002B71D13C4B1A88013292B21A801B8830
S2140819609BB203BB394B1B681B681BB1384B9847A7
S21408197000BFFDE7354B1968364A106818601160D5
S214081980354A1168013111601B681B6823B94FF688
S214081990FF72324B1A8006E02C4B1B68DB68DB684C
S2140819A09A882E4B1A80284B1A8892B22B4B1B8883
S2140819B09BB29A4244D3254B1B681B6853B1234BF2
S2140819C01B68DB68DC68A3881F4A128892B29342B9
S2140819D014D90FE04FF6FF72204B1A80BDE8F0814D
S2140819E01A4B1B68DB68DC68A388174A128892B211
S2140819F0934207D9194A1380BDE8F081184E194F4B
S214081A00DFF86C80251D2846B047A36A13B104F199
S214081A101800B047E36A3A68934288BF3B6003EB16
S214081A20830008EB800029460F4B9847074B1B6836
S214081A301B68002BD4D1CDE70C4B1A6801321A600C
S214081A40BDE8F081548B0720748B0720548A072042
S214081A50A50E0800788B0720708B07204401072006
S214081A601D0E0800888A0720BD0D08003C8A07203E
S214081A708C8A07202DE9F843314B1B681BB9314B7C
S214081A80984700BFFDE7304B98472D4B1A68013A38
S214081A901A601B68002B48D12C4B1B68002B46D0BD
S214081AA00025DFF8D4802A4F2A4E1DE0D8F80C30DF
S214081AB0DC6804F11800B84704F104094846B8473A
S214081AC0E36A3268934288BF336003EB8303224895
S214081AD000EB83004946214B9847214B1B68E26A76
S214081AE0DB6A9A4228BF0125D8F80030002BDDD1E2
S214081AF01C4B1B6863B11B4B1B687BB11A4D194CFA
S214081B00A8472368013B23602368002BF8D105E02B
S214081B10012D03D0154B1B68012B0AD10022134B4D
S214081B201A60134B9847012404E0002402E00024BE
S214081B3000E000240F4B98472046BDE8F88300BF16
S214081B40548B0720A50E0800B50E0800988B0720B2
S214081B501D0E0800888A07208C8A0720BD0D0800FD
S214081B60588B07203C8A072049190800948B0720C1
S214081B70950E0800D50E08005C8B072038B50C4675
S214081B80054618B91B4B984700BFFDE719B9194B0E
S214081B90984700BFFDE7184B98472B881C44A4B20B
S214081BA0164A128892B2934208D9A3421ED9134BFA
S214081BB01B889BB22C809C4210D907E0A34213D8FE
S214081BC00E4B1B889BB29C420ED80FE00C4B186835
S214081BD004300C4B984720460B4B98470B4B9847BE
S214081BE030B90B4B984738BD2C80EFE72C80F5E7CB
S214081BF038BD00BFA50E080019190800748B072009
S214081C00588B07201D0E080049160800751A08008C
S214081C10950E080010B5044680B10A4B98470A4B43
S214081C201B881C44A4B2094B18680430084B984714
S214081C302046084B9847084B984708B9074B9847DB
S214081C4010BD00BF19190800748B0720588B072091
S214081C501D0E080049160800751A0800950E08009B
S214081C6080B5154D154EDFF878801CE0144B984764
S214081C70144B1C68144B9847ACB1144B9847114B3F
S214081C80DB68DC68201D124B9847124B1A68013A2D
S214081C901A602B68013B2B600F4B9847206B0F4F41
S214081CA0B8472046B8472B68002BDFD13368012B8E
S214081CB0F9D9C047F7E700BF5C8A07208C8A072057
S214081CC019190800608A0720751A0800B50E08005A
S214081CD01D0E0800988B0720D50E0800C5100800B2
S214081CE0950E080008B51D4B1B685BB91C4B1B6896
S214081CF003EB83039B001B4AD358CBB9184B1B68CE
S214081D0053B905E00122184B1A6008BD1A682AB9AB
S214081D10164B984700BFFDE7114B12491A68013A5F
S214081D201A601A6802EB820251F82220002AEDD0C7
S214081D300B4B1B6803EB83030A4A02EB83035A68C0
S214081D4052685A6003F108018A4204BF52685A6012
S214081D505B68DA68064B1A6008BD00BF548B07201C
S214081D60888A07208C8A0720948B0720A50E0800EF
S214081D70588B072038B50C4618B90F4B984700BF44
S214081D80FDE70E4D296818310D4B98472868043032
S214081D900C4B98474FF6FF739C4205D129680A48B2
S214081DA004310A4B984738BD094B1888204480B23E
S214081DB0084B984738BD00BFA50E0800588B07206B
S214081DC0D90D08001D0E0800408A0720BD0D080022
S214081DD0748B07204916080038B50D4618B90A4B03
S214081DE0984700BFFDE7094C21681831084B98470B
S214081DF020680430074B9847074B1888284480B259
S214081E00064B984738BD00BFA50E0800588B07201C
S214081E10BD0D08001D0E0800748B07204916080023
S214081E2038B5C368DC681CB9164B984700BFFDE791
S214081E3004F118052846144B9847144B1B689BB9A1
S214081E40251D2846104B9847E36A114A12689342A4
S214081E5084BF0F4A136003EB83030E4800EB83002E
S214081E6029460D4B984703E00C4829460A4B9847E5
S214081E700B4B1B68E06ADB6A984234BF00200120DF
S214081E8038BD00BFA50E08001D0E0800548B07209D
S214081E90888A07208C8A0720BD0D08005C8B0720DF
S214081EA0588B072008B518B9054B984700BFFDE7BB
S214081EB0044A12680260044A1288828008BD00BF7D
S214081EC0A50E0800708B0720748B072038B50D46C2
S214081ED0044618B91A4B984700BFFDE719B9184BBE
S214081EE0984700BFFDE7174B98472B884FF6FF72B9
S214081EF093421CD0144A116822688A4205D0134AB5
S214081F00128892B2A188914213D9104A1188A288E1
S214081F10891A89B28B420ED90C49098889B2521A95
S214081F2013442B8020460A4B9847002404E00024DC
S214081F3002E0012400E00124064B9847204638BDFD
S214081F40A50E0800B50E0800708B0720748B0720B6
S214081F50A51E0800D50E08000122014B1A6070471E
S214081F60948B0720014B1868704700BF588B0720D2
S214081F70054B1B6833B1054B1B68002B14BF0220AA
S214081F800120704700207047588A0720548B072086
S214081F9038B5044600282ED0C36A174A1268D26A93
S214081FA0934228D2144A1268D26AC2F10A020283FD
S214081FB003EB8303114A02EB830342699A4216D164
S214081FC0051D28460E4B98470B4B1B68DB6AE362D9
S214081FD00C4A1268934284BF0A4A136003EB8303D1
S214081FE0064800EB83002946074B984738BD024B46
S214081FF01B68DB6AC36238BD588B07208C8A0720AB
S2140820001D0E0800888A0720BD0D080038B504464E
S214082010D0B1C26AC36C9A4216D0051D28460B4B2F
S2140820209847E36CE362C3F10A022283084A1268FF
S214082030934284BF064A136003EB8303054800EB0C
S21408204083002946044B984738BD00BF1D0E08007C
S214082050888A07208C8A0720BD0D080010B504461C
S2140820608180206191420BD8D31A018B9BB299428A
S21408207011D90B4B1868211D0A4B9847002010BD34
S2140820809A4201D2994208D2074B1868211D054B7F
S2140820909847002010BD012010BD012010BD00BFCC
S2140820A0D48B0720D90D0800A08B072070B50D4BE0
S2140820B098470D4B1B688BB90C4D28460C4EB047FD
S2140820C00C4C2046B0470C4B1D600C4B1C60052082
S2140820D00C2100220A4B9847034B1860094B984777
S2140820E070BD00BFB50E0800D08B0720A48B072054
S2140820F09D0D0800B88B0720A08B0720D48B0720DF
S2140821008D120800D50E080010B584B00B4B984702
S2140821100B4B1B6863B109230093002301930293BA
S2140821200393084808494FF40072084CA04718B9AA
S214082130074B984700BFFDE704B010BDAD20080068
S214082140D08B072069220800DC370800A51608008F
S214082150A50E080010B584B0104C2468D4B10191BF
S214082160ADF80820039073B90D4B984701280B4B20
S214082170186801A907BFBDF81820002300221346D7
S214082180084CA04707E0204601A91A460023064C3B
S214082190A04700E0002004B010BD00BFD08B072089
S2140821A0711F0800E5120800091408002DE9F04719
S2140821B082B08146244B98478046244B1B8883422E
S2140821C037D9234E234F27E0DA68B2F800A01FFA63
S2140821D08AFADB68DC68251D2846B847636A204605
S2140821E09847E369012B17D1238B53449BB2534579
S2140821F006D9A380246130682946174B98470BE018
S21408220000230093204619465246144CA04718B996
S214082210134B984700BFFDE733681A68002AD3D1E6
S214082220104A11680A48016013600123C9F8003093
S21408223002E00023C9F80030044BA3F800804046AB
S21408224002B0BDE8F08700BF29190800CC8B07202C
S214082250A08B07201D0E0800D90D08005521080080
S214082260A50E0800D48B07202DE9F04387B0514D02
S214082270DFF87081504B1B681A68002A00F09080BF
S214082280DB681E88B6B24D4B984703A84C4B984758
S2140822900746039B002B32D1864225D8494B9847E0
S2140822A0454B1B68DB68DC68201DC047E369012BCB
S2140822B015D1218B3144204689B23A463346424FDF
S2140822C0B84701280BD1002300932046194632460A
S2140822D03E4EB04718B93E4B984700BFFDE7636AC5
S2140822E0204698470DE00026F11B286889B2394B2E
S2140822F09847344B984720B9374B984701E0314BFD
S214082300984702A82E4B98470746344EDFF8B890F1
S2140823103EE0059C1CB1616909B1201DC0470399C0
S214082320022923D0032930D0002931D1BDF8103036
S214082330218B1944204689B23A46C847012827D136
S214082340636A20469847E369012B21D1228BBDF8A2
S21408235010301A44002300932046194692B21B4CAC
S214082360A047A8B91A4B984700BFFDE7BDF810303C
S21408237023831BB9164B984700BFFDE7F91820467C
S21408238089B23A463B46C84702E02046144B98476F
S214082390286803A900221346B0470028B9D169E780
S2140823A0064B984703A8064B98470746039B002BFF
S2140823B099D0A4E7D08B0720A08B0720191908000E
S2140823C0AD210800751A08005D2008005521080090
S2140823D0A50E0800FD150800950E080099140800BB
S2140823E0C51008001D0E080000B583B013480DF18F
S2140823F007010122124B984772B6BFF35F8F00227F
S214082400104B1A70104B1A7801321A700F4B1B7843
S2140824109DF807100E4AD1549B2B03D100220B4B74
S2140824201A7002E00133094A13700122054B1A702C
S214082430BFF35F8F62B603B05DF804FB0080094007
S214082440FD05080034010720758C0720748C0720CA
S214082450D88B072000B585B01C4B98471C4B98476F
S2140824601C4B98471C4B98471C4B98470B201C4CFA
S214082470A0470C20A0470D20A0470E20A047032306
S21408248000930024019402940394164816494FF4C6
S21408249080722346154DA84704230093019402949E
S2140824A00394134813494FF480722346A847012320
S2140824B000930194029403940F4810494FF48072D5
S2140824C02346A8470E4B9847FEE700BFC1060800FC
S2140824D099050800DD04080049010800C101080044
S2140824E0D90A080021040800E4370800A5160800E1
S2140824F0F9040800EC370800DD030800F837080080
S214082500AD18080081F0004102E000BF83F00043E8
S21408251030B54FEA41044FEA430594EA050F08BF71
S21408252090EA020F1FBF54EA000C55EA020C7FEA35
S214082530645C7FEA655C00F0E2804FEA5454D4EBB2
S2140825405555B8BF6D420CDD2C4480EA020281EA7C
S214082550030382EA000083EA010180EA020281EAB4
S2140825600303362D88BF30BD11F0004F4FEA013106
S2140825704FF4801C4CEA113102D0404261EB410115
S21408258013F0004F4FEA03334CEA133302D052429B
S21408259063EB430394EA050F00F0A780A4F1010457
S2140825A0D5F1200E0DDB02FA0EFC22FA05F2801891
S2140825B041F1000103FA0EF2801843FA05F3594177
S2140825C00EE0A5F120050EF1200E012A03FA0EFCF6
S2140825D028BF4CF0020C43FA05F3C01851EBE37120
S2140825E001F0004507D54FF0000EDCF1000C7EEB3D
S2140825F000006EEB0101B1F5801F1BD3B1F5001F7B
S2140826000CD349085FEA30004FEA3C0C04F1010499
S2140826104FEA445212F5800F80F09A80BCF1004FC2
S21408262008BF5FEA500C50F1000041EB045141EA44
S214082630050130BD5FEA4C0C404141EB010111F445
S214082640801FA4F10104E9D191F0000F04BF0146F0
S2140826500020B1FA81F308BF2033A3F10B03B3F1CE
S21408266020020CDA0C3208DD02F1140CC2F10C025E
S21408267001FA0CF021FA02F10CE002F11402D8BFBC
S214082680C2F1200C01FA02F120FA0CFCDCBF41EA88
S2140826900C019040E41AA2BF01EB0451294330BD57
S2140826A06FEA04041F3C1CDA0C340EDC04F1140434
S2140826B0C4F1200220FA04F001FA02F340EA03000B
S2140826C021FA04F345EA030130BDC4F10C04C4F151
S2140826D0200220FA02F001FA04F340EA0300294631
S2140826E030BD21FA04F0294630BD94F0000F83F47B
S2140826F0801306BF81F480110134013D4EE77FEA5E
S214082700645C18BF7FEA655C29D094EA050F08BFA9
S21408271090EA020F05D054EA000C04BF194610468A
S21408272030BD91EA030F1EBF0021002030BD5FEACE
S214082730545C05D14000494128BF41F0004130BDF6
S21408274014F580043CBF01F5801130BD01F000454A
S21408275045F0FE4141F470014FF0000030BD7FEABD
S214082760645C1ABF194610467FEA655C1CBF0B46B8
S214082770024650EA013406BF52EA033591EA030FCF
S21408278041F4002130BD00BF90F0000F04BF0021C7
S214082790704730B54FF4806404F132044FF00005FA
S2140827A04FF0000150E700BF90F0000F04BF002173
S2140827B0704730B54FF4806404F1320410F00045D9
S2140827C048BF40424FF000013EE700BF42004FEAD4
S2140827D0E2014FEA31014FEA02701FBF12F07F4351
S2140827E093F07F4F81F06051704792F0000F14BF4E
S2140827F093F07F4F704730B54FF4607401F0004592
S21408280021F0004120E700BF50EA010208BF7047E8
S21408281030B54FF000050AE050EA010208BF7047DD
S21408282030B511F0004502D5404261EB41014FF446
S214082830806404F132045FEA915C3FF4DCAE4FF04A
S21408284003025FEADC0C18BF03325FEADC0C18BF31
S214082850033202EBDC02C2F1200300FA03FC20FA82
S21408286002F001FA03FE40EA0E0021FA02F11444CF
S214082870C1E600BF70B54FF0FF0C4CF4E06C1CEAE4
S21408288011541DBF1CEA135594EA0C0F95EA0C0F59
S21408289000F0DEF82C4481EA030621EA4C5123EACC
S2140828A04C5350EA013518BF52EA033541F48011FB
S2140828B043F4801338D0A0FB02CE4FF00005E1FBAE
S2140828C002E506F00042E0FB03E54FF00006E1FBF8
S2140828D003569CF0000F18BF4EF0010EA4F1FF043B
S2140828E0B6F5007F64F5407404D25FEA4E0E6D417B
S2140828F046EB060642EAC62141EA55514FEAC5208C
S21408290040EA5E504FEACE2EB4F1FD0C88BFBCF507
S214082910E06F1ED8BEF1004F08BF5FEA500E50F1B8
S214082920000041EB045170BD06F0004646EA01017E
S21408293040EA020081EA0301B4EB5C04C2BFD4EBB0
S2140829400C0541EA045170BD41F480114FF0000EA9
S214082950013C00F3AB8014F1360FDEBF002001F017
S214082960004170BDC4F10004203C35DA0C341BDC91
S21408297004F11404C4F1200500FA05F320FA04F063
S21408298001FA05F240EA020001F0004221F0004197
S21408299010EBD37021FA04F642EB06015EEA430E0A
S2140829A008BF20EAD37070BDC4F10C04C4F120053A
S2140829B000FA04F320FA05F001FA04F240EA0200ED
S2140829C001F0004110EBD37041F100015EEA430EBE
S2140829D008BF20EAD37070BDC4F1200500FA05F2DE
S2140829E04EEA020E20FA04F301FA05F243EA02035D
S2140829F021FA04F001F0004121FA04F220EA02006C
S214082A0000EBD3705EEA430E08BF20EAD37070BDB1
S214082A1094F0000F0FD101F00046400041EB010191
S214082A2011F4801F08BF013CF7D041EA060195F073
S214082A30000F18BF704703F00046520043EB03032D
S214082A4013F4801F08BF013DF7D043EA060370471A
S214082A5094EA0C0F0CEA135518BF95EA0C0F0CD025
S214082A6050EA410618BF52EA4306D1D181EA03016B
S214082A7001F000414FF0000070BD50EA410606BF65
S214082A801046194652EA430619D094EA0C0F02D1AA
S214082A9050EA013613D195EA0C0F05D152EA0336EF
S214082AA01CBF104619460AD181EA030101F000410D
S214082AB041F0FE4141F470014FF0000070BD41F056
S214082AC0FE4141F4780170BD70B54FF0FF0C4CF430
S214082AD0E06C1CEA11541DBF1CEA135594EA0C0F4F
S214082AE095EA0C0F00F0A7F8A4EB050481EA030E9C
S214082AF052EA03354FEA013100F088804FEA033383
S214082B004FF0805545EA131343EA12634FEA022250
S214082B1045EA111545EA10654FEA00260EF0004111
S214082B209D4208BF964244F1FD0404F5407402D263
S214082B305B084FEA3202B61A65EB03055B084FEAF4
S214082B4032024FF480104FF4002CB6EB020E75EBF1
S214082B50030E22BFB61A754640EA0C005B084FEA19
S214082B603202B6EB020E75EB030E22BFB61A754696
S214082B7040EA5C005B084FEA3202B6EB020E75EBE1
S214082B80030E22BFB61A754640EA9C005B084FEA59
S214082B903202B6EB020E75EB030E22BFB61A754666
S214082BA040EADC0055EA060E18D04FEA051545EA55
S214082BB016754FEA06164FEAC30343EA52734FEAFE
S214082BC0C2025FEA1C1CC0D111F4801F0BD141EA77
S214082BD000014FF000004FF0004CB6E711F4801FDC
S214082BE004BF01430020B4F1FD0C88BFBCF5E06FBC
S214082BF03FF6AFAEB5EB030C04BFB6EB020C5FEACC
S214082C00500C50F1000041EB045170BD0EF0004E20
S214082C104EEA113114EB5C04C2BFD4EB0C0541EA52
S214082C20045170BD41F480114FF0000E013C90E64F
S214082C3045EA060E8DE60CEA135594EA0C0F08BF13
S214082C4095EA0C0F3FF43BAF94EA0C0F0AD150EA12
S214082C5001347FF434AF95EA0C0F7FF425AF1046A5
S214082C6019462CE795EA0C0F06D152EA03353FF4CD
S214082C70FDAE1046194622E750EA410618BF52EA4A
S214082C8043067FF4C5AE50EA41047FF40DAF52EA1E
S214082C9043057FF4EBAE12E74FEA410212F5001245
S214082CA015D211D56FF47873B3EB625212D94FEA86
S214082CB0C12343F0004343EA505311F0004F23FA70
S214082CC002F018BF404270474FF00000704750EAC5
S214082CD0013005D111F0004008BF6FF00040704782
S214082CE04FF00000704700BF70B50F4E0F4D761BB3
S214082CF0B61007D0043D0024013455F8043F984721
S214082D00A642F9D10A4E0B4D00F07EFD761BB61092
S214082D1008D0043D0024013455F8043F9847A642DD
S214082D20F9D170BD70BD00BF14380800143808000B
S214082D301C38080014380800844641EA000313F0DB
S214082D40030349D1403A23D30B6803604B684360BA
S214082D508B688360CB68C3600B6903614B6943610A
S214082D608B698361CB69C3610B6A03624B6A4362F2
S214082D708B6A8362CB6AC3620B6B03634B6B4363DA
S214082D808B6B8363CB6BC36340304031403ADBD2F6
S214082D9030320BD30B6803604B6843608B688360E4
S214082DA0CB68C36010301031103AF3D20C3205D31A
S214082DB051F8043B40F8043B043AF9D2043208D0F0
S214082DC0D2071CBF11F8013B00F8013B01D30B8862
S214082DD003806046704700BF082A13D38B07B1D01C
S214082DE010F00303AED0C3F10403D21ADB071CBFEE
S214082DF011F8013B00F8013BA4D331F8023B20F858
S214082E00023B9FE7043AD9D3013A11F8013B00F890
S214082E10013BF9D20B7803704B7843708B7883703C
S214082E2060467047F0B4840743D0541E002A3ED04C
S214082E30CDB2034603E0621E002C38D0144603F8D1
S214082E40015B9A07F7D1032C2AD9CDB245EA0525A6
S214082E500F2C45EA054515D9A4F110073F0903F1DB
S214082E60100606EB07161A46156055609560D5607D
S214082E701032B242F8D104F00F040137032C03EBEA
S214082E8007130DD91E462246043A032A46F8045B61
S214082E90FAD8221F22F003020432134404F0030473
S214082EA02CB1C9B21C4403F8011BA342FBD1F0BCE9
S214082EB0704714460346C6E740EA01039B0770B40A
S214082EC02AD1032A28D90C460346214654F8045B1F
S214082ED0A5F1013626EA050616F0803F05D1043A24
S214082EE0032A43F8045B2146EFD89AB10C78013AD6
S214082EF01C7001333CB16AB111F8014F013A03F86E
S214082F00014B002CF7D12AB11A44002103F8011B03
S214082F109342FBD170BC70470346E6E7024B13B1F9
S214082F20024800F005B87047000000003D2F080072
S214082F30014600200246034600F0ECBB38B5094DB2
S214082F40094C641BA41018BF05EB840505D0013C8A
S214082F5055F8043D9847002CF9D1BDE8384000F0F4
S214082F605DBC00BF283808002C380800F8B5234D8B
S214082F700F46044600F0B8FBAB685E6826F003060A
S214082F80F11B01F6EF7121F47F6121F00F01A1F525
S214082F908057B7F5805F07DB2046002100F0A8FBC6
S214082FA0AB683344984204D0204600F09FFB0020CC
S214082FB0F8BD2046794200F09BFB01300DD0104B3F
S214082FC0AA681968F61B46F001062046C91B566013
S214082FD0196000F08BFB0120F8BD2046002100F0A8
S214082FE087FBAB68C21A0F2ADEDD064D04492D683A
S214082FF042F00102401B5A600860D5E774050720B6
S214083000848C0720800907202DE9F0410D460646E6
S214083010002955D000F068FB55F8041CDFF870C18D
S214083020A5F1080421F00103E218DCF80800576847
S214083030904227F0030768D011F00101576032D09C
S2140830400021D0194068C00706D43B449068002980
S2140830504DD0D268C260906043F001026260E350CF
S214083060E1B9B3F5007F2DD35A0A042A69D898091E
S214083070383041000CEB810CDCF8082044496245E6
S21408308065D0516821F003018B4202D292689445BC
S214083090F7D1D368E360A2609C60D4603046BDE890
S2140830A0F04100F023BB55F8085C0CF10808641BD7
S2140830B0A0682B44404542D0E568C560A860C0E7D4
S2140830C0BDE8F081DB089A1001209040DCF8041077
S2140830D00CEBC3039A680143A260E360CCF80410C3
S2140830E030469C60D460BDE8F04100F0FFBA294D38
S2140830F0A842AED143F00102CCF81440CCF81040F8
S214083100E060A0606260E350C8E71F44CB0707D4BE
S21408311055F8081C641AE368A2680F44D3609A60DE
S2140831201D4B47F001021B6862609F42CCF80840BE
S214083130B4D31A4B30461968FFF718FFAEE70121DB
S2140831407FE7142A0BD802F15B00410092E7801053
S2140831500125854048681346284348609AE7542A5C
S21408316003D8180B6E30410084E7B2F5AA7F03D85F
S214083170D80B773041007DE740F254518A4203D895
S214083180980C7C30410075E7FC217E2072E700BF72
S214083190740507207C0507207C090720808C0720FB
S2140831A0024B0146186800F003B800BF70050720F8
S2140831B02DE9F04F01F10B05162D83B0064627D9E9
S2140831C035F0070527D4A94225D8304600F08CFAF2
S2140831D0B5F5FC7F26D2C14F4FEAD50C07EBCC03DA
S2140831E0DC689C4200F0D2816368E26823F003033F
S2140831F023445868A16840F00105CA6030469160CB
S2140832005D6000F073FA0834204603B0BDE8F08F1E
S2140832101025A942D9D900240C232046336003B0D0
S214083220BDE8F08F5FEA552C00F08980BCF1040FEA
S21408323000F260814FEA951C0CF1380C4FEA4C01FD
S214083240A64F07EB8101CC68A14205D10CE0002B04
S21408325079DAE468A14207D0626822F00302531BB9
S2140832600F2BF4DD0CF1FF3C0CF1010C9B4B3C6979
S21408327003F1080E744500F07E81616821F00301B1
S2140832804A1B0F2A00F36481002AC3F814E0C3F827
S21408329010E069DAB1F5007F80F03A81C9088A1033
S2140832A04FF0010808FA02F803EBC1015A6888686B
S2140832B048EA0202A060E1605A608C60C4604FEA87
S2140832C0AC030120984090425BD8024206D12CF00D
S2140832D0030C400002420CF1040CFAD007EBCC08B1
S2140832E04446E146E3689C4207D146E1002A80F25C
S2140832F05781DB689C4200F04081596821F0030141
S2140833004A1B0F2AF2DD1C4654F808CFD96845F048
S214083310010942F001081D44C3F804903046CCF871
S2140833200C10C1F808C07D613D61C5F80CE0C5F811
S21408333008E0C5F80480AA5000F0D8F964E77E21B2
S2140833404FF03F0C7CE722445068E368A16840F0E1
S2140833500105CB6030469960556000F0C7F908341F
S214083360204603B0BDE8F08F21444B68304643F052
S21408337001034B6000F0BAF90834204603B0BDE8F4
S214083380F08FBC68636823F00309A94504D3C5EB2E
S21408339009030F2B00F39180514B524A19681368A2
S2140833A005EB010A013304EB090B00F061810AF50D
S2140833B0805A0AF10F0A2AF47F6A2AF00F0A304662
S2140833C05146019200F094F9B0F1FF3F8046019A09
S2140833D000F00181834500F2FB80DFF814C1C34585
S2140833E0DCF800305344CCF8003000F04A8112680C
S2140833F03C4901321BBFCBEB080B5B44C1F800808D
S214083400CCF8003018F0070300F01481C3F1080266
S214083410C3F5805390440833C244CAF30B0ACAEB78
S214083420030A51463046CDF804C000F061F9431C43
S214083430DDF804C000F03581C8EB0002524442F0C3
S2140834400102DCF80030BC425344C7F80880CCF8C8
S2140834500030C8F80420DFF898A015D0B9F10F0F8F
S21408346040F2EB806168A9F10C0222F0070201F035
S214083470010142EA010E0520A1180F2AC4F804E04B
S2140834804860886000F21181174ABC6811688B4250
S21408349088BF1360154A11688B4288BF136062683C
S2140834A022F003029542C5EB020301D80F2B04DC79
S2140834B0304600F01BF90024A6E645F0010243F06A
S2140834C00103254462603046BD606B6000F00EF96B
S2140834D00834204603B0BDE8F08F00BF7405072007
S2140834E0808C0720800907207C8C0720788C072092
S2140834F0848C0720BCF1140F61D9BCF1540F00F27C
S2140835008F804FEA153C0CF16E0C4FEA4C0197E69B
S2140835104B0A042B58D9142B00F2AD8003F15B023A
S214083520500007EB80008368DFF8B881834200F01C
S2140835308A805A6822F00302914202D29B68984217
S214083540F7D1D9687A68E160A3608C60DC60B6E67B
S21408355045F0010742F001012544676030465D6189
S2140835601D61C5F80CE0C5F808E06960AA50083483
S21408357000F0BCF848E65A68A1E609F1010919F016
S214083580030F04F108047FF4ADAE2DE004F1080340
S2140835906469A34208BF0CF1020C3FF467AE23E649
S2140835A0194448681C4654F8082FDB6840F00105A3
S2140835B04D603046D3609A6000F098F824E60CF127
S2140835C05B0C4FEA4C013BE68A0938325000A8E704
S2140835D0BC423FF402AFBC68626822F0030261E7AF
S2140835E0D8F8008098457AD11CF0030FA8F1080394
S2140835F00CF1FF3CF4D17B6823EA00037B604000B3
S21408360098423FF6BEAE00283FF4BBAE0342CC4617
S2140836107FF464AE400003420CF1040CFAD05DE679
S214083620BCF5AA7F19D84FEAD53C0CF1770C4FEABF
S2140836304C0105E64FF48053EEE60123C8F8043043
S214083640444600222EE7921001209040D8F8042025
S21408365019460243C8F8042075E740F254539C45BF
S2140836601BD84FEA954C0CF17C0C4FEA4C01E7E569
S2140836700AF1100AA3E6542B1FD80A0B6E32500024
S2140836804FE7CBF30B0100297FF4B1AE0AEB090133
S214083690BA6841F001015160F6E6FC214FF07E0C55
S2140836A0CEE501224FF0000ACBE604F108013046C9
S2140836B0FFF7AAFCDAF80030E6E6B3F5AA7F03D8E7
S2140836C0CA0B773250002CE740F25452934203D884
S2140836D08A0C7C32500024E7FC207E2221E77B6897
S2140836E08DE700BF74050720704700BF704700BF0E
S2140836F038B5074C0023054608462360FDF734FB1B
S214083700431C00D038BD2368002BFBD02B6038BD87
S214083710AC8C0720F0B5274C85B026680746D6F847
S2140837204841002C40D065681F2D1EDD224818B978
S2140837304FF0FF3005B0F0BD4FF4C8700391029209
S2140837400193FFF72DFD03990446029A019B002872
S214083750EED0D6F848510020256060600546C6F8C9
S2140837604841C4F88801C4F88C013FB96B1C002096
S2140837700235636044F8251005B0F0BD0126AE405A
S21408378004EB8500C0F88820D4F88821022F42EA86
S2140837900602C4F88821C0F80831E7D1D4F88C317D
S2140837A01E43C4F88C61E1E706F5A674C6F84841DE
S2140837B0B9E700BF04380800A131080025730909D5
S2140837C025630925750925750925750D0A00000064
S2140837D049444C45000000000D0A0000546D722054
S2140837E0537663004D6F746F72000000536F756EEA
S2140837F06473656E736F7200426C494E4B0000002E
S2140838004300000048010720F8B500BFF8BC08BC14
S2140838109E4670471D2F080019010800F8B500BF1E
S210083820F8BC08BC9E467047F50008007F
S21408382C4FF48063204A136002F5007213601F4B36
S21408383C1B6A13F0807F07D11D4A1C4B1A621A4666
S21408384C936E13F0010FFBD01A4A184B1A621A46DD
S21408385C936E13F4803FFBD0144B1A6B22F00302C2
S21408386C42F001021A631A46936E13F0080FFBD047
S21408387C114A0E4B9A621A46936E13F0020FFBD03F
S21408388C11220A4B1A631A46936E13F0080FFBD0D4
S21408389C1222064B1A631A46936E13F0080FFBD0C7
S2140838AC064A074B1A607047000A0E4000060E4080
S2140838BC0908370009083701013F0D2000BD01052E
S2140838CC380107201B4B984206D800231A4A136067
S2140838DC02F5007213607047184B984207D84FF4DD
S2140838EC8073154A136002F5007213607047144B08
S2140838FC984207D84FF400730F4A136002F500720B
S21408390C136070470F4B984207D84FF440730A4A17
S21408391C136002F50072136070470B4B984294BF05
S21408392C4FF480634FF4A063034A136002F50072E9
S21408393C13607047BFEA2101000A0E407FF0FA02B6
S21408394CFF8FD003FFB3C4047F4A5D050400000054
S21408395C720600000100000000093D00AAAAAAAAE7
S21408396C00800000FFFF0000000000003404072061
S21408397C9C04072004050720000000000000000037
S21408398C000000000000000000000000000000001E
S21408399C00000000000000000000000000380800CE
S2140839AC00000000000000000000000000000000FE
S2140839BC00000000000000000000000000000000EE
S2140839CC00000000000000000000000000000000DE
S2140839DC00000000000000000000000000000000CE
S2140839EC00000000000000000000000000000000BE
S2140839FC00000000000000000000000000000000AE
S214083A0C000000000000000000000000000000009D
S214083A1C01000000000000000E33CDAB34126DE63A
S214083A2CECDE05000B0000000000000000000000A3
S214083A3C000000000000000000000000000000006D
S214083A4C000000000000000000000000000000005D
S214083A5C000000000000000000000000000000004D
S214083A6C000000000000000000000000000000003D
S214083D9C48010720000000000000000074050720FA
S214083DAC740507207C0507207C050720840507205A
S214083DBC840507208C0507208C050720940507200A
S214083DCC940507209C0507209C050720A4050720BA
S214083DDCA4050720AC050720AC050720B40507206A
S214083DECB4050720BC050720BC050720C40507201A
S214083DFCC4050720CC050720CC050720D4050720CA
S214083E0CD4050720DC050720DC050720E405072079
S214083E1CE4050720EC050720EC050720F405072029
S214083E2CF4050720FC050720FC05072004060720D8
S214083E3C040607200C0607200C0607201406072085
S214083E4C140607201C0607201C0607202406072035
S214083E5C240607202C0607202C06072034060720E5
S214083E6C340607203C0607203C0607204406072095
S214083E7C440607204C0607204C0607205406072045
S214083E8C540607205C0607205C06072064060720F5
S214083E9C640607206C0607206C06072074060720A5
S214083EAC740607207C0607207C0607208406072055
S214083EBC840607208C0607208C0607209406072005
S214083ECC940607209C0607209C060720A4060720B5
S214083EDCA4060720AC060720AC060720B406072065
S214083EECB4060720BC060720BC060720C406072015
S214083EFCC4060720CC060720CC060720D4060720C5
S214083F0CD4060720DC060720DC060720E406072074
S214083F1CE4060720EC060720EC060720F406072024
S214083F2CF4060720FC060720FC06072004070720D3
S214083F3C040707200C0707200C0707201407072080
S214083F4C140707201C0707201C0707202407072030
S214083F5C240707202C0707202C07072034070720E0
S214083F6C340707203C0707203C0707204407072090
S214083F7C440707204C0707204C0707205407072040
S214083F8C540707205C0707205C07072064070720F0
S214083F9C640707206C0707206C07072074070720A0
S214083FAC740707207C0707207C0707208407072050
S214083FBC840707208C0707208C0707209407072000
S214083FCC940707209C0707209C070720A4070720B0
S214083FDCA4070720AC070720AC070720B407072060
S214083FECB4070720BC070720BC070720C407072010
S214083FFCC4070720CC070720CC070720D4070720C0
S21408400CD4070720DC070720DC070720E40707206F
S21408401CE4070720EC070720EC070720F40707201F
S21408402CF4070720FC070720FC07072004080720CE
S21408403C040807200C0807200C080720140807207B
S21408404C140807201C0807201C080720240807202B
S21408405C240807202C0807202C08072034080720DB
S21408406C340807203C0807203C080720440807208B
S21408407C440807204C0807204C080720540807203B
S21408408C540807205C0807205C08072064080720EB
S21408409C640807206C0807206C080720740807209B
S2140840AC740807207C0807207C080720840807204B
S2140840BC840807208C0807208C08072094080720FB
S2140840CC940807209C0807209C080720A4080720AB
S2140840DCA4080720AC080720AC080720B40807205B
S2140840ECB4080720BC080720BC080720C40807200B
S2140840FCC4080720CC080720CC080720D4080720BB
S21408410CD4080720DC080720DC080720E40807206A
S21408411CE4080720EC080720EC080720F40807201A
S21408412CF4080720FC080720FC08072004090720C9
S21408413C040907200C0907200C0907201409072076
S21408414C140907201C0907201C0907202409072026
S21408415C240907202C0907202C09072034090720D6
S21408416C340907203C0907203C0907204409072086
S21408417C440907204C0907204C0907205409072036
S21408418C540907205C0907205C09072064090720E6
S21408419C640907206C0907206C0907200000020038
S2080841ACFFFFFFFF06
S804080B9D4B
